{
  "_format": "hh-sol-artifact-1",
  "contractName": "UniversalReceiverDelegateUP",
  "sourceName": "contracts/deps/UniversalReceiverDelegateUP.sol",
  "abi": [
    {
      "inputs": [
        {
          "internalType": "bytes",
          "name": "invalidValue",
          "type": "bytes"
        },
        {
          "internalType": "uint256",
          "name": "invalidValueLength",
          "type": "uint256"
        }
      ],
      "name": "InvalidLSP5ReceivedAssetsArrayLength",
      "type": "error"
    },
    {
      "inputs": [
        {
          "internalType": "bytes4",
          "name": "interfaceId",
          "type": "bytes4"
        }
      ],
      "name": "supportsInterface",
      "outputs": [
        {
          "internalType": "bool",
          "name": "",
          "type": "bool"
        }
      ],
      "stateMutability": "view",
      "type": "function"
    },
    {
      "inputs": [
        {
          "internalType": "address",
          "name": "sender",
          "type": "address"
        },
        {
          "internalType": "uint256",
          "name": "value",
          "type": "uint256"
        },
        {
          "internalType": "bytes32",
          "name": "typeId",
          "type": "bytes32"
        },
        {
          "internalType": "bytes",
          "name": "data",
          "type": "bytes"
        }
      ],
      "name": "universalReceiverDelegate",
      "outputs": [
        {
          "internalType": "bytes",
          "name": "result",
          "type": "bytes"
        }
      ],
      "stateMutability": "nonpayable",
      "type": "function"
    }
  ],
  "bytecode": "0x608060405234801561001057600080fd5b5061276a806100206000396000f3fe608060405234801561001057600080fd5b50600436106100365760003560e01c806301ffc9a71461003b578063a245bbda1461006b575b600080fd5b610055600480360381019061005091906118c7565b61009b565b604051610062919061190f565b60405180910390f35b61008560048036038101906100809190611b3a565b6100fc565b6040516100929190611c45565b60405180910390f35b600063a245bbda60e01b7bffffffffffffffffffffffffffffffffffffffffffffffffffffffff1916827bffffffffffffffffffffffffffffffffffffffffffffffffffffffff191614806100f557506100f482610114565b5b9050919050565b606061010a8585858561017e565b9050949350505050565b60007f01ffc9a7000000000000000000000000000000000000000000000000000000007bffffffffffffffffffffffffffffffffffffffffffffffffffffffff1916827bffffffffffffffffffffffffffffffffffffffffffffffffffffffff1916149050919050565b60607f40b8bec57d7b5ff0dbd9e9acd0a47dfeb0101e1a203766f5ccab00445fbf39e960001b8314806101d357507fdbe2c314e1aee2970c72666f2ebe8933a8575263ea71e5ff6a9178e95d47a26f60001b83145b8061020057507f3724c94f0815e936299cca424da4140752198e0beb7931a6e0925d11bc97544c60001b83145b8061022d57507fc7a120a42b6057a0cbed111fbbfbd52fcd96748c04394f77fc2c3adbe0391e0160001b83145b8061025a57507f3ca9f769340018257ac15b3a00e502e8fb730d66086f774210f84d0205af31e760001b83145b8061028757507f09aaf55960715d8d86b57af40be36b0bfd469c9a3643445d8c65d39e27b4c56f60001b83145b156102995761029685846102a1565b90505b949350505050565b606060008373ffffffffffffffffffffffffffffffffffffffff163b14156102da576040518060200160405280600081525090506106ea565b60003373ffffffffffffffffffffffffffffffffffffffff16638da5cb5b6040518163ffffffff1660e01b815260040160206040518083038186803b15801561032257600080fd5b505afa158015610336573d6000803e3d6000fd5b505050506040513d601f19601f8201168201806040525081019061035a9190611c7c565b905061036d8163c403d48f60e01b6106f0565b61038957604051806020016040528060008152509150506106ea565b60008173ffffffffffffffffffffffffffffffffffffffff1663d4b839926040518163ffffffff1660e01b815260040160206040518083038186803b1580156103d157600080fd5b505afa1580156103e5573d6000803e3d6000fd5b505050506040513d601f19601f820116820180604052508101906104099190611c7c565b90508073ffffffffffffffffffffffffffffffffffffffff163373ffffffffffffffffffffffffffffffffffffffff16146104575760405180602001604052806000815250925050506106ea565b6000806000806104668861081b565b9350935093509350600061047d838b60601b610a62565b905060003373ffffffffffffffffffffffffffffffffffffffff166354f6127f836040518263ffffffff1660e01b81526004016104ba9190611cb8565b60006040518083038186803b1580156104d257600080fd5b505afa1580156104e6573d6000803e3d6000fd5b505050506040513d6000823e3d601f19601f8201168201806040525081019061050f9190611d43565b9050851561058d57600060a01b73ffffffffffffffffffffffffffffffffffffffff19168161053d90611dea565b73ffffffffffffffffffffffffffffffffffffffff1916146105785760405180602001604052806000815250985050505050505050506106ea565b6105863386848e878d610a9c565b98506106e1565b600060a01b73ffffffffffffffffffffffffffffffffffffffff1916816105b390611dea565b73ffffffffffffffffffffffffffffffffffffffff191614156105ef5760405180602001604052806000815250985050505050505050506106ea565b7f3ca9f769340018257ac15b3a00e502e8fb730d66086f774210f84d0205af31e760001b8a146106d05760008b73ffffffffffffffffffffffffffffffffffffffff166370a08231336040518263ffffffff1660e01b81526004016106549190611e60565b60206040518083038186803b15801561066c57600080fd5b505afa158015610680573d6000803e3d6000fd5b505050506040513d601f19601f820116820180604052508101906106a49190611e90565b9050600081146106ce576040518060200160405280600081525099505050505050505050506106ea565b505b6106de33868685858d610acb565b98505b50505050505050505b92915050565b6000806301ffc9a760e01b8360405160240161070c9190611ecc565b604051602081830303815290604052907bffffffffffffffffffffffffffffffffffffffffffffffffffffffff19166020820180517bffffffffffffffffffffffffffffffffffffffffffffffffffffffff838183161783525050505090506000808573ffffffffffffffffffffffffffffffffffffffff16617530846040516107969190611f23565b6000604051808303818686fa925050503d80600081146107d2576040519150601f19603f3d011682016040523d82523d6000602084013e6107d7565b606091505b50915091506020815110156107f25760009350505050610815565b81801561080f57508080602001905181019061080e9190611f66565b5b93505050505b92915050565b6000806000807f40b8bec57d7b5ff0dbd9e9acd0a47dfeb0101e1a203766f5ccab00445fbf39e960001b85148061087457507fdbe2c314e1aee2970c72666f2ebe8933a8575263ea71e5ff6a9178e95d47a26f60001b85145b806108a157507fc7a120a42b6057a0cbed111fbbfbd52fcd96748c04394f77fc2c3adbe0391e0160001b85145b806108ce57507f3724c94f0815e936299cca424da4140752198e0beb7931a6e0925d11bc97544c60001b85145b156109e2577f6460ee3c0aac563ccbf76d6e1d07bada78e3a9514e6382b736ed3f478ab7b90b60001b92506b812c4334633eb816c80d000060a01b91507f40b8bec57d7b5ff0dbd9e9acd0a47dfeb0101e1a203766f5ccab00445fbf39e960001b85148061095e57507fdbe2c314e1aee2970c72666f2ebe8933a8575263ea71e5ff6a9178e95d47a26f60001b85145b61096f57634939914560e01b610978565b63e33f65c360e01b5b90507fdbe2c314e1aee2970c72666f2ebe8933a8575263ea71e5ff6a9178e95d47a26f60001b8514806109cd57507fc7a120a42b6057a0cbed111fbbfbd52fcd96748c04394f77fc2c3adbe0391e0160001b85145b6109d85760006109db565b60015b9350610a5b565b7f55482936e01da86729a45d2b87a6b1d3bc582bea0ec00e38bdb340e3af6f9f0660001b92506b192448c3c0f88c7f238c000060a01b9150638c1d44f660e01b90507f09aaf55960715d8d86b57af40be36b0bfd469c9a3643445d8c65d39e27b4c56f60001b8514610a55576000610a58565b60015b93505b9193509193565b6000808383604051602001610a78929190612001565b604051602081830303815290604052905080610a9390612042565b91505092915050565b6060600080610aae8989898989610afa565b91509150610abd848383610ed0565b925050509695505050505050565b6060600080610add8989898989610fe1565b91509150610aec848383610ed0565b925050509695505050505050565b606080600367ffffffffffffffff811115610b1857610b17611a0f565b5b604051908082528060200260200182016040528015610b465781602001602082028036833780820191505090505b509150600367ffffffffffffffff811115610b6457610b63611a0f565b5b604051908082528060200260200182016040528015610b9757816020015b6060815260200190600190039081610b825790505b50905060008773ffffffffffffffffffffffffffffffffffffffff166354f6127f886040518263ffffffff1660e01b8152600401610bd59190611cb8565b60006040518083038186803b158015610bed57600080fd5b505afa158015610c01573d6000803e3d6000fd5b505050506040513d6000823e3d601f19601f82011682018060405250810190610c2a9190611d43565b9050600081511415610d3e578683600081518110610c4b57610c4a6120a9565b5b602002602001018181525050610c616001611608565b82600081518110610c7557610c746120a9565b5b6020026020010181905250610c8b876000611634565b83600181518110610c9f57610c9e6120a9565b5b602002602001018181525050610cb485611659565b82600181518110610cc857610cc76120a9565b5b60200260200101819052508583600281518110610ce857610ce76120a9565b5b60200260200101818152505083600060c01b604051602001610d0b929190612146565b60405160208183030381529060405282600281518110610d2e57610d2d6120a9565b5b6020026020010181905250610ec5565b602081511415610e8457600081806020019051810190610d5e9190611e90565b90506000600182610d6f91906121a1565b90508885600081518110610d8657610d856120a9565b5b602002602001018181525050610d9b81611608565b84600081518110610daf57610dae6120a9565b5b6020026020010181905250610dd089600183610dcb91906121f7565b611634565b85600181518110610de457610de36120a9565b5b602002602001018181525050610df987611659565b84600181518110610e0d57610e0c6120a9565b5b60200260200101819052508785600281518110610e2d57610e2c6120a9565b5b602002602001018181525050858260c01b604051602001610e4f929190612146565b60405160208183030381529060405284600281518110610e7257610e716120a9565b5b60200260200101819052505050610ec4565b8081516040517fecba7af8000000000000000000000000000000000000000000000000000000008152600401610ebb92919061223a565b60405180910390fd5b5b509550959350505050565b606060008383604051602401610ee7929190612434565b6040516020818303038152906040527f14a6e293000000000000000000000000000000000000000000000000000000006020820180517bffffffffffffffffffffffffffffffffffffffffffffffffffffffff838183161783525050505090508473ffffffffffffffffffffffffffffffffffffffff166309c5eabe826040518263ffffffff1660e01b8152600401610f809190611c45565b600060405180830381600087803b158015610f9a57600080fd5b505af1158015610fae573d6000803e3d6000fd5b505050506040513d6000823e3d601f19601f82011682018060405250810190610fd79190611d43565b9150509392505050565b60608060008773ffffffffffffffffffffffffffffffffffffffff166354f6127f886040518263ffffffff1660e01b815260040161101f9190611cb8565b60006040518083038186803b15801561103757600080fd5b505afa15801561104b573d6000803e3d6000fd5b505050506040513d6000823e3d601f19601f820116820180604052508101906110749190611d43565b905060008180602001905181019061108c9190611e90565b9050600060018261109d91906121f7565b905060006110aa87611685565b905060006110c28b8367ffffffffffffffff16611634565b90506001846110d191906121f7565b8267ffffffffffffffff16141561126d57600367ffffffffffffffff8111156110fd576110fc611a0f565b5b60405190808252806020026020018201604052801561112b5781602001602082028036833780820191505090505b509650600367ffffffffffffffff81111561114957611148611a0f565b5b60405190808252806020026020018201604052801561117c57816020015b60608152602001906001900390816111675790505b5095508a87600081518110611194576111936120a9565b5b6020026020010181815250506111a983611608565b866000815181106111bd576111bc6120a9565b5b602002602001018190525088876001815181106111dd576111dc6120a9565b5b602002602001018181525050604051806020016040528060008152508660018151811061120d5761120c6120a9565b5b6020026020010181905250808760028151811061122d5761122c6120a9565b5b602002602001018181525050604051806020016040528060008152508660028151811061125d5761125c6120a9565b5b60200260200101819052506115f9565b600567ffffffffffffffff81111561128857611287611a0f565b5b6040519080825280602002602001820160405280156112b65781602001602082028036833780820191505090505b509650600567ffffffffffffffff8111156112d4576112d3611a0f565b5b60405190808252806020026020018201604052801561130757816020015b60608152602001906001900390816112f25790505b5095508a8760008151811061131f5761131e6120a9565b5b60200260200101818152505061133483611608565b86600081518110611348576113476120a9565b5b60200260200101819052508887600181518110611368576113676120a9565b5b6020026020010181815250506040518060200160405280600081525086600181518110611398576113976120a9565b5b602002602001018190525060006113af8c85611634565b905060008d73ffffffffffffffffffffffffffffffffffffffff166354f6127f836040518263ffffffff1660e01b81526004016113ec9190611cb8565b60006040518083038186803b15801561140457600080fd5b505afa158015611418573d6000803e3d6000fd5b505050506040513d6000823e3d601f19601f820116820180604052508101906114419190611d43565b905060006114588d8361145390612480565b610a62565b905060008f73ffffffffffffffffffffffffffffffffffffffff166354f6127f836040518263ffffffff1660e01b81526004016114959190611cb8565b60006040518083038186803b1580156114ad57600080fd5b505afa1580156114c1573d6000803e3d6000fd5b505050506040513d6000823e3d601f19601f820116820180604052508101906114ea9190611d43565b905060006114fb82600060046116aa565b9050858c600281518110611512576115116120a9565b5b602002602001018181525050838b600281518110611533576115326120a9565b5b6020026020010181905250848c600381518110611553576115526120a9565b5b602002602001018181525050604051806020016040528060008152508b600381518110611583576115826120a9565b5b6020026020010181905250828c6004815181106115a3576115a26120a9565b5b602002602001018181525050808760c01b6040516020016115c59291906124e7565b6040516020818303038152906040528b6004815181106115e8576115e76120a9565b5b602002602001018190525050505050505b50505050509550959350505050565b60608160001b60405160200161161e9190612530565b6040516020818303038152906040529050919050565b600080611644848460801b6117c8565b90508061165090612042565b91505092915050565b60608160601b60405160200161166f919061254b565b6040516020818303038152906040529050919050565b60008061169583600460086116aa565b90506116a28160006117f4565b915050919050565b606081601f836116ba91906121a1565b10156116fb576040517f08c379a00000000000000000000000000000000000000000000000000000000081526004016116f2906125c3565b60405180910390fd5b818361170791906121a1565b8451101561174a576040517f08c379a00000000000000000000000000000000000000000000000000000000081526004016117419061262f565b60405180910390fd5b606082156000811461176b57604051915060008252602082016040526117bc565b6040519150601f8416801560200281840101858101878315602002848b0101015b818310156117a9578051835260208301925060208101905061178c565b50868552601f19601f8301166040525050505b50809150509392505050565b606082826040516020016117dd92919061269c565b604051602081830303815290604052905092915050565b600060088261180391906121a1565b83511015611846576040517f08c379a000000000000000000000000000000000000000000000000000000000815260040161183d90612714565b60405180910390fd5b60008260088501015190508091505092915050565b6000604051905090565b600080fd5b600080fd5b60007fffffffff0000000000000000000000000000000000000000000000000000000082169050919050565b6118a48161186f565b81146118af57600080fd5b50565b6000813590506118c18161189b565b92915050565b6000602082840312156118dd576118dc611865565b5b60006118eb848285016118b2565b91505092915050565b60008115159050919050565b611909816118f4565b82525050565b60006020820190506119246000830184611900565b92915050565b600073ffffffffffffffffffffffffffffffffffffffff82169050919050565b60006119558261192a565b9050919050565b6119658161194a565b811461197057600080fd5b50565b6000813590506119828161195c565b92915050565b6000819050919050565b61199b81611988565b81146119a657600080fd5b50565b6000813590506119b881611992565b92915050565b6000819050919050565b6119d1816119be565b81146119dc57600080fd5b50565b6000813590506119ee816119c8565b92915050565b600080fd5b600080fd5b6000601f19601f8301169050919050565b7f4e487b7100000000000000000000000000000000000000000000000000000000600052604160045260246000fd5b611a47826119fe565b810181811067ffffffffffffffff82111715611a6657611a65611a0f565b5b80604052505050565b6000611a7961185b565b9050611a858282611a3e565b919050565b600067ffffffffffffffff821115611aa557611aa4611a0f565b5b611aae826119fe565b9050602081019050919050565b82818337600083830152505050565b6000611add611ad884611a8a565b611a6f565b905082815260208101848484011115611af957611af86119f9565b5b611b04848285611abb565b509392505050565b600082601f830112611b2157611b206119f4565b5b8135611b31848260208601611aca565b91505092915050565b60008060008060808587031215611b5457611b53611865565b5b6000611b6287828801611973565b9450506020611b73878288016119a9565b9350506040611b84878288016119df565b925050606085013567ffffffffffffffff811115611ba557611ba461186a565b5b611bb187828801611b0c565b91505092959194509250565b600081519050919050565b600082825260208201905092915050565b60005b83811015611bf7578082015181840152602081019050611bdc565b83811115611c06576000848401525b50505050565b6000611c1782611bbd565b611c218185611bc8565b9350611c31818560208601611bd9565b611c3a816119fe565b840191505092915050565b60006020820190508181036000830152611c5f8184611c0c565b905092915050565b600081519050611c768161195c565b92915050565b600060208284031215611c9257611c91611865565b5b6000611ca084828501611c67565b91505092915050565b611cb2816119be565b82525050565b6000602082019050611ccd6000830184611ca9565b92915050565b6000611ce6611ce184611a8a565b611a6f565b905082815260208101848484011115611d0257611d016119f9565b5b611d0d848285611bd9565b509392505050565b600082601f830112611d2a57611d296119f4565b5b8151611d3a848260208601611cd3565b91505092915050565b600060208284031215611d5957611d58611865565b5b600082015167ffffffffffffffff811115611d7757611d7661186a565b5b611d8384828501611d15565b91505092915050565b6000819050602082019050919050565b60007fffffffffffffffffffffffff000000000000000000000000000000000000000082169050919050565b6000611dd48251611d9c565b80915050919050565b600082821b905092915050565b6000611df582611bbd565b82611dff84611d8c565b9050611e0a81611dc8565b9250600c821015611e4a57611e457fffffffffffffffffffffffff000000000000000000000000000000000000000083600c03600802611ddd565b831692505b5050919050565b611e5a8161194a565b82525050565b6000602082019050611e756000830184611e51565b92915050565b600081519050611e8a81611992565b92915050565b600060208284031215611ea657611ea5611865565b5b6000611eb484828501611e7b565b91505092915050565b611ec68161186f565b82525050565b6000602082019050611ee16000830184611ebd565b92915050565b600081905092915050565b6000611efd82611bbd565b611f078185611ee7565b9350611f17818560208601611bd9565b80840191505092915050565b6000611f2f8284611ef2565b915081905092915050565b611f43816118f4565b8114611f4e57600080fd5b50565b600081519050611f6081611f3a565b92915050565b600060208284031215611f7c57611f7b611865565b5b6000611f8a84828501611f51565b91505092915050565b6000819050919050565b611fae611fa982611d9c565b611f93565b82525050565b60007fffffffffffffffffffffffffffffffffffffffff00000000000000000000000082169050919050565b6000819050919050565b611ffb611ff682611fb4565b611fe0565b82525050565b600061200d8285611f9d565b600c8201915061201d8284611fea565b6014820191508190509392505050565b600061203982516119be565b80915050919050565b600061204d82611bbd565b8261205784611d8c565b90506120628161202d565b925060208210156120a25761209d7fffffffffffffffffffffffffffffffffffffffffffffffffffffffffffffffff83602003600802611ddd565b831692505b5050919050565b7f4e487b7100000000000000000000000000000000000000000000000000000000600052603260045260246000fd5b6000819050919050565b6120f36120ee8261186f565b6120d8565b82525050565b60007fffffffffffffffff00000000000000000000000000000000000000000000000082169050919050565b6000819050919050565b61214061213b826120f9565b612125565b82525050565b600061215282856120e2565b600482019150612162828461212f565b6008820191508190509392505050565b7f4e487b7100000000000000000000000000000000000000000000000000000000600052601160045260246000fd5b60006121ac82611988565b91506121b783611988565b9250827fffffffffffffffffffffffffffffffffffffffffffffffffffffffffffffffff038211156121ec576121eb612172565b5b828201905092915050565b600061220282611988565b915061220d83611988565b9250828210156122205761221f612172565b5b828203905092915050565b61223481611988565b82525050565b600060408201905081810360008301526122548185611c0c565b9050612263602083018461222b565b9392505050565b600081519050919050565b600082825260208201905092915050565b6000819050602082019050919050565b61229f816119be565b82525050565b60006122b18383612296565b60208301905092915050565b6000602082019050919050565b60006122d58261226a565b6122df8185612275565b93506122ea83612286565b8060005b8381101561231b57815161230288826122a5565b975061230d836122bd565b9250506001810190506122ee565b5085935050505092915050565b600081519050919050565b600082825260208201905092915050565b6000819050602082019050919050565b600082825260208201905092915050565b600061237082611bbd565b61237a8185612354565b935061238a818560208601611bd9565b612393816119fe565b840191505092915050565b60006123aa8383612365565b905092915050565b6000602082019050919050565b60006123ca82612328565b6123d48185612333565b9350836020820285016123e685612344565b8060005b858110156124225784840389528151612403858261239e565b945061240e836123b2565b925060208a019950506001810190506123ea565b50829750879550505050505092915050565b6000604082019050818103600083015261244e81856122ca565b9050818103602083015261246281846123bf565b90509392505050565b60006124778251611fb4565b80915050919050565b600061248b82611bbd565b8261249584611d8c565b90506124a08161246b565b925060148210156124e0576124db7fffffffffffffffffffffffffffffffffffffffff00000000000000000000000083601403600802611ddd565b831692505b5050919050565b60006124f38285611ef2565b91506124ff828461212f565b6008820191508190509392505050565b6000819050919050565b61252a612525826119be565b61250f565b82525050565b600061253c8284612519565b60208201915081905092915050565b60006125578284611fea565b60148201915081905092915050565b600082825260208201905092915050565b7f736c6963655f6f766572666c6f77000000000000000000000000000000000000600082015250565b60006125ad600e83612566565b91506125b882612577565b602082019050919050565b600060208201905081810360008301526125dc816125a0565b9050919050565b7f736c6963655f6f75744f66426f756e6473000000000000000000000000000000600082015250565b6000612619601183612566565b9150612624826125e3565b602082019050919050565b600060208201905081810360008301526126488161260c565b9050919050565b60007fffffffffffffffffffffffffffffffff0000000000000000000000000000000082169050919050565b6000819050919050565b6126966126918261264f565b61267b565b82525050565b60006126a88285612685565b6010820191506126b88284612685565b6010820191508190509392505050565b7f746f55696e7436345f6f75744f66426f756e6473000000000000000000000000600082015250565b60006126fe601483612566565b9150612709826126c8565b602082019050919050565b6000602082019050818103600083015261272d816126f1565b905091905056fea264697066735822122097c205fd59a6b6d8ec11f4bce5b7816bb5cb73cc956d24800516ba50af5f95d964736f6c63430008090033",
  "linkReferences": {},
  "deployedLinkReferences": {}
}