{
  "_format": "hh-sol-artifact-1",
  "contractName": "UniversalReceiverDelegateUP",
  "sourceName": "contracts/deps/UniversalReceiverDelegateUP.sol",
  "abi": [
    {
      "inputs": [
        {
          "internalType": "bytes",
          "name": "invalidValue",
          "type": "bytes"
        },
        {
          "internalType": "uint256",
          "name": "invalidValueLength",
          "type": "uint256"
        }
      ],
      "name": "InvalidLSP5ReceivedAssetsArrayLength",
      "type": "error"
    },
    {
      "inputs": [
        {
          "internalType": "bytes4",
          "name": "interfaceId",
          "type": "bytes4"
        }
      ],
      "name": "supportsInterface",
      "outputs": [
        {
          "internalType": "bool",
          "name": "",
          "type": "bool"
        }
      ],
      "stateMutability": "view",
      "type": "function"
    },
    {
      "inputs": [
        {
          "internalType": "address",
          "name": "sender",
          "type": "address"
        },
        {
          "internalType": "uint256",
          "name": "value",
          "type": "uint256"
        },
        {
          "internalType": "bytes32",
          "name": "typeId",
          "type": "bytes32"
        },
        {
          "internalType": "bytes",
          "name": "data",
          "type": "bytes"
        }
      ],
      "name": "universalReceiverDelegate",
      "outputs": [
        {
          "internalType": "bytes",
          "name": "result",
          "type": "bytes"
        }
      ],
      "stateMutability": "nonpayable",
      "type": "function"
    }
  ],
  "bytecode": "0x608060405234801561001057600080fd5b50611a9f806100206000396000f3fe608060405234801561001057600080fd5b50600436106100365760003560e01c806301ffc9a71461003b578063a245bbda14610063575b600080fd5b61004e6100493660046115c1565b610083565b60405190151581526020015b60405180910390f35b610076610071366004611672565b6100d3565b60405161005a9190611774565b60006001600160e01b031982167fa245bbda0000000000000000000000000000000000000000000000000000000014806100cd57506301ffc9a760e01b6001600160e01b03198316145b92915050565b60606100e1858585856100ea565b95945050505050565b60607f40b8bec57d7b5ff0dbd9e9acd0a47dfeb0101e1a203766f5ccab00445fbf39e983148061013957507fdbe2c314e1aee2970c72666f2ebe8933a8575263ea71e5ff6a9178e95d47a26f83145b8061016357507f3724c94f0815e936299cca424da4140752198e0beb7931a6e0925d11bc97544c83145b8061018d57507fc7a120a42b6057a0cbed111fbbfbd52fcd96748c04394f77fc2c3adbe0391e0183145b806101b757507f3ca9f769340018257ac15b3a00e502e8fb730d66086f774210f84d0205af31e783145b806101e157507f09aaf55960715d8d86b57af40be36b0bfd469c9a3643445d8c65d39e27b4c56f83145b156101f0576100e185846101f8565b949350505050565b60606001600160a01b0383163b61021e57506040805160208101909152600081526100cd565b6000336001600160a01b0316638da5cb5b6040518163ffffffff1660e01b8152600401602060405180830381865afa15801561025e573d6000803e3d6000fd5b505050506040513d601f19601f820116820180604052508101906102829190611787565b90506102ae817fc403d48f00000000000000000000000000000000000000000000000000000000610585565b6102c85750506040805160208101909152600081526100cd565b6000816001600160a01b031663d4b839926040518163ffffffff1660e01b8152600401602060405180830381865afa158015610308573d6000803e3d6000fd5b505050506040513d601f19601f8201168201806040525081019061032c9190611787565b9050336001600160a01b038216146103575760405180602001604052806000815250925050506100cd565b60008060008061036688610683565b9350935093509350600061037d838b60601b610914565b6040516354f6127f60e01b81526004810182905290915060009033906354f6127f90602401600060405180830381865afa1580156103bf573d6000803e3d6000fd5b505050506040513d6000823e601f3d908101601f191682016040526103e791908101906117a4565b9050851561044a5760006103fa82611812565b73ffffffffffffffffffffffffffffffffffffffff1916146104355760405180602001604052806000815250985050505050505050506100cd565b6104433386848e878d61096b565b9850610577565b600061045582611812565b73ffffffffffffffffffffffffffffffffffffffff191614156104915760405180602001604052806000815250985050505050505050506100cd565b7f3ca9f769340018257ac15b3a00e502e8fb730d66086f774210f84d0205af31e78a14610566576040517f70a082310000000000000000000000000000000000000000000000000000000081523360048201526000906001600160a01b038d16906370a0823190602401602060405180830381865afa158015610518573d6000803e3d6000fd5b505050506040513d601f19601f8201168201806040525081019061053c9190611857565b90508015610564576040518060200160405280600081525099505050505050505050506100cd565b505b61057433868685858d610999565b98505b505050505050505092915050565b604080516001600160e01b0319831660248083019190915282518083039091018152604490910182526020810180517bffffffffffffffffffffffffffffffffffffffffffffffffffffffff166301ffc9a760e01b179052905160009190829081906001600160a01b0387169061753090610601908690611870565b6000604051808303818686fa925050503d806000811461063d576040519150601f19603f3d011682016040523d82523d6000602084013e610642565b606091505b509150915060208151101561065d57600093505050506100cd565b818015610679575080806020019051810190610679919061188c565b9695505050505050565b60008080807f40b8bec57d7b5ff0dbd9e9acd0a47dfeb0101e1a203766f5ccab00445fbf39e98514806106d557507fdbe2c314e1aee2970c72666f2ebe8933a8575263ea71e5ff6a9178e95d47a26f85145b806106ff57507fc7a120a42b6057a0cbed111fbbfbd52fcd96748c04394f77fc2c3adbe0391e0185145b8061072957507f3724c94f0815e936299cca424da4140752198e0beb7931a6e0925d11bc97544c85145b15610871577f6460ee3c0aac563ccbf76d6e1d07bada78e3a9514e6382b736ed3f478ab7b90b92507f812c4334633eb816c80d0000000000000000000000000000000000000000000091507f40b8bec57d7b5ff0dbd9e9acd0a47dfeb0101e1a203766f5ccab00445fbf39e98514806107c157507fdbe2c314e1aee2970c72666f2ebe8933a8575263ea71e5ff6a9178e95d47a26f85145b6107eb577f493991450000000000000000000000000000000000000000000000000000000061080d565b7fe33f65c3000000000000000000000000000000000000000000000000000000005b90507fdbe2c314e1aee2970c72666f2ebe8933a8575263ea71e5ff6a9178e95d47a26f85148061085c57507fc7a120a42b6057a0cbed111fbbfbd52fcd96748c04394f77fc2c3adbe0391e0185145b61086757600061086a565b60015b935061090d565b507f55482936e01da86729a45d2b87a6b1d3bc582bea0ec00e38bdb340e3af6f9f0691507f192448c3c0f88c7f238c0000000000000000000000000000000000000000000090507f8c1d44f6000000000000000000000000000000000000000000000000000000007f09aaf55960715d8d86b57af40be36b0bfd469c9a3643445d8c65d39e27b4c56f851461090757600061090a565b60015b93505b9193509193565b6040805173ffffffffffffffffffffffffffffffffffffffff19841660208201526bffffffffffffffffffffffff198316602c8201526000918291016040516020818303038152906040529050806101f0906118ae565b606060008061097d89898989896109ab565b9150915061098c848383610d44565b9998505050505050505050565b606060008061097d8989898989610e40565b604080516003808252608082019092526060918291906020820183803683370190505060408051600380825260808201909252919350816020015b60608152602001906001900390816109e6579050506040516354f6127f60e01b8152600481018890529091506000906001600160a01b038916906354f6127f90602401600060405180830381865afa158015610a46573d6000803e3d6000fd5b505050506040513d6000823e601f3d908101601f19168201604052610a6e91908101906117a4565b9050805160001415610b87578683600081518110610a8e57610a8e6118d5565b602002602001018181525050610aa4600161135f565b82600081518110610ab757610ab76118d5565b6020026020010181905250610acd876000611385565b83600181518110610ae057610ae06118d5565b602002602001018181525050610af5856113ea565b82600181518110610b0857610b086118d5565b60200260200101819052508583600281518110610b2757610b276118d5565b6020908102919091018101919091526040516001600160e01b031986169181019190915260006024820152602c0160405160208183030381529060405282600281518110610b7757610b776118d5565b6020026020010181905250610d39565b805160201415610cfa57600081806020019051810190610ba79190611857565b90506000610bb6826001611901565b90508885600081518110610bcc57610bcc6118d5565b602002602001018181525050610be18161135f565b84600081518110610bf457610bf46118d5565b6020908102919091010152610c1389610c0e600184611919565b611385565b85600181518110610c2657610c266118d5565b602002602001018181525050610c3b876113ea565b84600181518110610c4e57610c4e6118d5565b60200260200101819052508785600281518110610c6d57610c6d6118d5565b602002602001018181525050858260c01b604051602001610cc69291906001600160e01b03199290921682527fffffffffffffffff000000000000000000000000000000000000000000000000166004820152600c0190565b60405160208183030381529060405284600281518110610ce857610ce86118d5565b60200260200101819052505050610d39565b80516040517fecba7af8000000000000000000000000000000000000000000000000000000008152610d30918391600401611930565b60405180910390fd5b509550959350505050565b606060008383604051602401610d5b929190611952565b60408051601f198184030181529181526020820180517bffffffffffffffffffffffffffffffffffffffffffffffffffffffff167f14a6e29300000000000000000000000000000000000000000000000000000000179052517f09c5eabe0000000000000000000000000000000000000000000000000000000081529091506001600160a01b038616906309c5eabe90610df9908490600401611774565b6000604051808303816000875af1158015610e18573d6000803e3d6000fd5b505050506040513d6000823e601f3d908101601f191682016040526100e191908101906117a4565b6060806000876001600160a01b03166354f6127f886040518263ffffffff1660e01b8152600401610e7391815260200190565b600060405180830381865afa158015610e90573d6000803e3d6000fd5b505050506040513d6000823e601f3d908101601f19168201604052610eb891908101906117a4565b9050600081806020019051810190610ed09190611857565b90506000610edf600183611919565b90506000610eec8761140f565b90506000610f048b8367ffffffffffffffff16611385565b9050610f11600185611919565b8267ffffffffffffffff161415611058576040805160038082526080820190925290602082016060803683370190505060408051600380825260808201909252919850816020015b6060815260200190600190039081610f595790505095508a87600081518110610f8457610f846118d5565b602002602001018181525050610f998361135f565b86600081518110610fac57610fac6118d5565b60200260200101819052508887600181518110610fcb57610fcb6118d5565b6020026020010181815250506040518060200160405280600081525086600181518110610ffa57610ffa6118d5565b60200260200101819052508087600281518110611019576110196118d5565b6020026020010181815250506040518060200160405280600081525086600281518110611048576110486118d5565b6020026020010181905250611350565b60408051600580825260c08201909252906020820160a0803683370190505060408051600580825260c08201909252919850816020015b606081526020019060019003908161108f5790505095508a876000815181106110ba576110ba6118d5565b6020026020010181815250506110cf8361135f565b866000815181106110e2576110e26118d5565b60200260200101819052508887600181518110611101576111016118d5565b6020026020010181815250506040518060200160405280600081525086600181518110611130576111306118d5565b602002602001018190525060006111478c85611385565b6040516354f6127f60e01b8152600481018290529091506000906001600160a01b038f16906354f6127f90602401600060405180830381865afa158015611192573d6000803e3d6000fd5b505050506040513d6000823e601f3d908101601f191682016040526111ba91908101906117a4565b905060006111d08d6111cb846119ea565b610914565b905060008f6001600160a01b03166354f6127f836040518263ffffffff1660e01b815260040161120291815260200190565b600060405180830381865afa15801561121f573d6000803e3d6000fd5b505050506040513d6000823e601f3d908101601f1916820160405261124791908101906117a4565b905060006112588260006004611433565b9050858c60028151811061126e5761126e6118d5565b602002602001018181525050838b60028151811061128e5761128e6118d5565b6020026020010181905250848c6003815181106112ad576112ad6118d5565b602002602001018181525050604051806020016040528060008152508b6003815181106112dc576112dc6118d5565b6020026020010181905250828c6004815181106112fb576112fb6118d5565b602002602001018181525050808760c01b60405160200161131d929190611a22565b6040516020818303038152906040528b60048151811061133f5761133f6118d5565b602002602001018190525050505050505b50505050509550959350505050565b6040805160208101839052606091015b6040516020818303038152906040529050919050565b6000806113df848460801b604080517fffffffffffffffffffffffffffffffff0000000000000000000000000000000080851660208301528316603082015260609101604051602081830303815290604052905092915050565b90506101f0816118ae565b604051606082811b6bffffffffffffffffffffffff191660208301529060340161136f565b60008061141f8360046008611433565b905061142c81600061155b565b9392505050565b60608161144181601f611901565b101561148f5760405162461bcd60e51b815260206004820152600e60248201527f736c6963655f6f766572666c6f770000000000000000000000000000000000006044820152606401610d30565b6114998284611901565b845110156114e95760405162461bcd60e51b815260206004820152601160248201527f736c6963655f6f75744f66426f756e64730000000000000000000000000000006044820152606401610d30565b6060821580156115085760405191506000825260208201604052611552565b6040519150601f8416801560200281840101858101878315602002848b0101015b81831015611541578051835260209283019201611529565b5050858452601f01601f1916604052505b50949350505050565b6000611568826008611901565b835110156115b85760405162461bcd60e51b815260206004820152601460248201527f746f55696e7436345f6f75744f66426f756e64730000000000000000000000006044820152606401610d30565b50016008015190565b6000602082840312156115d357600080fd5b81356001600160e01b03198116811461142c57600080fd5b6001600160a01b038116811461160057600080fd5b50565b634e487b7160e01b600052604160045260246000fd5b604051601f8201601f1916810167ffffffffffffffff8111828210171561164257611642611603565b604052919050565b600067ffffffffffffffff82111561166457611664611603565b50601f01601f191660200190565b6000806000806080858703121561168857600080fd5b8435611693816115eb565b93506020850135925060408501359150606085013567ffffffffffffffff8111156116bd57600080fd5b8501601f810187136116ce57600080fd5b80356116e16116dc8261164a565b611619565b8181528860208385010111156116f657600080fd5b8160208401602083013760006020838301015280935050505092959194509250565b60005b8381101561173357818101518382015260200161171b565b83811115611742576000848401525b50505050565b60008151808452611760816020860160208601611718565b601f01601f19169290920160200192915050565b60208152600061142c6020830184611748565b60006020828403121561179957600080fd5b815161142c816115eb565b6000602082840312156117b657600080fd5b815167ffffffffffffffff8111156117cd57600080fd5b8201601f810184136117de57600080fd5b80516117ec6116dc8261164a565b81815285602083850101111561180157600080fd5b6100e1826020830160208601611718565b60008151602083015173ffffffffffffffffffffffffffffffffffffffff198082169350600c83101561184f57808184600c0360031b1b83161693505b505050919050565b60006020828403121561186957600080fd5b5051919050565b60008251611882818460208701611718565b9190910192915050565b60006020828403121561189e57600080fd5b8151801515811461142c57600080fd5b805160208083015191908110156118cf576000198160200360031b1b821691505b50919050565b634e487b7160e01b600052603260045260246000fd5b634e487b7160e01b600052601160045260246000fd5b60008219821115611914576119146118eb565b500190565b60008282101561192b5761192b6118eb565b500390565b6040815260006119436040830185611748565b90508260208301529392505050565b604080825283519082018190526000906020906060840190828701845b8281101561198b5781518452928401929084019060010161196f565b50505083810382850152845180825282820190600581901b8301840187850160005b838110156119db57601f198684030185526119c9838351611748565b948701949250908601906001016119ad565b50909998505050505050505050565b805160208201516bffffffffffffffffffffffff19808216929190601483101561184f5760149290920360031b82901b161692915050565b60008351611a34818460208801611718565b7fffffffffffffffff00000000000000000000000000000000000000000000000093909316919092019081526008019291505056fea264697066735822122099e423711fa446cce31f823d8ea19cd85bbbeea42de51bc1a358d39bc6964cc564736f6c634300080a0033",
  "linkReferences": {},
  "deployedLinkReferences": {}
}