{
  "_format": "hh-sol-artifact-1",
  "contractName": "DaoDelegates",
  "sourceName": "contracts/Dao/DaoDelegates.sol",
  "abi": [
    {
      "inputs": [
        {
          "internalType": "address payable",
          "name": "_UNIVERSAL_PROFILE",
          "type": "address"
        },
        {
          "internalType": "address",
          "name": "_KEY_MANAGER",
          "type": "address"
        }
      ],
      "stateMutability": "nonpayable",
      "type": "constructor"
    },
    {
      "inputs": [
        {
          "internalType": "string",
          "name": "contractName",
          "type": "string"
        },
        {
          "internalType": "bytes1",
          "name": "errorNumber",
          "type": "bytes1"
        }
      ],
      "name": "IndexedError",
      "type": "error"
    },
    {
      "inputs": [
        {
          "internalType": "address",
          "name": "from",
          "type": "address"
        },
        {
          "internalType": "string",
          "name": "permission",
          "type": "string"
        }
      ],
      "name": "NotAuthorised",
      "type": "error"
    },
    {
      "inputs": [
        {
          "internalType": "address",
          "name": "newDelegatee",
          "type": "address"
        }
      ],
      "name": "changeDelegate",
      "outputs": [],
      "stateMutability": "nonpayable",
      "type": "function"
    },
    {
      "inputs": [
        {
          "internalType": "address",
          "name": "delegatee",
          "type": "address"
        }
      ],
      "name": "delegate",
      "outputs": [],
      "stateMutability": "nonpayable",
      "type": "function"
    },
    {
      "inputs": [],
      "name": "undelegate",
      "outputs": [],
      "stateMutability": "nonpayable",
      "type": "function"
    }
  ],
  "bytecode": "0x60806040523480156200001157600080fd5b50604051620025e1380380620025e183398181016040528101906200003791906200016f565b816000806101000a81548173ffffffffffffffffffffffffffffffffffffffff021916908373ffffffffffffffffffffffffffffffffffffffff16021790555080600160006101000a81548173ffffffffffffffffffffffffffffffffffffffff021916908373ffffffffffffffffffffffffffffffffffffffff1602179055505050620001b6565b600080fd5b600073ffffffffffffffffffffffffffffffffffffffff82169050919050565b6000620000f282620000c5565b9050919050565b6200010481620000e5565b81146200011057600080fd5b50565b6000815190506200012481620000f9565b92915050565b60006200013782620000c5565b9050919050565b62000149816200012a565b81146200015557600080fd5b50565b60008151905062000169816200013e565b92915050565b60008060408385031215620001895762000188620000c0565b5b6000620001998582860162000113565b9250506020620001ac8582860162000158565b9150509250929050565b61241b80620001c66000396000f3fe608060405234801561001057600080fd5b50600436106100415760003560e01c80635c19a95c1461004657806392ab89bb14610062578063e38296e41461006c575b600080fd5b610060600480360381019061005b9190611697565b610088565b005b61006a6104cb565b005b61008660048036038101906100819190611697565b6108ac565b005b6100cc33600860001b6040518060400160405280600d81526020017f53454e445f44454c454741544500000000000000000000000000000000000000815250610ea3565b61011081601060001b6040518060400160405280601081526020017f524543494556455f44454c454741544500000000000000000000000000000000815250610ea3565b6000600267ffffffffffffffff81111561012d5761012c6116c4565b5b60405190808252806020026020018201604052801561015b5781602001602082028036833780820191505090505b5090506000600267ffffffffffffffff81111561017b5761017a6116c4565b5b6040519080825280602002602001820160405280156101ae57816020015b60608152602001906001900390816101995790505b5090506b0a30e74a6c7868e40014000060a01b3360601b6040516020016101d692919061178d565b6040516020818303038152906040526101ee90611800565b8260008151811061020257610201611867565b5b60200260200101818152505060008060009054906101000a900473ffffffffffffffffffffffffffffffffffffffff1673ffffffffffffffffffffffffffffffffffffffff166354f6127f8460008151811061026157610260611867565b5b60200260200101516040518263ffffffff1660e01b815260040161028591906118a5565b60006040518083038186803b15801561029d57600080fd5b505afa1580156102b1573d6000803e3d6000fd5b505050506040513d6000823e3d601f19601f820116820180604052508101906102da91906119fb565b90506000815111156103245760016040517f7d29e6e100000000000000000000000000000000000000000000000000000000815260040161031b9190611b15565b60405180910390fd5b8360601b6040516020016103389190611b43565b6040516020818303038152906040528260008151811061035b5761035a611867565b5b60200260200101819052506b92a4ebfa1896d9ad8b43000060a01b8460601b60405160200161038b92919061178d565b6040516020818303038152906040526103a390611800565b836001815181106103b7576103b6611867565b5b60200260200101818152505060008060009054906101000a900473ffffffffffffffffffffffffffffffffffffffff1673ffffffffffffffffffffffffffffffffffffffff166354f6127f8560018151811061041657610415611867565b5b60200260200101516040518263ffffffff1660e01b815260040161043a91906118a5565b60006040518083038186803b15801561045257600080fd5b505afa158015610466573d6000803e3d6000fd5b505050506040513d6000823e3d601f19601f8201168201806040525081019061048f91906119fb565b905061049b3382610f02565b836001815181106104af576104ae611867565b5b60200260200101819052506104c48484611103565b5050505050565b61050f33600860001b6040518060400160405280600d81526020017f53454e445f44454c454741544500000000000000000000000000000000000000815250610ea3565b6000600267ffffffffffffffff81111561052c5761052b6116c4565b5b60405190808252806020026020018201604052801561055a5781602001602082028036833780820191505090505b5090506000600267ffffffffffffffff81111561057a576105796116c4565b5b6040519080825280602002602001820160405280156105ad57816020015b60608152602001906001900390816105985790505b5090506b0a30e74a6c7868e40014000060a01b3360601b6040516020016105d592919061178d565b6040516020818303038152906040526105ed90611800565b8260008151811061060157610600611867565b5b60200260200101818152505060008060009054906101000a900473ffffffffffffffffffffffffffffffffffffffff1673ffffffffffffffffffffffffffffffffffffffff166354f6127f846000815181106106605761065f611867565b5b60200260200101516040518263ffffffff1660e01b815260040161068491906118a5565b60006040518083038186803b15801561069c57600080fd5b505afa1580156106b0573d6000803e3d6000fd5b505050506040513d6000823e3d601f19601f820116820180604052508101906106d991906119fb565b90506000815114156107235760046040517f7d29e6e100000000000000000000000000000000000000000000000000000000815260040161071a9190611b99565b60405180910390fd5b604051806020016040528060008152508260008151811061074757610746611867565b5b60200260200101819052506b92a4ebfa1896d9ad8b43000060a01b81604051602001610774929190611c03565b60405160208183030381529060405261078c90611800565b836001815181106107a05761079f611867565b5b60200260200101818152505061087e3360008054906101000a900473ffffffffffffffffffffffffffffffffffffffff1673ffffffffffffffffffffffffffffffffffffffff166354f6127f86600181518110610800576107ff611867565b5b60200260200101516040518263ffffffff1660e01b815260040161082491906118a5565b60006040518083038186803b15801561083c57600080fd5b505afa158015610850573d6000803e3d6000fd5b505050506040513d6000823e3d601f19601f8201168201806040525081019061087991906119fb565b61124a565b8260018151811061089257610891611867565b5b60200260200101819052506108a78383611103565b505050565b6108f033600860001b6040518060400160405280600d81526020017f53454e445f44454c454741544500000000000000000000000000000000000000815250610ea3565b61093481601060001b6040518060400160405280601081526020017f524543494556455f44454c454741544500000000000000000000000000000000815250610ea3565b6000600367ffffffffffffffff811115610951576109506116c4565b5b60405190808252806020026020018201604052801561097f5781602001602082028036833780820191505090505b5090506000600367ffffffffffffffff81111561099f5761099e6116c4565b5b6040519080825280602002602001820160405280156109d257816020015b60608152602001906001900390816109bd5790505b5090506b0a30e74a6c7868e40014000060a01b3360601b6040516020016109fa92919061178d565b604051602081830303815290604052610a1290611800565b82600081518110610a2657610a25611867565b5b60200260200101818152505060008060009054906101000a900473ffffffffffffffffffffffffffffffffffffffff1673ffffffffffffffffffffffffffffffffffffffff166354f6127f84600081518110610a8557610a84611867565b5b60200260200101516040518263ffffffff1660e01b8152600401610aa991906118a5565b60006040518083038186803b158015610ac157600080fd5b505afa158015610ad5573d6000803e3d6000fd5b505050506040513d6000823e3d601f19601f82011682018060405250810190610afe91906119fb565b905060008460601b9050601482511015610b505760026040517f7d29e6e1000000000000000000000000000000000000000000000000000000008152600401610b479190611c66565b60405180910390fd5b81610b5a90611ca9565b6bffffffffffffffffffffffff1916816bffffffffffffffffffffffff19161415610bbd5760036040517f7d29e6e1000000000000000000000000000000000000000000000000000000008152600401610bb49190611d97565b60405180910390fd5b80604051602001610bce9190611b43565b60405160208183030381529060405283600081518110610bf157610bf0611867565b5b60200260200101819052506b92a4ebfa1896d9ad8b43000060a01b82604051602001610c1e929190611c03565b604051602081830303815290604052610c3690611800565b84600181518110610c4a57610c49611867565b5b602002602001018181525050610d283360008054906101000a900473ffffffffffffffffffffffffffffffffffffffff1673ffffffffffffffffffffffffffffffffffffffff166354f6127f87600181518110610caa57610ca9611867565b5b60200260200101516040518263ffffffff1660e01b8152600401610cce91906118a5565b60006040518083038186803b158015610ce657600080fd5b505afa158015610cfa573d6000803e3d6000fd5b505050506040513d6000823e3d601f19601f82011682018060405250810190610d2391906119fb565b61124a565b83600181518110610d3c57610d3b611867565b5b60200260200101819052506b92a4ebfa1896d9ad8b43000060a01b81604051602001610d6992919061178d565b604051602081830303815290604052610d8190611800565b84600281518110610d9557610d94611867565b5b602002602001018181525050610e733360008054906101000a900473ffffffffffffffffffffffffffffffffffffffff1673ffffffffffffffffffffffffffffffffffffffff166354f6127f87600281518110610df557610df4611867565b5b60200260200101516040518263ffffffff1660e01b8152600401610e1991906118a5565b60006040518083038186803b158015610e3157600080fd5b505afa158015610e45573d6000803e3d6000fd5b505050506040513d6000823e3d601f19601f82011682018060405250810190610e6e91906119fb565b610f02565b83600281518110610e8757610e86611867565b5b6020026020010181905250610e9c8484611103565b5050505050565b6000610eae84611528565b90506000801b8382161415610efc5783826040517f3bdad6e6000000000000000000000000000000000000000000000000000000008152600401610ef3929190611e18565b60405180910390fd5b50505050565b606060008251146110bf5760008060001b604051602001610f239190611e69565b604051602081830303815290604052905060005b6020811015610fbf5783816020610f4e9190611ebd565b81518110610f5f57610f5e611867565b5b602001015160f81c60f81b828281518110610f7d57610f7c611867565b5b60200101907effffffffffffffffffffffffffffffffffffffffffffffffffffffffffffff1916908160001a9053508080610fb790611f13565b915050610f37565b506000600182610fce90611800565b60001c610fdb9190611ebd565b60001b604051602001610fee9190611e69565b604051602081830303815290604052905060005b602081101561108a5781818151811061101e5761101d611867565b5b602001015160f81c60f81b858260206110379190611ebd565b8151811061104857611047611867565b5b60200101907effffffffffffffffffffffffffffffffffffffffffffffffffffffffffffff1916908160001a905350808061108290611f13565b915050611002565b5083600060a01b8660601b6040516020016110a793929190611f5c565b604051602081830303815290604052925050506110fd565b600060081b602060f81b600160001b600060a01b8660601b6040516020016110eb959493929190612003565b60405160208183030381529060405290505b92915050565b600160009054906101000a900473ffffffffffffffffffffffffffffffffffffffff1673ffffffffffffffffffffffffffffffffffffffff166309c5eabe7f14a6e2931875c22579e483160c8d2832a3fb3acbd575a49f6a0f7fc5e135f789848460405160240161117592919061222c565b604051602081830303815290604052907bffffffffffffffffffffffffffffffffffffffffffffffffffffffff19166020820180517bffffffffffffffffffffffffffffffffffffffffffffffffffffffff83818316178352505050506040518263ffffffff1660e01b81526004016111ee91906122ad565b600060405180830381600087803b15801561120857600080fd5b505af115801561121c573d6000803e3d6000fd5b505050506040513d6000823e3d601f19601f8201168201806040525081019061124591906119fb565b505050565b606060006020835161125c91906122fe565b905060008167ffffffffffffffff81111561127a576112796116c4565b5b6040519080825280602002602001820160405280156112a85781602001602082028036833780820191505090505b509050836112b590611800565b816000815181106112c9576112c8611867565b5b6020026020010181815250506000600290505b82811161135c5760008082846000815181106112fb576112fa611867565b5b602002602001015160001c611310919061232f565b60001b9050808701519150818460018561132a9190612389565b8151811061133b5761133a611867565b5b6020026020010181815250505050808061135490611f13565b9150506112dc565b5060008060a01b8660601b60405160200161137892919061178d565b60405160208183030381529060405261139090611800565b90506003825114156113d75780826002815181106113b1576113b0611867565b5b602002602001015114156113d2576040518060200160405280600081525093505b61151f565b60038251111561151e5760005b600183516113f29190612389565b81101561151c5782818151811061140c5761140b611867565b5b602002602001015182141561146b5784836001855161142b9190612389565b8151811061143c5761143b611867565b5b60200260200101516040516020016114559291906123bd565b6040516020818303038152906040529450611509565b60018114156114c95784600184838151811061148a57611489611867565b5b602002602001015160001c61149f9190612389565b60001b6040516020016114b39291906123bd565b6040516020818303038152906040529450611508565b848382815181106114dd576114dc611867565b5b60200260200101516040516020016114f69291906123bd565b60405160208183030381529060405294505b5b808061151490611f13565b9150506113e4565b505b5b50505092915050565b60008060009054906101000a900473ffffffffffffffffffffffffffffffffffffffff1673ffffffffffffffffffffffffffffffffffffffff166354f6127f6b4b80742de2bfb3cc0e49000060a01b8460601b60405160200161158c92919061178d565b6040516020818303038152906040526115a490611800565b6040518263ffffffff1660e01b81526004016115c091906118a5565b60006040518083038186803b1580156115d857600080fd5b505afa1580156115ec573d6000803e3d6000fd5b505050506040513d6000823e3d601f19601f8201168201806040525081019061161591906119fb565b61161e90611800565b9050919050565b6000604051905090565b600080fd5b600080fd5b600073ffffffffffffffffffffffffffffffffffffffff82169050919050565b600061166482611639565b9050919050565b61167481611659565b811461167f57600080fd5b50565b6000813590506116918161166b565b92915050565b6000602082840312156116ad576116ac61162f565b5b60006116bb84828501611682565b91505092915050565b7f4e487b7100000000000000000000000000000000000000000000000000000000600052604160045260246000fd5b60007fffffffffffffffffffffffff000000000000000000000000000000000000000082169050919050565b6000819050919050565b61173a611735826116f3565b61171f565b82525050565b60007fffffffffffffffffffffffffffffffffffffffff00000000000000000000000082169050919050565b6000819050919050565b61178761178282611740565b61176c565b82525050565b60006117998285611729565b600c820191506117a98284611776565b6014820191508190509392505050565b600081519050919050565b6000819050602082019050919050565b6000819050919050565b60006117ea82516117d4565b80915050919050565b600082821b905092915050565b600061180b826117b9565b82611815846117c4565b9050611820816117de565b925060208210156118605761185b7fffffffffffffffffffffffffffffffffffffffffffffffffffffffffffffffff836020036008026117f3565b831692505b5050919050565b7f4e487b7100000000000000000000000000000000000000000000000000000000600052603260045260246000fd5b61189f816117d4565b82525050565b60006020820190506118ba6000830184611896565b92915050565b600080fd5b600080fd5b6000601f19601f8301169050919050565b6118e4826118ca565b810181811067ffffffffffffffff82111715611903576119026116c4565b5b80604052505050565b6000611916611625565b905061192282826118db565b919050565b600067ffffffffffffffff821115611942576119416116c4565b5b61194b826118ca565b9050602081019050919050565b60005b8381101561197657808201518184015260208101905061195b565b83811115611985576000848401525b50505050565b600061199e61199984611927565b61190c565b9050828152602081018484840111156119ba576119b96118c5565b5b6119c5848285611958565b509392505050565b600082601f8301126119e2576119e16118c0565b5b81516119f284826020860161198b565b91505092915050565b600060208284031215611a1157611a1061162f565b5b600082015167ffffffffffffffff811115611a2f57611a2e611634565b5b611a3b848285016119cd565b91505092915050565b600082825260208201905092915050565b7f44616f44656c6567617465730000000000000000000000000000000000000000600082015250565b6000611a8b600c83611a44565b9150611a9682611a55565b602082019050919050565b6000819050919050565b60007fff0000000000000000000000000000000000000000000000000000000000000082169050919050565b60008160f81b9050919050565b6000611aff611afa611af584611aa1565b611ad7565b611aab565b9050919050565b611b0f81611ae4565b82525050565b60006040820190508181036000830152611b2e81611a7e565b9050611b3d6020830184611b06565b92915050565b6000611b4f8284611776565b60148201915081905092915050565b6000819050919050565b6000611b83611b7e611b7984611b5e565b611ad7565b611aab565b9050919050565b611b9381611b68565b82525050565b60006040820190508181036000830152611bb281611a7e565b9050611bc16020830184611b8a565b92915050565b600081905092915050565b6000611bdd826117b9565b611be78185611bc7565b9350611bf7818560208601611958565b80840191505092915050565b6000611c0f8285611729565b600c82019150611c1f8284611bd2565b91508190509392505050565b6000819050919050565b6000611c50611c4b611c4684611c2b565b611ad7565b611aab565b9050919050565b611c6081611c35565b82525050565b60006040820190508181036000830152611c7f81611a7e565b9050611c8e6020830184611c57565b92915050565b6000611ca08251611740565b80915050919050565b6000611cb4826117b9565b82611cbe846117c4565b9050611cc981611c94565b92506014821015611d0957611d047fffffffffffffffffffffffffffffffffffffffff000000000000000000000000836014036008026117f3565b831692505b5050919050565b7f44414f0000000000000000000000000000000000000000000000000000000000600082015250565b6000611d46600383611a44565b9150611d5182611d10565b602082019050919050565b6000819050919050565b6000611d81611d7c611d7784611d5c565b611ad7565b611aab565b9050919050565b611d9181611d66565b82525050565b60006040820190508181036000830152611db081611d39565b9050611dbf6020830184611d88565b92915050565b611dce81611659565b82525050565b600081519050919050565b6000611dea82611dd4565b611df48185611a44565b9350611e04818560208601611958565b611e0d816118ca565b840191505092915050565b6000604082019050611e2d6000830185611dc5565b8181036020830152611e3f8184611ddf565b90509392505050565b6000819050919050565b611e63611e5e826117d4565b611e48565b82525050565b6000611e758284611e52565b60208201915081905092915050565b6000819050919050565b7f4e487b7100000000000000000000000000000000000000000000000000000000600052601160045260246000fd5b6000611ec882611e84565b9150611ed383611e84565b9250827fffffffffffffffffffffffffffffffffffffffffffffffffffffffffffffffff03821115611f0857611f07611e8e565b5b828201905092915050565b6000611f1e82611e84565b91507fffffffffffffffffffffffffffffffffffffffffffffffffffffffffffffffff821415611f5157611f50611e8e565b5b600182019050919050565b6000611f688286611bd2565b9150611f748285611729565b600c82019150611f848284611776565b601482019150819050949350505050565b60007fffffffffffffffffffffffffffffffffffffffffffffffffffffffffffffff0082169050919050565b6000819050919050565b611fdc611fd782611f95565b611fc1565b82525050565b6000819050919050565b611ffd611ff882611aab565b611fe2565b82525050565b600061200f8288611fcb565b601f8201915061201f8287611fec565b60018201915061202f8286611e52565b60208201915061203f8285611729565b600c8201915061204f8284611776565b6014820191508190509695505050505050565b600081519050919050565b600082825260208201905092915050565b6000819050602082019050919050565b612097816117d4565b82525050565b60006120a9838361208e565b60208301905092915050565b6000602082019050919050565b60006120cd82612062565b6120d7818561206d565b93506120e28361207e565b8060005b838110156121135781516120fa888261209d565b9750612105836120b5565b9250506001810190506120e6565b5085935050505092915050565b600081519050919050565b600082825260208201905092915050565b6000819050602082019050919050565b600082825260208201905092915050565b6000612168826117b9565b612172818561214c565b9350612182818560208601611958565b61218b816118ca565b840191505092915050565b60006121a2838361215d565b905092915050565b6000602082019050919050565b60006121c282612120565b6121cc818561212b565b9350836020820285016121de8561213c565b8060005b8581101561221a57848403895281516121fb8582612196565b9450612206836121aa565b925060208a019950506001810190506121e2565b50829750879550505050505092915050565b6000604082019050818103600083015261224681856120c2565b9050818103602083015261225a81846121b7565b90509392505050565b600082825260208201905092915050565b600061227f826117b9565b6122898185612263565b9350612299818560208601611958565b6122a2816118ca565b840191505092915050565b600060208201905081810360008301526122c78184612274565b905092915050565b7f4e487b7100000000000000000000000000000000000000000000000000000000600052601260045260246000fd5b600061230982611e84565b915061231483611e84565b925082612324576123236122cf565b5b828204905092915050565b600061233a82611e84565b915061234583611e84565b9250817fffffffffffffffffffffffffffffffffffffffffffffffffffffffffffffffff048311821515161561237e5761237d611e8e565b5b828202905092915050565b600061239482611e84565b915061239f83611e84565b9250828210156123b2576123b1611e8e565b5b828203905092915050565b60006123c98285611bd2565b91506123d58284611e52565b602082019150819050939250505056fea26469706673582212202e8c2b0055904cba61ce893e68e54b0f2867e3a2b258fa403fca40dbdf5f363f64736f6c63430008090033",
  "linkReferences": {},
  "deployedLinkReferences": {}
}