{
  "_format": "hh-sol-artifact-1",
  "contractName": "DeployerUtils",
  "sourceName": "contracts/Deployer/DeployerUtils.sol",
  "abi": [
    {
      "inputs": [
        {
          "internalType": "bytes",
          "name": "_JSONDaoMetdata",
          "type": "bytes"
        },
        {
          "internalType": "bytes32",
          "name": "_majority",
          "type": "bytes32"
        },
        {
          "internalType": "bytes32",
          "name": "_participationRate",
          "type": "bytes32"
        },
        {
          "internalType": "bytes32",
          "name": "_minimumVotingDelay",
          "type": "bytes32"
        },
        {
          "internalType": "bytes32",
          "name": "_minimumVotingPeriod",
          "type": "bytes32"
        },
        {
          "internalType": "bytes32",
          "name": "_minimumExecutionDelay",
          "type": "bytes32"
        },
        {
          "internalType": "address[]",
          "name": "_daoParticipants",
          "type": "address[]"
        },
        {
          "internalType": "bytes32[]",
          "name": "_daoParticipantsPermissions",
          "type": "bytes32[]"
        }
      ],
      "name": "encodeDaoData",
      "outputs": [
        {
          "internalType": "bytes",
          "name": "encodedData",
          "type": "bytes"
        }
      ],
      "stateMutability": "pure",
      "type": "function"
    }
  ],
  "bytecode": "0x61055561003a600b82828239805160001a60731461002d57634e487b7160e01b600052600060045260246000fd5b30600052607381538281f3fe73000000000000000000000000000000000000000030146080604052600436106100405760003560e01c806377bbd3c014610045578063be7853781461006e575b600080fd5b610058610053366004610332565b61007d565b604051610065919061041b565b60405180910390f35b81801561007a57600080fd5b50005b815160408051602081018a9052808201899052606081018890526080810187905260a0810186905260c0808201939093528151808203909301835260e001905260005b835181101561013d5781600060a01b8583815181106100e1576100e161044e565b602002602001015160601b8584815181106100fe576100fe61044e565b60200260200101516040516020016101199493929190610464565b60405160208183030381529060405291508080610135906104c7565b9150506100c0565b5080896040516020016101519291906104f0565b604051602081830303815290604052905098975050505050505050565b634e487b7160e01b600052604160045260246000fd5b604051601f8201601f1916810167ffffffffffffffff811182821017156101ad576101ad61016e565b604052919050565b600082601f8301126101c657600080fd5b813567ffffffffffffffff8111156101e0576101e061016e565b6101f3601f8201601f1916602001610184565b81815284602083860101111561020857600080fd5b816020850160208301376000918101602001919091529392505050565b600067ffffffffffffffff82111561023f5761023f61016e565b5060051b60200190565b600082601f83011261025a57600080fd5b8135602061026f61026a83610225565b610184565b82815260059290921b8401810191818101908684111561028e57600080fd5b8286015b848110156102cc57803573ffffffffffffffffffffffffffffffffffffffff811681146102bf5760008081fd5b8352918301918301610292565b509695505050505050565b600082601f8301126102e857600080fd5b813560206102f861026a83610225565b82815260059290921b8401810191818101908684111561031757600080fd5b8286015b848110156102cc578035835291830191830161031b565b600080600080600080600080610100898b03121561034f57600080fd5b883567ffffffffffffffff8082111561036757600080fd5b6103738c838d016101b5565b995060208b0135985060408b0135975060608b0135965060808b0135955060a08b0135945060c08b01359150808211156103ac57600080fd5b6103b88c838d01610249565b935060e08b01359150808211156103ce57600080fd5b506103db8b828c016102d7565b9150509295985092959890939650565b60005b838110156104065781810151838201526020016103ee565b83811115610415576000848401525b50505050565b602081526000825180602084015261043a8160408501602087016103eb565b601f01601f19169190910160400192915050565b634e487b7160e01b600052603260045260246000fd5b60008551610476818460208a016103eb565b7fffffffffffffffffffffffff000000000000000000000000000000000000000095909516919094019081526bffffffffffffffffffffffff1992909216600c830152602082015260400192915050565b60006000198214156104e957634e487b7160e01b600052601160045260246000fd5b5060010190565b600083516105028184602088016103eb565b8351908301906105168183602088016103eb565b0194935050505056fea26469706673582212207785316da710b7f68ab4a4d88228426dbaaa01e4e54d0b3be1b9a61706b59df264736f6c634300080a0033",
  "linkReferences": {},
  "deployedLinkReferences": {}
}