{
  "_format": "hh-sol-artifact-1",
  "contractName": "DaoDelegatesDeployer",
  "sourceName": "contracts/Deployer/DaoDeployer/DaoDelegates/DaoDelegatesDeployer.sol",
  "abi": [
    {
      "inputs": [
        {
          "internalType": "address payable",
          "name": "_UNIVERSAL_PROFILE",
          "type": "address"
        },
        {
          "internalType": "address",
          "name": "_KEY_MANAGER",
          "type": "address"
        }
      ],
      "name": "deployDaoDelegates",
      "outputs": [
        {
          "internalType": "address",
          "name": "_DAO_DELEGATES",
          "type": "address"
        }
      ],
      "stateMutability": "nonpayable",
      "type": "function"
    }
  ],
  "bytecode": "0x608060405234801561001057600080fd5b506118c2806100206000396000f3fe608060405234801561001057600080fd5b506004361061002b5760003560e01c8063770a2e7414610030575b600080fd5b61004361003e3660046100f6565b61006c565b60405173ffffffffffffffffffffffffffffffffffffffff909116815260200160405180910390f35b6000828260405161007c906100c4565b73ffffffffffffffffffffffffffffffffffffffff928316815291166020820152604001604051809103906000f0801580156100bc573d6000803e3d6000fd5b509392505050565b61175d8061013083390190565b73ffffffffffffffffffffffffffffffffffffffff811681146100f357600080fd5b50565b6000806040838503121561010957600080fd5b8235610114816100d1565b91506020830135610124816100d1565b80915050925092905056fe608060405234801561001057600080fd5b506040516200175d3803806200175d8339810160408190526100319161007a565b600080546001600160a01b039384166001600160a01b031991821617909155600180549290931691161790556100b4565b6001600160a01b038116811461007757600080fd5b50565b6000806040838503121561008d57600080fd5b825161009881610062565b60208401519092506100a981610062565b809150509250929050565b61169980620000c46000396000f3fe608060405234801561001057600080fd5b50600436106100415760003560e01c80635c19a95c1461004657806392ab89bb1461005b578063e38296e414610063575b600080fd5b61005961005436600461122c565b610076565b005b6100596103de565b61005961007136600461122c565b6106dd565b6100aa33600860001b6040518060400160405280600d81526020016c53454e445f44454c454741544560981b815250610b6a565b6100ee81601060001b6040518060400160405280601081526020017f524543494556455f44454c454741544500000000000000000000000000000000815250610b6a565b6040805160028082526060820183526000926020830190803683375050604080516002808252606082019092529293506000929150602082015b6060815260200190600190039081610128579050506040805169028c39d29b1e1a39000560b21b60208201526001600160601b03193360601b16602c8201529192500160405160208183030381529060405261018390611272565b8260008151811061019657610196611299565b60209081029190910101526000805483516001600160a01b03909116906354f6127f90859084906101c9576101c9611299565b60200260200101516040518263ffffffff1660e01b81526004016101ef91815260200190565b600060405180830381865afa15801561020c573d6000803e3d6000fd5b505050506040513d6000823e601f3d908101601f1916820160405261023491908101906112db565b805190915015610263576001604051637d29e6e160e01b815260040161025a9190611388565b60405180910390fd5b6040516001600160601b0319606086901b1660208201526034016040516020818303038152906040528260008151811061029f5761029f611299565b602090810291909101810191909152604080516992a4ebfa1896d9ad8b4360b01b81840152606087901b6001600160601b031916602c82015281518082039093018352810190526102ef90611272565b8360018151811061030257610302611299565b60209081029190910101526000805484516001600160a01b03909116906354f6127f908690600190811061033857610338611299565b60200260200101516040518263ffffffff1660e01b815260040161035e91815260200190565b600060405180830381865afa15801561037b573d6000803e3d6000fd5b505050506040513d6000823e601f3d908101601f191682016040526103a391908101906112db565b90506103af3382610bba565b836001815181106103c2576103c2611299565b60200260200101819052506103d78484610db5565b5050505050565b61041233600860001b6040518060400160405280600d81526020016c53454e445f44454c454741544560981b815250610b6a565b6040805160028082526060820183526000926020830190803683375050604080516002808252606082019092529293506000929150602082015b606081526020019060019003908161044c579050506040805169028c39d29b1e1a39000560b21b60208201526001600160601b03193360601b16602c820152919250016040516020818303038152906040526104a790611272565b826000815181106104ba576104ba611299565b60209081029190910101526000805483516001600160a01b03909116906354f6127f90859084906104ed576104ed611299565b60200260200101516040518263ffffffff1660e01b815260040161051391815260200190565b600060405180830381865afa158015610530573d6000803e3d6000fd5b505050506040513d6000823e601f3d908101601f1916820160405261055891908101906112db565b9050805160001415610580576004604051637d29e6e160e01b815260040161025a9190611388565b60405180602001604052806000815250826000815181106105a3576105a3611299565b60200260200101819052506b92a4ebfa1896d9ad8b43000060a01b816040516020016105d09291906113f8565b6040516020818303038152906040526105e890611272565b836001815181106105fb576105fb611299565b6020026020010181815250506106b03360008054906101000a90046001600160a01b03166001600160a01b03166354f6127f8660018151811061064057610640611299565b60200260200101516040518263ffffffff1660e01b815260040161066691815260200190565b600060405180830381865afa158015610683573d6000803e3d6000fd5b505050506040513d6000823e601f3d908101601f191682016040526106ab91908101906112db565b610eb8565b826001815181106106c3576106c3611299565b60200260200101819052506106d88383610db5565b505050565b61071133600860001b6040518060400160405280600d81526020016c53454e445f44454c454741544560981b815250610b6a565b61075581601060001b6040518060400160405280601081526020017f524543494556455f44454c454741544500000000000000000000000000000000815250610b6a565b60408051600380825260808201909252600091602082016060803683375050604080516003808252608082019092529293506000929150602082015b6060815260200190600190039081610791579050506040805169028c39d29b1e1a39000560b21b60208201526001600160601b03193360601b16602c820152919250016040516020818303038152906040526107ec90611272565b826000815181106107ff576107ff611299565b60209081029190910101526000805483516001600160a01b03909116906354f6127f908590849061083257610832611299565b60200260200101516040518263ffffffff1660e01b815260040161085891815260200190565b600060405180830381865afa158015610875573d6000803e3d6000fd5b505050506040513d6000823e601f3d908101601f1916820160405261089d91908101906112db565b905060008460601b90506014825110156108cd576002604051637d29e6e160e01b815260040161025a9190611388565b6108d682611435565b6001600160601b03198281169116141561095b5760408051637d29e6e160e01b81526004810191909152600360448201527f44414f000000000000000000000000000000000000000000000000000000000060648201527f0300000000000000000000000000000000000000000000000000000000000000602482015260840161025a565b6040516001600160601b0319821660208201526034016040516020818303038152906040528360008151811061099357610993611299565b60200260200101819052506b92a4ebfa1896d9ad8b43000060a01b826040516020016109c09291906113f8565b6040516020818303038152906040526109d890611272565b846001815181106109eb576109eb611299565b602002602001018181525050610a303360008054906101000a90046001600160a01b03166001600160a01b03166354f6127f8760018151811061064057610640611299565b83600181518110610a4357610a43611299565b602090810291909101810191909152604080516992a4ebfa1896d9ad8b4360b01b818401526001600160601b03198416602c8201528151808203909301835281019052610a8f90611272565b84600281518110610aa257610aa2611299565b602002602001018181525050610b573360008054906101000a90046001600160a01b03166001600160a01b03166354f6127f87600281518110610ae757610ae7611299565b60200260200101516040518263ffffffff1660e01b8152600401610b0d91815260200190565b600060405180830381865afa158015610b2a573d6000803e3d6000fd5b505050506040513d6000823e601f3d908101601f19168201604052610b5291908101906112db565b610bba565b836002815181106103c2576103c2611299565b6000610b7584611153565b9050828116610bb45783826040517f3bdad6e600000000000000000000000000000000000000000000000000000000815260040161025a929190611498565b50505050565b60608151600014610d4757604080516000602082018190529101604051602081830303815290604052905060005b6020811015610c615783610bfd8260206114d8565b81518110610c0d57610c0d611299565b602001015160f81c60f81b828281518110610c2a57610c2a611299565b60200101907effffffffffffffffffffffffffffffffffffffffffffffffffffffffffffff1916908160001a905350600101610be8565b506000610c6d82611272565b610c789060016114d8565b60408051602081019290925201604051602081830303815290604052905060005b6020811015610d1457818181518110610cb457610cb4611299565b602001015160f81c60f81b85826020610ccd91906114d8565b81518110610cdd57610cdd611299565b60200101907effffffffffffffffffffffffffffffffffffffffffffffffffffffffffffff1916908160001a905350600101610c99565b50604051610d2f908590600090606089901b906020016114f0565b60405160208183030381529060405292505050610daf565b50604080516000602082018190527f2000000000000000000000000000000000000000000000000000000000000000603f8301526001828401526060808301919091526001600160601b031985821b16606c8301528251808303909101815260809091019091525b92915050565b6001546040516001600160a01b03909116906309c5eabe907f14a6e2931875c22579e483160c8d2832a3fb3acbd575a49f6a0f7fc5e135f78990610dff908690869060240161153e565b60408051601f198184030181529181526020820180517bffffffffffffffffffffffffffffffffffffffffffffffffffffffff167fffffffff000000000000000000000000000000000000000000000000000000009485161790525160e084901b9092168252610e71916004016115d6565b6000604051808303816000875af1158015610e90573d6000803e3d6000fd5b505050506040513d6000823e601f3d908101601f191682016040526106d891908101906112db565b6060600060208351610eca91906115e9565b905060008167ffffffffffffffff811115610ee757610ee761125c565b604051908082528060200260200182016040528015610f10578160200160208202803683370190505b509050610f1c84611272565b81600081518110610f2f57610f2f611299565b602090810291909101015260025b828111610faa576000808284600081518110610f5b57610f5b611299565b602002602001015160001c610f70919061160b565b87810151925090508184610f8560018661162a565b81518110610f9557610f95611299565b60209081029190910101525050600101610f3d565b50604080516000602082018190526001600160601b0319606089901b16602c8301529101604051602081830303815290604052610fe690611272565b905081516003141561102c57808260028151811061100657611006611299565b60200260200101511415611027576040518060200160405280600081525093505b61114a565b60038251111561114a5760005b60018351611047919061162a565b8110156111485782818151811061106057611060611299565b60200260200101518214156110be5784836001855161107f919061162a565b8151811061108f5761108f611299565b60200260200101516040516020016110a8929190611641565b6040516020818303038152906040529450611140565b8060011415611102578460018483815181106110dc576110dc611299565b602002602001015160001c6110f1919061162a565b6040516110a8929190602001611641565b8483828151811061111557611115611299565b602002602001015160405160200161112e929190611641565b60405160208183030381529060405294505b600101611039565b505b50505092915050565b60008054604080517f4b80742de2bfb3cc0e490000000000000000000000000000000000000000000060208201526001600160601b0319606086901b16602c8201526001600160a01b03909216916354f6127f91016040516020818303038152906040526111c090611272565b6040518263ffffffff1660e01b81526004016111de91815260200190565b600060405180830381865afa1580156111fb573d6000803e3d6000fd5b505050506040513d6000823e601f3d908101601f1916820160405261122391908101906112db565b610daf90611272565b60006020828403121561123e57600080fd5b81356001600160a01b038116811461125557600080fd5b9392505050565b634e487b7160e01b600052604160045260246000fd5b80516020808301519190811015611293576000198160200360031b1b821691505b50919050565b634e487b7160e01b600052603260045260246000fd5b60005b838110156112ca5781810151838201526020016112b2565b83811115610bb45750506000910152565b6000602082840312156112ed57600080fd5b815167ffffffffffffffff8082111561130557600080fd5b818401915084601f83011261131957600080fd5b81518181111561132b5761132b61125c565b604051601f8201601f19908116603f011681019083821181831017156113535761135361125c565b8160405282815287602084870101111561136c57600080fd5b61137d8360208301602088016112af565b979650505050505050565b6040815260006113c560408301600c81527f44616f44656c6567617465730000000000000000000000000000000000000000602082015260400190565b90507fff000000000000000000000000000000000000000000000000000000000000008360f81b16602083015292915050565b73ffffffffffffffffffffffffffffffffffffffff19831681526000825161142781600c8501602087016112af565b91909101600c019392505050565b805160208201516001600160601b031980821692919060148310156114645780818460140360031b1b83161693505b505050919050565b600081518084526114848160208601602086016112af565b601f01601f19169290920160200192915050565b6001600160a01b03831681526040602082015260006114ba604083018461146c565b949350505050565b634e487b7160e01b600052601160045260246000fd5b600082198211156114eb576114eb6114c2565b500190565b600084516115028184602089016112af565b73ffffffffffffffffffffffffffffffffffffffff1994909416919093019081526001600160601b031991909116600c82015260200192915050565b604080825283519082018190526000906020906060840190828701845b828110156115775781518452928401929084019060010161155b565b50505083810382850152845180825282820190600581901b8301840187850160005b838110156115c757601f198684030185526115b583835161146c565b94870194925090860190600101611599565b50909998505050505050505050565b602081526000611255602083018461146c565b60008261160657634e487b7160e01b600052601260045260246000fd5b500490565b6000816000190483118215151615611625576116256114c2565b500290565b60008282101561163c5761163c6114c2565b500390565b600083516116538184602088016112af565b919091019182525060200191905056fea2646970667358221220e1fcfd0626748e6eedadd059fc3f9b327735cabae6453ebb62ded7422d8c1d9a64736f6c634300080a0033a26469706673582212201df4e46c4d7a6843229223193a681d73011329682512824cfb6c7ea2a9b2674564736f6c634300080a0033",
  "linkReferences": {},
  "deployedLinkReferences": {}
}