{
  "_format": "hh-sol-artifact-1",
  "contractName": "DaoProposals",
  "sourceName": "contracts/Dao/DaoProposals.sol",
  "abi": [
    {
      "inputs": [
        {
          "internalType": "address payable",
          "name": "_UNIVERSAL_PROFILE",
          "type": "address"
        },
        {
          "internalType": "address",
          "name": "_KEY_MANAGER",
          "type": "address"
        }
      ],
      "stateMutability": "nonpayable",
      "type": "constructor"
    },
    {
      "inputs": [
        {
          "internalType": "string",
          "name": "contractName",
          "type": "string"
        },
        {
          "internalType": "bytes1",
          "name": "errorNumber",
          "type": "bytes1"
        }
      ],
      "name": "IndexedError",
      "type": "error"
    },
    {
      "inputs": [
        {
          "internalType": "address",
          "name": "from",
          "type": "address"
        },
        {
          "internalType": "string",
          "name": "permission",
          "type": "string"
        }
      ],
      "name": "NotAuthorised",
      "type": "error"
    },
    {
      "anonymous": false,
      "inputs": [
        {
          "indexed": false,
          "internalType": "bytes10",
          "name": "proposalSignature",
          "type": "bytes10"
        }
      ],
      "name": "ProposalCannotBeExecuted",
      "type": "event"
    },
    {
      "anonymous": false,
      "inputs": [
        {
          "indexed": false,
          "internalType": "bytes10",
          "name": "proposalSignature",
          "type": "bytes10"
        }
      ],
      "name": "ProposalCreated",
      "type": "event"
    },
    {
      "anonymous": false,
      "inputs": [
        {
          "indexed": false,
          "internalType": "bytes10",
          "name": "proposalSignature",
          "type": "bytes10"
        }
      ],
      "name": "ProposalExecuted",
      "type": "event"
    },
    {
      "anonymous": false,
      "inputs": [
        {
          "indexed": false,
          "internalType": "bytes10",
          "name": "proposalSignature",
          "type": "bytes10"
        }
      ],
      "name": "VotesRegistered",
      "type": "event"
    },
    {
      "inputs": [
        {
          "internalType": "string",
          "name": "_title",
          "type": "string"
        },
        {
          "internalType": "string",
          "name": "_metadataLink",
          "type": "string"
        },
        {
          "internalType": "bytes32",
          "name": "_votingDelay",
          "type": "bytes32"
        },
        {
          "internalType": "bytes32",
          "name": "_votingPeriod",
          "type": "bytes32"
        },
        {
          "internalType": "bytes32",
          "name": "_executionDelay",
          "type": "bytes32"
        },
        {
          "internalType": "bytes[]",
          "name": "_payloads",
          "type": "bytes[]"
        },
        {
          "internalType": "bytes32",
          "name": "_choices",
          "type": "bytes32"
        },
        {
          "internalType": "bytes32",
          "name": "_choicesPerVote",
          "type": "bytes32"
        }
      ],
      "name": "createProposal",
      "outputs": [],
      "stateMutability": "nonpayable",
      "type": "function"
    },
    {
      "inputs": [
        {
          "internalType": "bytes10",
          "name": "_proposalSignature",
          "type": "bytes10"
        }
      ],
      "name": "executeProposal",
      "outputs": [
        {
          "internalType": "uint256[]",
          "name": "",
          "type": "uint256[]"
        }
      ],
      "stateMutability": "nonpayable",
      "type": "function"
    },
    {
      "inputs": [
        {
          "internalType": "address",
          "name": "_signer",
          "type": "address"
        },
        {
          "internalType": "bytes10",
          "name": "_proposalSignature",
          "type": "bytes10"
        },
        {
          "internalType": "bytes32",
          "name": "_choicesBitArray",
          "type": "bytes32"
        }
      ],
      "name": "getProposalHash",
      "outputs": [
        {
          "internalType": "bytes32",
          "name": "_hash",
          "type": "bytes32"
        }
      ],
      "stateMutability": "view",
      "type": "function"
    },
    {
      "inputs": [
        {
          "internalType": "bytes10",
          "name": "_proposalSignature",
          "type": "bytes10"
        },
        {
          "internalType": "bytes[]",
          "name": "_signatures",
          "type": "bytes[]"
        },
        {
          "internalType": "address[]",
          "name": "_signers",
          "type": "address[]"
        },
        {
          "internalType": "bytes32[]",
          "name": "_choicesBitArray",
          "type": "bytes32[]"
        }
      ],
      "name": "registerVotes",
      "outputs": [],
      "stateMutability": "nonpayable",
      "type": "function"
    }
  ],
  "bytecode": "0x60806040523480156200001157600080fd5b506040516200506738038062005067833981810160405281019062000037919062000170565b81600460006101000a81548173ffffffffffffffffffffffffffffffffffffffff021916908373ffffffffffffffffffffffffffffffffffffffff16021790555080600560006101000a81548173ffffffffffffffffffffffffffffffffffffffff021916908373ffffffffffffffffffffffffffffffffffffffff1602179055505050620001b7565b600080fd5b600073ffffffffffffffffffffffffffffffffffffffff82169050919050565b6000620000f382620000c6565b9050919050565b6200010581620000e6565b81146200011157600080fd5b50565b6000815190506200012581620000fa565b92915050565b60006200013882620000c6565b9050919050565b6200014a816200012b565b81146200015657600080fd5b50565b6000815190506200016a816200013f565b92915050565b600080604083850312156200018a5762000189620000c1565b5b60006200019a8582860162000114565b9250506020620001ad8582860162000159565b9150509250929050565b614ea080620001c76000396000f3fe608060405234801561001057600080fd5b506004361061004c5760003560e01c806310a571bd146100515780632b9cfb0c1461006d5780635c9cafcf1461009d5780639f059253146100cd575b600080fd5b61006b600480360381019061006691906135a0565b6100e9565b005b6100876004803603810190610082919061365b565b6106a3565b60405161009491906136bd565b60405180910390f35b6100b760048036038101906100b291906136d8565b61071b565b6040516100c491906137cd565b60405180910390f35b6100e760048036038101906100e291906138a0565b611009565b005b61012d33608060001b6040518060400160405280600e81526020017f52454749535445525f564f544553000000000000000000000000000000000000815250611b97565b8151835114158061014057508051825114155b156101835760056040517f7d29e6e100000000000000000000000000000000000000000000000000000000815260040161017a9190613a89565b60405180910390fd5b6000600460009054906101000a900473ffffffffffffffffffffffffffffffffffffffff1673ffffffffffffffffffffffffffffffffffffffff166354f6127f8673bd3132afbfa232f7d171a873f7e52e32c666b06d60501b6040516020016101ed929190613b25565b60405160208183030381529060405261020590613b8e565b6040518263ffffffff1660e01b815260040161022191906136bd565b60006040518083038186803b15801561023957600080fd5b505afa15801561024d573d6000803e3d6000fd5b505050506040513d6000823e3d601f19601f820116820180604052508101906102769190613c98565b61027f90613b8e565b90506000600460009054906101000a900473ffffffffffffffffffffffffffffffffffffffff1673ffffffffffffffffffffffffffffffffffffffff166354f6127f8773cc713dffc839645a02779745d6e8e8cca753795c60501b6040516020016102eb929190613b25565b60405160208183030381529060405261030390613b8e565b6040518263ffffffff1660e01b815260040161031f91906136bd565b60006040518083038186803b15801561033757600080fd5b505afa15801561034b573d6000803e3d6000fd5b505050506040513d6000823e3d601f19601f820116820180604052508101906103749190613c98565b61037d90613b8e565b90506000600460009054906101000a900473ffffffffffffffffffffffffffffffffffffffff1673ffffffffffffffffffffffffffffffffffffffff166354f6127f88736ebe389303905e56ea48aecac1536207791d0e6760501b6040516020016103e9929190613b25565b60405160208183030381529060405261040190613b8e565b6040518263ffffffff1660e01b815260040161041d91906136bd565b60006040518083038186803b15801561043557600080fd5b505afa158015610449573d6000803e3d6000fd5b505050506040513d6000823e3d601f19601f820116820180604052508101906104729190613c98565b61047b90613b8e565b9050428160001c8360001c8560001c6104949190613d10565b61049e9190613d10565b11156104e25760066040517f7d29e6e10000000000000000000000000000000000000000000000000000000081526004016104d99190613da1565b60405180910390fd5b42620151808260001c8460001c8660001c6104fd9190613d10565b6105079190613d10565b6105119190613d10565b10156105555760076040517f7d29e6e100000000000000000000000000000000000000000000000000000000815260040161054c9190613e0a565b60405180910390fd5b85600160008975ffffffffffffffffffffffffffffffffffffffffffff191675ffffffffffffffffffffffffffffffffffffffffffff1916815260200190815260200160002090805190602001906105ae929190612e93565b5084600260008975ffffffffffffffffffffffffffffffffffffffffffff191675ffffffffffffffffffffffffffffffffffffffffffff191681526020019081526020016000209080519060200190610608929190612ef3565b5083600360008975ffffffffffffffffffffffffffffffffffffffffffff191675ffffffffffffffffffffffffffffffffffffffffffff191681526020019081526020016000209080519060200190610662929190612f7d565b507f4dc00a98dcc41b55c01729b5fc18bfabb483c326f7f24db552b410f9e294b813876040516106929190613e47565b60405180910390a150505050505050565b6000308484846000808973ffffffffffffffffffffffffffffffffffffffff1673ffffffffffffffffffffffffffffffffffffffff168152602001908152602001600020546040516020016106fc959493929190613eec565b6040516020818303038152906040528051906020012090509392505050565b606061076133600460001b6040518060400160405280600781526020017f4558454355544500000000000000000000000000000000000000000000000000815250611b97565b61076a82611bf6565b6000600460009054906101000a900473ffffffffffffffffffffffffffffffffffffffff1673ffffffffffffffffffffffffffffffffffffffff166354f6127f84732d53f22395ee464559c1d5b27661145933a15e8f60501b6040516020016107d4929190613b25565b6040516020818303038152906040526107ec90613b8e565b6040518263ffffffff1660e01b815260040161080891906136bd565b60006040518083038186803b15801561082057600080fd5b505afa158015610834573d6000803e3d6000fd5b505050506040513d6000823e3d601f19601f8201168201806040525081019061085d9190613c98565b90506000600460009054906101000a900473ffffffffffffffffffffffffffffffffffffffff1673ffffffffffffffffffffffffffffffffffffffff166354f6127f8573e5dd8acc7154a678a0a3fa3fe2d65b8700bf702c60501b6040516020016108c9929190613b25565b6040516020818303038152906040526108e190613b8e565b6040518263ffffffff1660e01b81526004016108fd91906136bd565b60006040518083038186803b15801561091557600080fd5b505afa158015610929573d6000803e3d6000fd5b505050506040513d6000823e3d601f19601f820116820180604052508101906109529190613c98565b905060008161096090613b8e565b60001c67ffffffffffffffff81111561097c5761097b613170565b5b6040519080825280602002602001820160405280156109aa5781602001602082028036833780820191505090505b50905060005b600160008775ffffffffffffffffffffffffffffffffffffffffffff191675ffffffffffffffffffffffffffffffffffffffffffff1916815260200190815260200160002080549050811015610d85576000610bd987600160008a75ffffffffffffffffffffffffffffffffffffffffffff191675ffffffffffffffffffffffffffffffffffffffffffff191681526020019081526020016000208481548110610a5d57610a5c613f4b565b5b906000526020600020018054610a7290613fa9565b80601f0160208091040260200160405190810160405280929190818152602001828054610a9e90613fa9565b8015610aeb5780601f10610ac057610100808354040283529160200191610aeb565b820191906000526020600020905b815481529060010190602001808311610ace57829003601f168201915b5050505050600260008b75ffffffffffffffffffffffffffffffffffffffffffff191675ffffffffffffffffffffffffffffffffffffffffffff191681526020019081526020016000208581548110610b4757610b46613f4b565b5b9060005260206000200160009054906101000a900473ffffffffffffffffffffffffffffffffffffffff16600360008c75ffffffffffffffffffffffffffffffffffffffffffff191675ffffffffffffffffffffffffffffffffffffffffffff191681526020019081526020016000208681548110610bc957610bc8613f4b565b5b9060005260206000200154612076565b90506000610c698883600260008c75ffffffffffffffffffffffffffffffffffffffffffff191675ffffffffffffffffffffffffffffffffffffffffffff191681526020019081526020016000208681548110610c3957610c38613f4b565b5b9060005260206000200160009054906101000a900473ffffffffffffffffffffffffffffffffffffffff166120ac565b90506000811115610d7057600080600090505b86610c8690613b8e565b60001c81108015610ca3575087610c9c90613b8e565b60001c8211155b15610d6d576000801b816001901b60001b600360008d75ffffffffffffffffffffffffffffffffffffffffffff191675ffffffffffffffffffffffffffffffffffffffffffff191681526020019081526020016000208781548110610d0b57610d0a613f4b565b5b90600052602060002001541614610d5a5782868281518110610d3057610d2f613f4b565b5b60200260200101818151610d449190613d10565b915081815250508180610d5690613fdb565b9250505b8080610d6590613fdb565b915050610c7c565b50505b50508080610d7d90613fdb565b9150506109b0565b506000600460009054906101000a900473ffffffffffffffffffffffffffffffffffffffff1673ffffffffffffffffffffffffffffffffffffffff166354f6127f8773922cb700268d68a7160e60fe26870af11cd98aaa60501b604051602001610df0929190613b25565b604051602081830303815290604052610e0890613b8e565b6040518263ffffffff1660e01b8152600401610e2491906136bd565b60006040518083038186803b158015610e3c57600080fd5b505afa158015610e50573d6000803e3d6000fd5b505050506040513d6000823e3d601f19601f82011682018060405250810190610e799190613c98565b806020019051810190610e8c91906140d9565b9050610e9782612202565b15610fc55760005b8151811015610f8857600560009054906101000a900473ffffffffffffffffffffffffffffffffffffffff1673ffffffffffffffffffffffffffffffffffffffff166309c5eabe838381518110610ef957610ef8613f4b565b5b60200260200101516040518263ffffffff1660e01b8152600401610f1d919061416c565b600060405180830381600087803b158015610f3757600080fd5b505af1158015610f4b573d6000803e3d6000fd5b505050506040513d6000823e3d601f19601f82011682018060405250810190610f749190613c98565b508080610f8090613fdb565b915050610e9f565b507f2384a1fea9d4563a5a40e226f0bef3e9b7e5e31050948d3f4ffc4778c660d02086604051610fb89190613e47565b60405180910390a1610ffd565b7f7f1e8e4e71aa14ae9d1213eb75794444949e28edbaa76a176e530961abc4dad486604051610ff49190613e47565b60405180910390a15b81945050505050919050565b61104d33600260001b6040518060400160405280600781526020017f50524f504f534500000000000000000000000000000000000000000000000000815250611b97565b818111156110935760016040517f7d29e6e100000000000000000000000000000000000000000000000000000000815260040161108a91906141c9565b60405180910390fd5b600460009054906101000a900473ffffffffffffffffffffffffffffffffffffffff1673ffffffffffffffffffffffffffffffffffffffff166354f6127f7f799787138cc40d7a47af8e69bdea98db14e1ead8227cef96814fa51751e25c7660001b6040518263ffffffff1660e01b815260040161111191906136bd565b60006040518083038186803b15801561112957600080fd5b505afa15801561113d573d6000803e3d6000fd5b505050506040513d6000823e3d601f19601f820116820180604052508101906111669190613c98565b61116f90613b8e565b8710156111b45760026040517f7d29e6e10000000000000000000000000000000000000000000000000000000081526004016111ab9190614232565b60405180910390fd5b600460009054906101000a900473ffffffffffffffffffffffffffffffffffffffff1673ffffffffffffffffffffffffffffffffffffffff166354f6127f7fd3cf4cd71858ea36c3f5ce43955db04cbe9e1f42a2c7795c25c1d430c9bb280a60001b6040518263ffffffff1660e01b815260040161123291906136bd565b60006040518083038186803b15801561124a57600080fd5b505afa15801561125e573d6000803e3d6000fd5b505050506040513d6000823e3d601f19601f820116820180604052508101906112879190613c98565b61129090613b8e565b8610156112d55760036040517f7d29e6e10000000000000000000000000000000000000000000000000000000081526004016112cc919061429b565b60405180910390fd5b600460009054906101000a900473ffffffffffffffffffffffffffffffffffffffff1673ffffffffffffffffffffffffffffffffffffffff166354f6127f7fb207580c05383177027a90d6c298046d3d60dfa05a32b0bb48ea9015e11a342460001b6040518263ffffffff1660e01b815260040161135391906136bd565b60006040518083038186803b15801561136b57600080fd5b505afa15801561137f573d6000803e3d6000fd5b505050506040513d6000823e3d601f19601f820116820180604052508101906113a89190613c98565b6113b190613b8e565b8510156113f65760046040517f7d29e6e10000000000000000000000000000000000000000000000000000000081526004016113ed9190614304565b60405180910390fd5b600061142b8c8c426040516020016114109392919061436e565b60405160208183030381529060405280519060200120612705565b90506000600867ffffffffffffffff81111561144a57611449613170565b5b6040519080825280602002602001820160405280156114785781602001602082028036833780820191505090505b5090506000600867ffffffffffffffff81111561149857611497613170565b5b6040519080825280602002602001820160405280156114cb57816020015b60608152602001906001900390816114b65790505b50905082734a8279d372333473468a5a28870c140a7941f66860501b6040516020016114f8929190613b25565b60405160208183030381529060405261151090613b8e565b8260008151811061152457611523613f4b565b5b6020026020010181815250508b8b8080601f016020809104026020016040519081016040528093929190818152602001838380828437600081840152601f19601f820116905080830192505050505050508160008151811061158957611588613f4b565b5b60200260200101819052508273cc713dffc839645a02779745d6e8e8cca753795c60501b6040516020016115be929190613b25565b6040516020818303038152906040526115d690613b8e565b826001815181106115ea576115e9613f4b565b5b6020026020010181815250508960405160200161160791906143a0565b6040516020818303038152906040528160018151811061162a57611629613f4b565b5b602002602001018190525082736ebe389303905e56ea48aecac1536207791d0e6760501b60405160200161165f929190613b25565b60405160208183030381529060405261167790613b8e565b8260028151811061168b5761168a613f4b565b5b602002602001018181525050886040516020016116a891906143a0565b604051602081830303815290604052816002815181106116cb576116ca613f4b565b5b60200260200101819052508273164526a330a273b37abc4c89336a3042182a391060501b604051602001611700929190613b25565b60405160208183030381529060405261171890613b8e565b8260038151811061172c5761172b613f4b565b5b6020026020010181815250508760405160200161174991906143a0565b6040516020818303038152906040528160038151811061176c5761176b613f4b565b5b60200260200101819052508273bd3132afbfa232f7d171a873f7e52e32c666b06d60501b6040516020016117a1929190613b25565b6040516020818303038152906040526117b990613b8e565b826004815181106117cd576117cc613f4b565b5b6020026020010181815250504260001b6040516020016117ed91906143a0565b604051602081830303815290604052816004815181106118105761180f613f4b565b5b60200260200101819052508273e5dd8acc7154a678a0a3fa3fe2d65b8700bf702c60501b604051602001611845929190613b25565b60405160208183030381529060405261185d90613b8e565b8260058151811061187157611870613f4b565b5b6020026020010181815250508460405160200161188e91906143a0565b604051602081830303815290604052816005815181106118b1576118b0613f4b565b5b602002602001018190525082732d53f22395ee464559c1d5b27661145933a15e8f60501b6040516020016118e6929190613b25565b6040516020818303038152906040526118fe90613b8e565b8260068151811061191257611911613f4b565b5b6020026020010181815250508360405160200161192f91906143a0565b6040516020818303038152906040528160068151811061195257611951613f4b565b5b60200260200101819052506000878790501115611a0d578273922cb700268d68a7160e60fe26870af11cd98aaa60501b604051602001611993929190613b25565b6040516020818303038152906040526119ab90613b8e565b826007815181106119bf576119be613f4b565b5b60200260200101818152505086866040516020016119de92919061451f565b60405160208183030381529060405281600781518110611a0157611a00613f4b565b5b60200260200101819052505b600560009054906101000a900473ffffffffffffffffffffffffffffffffffffffff1673ffffffffffffffffffffffffffffffffffffffff166309c5eabe7f14a6e2931875c22579e483160c8d2832a3fb3acbd575a49f6a0f7fc5e135f7898484604051602401611a7f9291906146eb565b604051602081830303815290604052907bffffffffffffffffffffffffffffffffffffffffffffffffffffffff19166020820180517bffffffffffffffffffffffffffffffffffffffffffffffffffffffff83818316178352505050506040518263ffffffff1660e01b8152600401611af8919061416c565b600060405180830381600087803b158015611b1257600080fd5b505af1158015611b26573d6000803e3d6000fd5b505050506040513d6000823e3d601f19601f82011682018060405250810190611b4f9190613c98565b507fa1132638bf652459b06b9321dbbbbcd15050052900733c1699eb8e8454d1f24183604051611b7f9190613e47565b60405180910390a15050505050505050505050505050565b6000611ba284612740565b90506000801b8382161415611bf05783826040517f3bdad6e6000000000000000000000000000000000000000000000000000000008152600401611be7929190614775565b60405180910390fd5b50505050565b6000600460009054906101000a900473ffffffffffffffffffffffffffffffffffffffff1673ffffffffffffffffffffffffffffffffffffffff166354f6127f8373bd3132afbfa232f7d171a873f7e52e32c666b06d60501b604051602001611c60929190613b25565b604051602081830303815290604052611c7890613b8e565b6040518263ffffffff1660e01b8152600401611c9491906136bd565b60006040518083038186803b158015611cac57600080fd5b505afa158015611cc0573d6000803e3d6000fd5b505050506040513d6000823e3d601f19601f82011682018060405250810190611ce99190613c98565b611cf290613b8e565b90506000600460009054906101000a900473ffffffffffffffffffffffffffffffffffffffff1673ffffffffffffffffffffffffffffffffffffffff166354f6127f8473cc713dffc839645a02779745d6e8e8cca753795c60501b604051602001611d5e929190613b25565b604051602081830303815290604052611d7690613b8e565b6040518263ffffffff1660e01b8152600401611d9291906136bd565b60006040518083038186803b158015611daa57600080fd5b505afa158015611dbe573d6000803e3d6000fd5b505050506040513d6000823e3d601f19601f82011682018060405250810190611de79190613c98565b611df090613b8e565b90506000600460009054906101000a900473ffffffffffffffffffffffffffffffffffffffff1673ffffffffffffffffffffffffffffffffffffffff166354f6127f85736ebe389303905e56ea48aecac1536207791d0e6760501b604051602001611e5c929190613b25565b604051602081830303815290604052611e7490613b8e565b6040518263ffffffff1660e01b8152600401611e9091906136bd565b60006040518083038186803b158015611ea857600080fd5b505afa158015611ebc573d6000803e3d6000fd5b505050506040513d6000823e3d601f19601f82011682018060405250810190611ee59190613c98565b611eee90613b8e565b90506000600460009054906101000a900473ffffffffffffffffffffffffffffffffffffffff1673ffffffffffffffffffffffffffffffffffffffff166354f6127f8673164526a330a273b37abc4c89336a3042182a391060501b604051602001611f5a929190613b25565b604051602081830303815290604052611f7290613b8e565b6040518263ffffffff1660e01b8152600401611f8e91906136bd565b60006040518083038186803b158015611fa657600080fd5b505afa158015611fba573d6000803e3d6000fd5b505050506040513d6000823e3d601f19601f82011682018060405250810190611fe39190613c98565b611fec90613b8e565b9050428160001c620151808460001c8660001c8860001c61200d9190613d10565b6120179190613d10565b6120219190613d10565b61202b9190613d10565b111561206f5760086040517f7d29e6e100000000000000000000000000000000000000000000000000000000815260040161206691906147e0565b60405180910390fd5b5050505050565b60008061208c6120878588866106a3565b61283e565b90506120a1858261286e90919063ffffffff16565b915050949350505050565b60006120b9848484612895565b6120c657600090506121fb565b600190506000801b601060001b6120dc85612740565b16146121fa576000600460009054906101000a900473ffffffffffffffffffffffffffffffffffffffff1673ffffffffffffffffffffffffffffffffffffffff166354f6127f6b92a4ebfa1896d9ad8b43000060a01b8660601b6040516020016121479291906148a8565b60405160208183030381529060405261215f90613b8e565b6040518263ffffffff1660e01b815260040161217b91906136bd565b60006040518083038186803b15801561219357600080fd5b505afa1580156121a7573d6000803e3d6000fd5b505050506040513d6000823e3d601f19601f820116820180604052508101906121d09190613c98565b90506040815111156121f8576000604082015190508060001c836121f49190613d10565b9250505b505b5b9392505050565b60008080600084519050600160028261221b9190614903565b14156122755760018161222e9190614934565b60c861223a9190614968565b92508460028261224a9190614968565b8151811061225b5761225a613f4b565b5b60200260200101518261226e9190613d10565b9150612285565b8060c86122829190614968565b92505b60008060005b6002846122989190614968565b8110156123fb576001816122ac9190613d10565b866122b79190614999565b8882815181106122ca576122c9613f4b565b5b60200260200101516122dc9190614999565b836122e79190613d10565b925060016002856122f89190614903565b141561237b578060028561230c9190614968565b6123169190614934565b866123219190614999565b8860028661232f9190614968565b60018461233c9190613d10565b6123469190613d10565b8151811061235757612356613f4b565b5b60200260200101516123699190614999565b826123749190613d10565b91506123e8565b806002856123899190614968565b6123939190614934565b8661239e9190614999565b886002866123ac9190614968565b836123b79190613d10565b815181106123c8576123c7613f4b565b5b60200260200101516123da9190614999565b826123e59190613d10565b91505b80806123f390613fdb565b91505061228b565b5080826124089190613d10565b846124139190613d10565b93506000600460009054906101000a900473ffffffffffffffffffffffffffffffffffffffff1673ffffffffffffffffffffffffffffffffffffffff166354f6127f7fbc776f168e7b9c60bb2a7180950facd372cd90c841732d963c31a93ff9f8c12760001b6040518263ffffffff1660e01b815260040161249591906136bd565b60006040518083038186803b1580156124ad57600080fd5b505afa1580156124c1573d6000803e3d6000fd5b505050506040513d6000823e3d601f19601f820116820180604052508101906124ea9190613c98565b90506000600460009054906101000a900473ffffffffffffffffffffffffffffffffffffffff1673ffffffffffffffffffffffffffffffffffffffff166354f6127f7ff89f507ecd9cb7646ce1514ec6ab90d695dac9314c3771f451fd90148a3335a960001b6040518263ffffffff1660e01b815260040161256c91906136bd565b60006040518083038186803b15801561258457600080fd5b505afa158015612598573d6000803e3d6000fd5b505050506040513d6000823e3d601f19601f820116820180604052508101906125c19190613c98565b90506000600460009054906101000a900473ffffffffffffffffffffffffffffffffffffffff1673ffffffffffffffffffffffffffffffffffffffff166354f6127f7ff7f9c7410dd493d79ebdaee15bbc77fd163bd488f54107d1be6ed34b1e09900460001b6040518263ffffffff1660e01b815260040161264391906136bd565b60006040518083038186803b15801561265b57600080fd5b505afa15801561266f573d6000803e3d6000fd5b505050506040513d6000823e3d601f19601f820116820180604052508101906126989190613c98565b9050826126a490613b8e565b60001c876064876126b59190614999565b6126bf9190614968565b1180156126ee5750816126d190613b8e565b60001c816126de90613b8e565b60001c886126ec9190614968565b115b156126f857600198505b5050505050505050919050565b600063c2802fcf60e01b82604051602001612721929190614a8d565b60405160208183030381529060405261273990614ace565b9050919050565b6000600460009054906101000a900473ffffffffffffffffffffffffffffffffffffffff1673ffffffffffffffffffffffffffffffffffffffff166354f6127f6b4b80742de2bfb3cc0e49000060a01b8460601b6040516020016127a59291906148a8565b6040516020818303038152906040526127bd90613b8e565b6040518263ffffffff1660e01b81526004016127d991906136bd565b60006040518083038186803b1580156127f157600080fd5b505afa158015612805573d6000803e3d6000fd5b505050506040513d6000823e3d601f19601f8201168201806040525081019061282e9190613c98565b61283790613b8e565b9050919050565b6000816040516020016128519190614b8c565b604051602081830303815290604052805190602001209050919050565b600080600061287d8585612acf565b9150915061288a81612b52565b819250505092915050565b6000600190508273ffffffffffffffffffffffffffffffffffffffff168273ffffffffffffffffffffffffffffffffffffffff16146128d357600090505b6000600460009054906101000a900473ffffffffffffffffffffffffffffffffffffffff1673ffffffffffffffffffffffffffffffffffffffff166354f6127f6b0a30e74a6c7868e40014000060a01b8660601b6040516020016129389291906148a8565b60405160208183030381529060405261295090613b8e565b6040518263ffffffff1660e01b815260040161296c91906136bd565b60006040518083038186803b15801561298457600080fd5b505afa158015612998573d6000803e3d6000fd5b505050506040513d6000823e3d601f19601f820116820180604052508101906129c19190613c98565b905060008151146129d157600091505b6000858560601b6040516020016129e9929190614bb2565b604051602081830303815290604052612a0190613b8e565b90506000600460009054906101000a900473ffffffffffffffffffffffffffffffffffffffff1673ffffffffffffffffffffffffffffffffffffffff166354f6127f836040518263ffffffff1660e01b8152600401612a6091906136bd565b60006040518083038186803b158015612a7857600080fd5b505afa158015612a8c573d6000803e3d6000fd5b505050506040513d6000823e3d601f19601f82011682018060405250810190612ab59190613c98565b90506000815114612ac557600093505b5050509392505050565b600080604183511415612b115760008060006020860151925060408601519150606086015160001a9050612b0587828585612d27565b94509450505050612b4b565b604083511415612b42576000806020850151915060408501519050612b37868383612e34565b935093505050612b4b565b60006002915091505b9250929050565b60006004811115612b6657612b65614bde565b5b816004811115612b7957612b78614bde565b5b1415612b8457612d24565b60016004811115612b9857612b97614bde565b5b816004811115612bab57612baa614bde565b5b1415612bec576040517f08c379a0000000000000000000000000000000000000000000000000000000008152600401612be390614c59565b60405180910390fd5b60026004811115612c0057612bff614bde565b5b816004811115612c1357612c12614bde565b5b1415612c54576040517f08c379a0000000000000000000000000000000000000000000000000000000008152600401612c4b90614cc5565b60405180910390fd5b60036004811115612c6857612c67614bde565b5b816004811115612c7b57612c7a614bde565b5b1415612cbc576040517f08c379a0000000000000000000000000000000000000000000000000000000008152600401612cb390614d57565b60405180910390fd5b600480811115612ccf57612cce614bde565b5b816004811115612ce257612ce1614bde565b5b1415612d23576040517f08c379a0000000000000000000000000000000000000000000000000000000008152600401612d1a90614de9565b60405180910390fd5b5b50565b6000807f7fffffffffffffffffffffffffffffff5d576e7357a4501ddfe92f46681b20a08360001c1115612d62576000600391509150612e2b565b601b8560ff1614158015612d7a5750601c8560ff1614155b15612d8c576000600491509150612e2b565b600060018787878760405160008152602001604052604051612db19493929190614e25565b6020604051602081039080840390855afa158015612dd3573d6000803e3d6000fd5b505050602060405103519050600073ffffffffffffffffffffffffffffffffffffffff168173ffffffffffffffffffffffffffffffffffffffff161415612e2257600060019250925050612e2b565b80600092509250505b94509492505050565b60008060007f7fffffffffffffffffffffffffffffffffffffffffffffffffffffffffffffff60001b841690506000601b60ff8660001c901c612e779190613d10565b9050612e8587828885612d27565b935093505050935093915050565b828054828255906000526020600020908101928215612ee2579160200282015b82811115612ee1578251829080519060200190612ed1929190612fca565b5091602001919060010190612eb3565b5b509050612eef9190613050565b5090565b828054828255906000526020600020908101928215612f6c579160200282015b82811115612f6b5782518260006101000a81548173ffffffffffffffffffffffffffffffffffffffff021916908373ffffffffffffffffffffffffffffffffffffffff16021790555091602001919060010190612f13565b5b509050612f799190613074565b5090565b828054828255906000526020600020908101928215612fb9579160200282015b82811115612fb8578251825591602001919060010190612f9d565b5b509050612fc69190613091565b5090565b828054612fd690613fa9565b90600052602060002090601f016020900481019282612ff8576000855561303f565b82601f1061301157805160ff191683800117855561303f565b8280016001018555821561303f579182015b8281111561303e578251825591602001919060010190613023565b5b50905061304c9190613074565b5090565b5b80821115613070576000818161306791906130ae565b50600101613051565b5090565b5b8082111561308d576000816000905550600101613075565b5090565b5b808211156130aa576000816000905550600101613092565b5090565b5080546130ba90613fa9565b6000825580601f106130cc57506130eb565b601f0160209004906000526020600020908101906130ea9190613074565b5b50565b6000604051905090565b600080fd5b600080fd5b60007fffffffffffffffffffff0000000000000000000000000000000000000000000082169050919050565b61313781613102565b811461314257600080fd5b50565b6000813590506131548161312e565b92915050565b600080fd5b6000601f19601f8301169050919050565b7f4e487b7100000000000000000000000000000000000000000000000000000000600052604160045260246000fd5b6131a88261315f565b810181811067ffffffffffffffff821117156131c7576131c6613170565b5b80604052505050565b60006131da6130ee565b90506131e6828261319f565b919050565b600067ffffffffffffffff82111561320657613205613170565b5b602082029050602081019050919050565b600080fd5b600080fd5b600067ffffffffffffffff82111561323c5761323b613170565b5b6132458261315f565b9050602081019050919050565b82818337600083830152505050565b600061327461326f84613221565b6131d0565b9050828152602081018484840111156132905761328f61321c565b5b61329b848285613252565b509392505050565b600082601f8301126132b8576132b761315a565b5b81356132c8848260208601613261565b91505092915050565b60006132e46132df846131eb565b6131d0565b9050808382526020820190506020840283018581111561330757613306613217565b5b835b8181101561334e57803567ffffffffffffffff81111561332c5761332b61315a565b5b80860161333989826132a3565b85526020850194505050602081019050613309565b5050509392505050565b600082601f83011261336d5761336c61315a565b5b813561337d8482602086016132d1565b91505092915050565b600067ffffffffffffffff8211156133a1576133a0613170565b5b602082029050602081019050919050565b600073ffffffffffffffffffffffffffffffffffffffff82169050919050565b60006133dd826133b2565b9050919050565b6133ed816133d2565b81146133f857600080fd5b50565b60008135905061340a816133e4565b92915050565b600061342361341e84613386565b6131d0565b9050808382526020820190506020840283018581111561344657613445613217565b5b835b8181101561346f578061345b88826133fb565b845260208401935050602081019050613448565b5050509392505050565b600082601f83011261348e5761348d61315a565b5b813561349e848260208601613410565b91505092915050565b600067ffffffffffffffff8211156134c2576134c1613170565b5b602082029050602081019050919050565b6000819050919050565b6134e6816134d3565b81146134f157600080fd5b50565b600081359050613503816134dd565b92915050565b600061351c613517846134a7565b6131d0565b9050808382526020820190506020840283018581111561353f5761353e613217565b5b835b81811015613568578061355488826134f4565b845260208401935050602081019050613541565b5050509392505050565b600082601f8301126135875761358661315a565b5b8135613597848260208601613509565b91505092915050565b600080600080608085870312156135ba576135b96130f8565b5b60006135c887828801613145565b945050602085013567ffffffffffffffff8111156135e9576135e86130fd565b5b6135f587828801613358565b935050604085013567ffffffffffffffff811115613616576136156130fd565b5b61362287828801613479565b925050606085013567ffffffffffffffff811115613643576136426130fd565b5b61364f87828801613572565b91505092959194509250565b600080600060608486031215613674576136736130f8565b5b6000613682868287016133fb565b935050602061369386828701613145565b92505060406136a4868287016134f4565b9150509250925092565b6136b7816134d3565b82525050565b60006020820190506136d260008301846136ae565b92915050565b6000602082840312156136ee576136ed6130f8565b5b60006136fc84828501613145565b91505092915050565b600081519050919050565b600082825260208201905092915050565b6000819050602082019050919050565b6000819050919050565b61374481613731565b82525050565b6000613756838361373b565b60208301905092915050565b6000602082019050919050565b600061377a82613705565b6137848185613710565b935061378f83613721565b8060005b838110156137c05781516137a7888261374a565b97506137b283613762565b925050600181019050613793565b5085935050505092915050565b600060208201905081810360008301526137e7818461376f565b905092915050565b600080fd5b60008083601f84011261380a5761380961315a565b5b8235905067ffffffffffffffff811115613827576138266137ef565b5b60208301915083600182028301111561384357613842613217565b5b9250929050565b60008083601f8401126138605761385f61315a565b5b8235905067ffffffffffffffff81111561387d5761387c6137ef565b5b60208301915083602082028301111561389957613898613217565b5b9250929050565b60008060008060008060008060008060006101008c8e0312156138c6576138c56130f8565b5b60008c013567ffffffffffffffff8111156138e4576138e36130fd565b5b6138f08e828f016137f4565b9b509b505060208c013567ffffffffffffffff811115613913576139126130fd565b5b61391f8e828f016137f4565b995099505060406139328e828f016134f4565b97505060606139438e828f016134f4565b96505060806139548e828f016134f4565b95505060a08c013567ffffffffffffffff811115613975576139746130fd565b5b6139818e828f0161384a565b945094505060c06139948e828f016134f4565b92505060e06139a58e828f016134f4565b9150509295989b509295989b9093969950565b600082825260208201905092915050565b7f44616f50726f706f73616c730000000000000000000000000000000000000000600082015250565b60006139ff600c836139b8565b9150613a0a826139c9565b602082019050919050565b6000819050919050565b60007fff0000000000000000000000000000000000000000000000000000000000000082169050919050565b60008160f81b9050919050565b6000613a73613a6e613a6984613a15565b613a4b565b613a1f565b9050919050565b613a8381613a58565b82525050565b60006040820190508181036000830152613aa2816139f2565b9050613ab16020830184613a7a565b92915050565b6000819050919050565b613ad2613acd82613102565b613ab7565b82525050565b60007fffffffffffffffffffffffffffffffffffffffffffff0000000000000000000082169050919050565b6000819050919050565b613b1f613b1a82613ad8565b613b04565b82525050565b6000613b318285613ac1565b600a82019150613b418284613b0e565b6016820191508190509392505050565b600081519050919050565b6000819050602082019050919050565b6000613b7882516134d3565b80915050919050565b600082821b905092915050565b6000613b9982613b51565b82613ba384613b5c565b9050613bae81613b6c565b92506020821015613bee57613be97fffffffffffffffffffffffffffffffffffffffffffffffffffffffffffffffff83602003600802613b81565b831692505b5050919050565b60005b83811015613c13578082015181840152602081019050613bf8565b83811115613c22576000848401525b50505050565b6000613c3b613c3684613221565b6131d0565b905082815260208101848484011115613c5757613c5661321c565b5b613c62848285613bf5565b509392505050565b600082601f830112613c7f57613c7e61315a565b5b8151613c8f848260208601613c28565b91505092915050565b600060208284031215613cae57613cad6130f8565b5b600082015167ffffffffffffffff811115613ccc57613ccb6130fd565b5b613cd884828501613c6a565b91505092915050565b7f4e487b7100000000000000000000000000000000000000000000000000000000600052601160045260246000fd5b6000613d1b82613731565b9150613d2683613731565b9250827fffffffffffffffffffffffffffffffffffffffffffffffffffffffffffffffff03821115613d5b57613d5a613ce1565b5b828201905092915050565b6000819050919050565b6000613d8b613d86613d8184613d66565b613a4b565b613a1f565b9050919050565b613d9b81613d70565b82525050565b60006040820190508181036000830152613dba816139f2565b9050613dc96020830184613d92565b92915050565b6000819050919050565b6000613df4613def613dea84613dcf565b613a4b565b613a1f565b9050919050565b613e0481613dd9565b82525050565b60006040820190508181036000830152613e23816139f2565b9050613e326020830184613dfb565b92915050565b613e4181613102565b82525050565b6000602082019050613e5c6000830184613e38565b92915050565b60008160601b9050919050565b6000613e7a82613e62565b9050919050565b6000613e8c82613e6f565b9050919050565b613ea4613e9f826133d2565b613e81565b82525050565b6000819050919050565b613ec5613ec0826134d3565b613eaa565b82525050565b6000819050919050565b613ee6613ee182613731565b613ecb565b82525050565b6000613ef88288613e93565b601482019150613f088287613e93565b601482019150613f188286613ac1565b600a82019150613f288285613eb4565b602082019150613f388284613ed5565b6020820191508190509695505050505050565b7f4e487b7100000000000000000000000000000000000000000000000000000000600052603260045260246000fd5b7f4e487b7100000000000000000000000000000000000000000000000000000000600052602260045260246000fd5b60006002820490506001821680613fc157607f821691505b60208210811415613fd557613fd4613f7a565b5b50919050565b6000613fe682613731565b91507fffffffffffffffffffffffffffffffffffffffffffffffffffffffffffffffff82141561401957614018613ce1565b5b600182019050919050565b6000614037614032846131eb565b6131d0565b9050808382526020820190506020840283018581111561405a57614059613217565b5b835b818110156140a157805167ffffffffffffffff81111561407f5761407e61315a565b5b80860161408c8982613c6a565b8552602085019450505060208101905061405c565b5050509392505050565b600082601f8301126140c0576140bf61315a565b5b81516140d0848260208601614024565b91505092915050565b6000602082840312156140ef576140ee6130f8565b5b600082015167ffffffffffffffff81111561410d5761410c6130fd565b5b614119848285016140ab565b91505092915050565b600082825260208201905092915050565b600061413e82613b51565b6141488185614122565b9350614158818560208601613bf5565b6141618161315f565b840191505092915050565b600060208201905081810360008301526141868184614133565b905092915050565b6000819050919050565b60006141b36141ae6141a98461418e565b613a4b565b613a1f565b9050919050565b6141c381614198565b82525050565b600060408201905081810360008301526141e2816139f2565b90506141f160208301846141ba565b92915050565b6000819050919050565b600061421c614217614212846141f7565b613a4b565b613a1f565b9050919050565b61422c81614201565b82525050565b6000604082019050818103600083015261424b816139f2565b905061425a6020830184614223565b92915050565b6000819050919050565b600061428561428061427b84614260565b613a4b565b613a1f565b9050919050565b6142958161426a565b82525050565b600060408201905081810360008301526142b4816139f2565b90506142c3602083018461428c565b92915050565b6000819050919050565b60006142ee6142e96142e4846142c9565b613a4b565b613a1f565b9050919050565b6142fe816142d3565b82525050565b6000604082019050818103600083015261431d816139f2565b905061432c60208301846142f5565b92915050565b600061433e83856139b8565b935061434b838584613252565b6143548361315f565b840190509392505050565b61436881613731565b82525050565b60006040820190508181036000830152614389818587614332565b9050614398602083018461435f565b949350505050565b60006143ac8284613eb4565b60208201915081905092915050565b600082825260208201905092915050565b6000819050919050565b600082825260208201905092915050565b60006143f383856143d6565b9350614400838584613252565b6144098361315f565b840190509392505050565b60006144218484846143e7565b90509392505050565b600080fd5b600080fd5b600080fd5b6000808335600160200384360303811261445657614455614434565b5b83810192508235915060208301925067ffffffffffffffff82111561447e5761447d61442a565b5b6001820236038413156144945761449361442f565b5b509250929050565b6000602082019050919050565b60006144b583856143bb565b9350836020840285016144c7846143cc565b8060005b8781101561450d5784840389526144e28284614439565b6144ed868284614414565b95506144f88461449c565b935060208b019a5050506001810190506144cb565b50829750879450505050509392505050565b6000602082019050818103600083015261453a8184866144a9565b90509392505050565b600081519050919050565b600082825260208201905092915050565b6000819050602082019050919050565b614578816134d3565b82525050565b600061458a838361456f565b60208301905092915050565b6000602082019050919050565b60006145ae82614543565b6145b8818561454e565b93506145c38361455f565b8060005b838110156145f45781516145db888261457e565b97506145e683614596565b9250506001810190506145c7565b5085935050505092915050565b600081519050919050565b6000819050602082019050919050565b600061462782613b51565b61463181856143d6565b9350614641818560208601613bf5565b61464a8161315f565b840191505092915050565b6000614661838361461c565b905092915050565b6000602082019050919050565b600061468182614601565b61468b81856143bb565b93508360208202850161469d8561460c565b8060005b858110156146d957848403895281516146ba8582614655565b94506146c583614669565b925060208a019950506001810190506146a1565b50829750879550505050505092915050565b6000604082019050818103600083015261470581856145a3565b905081810360208301526147198184614676565b90509392505050565b61472b816133d2565b82525050565b600081519050919050565b600061474782614731565b61475181856139b8565b9350614761818560208601613bf5565b61476a8161315f565b840191505092915050565b600060408201905061478a6000830185614722565b818103602083015261479c818461473c565b90509392505050565b6000819050919050565b60006147ca6147c56147c0846147a5565b613a4b565b613a1f565b9050919050565b6147da816147af565b82525050565b600060408201905081810360008301526147f9816139f2565b905061480860208301846147d1565b92915050565b60007fffffffffffffffffffffffff000000000000000000000000000000000000000082169050919050565b6000819050919050565b6148556148508261480e565b61483a565b82525050565b60007fffffffffffffffffffffffffffffffffffffffff00000000000000000000000082169050919050565b6000819050919050565b6148a261489d8261485b565b614887565b82525050565b60006148b48285614844565b600c820191506148c48284614891565b6014820191508190509392505050565b7f4e487b7100000000000000000000000000000000000000000000000000000000600052601260045260246000fd5b600061490e82613731565b915061491983613731565b925082614929576149286148d4565b5b828206905092915050565b600061493f82613731565b915061494a83613731565b92508282101561495d5761495c613ce1565b5b828203905092915050565b600061497382613731565b915061497e83613731565b92508261498e5761498d6148d4565b5b828204905092915050565b60006149a482613731565b91506149af83613731565b9250817fffffffffffffffffffffffffffffffffffffffffffffffffffffffffffffffff04831182151516156149e8576149e7613ce1565b5b828202905092915050565b60007fffffffff0000000000000000000000000000000000000000000000000000000082169050919050565b6000819050919050565b614a3a614a35826149f3565b614a1f565b82525050565b60007fffffffffffff000000000000000000000000000000000000000000000000000082169050919050565b6000819050919050565b614a87614a8282614a40565b614a6c565b82525050565b6000614a998285614a29565b600482019150614aa98284614a76565b6006820191508190509392505050565b6000614ac58251613102565b80915050919050565b6000614ad982613b51565b82614ae384613b5c565b9050614aee81614ab9565b9250600a821015614b2e57614b297fffffffffffffffffffff0000000000000000000000000000000000000000000083600a03600802613b81565b831692505b5050919050565b600081905092915050565b7f19457468657265756d205369676e6564204d6573736167653a0a333200000000600082015250565b6000614b76601c83614b35565b9150614b8182614b40565b601c82019050919050565b6000614b9782614b69565b9150614ba38284613eb4565b60208201915081905092915050565b6000614bbe8285613ac1565b600a82019150614bce8284614891565b6014820191508190509392505050565b7f4e487b7100000000000000000000000000000000000000000000000000000000600052602160045260246000fd5b7f45434453413a20696e76616c6964207369676e61747572650000000000000000600082015250565b6000614c436018836139b8565b9150614c4e82614c0d565b602082019050919050565b60006020820190508181036000830152614c7281614c36565b9050919050565b7f45434453413a20696e76616c6964207369676e6174757265206c656e67746800600082015250565b6000614caf601f836139b8565b9150614cba82614c79565b602082019050919050565b60006020820190508181036000830152614cde81614ca2565b9050919050565b7f45434453413a20696e76616c6964207369676e6174757265202773272076616c60008201527f7565000000000000000000000000000000000000000000000000000000000000602082015250565b6000614d416022836139b8565b9150614d4c82614ce5565b604082019050919050565b60006020820190508181036000830152614d7081614d34565b9050919050565b7f45434453413a20696e76616c6964207369676e6174757265202776272076616c60008201527f7565000000000000000000000000000000000000000000000000000000000000602082015250565b6000614dd36022836139b8565b9150614dde82614d77565b604082019050919050565b60006020820190508181036000830152614e0281614dc6565b9050919050565b600060ff82169050919050565b614e1f81614e09565b82525050565b6000608082019050614e3a60008301876136ae565b614e476020830186614e16565b614e5460408301856136ae565b614e6160608301846136ae565b9594505050505056fea26469706673582212209cbd0870634c116deddf1956a95819dd7748c08b2d8d12d14769a18a156d1a2464736f6c63430008090033",
  "linkReferences": {},
  "deployedLinkReferences": {}
}