{
  "_format": "hh-sol-artifact-1",
  "contractName": "DaoProposals",
  "sourceName": "contracts/Dao/DaoProposals.sol",
  "abi": [
    {
      "inputs": [
        {
          "internalType": "address payable",
          "name": "_UNIVERSAL_PROFILE",
          "type": "address"
        },
        {
          "internalType": "address",
          "name": "_KEY_MANAGER",
          "type": "address"
        }
      ],
      "stateMutability": "nonpayable",
      "type": "constructor"
    },
    {
      "inputs": [
        {
          "internalType": "string",
          "name": "contractName",
          "type": "string"
        },
        {
          "internalType": "bytes1",
          "name": "errorNumber",
          "type": "bytes1"
        }
      ],
      "name": "IndexedError",
      "type": "error"
    },
    {
      "inputs": [
        {
          "internalType": "address",
          "name": "from",
          "type": "address"
        },
        {
          "internalType": "string",
          "name": "permission",
          "type": "string"
        }
      ],
      "name": "NotAuthorised",
      "type": "error"
    },
    {
      "anonymous": false,
      "inputs": [
        {
          "indexed": false,
          "internalType": "bytes10",
          "name": "proposalSignature",
          "type": "bytes10"
        }
      ],
      "name": "ProposalCannotBeExecuted",
      "type": "event"
    },
    {
      "anonymous": false,
      "inputs": [
        {
          "indexed": false,
          "internalType": "bytes10",
          "name": "proposalSignature",
          "type": "bytes10"
        }
      ],
      "name": "ProposalCreated",
      "type": "event"
    },
    {
      "anonymous": false,
      "inputs": [
        {
          "indexed": false,
          "internalType": "bytes10",
          "name": "proposalSignature",
          "type": "bytes10"
        }
      ],
      "name": "ProposalExecuted",
      "type": "event"
    },
    {
      "anonymous": false,
      "inputs": [
        {
          "indexed": false,
          "internalType": "bytes10",
          "name": "proposalSignature",
          "type": "bytes10"
        }
      ],
      "name": "VotesRegistered",
      "type": "event"
    },
    {
      "inputs": [
        {
          "internalType": "string",
          "name": "_title",
          "type": "string"
        },
        {
          "internalType": "string",
          "name": "_metadataLink",
          "type": "string"
        },
        {
          "internalType": "bytes32",
          "name": "_votingDelay",
          "type": "bytes32"
        },
        {
          "internalType": "bytes32",
          "name": "_votingPeriod",
          "type": "bytes32"
        },
        {
          "internalType": "bytes32",
          "name": "_executionDelay",
          "type": "bytes32"
        },
        {
          "internalType": "bytes[]",
          "name": "_payloads",
          "type": "bytes[]"
        },
        {
          "internalType": "bytes32",
          "name": "_choices",
          "type": "bytes32"
        },
        {
          "internalType": "bytes32",
          "name": "_choicesPerVote",
          "type": "bytes32"
        }
      ],
      "name": "createProposal",
      "outputs": [],
      "stateMutability": "nonpayable",
      "type": "function"
    },
    {
      "inputs": [
        {
          "internalType": "bytes10",
          "name": "_proposalSignature",
          "type": "bytes10"
        }
      ],
      "name": "executeProposal",
      "outputs": [
        {
          "internalType": "uint256[]",
          "name": "",
          "type": "uint256[]"
        }
      ],
      "stateMutability": "nonpayable",
      "type": "function"
    },
    {
      "inputs": [
        {
          "internalType": "address",
          "name": "_signer",
          "type": "address"
        },
        {
          "internalType": "bytes10",
          "name": "_proposalSignature",
          "type": "bytes10"
        },
        {
          "internalType": "bytes32",
          "name": "_choicesBitArray",
          "type": "bytes32"
        }
      ],
      "name": "getProposalHash",
      "outputs": [
        {
          "internalType": "bytes32",
          "name": "_hash",
          "type": "bytes32"
        }
      ],
      "stateMutability": "view",
      "type": "function"
    },
    {
      "inputs": [
        {
          "internalType": "bytes10",
          "name": "_proposalSignature",
          "type": "bytes10"
        },
        {
          "internalType": "bytes[]",
          "name": "_signatures",
          "type": "bytes[]"
        },
        {
          "internalType": "address[]",
          "name": "_signers",
          "type": "address[]"
        },
        {
          "internalType": "bytes32[]",
          "name": "_choicesBitArray",
          "type": "bytes32[]"
        }
      ],
      "name": "registerVotes",
      "outputs": [],
      "stateMutability": "nonpayable",
      "type": "function"
    }
  ],
  "bytecode": "0x60806040523480156200001157600080fd5b50604051620034643803806200346483398101604081905262000034916200007f565b600480546001600160a01b039384166001600160a01b03199182161790915560058054929093169116179055620000be565b6001600160a01b03811681146200007c57600080fd5b50565b600080604083850312156200009357600080fd5b8251620000a08162000066565b6020840151909250620000b38162000066565b809150509250929050565b61339680620000ce6000396000f3fe608060405234801561001057600080fd5b506004361061004c5760003560e01c806310a571bd146100515780632b9cfb0c146100665780635c9cafcf1461010a5780639f0592531461012a575b600080fd5b61006461005f366004612afe565b61013d565b005b6100f7610074366004612c45565b6001600160a01b0383166000908152602081815260408083205490516bffffffffffffffffffffffff1930606090811b8216948301949094529287901b90921660348301526001600160b01b0319851660488301526052820184905260728201526092016040516020818303038152906040528051906020012090509392505050565b6040519081526020015b60405180910390f35b61011d610118366004612c81565b610587565b6040516101019190612c9c565b610064610138366004612d67565b610c90565b61018133608060001b6040518060400160405280600e81526020017f52454749535445525f564f5445530000000000000000000000000000000000008152506116b5565b8151835114158061019457508051825114155b156101be576005604051637d29e6e160e01b81526004016101b59190612e33565b60405180910390fd5b600454604080516001600160b01b0319871660208201527dbd3132afbfa232f7d171a873f7e52e32c666b06d00000000000000000000602a8201526000926001600160a01b0316916354f6127f910160405160208183030381529060405261022590612ea3565b6040518263ffffffff1660e01b815260040161024391815260200190565b600060405180830381865afa158015610260573d6000803e3d6000fd5b505050506040513d6000823e601f3d908101601f191682016040526102889190810190612f43565b61029190612ea3565b600454604080516001600160b01b0319891660208201527dcc713dffc839645a02779745d6e8e8cca753795c00000000000000000000602a8201529293506000926001600160a01b03909216916354f6127f91016040516020818303038152906040526102fd90612ea3565b6040518263ffffffff1660e01b815260040161031b91815260200190565b600060405180830381865afa158015610338573d6000803e3d6000fd5b505050506040513d6000823e601f3d908101601f191682016040526103609190810190612f43565b61036990612ea3565b600454604080516001600160b01b03198a1660208201527d6ebe389303905e56ea48aecac1536207791d0e6700000000000000000000602a8201529293506000926001600160a01b03909216916354f6127f91016040516020818303038152906040526103d590612ea3565b6040518263ffffffff1660e01b81526004016103f391815260200190565b600060405180830381865afa158015610410573d6000803e3d6000fd5b505050506040513d6000823e601f3d908101601f191682016040526104389190810190612f43565b61044190612ea3565b9050428161044f8486612f8e565b6104599190612f8e565b111561047b576006604051637d29e6e160e01b81526004016101b59190612e33565b42816104878486612f8e565b6104919190612f8e565b61049e9062015180612f8e565b10156104c0576007604051637d29e6e160e01b81526004016101b59190612e33565b6001600160b01b03198716600090815260016020908152604090912087516104ea9289019061277a565b506001600160b01b0319871660009081526002602090815260409091208651610515928801906127d7565b506001600160b01b031987166000908152600360209081526040909120855161054092870190612850565b506040516001600160b01b0319881681527f4dc00a98dcc41b55c01729b5fc18bfabb483c326f7f24db552b410f9e294b8139060200160405180910390a150505050505050565b60606105cd33600460001b6040518060400160405280600781526020017f45584543555445000000000000000000000000000000000000000000000000008152506116b5565b6105d682611705565b600454604080516001600160b01b0319851660208201527d2d53f22395ee464559c1d5b27661145933a15e8f00000000000000000000602a8201526000926001600160a01b0316916354f6127f910160405160208183030381529060405261063d90612ea3565b6040518263ffffffff1660e01b815260040161065b91815260200190565b600060405180830381865afa158015610678573d6000803e3d6000fd5b505050506040513d6000823e601f3d908101601f191682016040526106a09190810190612f43565b600454604080516001600160b01b0319871660208201527de5dd8acc7154a678a0a3fa3fe2d65b8700bf702c00000000000000000000602a8201529293506000926001600160a01b03909216916354f6127f910160405160208183030381529060405261070c90612ea3565b6040518263ffffffff1660e01b815260040161072a91815260200190565b600060405180830381865afa158015610747573d6000803e3d6000fd5b505050506040513d6000823e601f3d908101601f1916820160405261076f9190810190612f43565b9050600061077c82612ea3565b67ffffffffffffffff81111561079457610794612987565b6040519080825280602002602001820160405280156107bd578160200160208202803683370190505b506001600160b01b031986166000908152600160205260408120549192505b81811015610a6b576001600160b01b0319871660009081526001602052604081208054610928918a918590811061081557610815612fa6565b90600052602060002001805461082a90612fbc565b80601f016020809104026020016040519081016040528092919081815260200182805461085690612fbc565b80156108a35780601f10610878576101008083540402835291602001916108a3565b820191906000526020600020905b81548152906001019060200180831161088657829003601f168201915b5050506001600160b01b03198d166000908152600260205260409020805490925087915081106108d5576108d5612fa6565b60009182526020808320909101546001600160b01b03198e1683526003909152604090912080546001600160a01b03909216918790811061091857610918612fa6565b9060005260206000200154611ab9565b905060006109a18983600260008d75ffffffffffffffffffffffffffffffffffffffffffff191675ffffffffffffffffffffffffffffffffffffffffffff19168152602001908152602001600020868154811061098757610987612fa6565b6000918252602090912001546001600160a01b0316611b9c565b90508015610a61576000805b6109b688612ea3565b811080156109cc57506109c889612ea3565b8211155b15610a5e576001600160b01b03198b16600090815260036020526040902080546001831b919087908110610a0257610a02612fa6565b6000918252602090912001541615610a4c5782878281518110610a2757610a27612fa6565b60200260200101818151610a3b9190612f8e565b90525081610a4881612ff1565b9250505b80610a5681612ff1565b9150506109ad565b50505b50506001016107dc565b50600454604080516001600160b01b0319891660208201527d922cb700268d68a7160e60fe26870af11cd98aaa00000000000000000000602a8201526000926001600160a01b0316916354f6127f9101604051602081830303815290604052610ad390612ea3565b6040518263ffffffff1660e01b8152600401610af191815260200190565b600060405180830381865afa158015610b0e573d6000803e3d6000fd5b505050506040513d6000823e601f3d908101601f19168201604052610b369190810190612f43565b806020019051810190610b49919061300c565b9050610b5483611cc6565b15610c4757805160005b81811015610c035760055483516001600160a01b03909116906309c5eabe90859084908110610b8f57610b8f612fa6565b60200260200101516040518263ffffffff1660e01b8152600401610bb391906130e9565b6000604051808303816000875af1158015610bd2573d6000803e3d6000fd5b505050506040513d6000823e601f3d908101601f19168201604052610bfa9190810190612f43565b50600101610b5e565b506040516001600160b01b0319891681527f2384a1fea9d4563a5a40e226f0bef3e9b7e5e31050948d3f4ffc4778c660d0209060200160405180910390a150610c85565b6040516001600160b01b0319881681527f7f1e8e4e71aa14ae9d1213eb75794444949e28edbaa76a176e530961abc4dad49060200160405180910390a15b509095945050505050565b610cd433600260001b6040518060400160405280600781526020017f50524f504f5345000000000000000000000000000000000000000000000000008152506116b5565b81811115610cf8576001604051637d29e6e160e01b81526004016101b59190612e33565b600480546040516354f6127f60e01b81527f799787138cc40d7a47af8e69bdea98db14e1ead8227cef96814fa51751e25c76928101929092526001600160a01b0316906354f6127f90602401600060405180830381865afa158015610d61573d6000803e3d6000fd5b505050506040513d6000823e601f3d908101601f19168201604052610d899190810190612f43565b610d9290612ea3565b871015610db5576002604051637d29e6e160e01b81526004016101b59190612e33565b600480546040516354f6127f60e01b81527fd3cf4cd71858ea36c3f5ce43955db04cbe9e1f42a2c7795c25c1d430c9bb280a928101929092526001600160a01b0316906354f6127f90602401600060405180830381865afa158015610e1e573d6000803e3d6000fd5b505050506040513d6000823e601f3d908101601f19168201604052610e469190810190612f43565b610e4f90612ea3565b861015610e72576003604051637d29e6e160e01b81526004016101b59190612e33565b600480546040516354f6127f60e01b81527fb207580c05383177027a90d6c298046d3d60dfa05a32b0bb48ea9015e11a3424928101929092526001600160a01b0316906354f6127f90602401600060405180830381865afa158015610edb573d6000803e3d6000fd5b505050506040513d6000823e601f3d908101601f19168201604052610f039190810190612f43565b610f0c90612ea3565b851015610f2f576004604051637d29e6e160e01b81526004016101b59190612e33565b6000610f648c8c42604051602001610f4993929190613125565b604051602081830303815290604052805190602001206120c7565b6040805160088082526101208201909252919250600091906020820161010080368337505060408051600880825261012082019092529293506000929150602082015b6060815260200190600190039081610fa757905050604080516001600160b01b0319861660208201527d4a8279d372333473468a5a28870c140a7941f66800000000000000000000602a8201529192500160405160208183030381529060405261101090612ea3565b8260008151811061102357611023612fa6565b6020026020010181815250508b8b8080601f016020809104026020016040519081016040528093929190818152602001838380828437600092018290525085518694509092501515905061107957611079612fa6565b602090810291909101810191909152604080516001600160b01b03198616818401527dcc713dffc839645a02779745d6e8e8cca753795c00000000000000000000602a82015281518082039093018352810190526110d690612ea3565b826001815181106110e9576110e9612fa6565b6020026020010181815250508960405160200161110891815260200190565b6040516020818303038152906040528160018151811061112a5761112a612fa6565b602090810291909101810191909152604080516001600160b01b03198616818401527d6ebe389303905e56ea48aecac1536207791d0e6700000000000000000000602a820152815180820390930183528101905261118790612ea3565b8260028151811061119a5761119a612fa6565b602002602001018181525050886040516020016111b991815260200190565b604051602081830303815290604052816002815181106111db576111db612fa6565b602090810291909101810191909152604080516001600160b01b03198616818401527d164526a330a273b37abc4c89336a3042182a391000000000000000000000602a820152815180820390930183528101905261123890612ea3565b8260038151811061124b5761124b612fa6565b6020026020010181815250508760405160200161126a91815260200190565b6040516020818303038152906040528160038151811061128c5761128c612fa6565b602090810291909101810191909152604080516001600160b01b03198616818401527dbd3132afbfa232f7d171a873f7e52e32c666b06d00000000000000000000602a82015281518082039093018352810190526112e990612ea3565b826004815181106112fc576112fc612fa6565b6020026020010181815250504260001b60405160200161131e91815260200190565b6040516020818303038152906040528160048151811061134057611340612fa6565b602090810291909101810191909152604080516001600160b01b03198616818401527de5dd8acc7154a678a0a3fa3fe2d65b8700bf702c00000000000000000000602a820152815180820390930183528101905261139d90612ea3565b826005815181106113b0576113b0612fa6565b602002602001018181525050846040516020016113cf91815260200190565b604051602081830303815290604052816005815181106113f1576113f1612fa6565b602090810291909101810191909152604080516001600160b01b03198616818401527d2d53f22395ee464559c1d5b27661145933a15e8f00000000000000000000602a820152815180820390930183528101905261144e90612ea3565b8260068151811061146157611461612fa6565b6020026020010181815250508360405160200161148091815260200190565b604051602081830303815290604052816006815181106114a2576114a2612fa6565b6020908102919091010152851561156457604080516001600160b01b0319851660208201527d922cb700268d68a7160e60fe26870af11cd98aaa00000000000000000000602a8201520160405160208183030381529060405261150490612ea3565b8260078151811061151757611517612fa6565b6020026020010181815250508686604051602001611536929190613149565b6040516020818303038152906040528160078151811061155857611558612fa6565b60200260200101819052505b6005546040516001600160a01b03909116906309c5eabe907f14a6e2931875c22579e483160c8d2832a3fb3acbd575a49f6a0f7fc5e135f789906115ae90869086906024016131e4565b60408051601f198184030181529181526020820180517bffffffffffffffffffffffffffffffffffffffffffffffffffffffff167fffffffff000000000000000000000000000000000000000000000000000000009485161790525160e084901b9092168252611620916004016130e9565b6000604051808303816000875af115801561163f573d6000803e3d6000fd5b505050506040513d6000823e601f3d908101601f191682016040526116679190810190612f43565b506040516001600160b01b0319841681527fa1132638bf652459b06b9321dbbbbcd15050052900733c1699eb8e8454d1f2419060200160405180910390a15050505050505050505050505050565b60006116c08461213c565b90508281166116ff5783826040517f3bdad6e60000000000000000000000000000000000000000000000000000000081526004016101b592919061327c565b50505050565b600454604080516001600160b01b0319841660208201527dbd3132afbfa232f7d171a873f7e52e32c666b06d00000000000000000000602a8201526000926001600160a01b0316916354f6127f910160405160208183030381529060405261176c90612ea3565b6040518263ffffffff1660e01b815260040161178a91815260200190565b600060405180830381865afa1580156117a7573d6000803e3d6000fd5b505050506040513d6000823e601f3d908101601f191682016040526117cf9190810190612f43565b6117d890612ea3565b600454604080516001600160b01b0319861660208201527dcc713dffc839645a02779745d6e8e8cca753795c00000000000000000000602a8201529293506000926001600160a01b03909216916354f6127f910160405160208183030381529060405261184490612ea3565b6040518263ffffffff1660e01b815260040161186291815260200190565b600060405180830381865afa15801561187f573d6000803e3d6000fd5b505050506040513d6000823e601f3d908101601f191682016040526118a79190810190612f43565b6118b090612ea3565b600454604080516001600160b01b0319871660208201527d6ebe389303905e56ea48aecac1536207791d0e6700000000000000000000602a8201529293506000926001600160a01b03909216916354f6127f910160405160208183030381529060405261191c90612ea3565b6040518263ffffffff1660e01b815260040161193a91815260200190565b600060405180830381865afa158015611957573d6000803e3d6000fd5b505050506040513d6000823e601f3d908101601f1916820160405261197f9190810190612f43565b61198890612ea3565b600454604080516001600160b01b0319881660208201527d164526a330a273b37abc4c89336a3042182a391000000000000000000000602a8201529293506000926001600160a01b03909216916354f6127f91016040516020818303038152906040526119f490612ea3565b6040518263ffffffff1660e01b8152600401611a1291815260200190565b600060405180830381865afa158015611a2f573d6000803e3d6000fd5b505050506040513d6000823e601f3d908101601f19168201604052611a579190810190612f43565b611a6090612ea3565b9050428183611a6f8688612f8e565b611a799190612f8e565b611a869062015180612f8e565b611a909190612f8e565b1115611ab2576008604051637d29e6e160e01b81526004016101b59190612e33565b5050505050565b6001600160a01b0382166000908152602081815260408083205481516bffffffffffffffffffffffff1930606090811b82168387015288901b1660348201526001600160b01b031989166048820152605281018690526072808201929092528251808203909201825260920190915280519101208190611b86906040517f19457468657265756d205369676e6564204d6573736167653a0a3332000000006020820152603c8101829052600090605c01604051602081830303815290604052805190602001209050919050565b9050611b92818661221a565b9695505050505050565b6000611ba9848484612236565b611bb557506000611cbf565b5060016010611bc38461213c565b1615611cbf57600454604080517f92a4ebfa1896d9ad8b430000000000000000000000000000000000000000000060208201526bffffffffffffffffffffffff19606087901b16602c8201526000926001600160a01b0316916354f6127f9101604051602081830303815290604052611c3b90612ea3565b6040518263ffffffff1660e01b8152600401611c5991815260200190565b600060405180830381865afa158015611c76573d6000803e3d6000fd5b505050506040513d6000823e601f3d908101601f19168201604052611c9e9190810190612f43565b9050604081511115611cbd576040810151611cb98184612f8e565b9250505b505b9392505050565b805160009081908190611cda6002826132b4565b60011415611d3057611ced6001826132c8565b611cf89060c86132df565b925084611d066002836132df565b81518110611d1657611d16612fa6565b602002602001015182611d299190612f8e565b9150611d3e565b611d3b8160c86132df565b92505b60008060005b611d4f6002856132df565b811015611e8f57611d61816001612f8e565b611d6b90876132f3565b888281518110611d7d57611d7d612fa6565b6020026020010151611d8f91906132f3565b611d999084612f8e565b9250611da66002856132b4565b60011415611e225780611dba6002866132df565b611dc491906132c8565b611dce90876132f3565b88611dda6002876132df565b611de5846001612f8e565b611def9190612f8e565b81518110611dff57611dff612fa6565b6020026020010151611e1191906132f3565b611e1b9083612f8e565b9150611e87565b80611e2e6002866132df565b611e3891906132c8565b611e4290876132f3565b88611e4e6002876132df565b611e589084612f8e565b81518110611e6857611e68612fa6565b6020026020010151611e7a91906132f3565b611e849083612f8e565b91505b600101611d44565b50611e9a8183612f8e565b611ea49085612f8e565b600480546040516354f6127f60e01b81527fbc776f168e7b9c60bb2a7180950facd372cd90c841732d963c31a93ff9f8c127928101929092529195506000916001600160a01b0316906354f6127f90602401600060405180830381865afa158015611f13573d6000803e3d6000fd5b505050506040513d6000823e601f3d908101601f19168201604052611f3b9190810190612f43565b600480546040516354f6127f60e01b81527ff89f507ecd9cb7646ce1514ec6ab90d695dac9314c3771f451fd90148a3335a9928101929092529192506000916001600160a01b0316906354f6127f90602401600060405180830381865afa158015611faa573d6000803e3d6000fd5b505050506040513d6000823e601f3d908101601f19168201604052611fd29190810190612f43565b600480546040516354f6127f60e01b81527ff7f9c7410dd493d79ebdaee15bbc77fd163bd488f54107d1be6ed34b1e099004928101929092529192506000916001600160a01b0316906354f6127f90602401600060405180830381865afa158015612041573d6000803e3d6000fd5b505050506040513d6000823e601f3d908101601f191682016040526120699190810190612f43565b905061207483612ea3565b876120808760646132f3565b61208a91906132df565b1180156120b0575061209b82612ea3565b6120a482612ea3565b6120ae90896132df565b115b156120ba57600198505b5050505050505050919050565b6040517fc2802fcf0000000000000000000000000000000000000000000000000000000060208201527fffffffffffff000000000000000000000000000000000000000000000000000082166024820152600090602a0160405160208183030381529060405261213690613312565b92915050565b600454604080517f4b80742de2bfb3cc0e490000000000000000000000000000000000000000000060208201526bffffffffffffffffffffffff19606085901b16602c8201526000926001600160a01b0316916354f6127f91016040516020818303038152906040526121ae90612ea3565b6040518263ffffffff1660e01b81526004016121cc91815260200190565b600060405180830381865afa1580156121e9573d6000803e3d6000fd5b505050506040513d6000823e601f3d908101601f191682016040526122119190810190612f43565b61213690612ea3565b6000806000612229858561240d565b91509150611cbd8161247d565b60016001600160a01b038281169084161461224f575060005b600454604080517f0a30e74a6c7868e400140000000000000000000000000000000000000000000060208201526bffffffffffffffffffffffff19606087901b16602c8201526000926001600160a01b0316916354f6127f91016040516020818303038152906040526122c190612ea3565b6040518263ffffffff1660e01b81526004016122df91815260200190565b600060405180830381865afa1580156122fc573d6000803e3d6000fd5b505050506040513d6000823e601f3d908101601f191682016040526123249190810190612f43565b9050805160001461233457600091505b6040516001600160b01b0319861660208201526bffffffffffffffffffffffff19606086901b16602a820152600090603e0160405160208183030381529060405261237e90612ea3565b600480546040516354f6127f60e01b81529182018390529192506000916001600160a01b0316906354f6127f90602401600060405180830381865afa1580156123cb573d6000803e3d6000fd5b505050506040513d6000823e601f3d908101601f191682016040526123f39190810190612f43565b9050805160001461240357600093505b5050509392505050565b6000808251604114156124445760208301516040840151606085015160001a6124388782858561263b565b94509450505050612476565b82516040141561246e5760208301516040840151612463868383612728565b935093505050612476565b506000905060025b9250929050565b60008160048111156124915761249161334a565b141561249a5750565b60018160048111156124ae576124ae61334a565b14156124fc5760405162461bcd60e51b815260206004820152601860248201527f45434453413a20696e76616c6964207369676e6174757265000000000000000060448201526064016101b5565b60028160048111156125105761251061334a565b141561255e5760405162461bcd60e51b815260206004820152601f60248201527f45434453413a20696e76616c6964207369676e6174757265206c656e6774680060448201526064016101b5565b60038160048111156125725761257261334a565b14156125cb5760405162461bcd60e51b815260206004820152602260248201527f45434453413a20696e76616c6964207369676e6174757265202773272076616c604482015261756560f01b60648201526084016101b5565b60048160048111156125df576125df61334a565b14156126385760405162461bcd60e51b815260206004820152602260248201527f45434453413a20696e76616c6964207369676e6174757265202776272076616c604482015261756560f01b60648201526084016101b5565b50565b6000807f7fffffffffffffffffffffffffffffff5d576e7357a4501ddfe92f46681b20a0831115612672575060009050600361271f565b8460ff16601b1415801561268a57508460ff16601c14155b1561269b575060009050600461271f565b6040805160008082526020820180845289905260ff881692820192909252606081018690526080810185905260019060a0016020604051602081039080840390855afa1580156126ef573d6000803e3d6000fd5b5050604051601f1901519150506001600160a01b0381166127185760006001925092505061271f565b9150600090505b94509492505050565b6000807f7fffffffffffffffffffffffffffffffffffffffffffffffffffffffffffffff83168161275e60ff86901c601b612f8e565b905061276c8782888561263b565b935093505050935093915050565b8280548282559060005260206000209081019282156127c7579160200282015b828111156127c757825180516127b791849160209091019061288b565b509160200191906001019061279a565b506127d39291506128fe565b5090565b828054828255906000526020600020908101928215612844579160200282015b8281111561284457825182547fffffffffffffffffffffffff0000000000000000000000000000000000000000166001600160a01b039091161782556020909201916001909101906127f7565b506127d392915061291b565b828054828255906000526020600020908101928215612844579160200282015b82811115612844578251825591602001919060010190612870565b82805461289790612fbc565b90600052602060002090601f0160209004810192826128b95760008555612844565b82601f106128d257805160ff1916838001178555612844565b828001600101855582156128445791820182811115612844578251825591602001919060010190612870565b808211156127d35760006129128282612930565b506001016128fe565b5b808211156127d3576000815560010161291c565b50805461293c90612fbc565b6000825580601f1061294c575050565b601f016020900490600052602060002090810190612638919061291b565b80356001600160b01b03198116811461298257600080fd5b919050565b634e487b7160e01b600052604160045260246000fd5b604051601f8201601f1916810167ffffffffffffffff811182821017156129c6576129c6612987565b604052919050565b600067ffffffffffffffff8211156129e8576129e8612987565b5060051b60200190565b600067ffffffffffffffff821115612a0c57612a0c612987565b50601f01601f191660200190565b80356001600160a01b038116811461298257600080fd5b600082601f830112612a4257600080fd5b81356020612a57612a52836129ce565b61299d565b82815260059290921b84018101918181019086841115612a7657600080fd5b8286015b84811015612a9857612a8b81612a1a565b8352918301918301612a7a565b509695505050505050565b600082601f830112612ab457600080fd5b81356020612ac4612a52836129ce565b82815260059290921b84018101918181019086841115612ae357600080fd5b8286015b84811015612a985780358352918301918301612ae7565b60008060008060808587031215612b1457600080fd5b612b1d8561296a565b935060208086013567ffffffffffffffff80821115612b3b57600080fd5b818801915088601f830112612b4f57600080fd5b8135612b5d612a52826129ce565b81815260059190911b8301840190848101908b831115612b7c57600080fd5b8585015b83811015612bf057803585811115612b9757600080fd5b8601603f81018e13612ba857600080fd5b87810135612bb8612a52826129f2565b8181528f6040838501011115612bce5760008081fd5b81604084018b83013760009181018a0191909152845250918601918601612b80565b50975050506040880135925080831115612c0957600080fd5b612c1589848a01612a31565b94506060880135925080831115612c2b57600080fd5b5050612c3987828801612aa3565b91505092959194509250565b600080600060608486031215612c5a57600080fd5b612c6384612a1a565b9250612c716020850161296a565b9150604084013590509250925092565b600060208284031215612c9357600080fd5b611cbf8261296a565b6020808252825182820181905260009190848201906040850190845b81811015612cd457835183529284019291840191600101612cb8565b50909695505050505050565b60008083601f840112612cf257600080fd5b50813567ffffffffffffffff811115612d0a57600080fd5b60208301915083602082850101111561247657600080fd5b60008083601f840112612d3457600080fd5b50813567ffffffffffffffff811115612d4c57600080fd5b6020830191508360208260051b850101111561247657600080fd5b60008060008060008060008060008060006101008c8e031215612d8957600080fd5b67ffffffffffffffff808d351115612da057600080fd5b612dad8e8e358f01612ce0565b909c509a5060208d0135811015612dc357600080fd5b612dd38e60208f01358f01612ce0565b909a50985060408d0135975060608d0135965060808d0135955060a08d0135811015612dfe57600080fd5b50612e0f8d60a08e01358e01612d22565b9b9e9a9d50989b979a96999598949794969560c08601359560e00135945092505050565b604081526000612e7060408301600c81527f44616f50726f706f73616c730000000000000000000000000000000000000000602082015260400190565b90507fff000000000000000000000000000000000000000000000000000000000000008360f81b16602083015292915050565b80516020808301519190811015612ec4576000198160200360031b1b821691505b50919050565b60005b83811015612ee5578181015183820152602001612ecd565b838111156116ff5750506000910152565b600082601f830112612f0757600080fd5b8151612f15612a52826129f2565b818152846020838601011115612f2a57600080fd5b612f3b826020830160208701612eca565b949350505050565b600060208284031215612f5557600080fd5b815167ffffffffffffffff811115612f6c57600080fd5b612f3b84828501612ef6565b634e487b7160e01b600052601160045260246000fd5b60008219821115612fa157612fa1612f78565b500190565b634e487b7160e01b600052603260045260246000fd5b600181811c90821680612fd057607f821691505b60208210811415612ec457634e487b7160e01b600052602260045260246000fd5b600060001982141561300557613005612f78565b5060010190565b6000602080838503121561301f57600080fd5b825167ffffffffffffffff8082111561303757600080fd5b818501915085601f83011261304b57600080fd5b8151613059612a52826129ce565b81815260059190911b8301840190848101908883111561307857600080fd5b8585015b838110156130b0578051858111156130945760008081fd5b6130a28b89838a0101612ef6565b84525091860191860161307c565b5098975050505050505050565b600081518084526130d5816020860160208601612eca565b601f01601f19169290920160200192915050565b602081526000611cbf60208301846130bd565b81835281816020850137506000828201602090810191909152601f909101601f19169091010190565b6040815260006131396040830185876130fc565b9050826020830152949350505050565b60208082528181018390526000906040600585901b8401810190840186845b878110156131d757868403603f190183528135368a9003601e1901811261318e57600080fd5b8901803567ffffffffffffffff8111156131a757600080fd5b8036038b13156131b657600080fd5b6131c386828985016130fc565b955050509184019190840190600101613168565b5091979650505050505050565b604080825283519082018190526000906020906060840190828701845b8281101561321d57815184529284019290840190600101613201565b50505083810382850152845180825282820190600581901b8301840187850160005b8381101561326d57601f1986840301855261325b8383516130bd565b9487019492509086019060010161323f565b50909998505050505050505050565b6001600160a01b0383168152604060208201526000612f3b60408301846130bd565b634e487b7160e01b600052601260045260246000fd5b6000826132c3576132c361329e565b500690565b6000828210156132da576132da612f78565b500390565b6000826132ee576132ee61329e565b500490565b600081600019048311821515161561330d5761330d612f78565b500290565b6000815160208301516001600160b01b03198082169350600a83101561334257808184600a0360031b1b83161693505b505050919050565b634e487b7160e01b600052602160045260246000fdfea264697066735822122044b0668cca0220489133e2a91ea7d40a2fb214a1c8a3f2202bfa748a4924ed4364736f6c634300080a0033",
  "linkReferences": {},
  "deployedLinkReferences": {}
}