{
  "_format": "hh-sol-artifact-1",
  "contractName": "Vault",
  "sourceName": "contracts/deps/Vault.sol",
  "abi": [
    {
      "inputs": [
        {
          "internalType": "address",
          "name": "newOwner",
          "type": "address"
        },
        {
          "internalType": "address",
          "name": "_unviersalReceiverDelegateVaultAddress",
          "type": "address"
        }
      ],
      "stateMutability": "nonpayable",
      "type": "constructor"
    },
    {
      "anonymous": false,
      "inputs": [
        {
          "indexed": true,
          "internalType": "uint256",
          "name": "operation",
          "type": "uint256"
        },
        {
          "indexed": true,
          "internalType": "address",
          "name": "contractAddress",
          "type": "address"
        },
        {
          "indexed": true,
          "internalType": "uint256",
          "name": "value",
          "type": "uint256"
        }
      ],
      "name": "ContractCreated",
      "type": "event"
    },
    {
      "anonymous": false,
      "inputs": [
        {
          "indexed": true,
          "internalType": "bytes32",
          "name": "dataKey",
          "type": "bytes32"
        }
      ],
      "name": "DataChanged",
      "type": "event"
    },
    {
      "anonymous": false,
      "inputs": [
        {
          "indexed": true,
          "internalType": "uint256",
          "name": "operation",
          "type": "uint256"
        },
        {
          "indexed": true,
          "internalType": "address",
          "name": "to",
          "type": "address"
        },
        {
          "indexed": true,
          "internalType": "uint256",
          "name": "value",
          "type": "uint256"
        },
        {
          "indexed": false,
          "internalType": "bytes4",
          "name": "selector",
          "type": "bytes4"
        }
      ],
      "name": "Executed",
      "type": "event"
    },
    {
      "anonymous": false,
      "inputs": [
        {
          "indexed": true,
          "internalType": "address",
          "name": "previousOwner",
          "type": "address"
        },
        {
          "indexed": true,
          "internalType": "address",
          "name": "newOwner",
          "type": "address"
        }
      ],
      "name": "OwnershipTransferred",
      "type": "event"
    },
    {
      "anonymous": false,
      "inputs": [
        {
          "indexed": true,
          "internalType": "address",
          "name": "from",
          "type": "address"
        },
        {
          "indexed": false,
          "internalType": "uint256",
          "name": "value",
          "type": "uint256"
        },
        {
          "indexed": true,
          "internalType": "bytes32",
          "name": "typeId",
          "type": "bytes32"
        },
        {
          "indexed": true,
          "internalType": "bytes",
          "name": "returnedValue",
          "type": "bytes"
        },
        {
          "indexed": false,
          "internalType": "bytes",
          "name": "receivedData",
          "type": "bytes"
        }
      ],
      "name": "UniversalReceiver",
      "type": "event"
    },
    {
      "anonymous": false,
      "inputs": [
        {
          "indexed": true,
          "internalType": "address",
          "name": "sender",
          "type": "address"
        },
        {
          "indexed": true,
          "internalType": "uint256",
          "name": "value",
          "type": "uint256"
        }
      ],
      "name": "ValueReceived",
      "type": "event"
    },
    {
      "stateMutability": "payable",
      "type": "fallback"
    },
    {
      "inputs": [],
      "name": "claimOwnership",
      "outputs": [],
      "stateMutability": "nonpayable",
      "type": "function"
    },
    {
      "inputs": [
        {
          "internalType": "uint256",
          "name": "operation",
          "type": "uint256"
        },
        {
          "internalType": "address",
          "name": "to",
          "type": "address"
        },
        {
          "internalType": "uint256",
          "name": "value",
          "type": "uint256"
        },
        {
          "internalType": "bytes",
          "name": "data",
          "type": "bytes"
        }
      ],
      "name": "execute",
      "outputs": [
        {
          "internalType": "bytes",
          "name": "result",
          "type": "bytes"
        }
      ],
      "stateMutability": "payable",
      "type": "function"
    },
    {
      "inputs": [
        {
          "internalType": "bytes32[]",
          "name": "dataKeys",
          "type": "bytes32[]"
        }
      ],
      "name": "getData",
      "outputs": [
        {
          "internalType": "bytes[]",
          "name": "dataValues",
          "type": "bytes[]"
        }
      ],
      "stateMutability": "view",
      "type": "function"
    },
    {
      "inputs": [
        {
          "internalType": "bytes32",
          "name": "dataKey",
          "type": "bytes32"
        }
      ],
      "name": "getData",
      "outputs": [
        {
          "internalType": "bytes",
          "name": "dataValue",
          "type": "bytes"
        }
      ],
      "stateMutability": "view",
      "type": "function"
    },
    {
      "inputs": [],
      "name": "owner",
      "outputs": [
        {
          "internalType": "address",
          "name": "",
          "type": "address"
        }
      ],
      "stateMutability": "view",
      "type": "function"
    },
    {
      "inputs": [],
      "name": "pendingOwner",
      "outputs": [
        {
          "internalType": "address",
          "name": "",
          "type": "address"
        }
      ],
      "stateMutability": "view",
      "type": "function"
    },
    {
      "inputs": [],
      "name": "renounceOwnership",
      "outputs": [],
      "stateMutability": "nonpayable",
      "type": "function"
    },
    {
      "inputs": [
        {
          "internalType": "bytes32[]",
          "name": "dataKeys",
          "type": "bytes32[]"
        },
        {
          "internalType": "bytes[]",
          "name": "dataValues",
          "type": "bytes[]"
        }
      ],
      "name": "setData",
      "outputs": [],
      "stateMutability": "nonpayable",
      "type": "function"
    },
    {
      "inputs": [
        {
          "internalType": "bytes32",
          "name": "dataKey",
          "type": "bytes32"
        },
        {
          "internalType": "bytes",
          "name": "dataValue",
          "type": "bytes"
        }
      ],
      "name": "setData",
      "outputs": [],
      "stateMutability": "nonpayable",
      "type": "function"
    },
    {
      "inputs": [
        {
          "internalType": "bytes4",
          "name": "interfaceId",
          "type": "bytes4"
        }
      ],
      "name": "supportsInterface",
      "outputs": [
        {
          "internalType": "bool",
          "name": "",
          "type": "bool"
        }
      ],
      "stateMutability": "view",
      "type": "function"
    },
    {
      "inputs": [
        {
          "internalType": "address",
          "name": "newOwner",
          "type": "address"
        }
      ],
      "name": "transferOwnership",
      "outputs": [],
      "stateMutability": "nonpayable",
      "type": "function"
    },
    {
      "inputs": [
        {
          "internalType": "bytes32",
          "name": "typeId",
          "type": "bytes32"
        },
        {
          "internalType": "bytes",
          "name": "data",
          "type": "bytes"
        }
      ],
      "name": "universalReceiver",
      "outputs": [
        {
          "internalType": "bytes",
          "name": "returnValue",
          "type": "bytes"
        }
      ],
      "stateMutability": "payable",
      "type": "function"
    }
  ],
  "bytecode": "0x60806040523480156200001157600080fd5b5060405162002915380380620029158339810160408190526200003491620005ba565b816200004b81620000ed60201b62000ed71760201c565b6040805180820190915260048152637c0334a160e01b602082015262000093907feafec4d89fa9619884b600007c0334a14085fefa8b51ae5a40895018882bdb909062000154565b6200009e81620001a5565b506040516001600160601b0319606083901b166020820152620000e590600080516020620028f58339815191529060340160408051601f198184030181529190526200026e565b5050620007b1565b6000546001600160a01b038281169116146200015157600080546001600160a01b038381166001600160a01b0319831681178455604051919092169283917f8be0079c531659141344cd1fd0a4f28419497f9722a3daafe3b4186f6b6457e09190a3505b50565b600082815260016020908152604090912082516200017592840190620004f7565b5060405182907fcdf4e344c0d23d4cdd0474039d176c55b19d531070dbe17856bfb993a5b5720b90600090a25050565b620001c381636bb56a1460e01b6200035960201b62000f491760201c565b15620001515760408051631aed5a8560e21b81527f09aaf55960715d8d86b57af40be36b0bfd469c9a3643445d8c65d39e27b4c56f60048201526024810191909152600060448201526001600160a01b03821690636bb56a14906064016000604051808303816000875af115801562000240573d6000803e3d6000fd5b505050506040513d6000823e601f3d908101601f191682016040526200026a91908101906200063b565b5050565b6000546001600160a01b031633146200034d5760006200029d600080516020620028f58339815191526200044d565b620002a890620006f3565b60601c9050620002cb3363a245bbda60e01b6200035960201b62000f491760201c565b8015620002e05750336001600160a01b038216145b6200034b5760405162461bcd60e51b815260206004820152603160248201527f4f6e6c79204f776e6572206f7220556e6976657273616c2052656365697665726044820152700811195b1959d85d1948185b1b1bddd959607a1b606482015260840160405180910390fd5b505b6200026a828262000154565b604080516001600160e01b0319831660248083019190915282518083039091018152604490910182526020810180516001600160e01b03166301ffc9a760e01b179052905160009190829081906001600160a01b0387169061753090620003c29086906200072b565b6000604051808303818686fa925050503d806000811462000400576040519150601f19603f3d011682016040523d82523d6000602084013e62000405565b606091505b509150915060208151101562000422576000935050505062000447565b8180156200044157508080602001905181019062000441919062000749565b93505050505b92915050565b60008181526001602052604090208054606091906200046c9062000774565b80601f01602080910402602001604051908101604052809291908181526020018280546200049a9062000774565b8015620004eb5780601f10620004bf57610100808354040283529160200191620004eb565b820191906000526020600020905b815481529060010190602001808311620004cd57829003601f168201915b50505050509050919050565b828054620005059062000774565b90600052602060002090601f01602090048101928262000529576000855562000574565b82601f106200054457805160ff191683800117855562000574565b8280016001018555821562000574579182015b828111156200057457825182559160200191906001019062000557565b506200058292915062000586565b5090565b5b8082111562000582576000815560010162000587565b80516001600160a01b0381168114620005b557600080fd5b919050565b60008060408385031215620005ce57600080fd5b620005d9836200059d565b9150620005e9602084016200059d565b90509250929050565b634e487b7160e01b600052604160045260246000fd5b60005b83811015620006255781810151838201526020016200060b565b8381111562000635576000848401525b50505050565b6000602082840312156200064e57600080fd5b81516001600160401b03808211156200066657600080fd5b818401915084601f8301126200067b57600080fd5b815181811115620006905762000690620005f2565b604051601f8201601f19908116603f01168101908382118183101715620006bb57620006bb620005f2565b81604052828152876020848701011115620006d557600080fd5b620006e883602083016020880162000608565b979650505050505050565b805160208201516001600160601b03198082169291906014831015620007235780818460140360031b1b83161693505b505050919050565b600082516200073f81846020870162000608565b9190910192915050565b6000602082840312156200075c57600080fd5b815180151581146200076d57600080fd5b9392505050565b600181811c908216806200078957607f821691505b60208210811415620007ab57634e487b7160e01b600052602260045260246000fd5b50919050565b61213480620007c16000396000f3fe6080604052600436106100c75760003560e01c80636bb56a14116100745780638da5cb5b1161004e5780638da5cb5b1461021c578063e30c39781461024e578063f2fde38b1461026e576100c7565b80636bb56a14146101d4578063715018a6146101e75780637f23690c146101fc576100c7565b80634e3e6e9c116100a55780634e3e6e9c146101725780634e71e0c81461019f57806354f6127f146101b4576100c7565b806301ffc9a7146100fd57806314a6e2931461013257806344c028fe14610152575b34156100fb57604051349033907f7e71433ddf847725166244795048ecf3e3f9f35628254ecbf73605666423349390600090a35b005b34801561010957600080fd5b5061011d6101183660046119d8565b61028e565b60405190151581526020015b60405180910390f35b34801561013e57600080fd5b506100fb61014d366004611b51565b610321565b610165610160366004611c8b565b6104e0565b6040516101299190611d4f565b34801561017e57600080fd5b5061019261018d366004611d62565b610b74565b6040516101299190611d97565b3480156101ab57600080fd5b506100fb610c28565b3480156101c057600080fd5b506101656101cf366004611df9565b610c51565b6101656101e2366004611e12565b610c5c565b3480156101f357600080fd5b506100fb610d9e565b34801561020857600080fd5b506100fb610217366004611e5e565b610db2565b34801561022857600080fd5b506000546001600160a01b03165b6040516001600160a01b039091168152602001610129565b34801561025a57600080fd5b50600254610236906001600160a01b031681565b34801561027a57600080fd5b506100fb610289366004611ea5565b610ea4565b60006001600160e01b031982167f8c1d44f60000000000000000000000000000000000000000000000000000000014806102d857506001600160e01b03198216631aed5a8560e21b145b8061030c57506001600160e01b031982167fd225f16000000000000000000000000000000000000000000000000000000000145b8061031b575061031b82611047565b92915050565b6000546001600160a01b0316331461040a57600061035e7f0cfc51aec37c55a4d0b1a65c6255c4bf2fbdf6277f3cc0730c45b828b6db8b47611085565b61036790611ec0565b60601c905061037d33635122dded60e11b610f49565b80156103915750336001600160a01b038216145b6104085760405162461bcd60e51b815260206004820152603160248201527f4f6e6c79204f776e6572206f7220556e6976657273616c20526563656976657260448201527f2044656c656761746520616c6c6f77656400000000000000000000000000000060648201526084015b60405180910390fd5b505b80518251146104815760405162461bcd60e51b815260206004820152602660248201527f4b657973206c656e677468206e6f7420657175616c20746f2076616c7565732060448201527f6c656e677468000000000000000000000000000000000000000000000000000060648201526084016103ff565b60005b82518110156104db576104c98382815181106104a2576104a2611efc565b60200260200101518383815181106104bc576104bc611efc565b6020026020010151611127565b806104d381611f28565b915050610484565b505050565b60606104ea611176565b60005a9050866105f057844710156105535760405162461bcd60e51b815260206004820152602660248201527f455243373235583a20696e73756666696369656e742062616c616e636520666f6044820152651c8818d85b1b60d21b60648201526084016103ff565b610596868686868080601f0160208091040260200160405190810160405280939291908181526020018383808284376000920191909152508792506111df915050565b9150846001600160a01b038716887f4810874456b8e6487bd861375cf6abd8e1c8bb5858c8ce36a86a04dabfac199e6105cf8789611f43565b6040516001600160e01b0319909116815260200160405180910390a4610b6a565b60038714156106af57841561066d5760405162461bcd60e51b815260206004820152603860248201527f455243373235583a2063616e6e6f74207472616e736665722076616c7565207760448201527f697468206f7065726174696f6e2053544154494343414c4c000000000000000060648201526084016103ff565b6105968685858080601f016020809104026020016040519081016040528093929190818152602001838380828437600092019190915250869250611291915050565b600487141561076e57841561072c5760405162461bcd60e51b815260206004820152603a60248201527f455243373235583a2063616e6e6f74207472616e736665722076616c7565207760448201527f697468206f7065726174696f6e2044454c454741544543414c4c00000000000060648201526084016103ff565b6105968685858080601f016020809104026020016040519081016040528093929190818152602001838380828437600092019190915250869250611335915050565b6001871415610912576001600160a01b038616156108005760405162461bcd60e51b815260206004820152604360248201527f455243373235583a20435245415445206f7065726174696f6e7320726571756960448201527f726520746865207265636569766572206164647265737320746f20626520656d60648201526270747960e81b608482015260a4016103ff565b8447101561085f5760405162461bcd60e51b815260206004820152602660248201527f455243373235583a20696e73756666696369656e742062616c616e636520666f6044820152651c8818d85b1b60d21b60648201526084016103ff565b60006108a18686868080601f01602080910402602001604051908101604052809392919081815260200183838082843760009201919091525061138f92505050565b6040516bffffffffffffffffffffffff19606083901b166020820152909150603401604051602081830303815290604052925085816001600160a01b0316897f01c42bd7e97a66166063b02fce6924e6656b6c2c61966630165095c4fb0b7b2f60405160405180910390a450610b6a565b6002871415610b22576001600160a01b038616156109a45760405162461bcd60e51b815260206004820152604360248201527f455243373235583a20435245415445206f7065726174696f6e7320726571756960448201527f726520746865207265636569766572206164647265737320746f20626520656d60648201526270747960e81b608482015260a4016103ff565b84471015610a035760405162461bcd60e51b815260206004820152602660248201527f455243373235583a20696e73756666696369656e742062616c616e636520666f6044820152651c8818d85b1b60d21b60648201526084016103ff565b6000610a5185858080601f016020809104026020016040519081016040528093929190818152602001838380828437600092019190915250610a4c925060209150889050611f73565b611443565b90506000610aa086868080601f01602080910402602001604051908101604052809392919081815260200183838082843760009201829052509250610a9b91506020905089611f73565b6114a9565b90506000610aaf8884846115d3565b6040516bffffffffffffffffffffffff19606083901b166020820152909150603401604051602081830303815290604052945087816001600160a01b03168b7f01c42bd7e97a66166063b02fce6924e6656b6c2c61966630165095c4fb0b7b2f60405160405180910390a4505050610b6a565b60405162461bcd60e51b815260206004820152601460248201527f57726f6e67206f7065726174696f6e207479706500000000000000000000000060448201526064016103ff565b5095945050505050565b6060815167ffffffffffffffff811115610b9057610b90611a02565b604051908082528060200260200182016040528015610bc357816020015b6060815260200190600190039081610bae5790505b50905060005b8251811015610c2257610bf4838281518110610be757610be7611efc565b6020026020010151611085565b828281518110610c0657610c06611efc565b6020026020010181905250610c1b8160010190565b9050610bc9565b50919050565b6000546001600160a01b0316610c3c6116dd565b610c4581611791565b610c4e33611846565b50565b606061031b82611085565b60606000610c897f0cfc51aec37c55a4d0b1a65c6255c4bf2fbdf6277f3cc0730c45b828b6db8b47611085565b90506014815110610d3a576000610c9f82611ec0565b60601c9050610cb581635122dded60e11b610f49565b15610d3857604051635122dded60e11b81526001600160a01b0382169063a245bbda90610cee90339034908b908b908b90600401611fb3565b6000604051808303816000875af1158015610d0d573d6000803e3d6000fd5b505050506040513d6000823e601f3d908101601f19168201604052610d359190810190611fe2565b92505b505b81604051610d489190612059565b604051809103902085336001600160a01b03167f9c3ba68eb5742b8e3961aea0afc7371a71bf433c8a67a831803b64c064a178c2348888604051610d8e93929190612075565b60405180910390a4509392505050565b610da6611176565b610db06000610ed7565b565b6000546001600160a01b03163314610e96576000610def7f0cfc51aec37c55a4d0b1a65c6255c4bf2fbdf6277f3cc0730c45b828b6db8b47611085565b610df890611ec0565b60601c9050610e0e33635122dded60e11b610f49565b8015610e225750336001600160a01b038216145b610e945760405162461bcd60e51b815260206004820152603160248201527f4f6e6c79204f776e6572206f7220556e6976657273616c20526563656976657260448201527f2044656c656761746520616c6c6f77656400000000000000000000000000000060648201526084016103ff565b505b610ea08282611127565b5050565b610eac611176565b6002805473ffffffffffffffffffffffffffffffffffffffff19166001600160a01b03831617905550565b6000546001600160a01b03828116911614610c4e57600080546001600160a01b0383811673ffffffffffffffffffffffffffffffffffffffff19831681178455604051919092169283917f8be0079c531659141344cd1fd0a4f28419497f9722a3daafe3b4186f6b6457e09190a35050565b604080516001600160e01b0319831660248083019190915282518083039091018152604490910182526020810180517bffffffffffffffffffffffffffffffffffffffffffffffffffffffff166301ffc9a760e01b179052905160009190829081906001600160a01b0387169061753090610fc5908690612059565b6000604051808303818686fa925050503d8060008114611001576040519150601f19603f3d011682016040523d82523d6000602084013e611006565b606091505b5091509150602081511015611021576000935050505061031b565b81801561103d57508080602001905181019061103d919061208f565b9695505050505050565b60006001600160e01b031982167f714df77c00000000000000000000000000000000000000000000000000000000148061031b575061031b826118b8565b60008181526001602052604090208054606091906110a2906120b1565b80601f01602080910402602001604051908101604052809291908181526020018280546110ce906120b1565b801561111b5780601f106110f05761010080835404028352916020019161111b565b820191906000526020600020905b8154815290600101906020018083116110fe57829003601f168201915b50505050509050919050565b600082815260016020908152604090912082516111469284019061193f565b5060405182907fcdf4e344c0d23d4cdd0474039d176c55b19d531070dbe17856bfb993a5b5720b90600090a25050565b336111896000546001600160a01b031690565b6001600160a01b031614610db05760405162461bcd60e51b815260206004820181905260248201527f4f776e61626c653a2063616c6c6572206973206e6f7420746865206f776e657260448201526064016103ff565b6060600080866001600160a01b03168487876040516111fe9190612059565b600060405180830381858888f193505050503d806000811461123c576040519150601f19603f3d011682016040523d82523d6000602084013e611241565b606091505b509150915061128682826040518060400160405280601581526020017f455243373235583a20556e6b6e6f77204572726f720000000000000000000000815250611906565b979650505050505050565b6060600080856001600160a01b031684866040516112af9190612059565b6000604051808303818686fa925050503d80600081146112eb576040519150601f19603f3d011682016040523d82523d6000602084013e6112f0565b606091505b509150915061103d82826040518060400160405280601581526020017f455243373235583a20556e6b6e6f77204572726f720000000000000000000000815250611906565b6060600080856001600160a01b031684866040516113539190612059565b6000604051808303818686f4925050503d80600081146112eb576040519150601f19603f3d011682016040523d82523d6000602084013e6112f0565b60008151600014156113e35760405162461bcd60e51b815260206004820152601d60248201527f6e6f20636f6e74726163742062797465636f64652070726f766964656400000060448201526064016103ff565b81516020830184f090506001600160a01b03811661031b5760405162461bcd60e51b815260206004820152601960248201527f436f756c64206e6f74206465706c6f7920636f6e74726163740000000000000060448201526064016103ff565b60006114508260206120e6565b835110156114a05760405162461bcd60e51b815260206004820152601560248201527f746f427974657333325f6f75744f66426f756e6473000000000000000000000060448201526064016103ff565b50016020015190565b6060816114b781601f6120e6565b10156115055760405162461bcd60e51b815260206004820152600e60248201527f736c6963655f6f766572666c6f7700000000000000000000000000000000000060448201526064016103ff565b61150f82846120e6565b8451101561155f5760405162461bcd60e51b815260206004820152601160248201527f736c6963655f6f75744f66426f756e647300000000000000000000000000000060448201526064016103ff565b60608215801561157e57604051915060008252602082016040526115c8565b6040519150601f8416801560200281840101858101878315602002848b0101015b818310156115b757805183526020928301920161159f565b5050858452601f01601f1916604052505b5090505b9392505050565b600080844710156116265760405162461bcd60e51b815260206004820152601d60248201527f437265617465323a20696e73756666696369656e742062616c616e636500000060448201526064016103ff565b82516116745760405162461bcd60e51b815260206004820181905260248201527f437265617465323a2062797465636f6465206c656e677468206973207a65726f60448201526064016103ff565b8383516020850187f590506001600160a01b0381166116d55760405162461bcd60e51b815260206004820152601960248201527f437265617465323a204661696c6564206f6e206465706c6f790000000000000060448201526064016103ff565b949350505050565b6002546001600160a01b0316331461175d5760405162461bcd60e51b815260206004820152602c60248201527f4f776e61626c65436c61696d3a2063616c6c6572206973206e6f74207468652060448201527f70656e64696e674f776e6572000000000000000000000000000000000000000060648201526084016103ff565b600254611772906001600160a01b0316610ed7565b6002805473ffffffffffffffffffffffffffffffffffffffff19169055565b6117a281631aed5a8560e21b610f49565b15610c4e5760408051631aed5a8560e21b81527f3ca9f769340018257ac15b3a00e502e8fb730d66086f774210f84d0205af31e760048201526024810191909152600060448201526001600160a01b03821690636bb56a14906064015b6000604051808303816000875af115801561181e573d6000803e3d6000fd5b505050506040513d6000823e601f3d908101601f19168201604052610ea09190810190611fe2565b61185781631aed5a8560e21b610f49565b15610c4e5760408051631aed5a8560e21b81527f09aaf55960715d8d86b57af40be36b0bfd469c9a3643445d8c65d39e27b4c56f60048201526024810191909152600060448201526001600160a01b03821690636bb56a14906064016117ff565b60006001600160e01b031982167f44c028fe00000000000000000000000000000000000000000000000000000000148061031b57506301ffc9a760e01b6001600160e01b031983161461031b565b606083156119155750816115cc565b8251156119255782518084602001fd5b8160405162461bcd60e51b81526004016103ff9190611d4f565b82805461194b906120b1565b90600052602060002090601f01602090048101928261196d57600085556119b3565b82601f1061198657805160ff19168380011785556119b3565b828001600101855582156119b3579182015b828111156119b3578251825591602001919060010190611998565b506119bf9291506119c3565b5090565b5b808211156119bf57600081556001016119c4565b6000602082840312156119ea57600080fd5b81356001600160e01b0319811681146115cc57600080fd5b634e487b7160e01b600052604160045260246000fd5b604051601f8201601f1916810167ffffffffffffffff81118282101715611a4157611a41611a02565b604052919050565b600067ffffffffffffffff821115611a6357611a63611a02565b5060051b60200190565b600082601f830112611a7e57600080fd5b81356020611a93611a8e83611a49565b611a18565b82815260059290921b84018101918181019086841115611ab257600080fd5b8286015b84811015611acd5780358352918301918301611ab6565b509695505050505050565b600067ffffffffffffffff821115611af257611af2611a02565b50601f01601f191660200190565b600082601f830112611b1157600080fd5b8135611b1f611a8e82611ad8565b818152846020838601011115611b3457600080fd5b816020850160208301376000918101602001919091529392505050565b60008060408385031215611b6457600080fd5b823567ffffffffffffffff80821115611b7c57600080fd5b611b8886838701611a6d565b9350602091508185013581811115611b9f57600080fd5b8501601f81018713611bb057600080fd5b8035611bbe611a8e82611a49565b81815260059190911b82018401908481019089831115611bdd57600080fd5b8584015b83811015611c1557803586811115611bf95760008081fd5b611c078c8983890101611b00565b845250918601918601611be1565b508096505050505050509250929050565b80356001600160a01b0381168114611c3d57600080fd5b919050565b60008083601f840112611c5457600080fd5b50813567ffffffffffffffff811115611c6c57600080fd5b602083019150836020828501011115611c8457600080fd5b9250929050565b600080600080600060808688031215611ca357600080fd5b85359450611cb360208701611c26565b935060408601359250606086013567ffffffffffffffff811115611cd657600080fd5b611ce288828901611c42565b969995985093965092949392505050565b60005b83811015611d0e578181015183820152602001611cf6565b83811115611d1d576000848401525b50505050565b60008151808452611d3b816020860160208601611cf3565b601f01601f19169290920160200192915050565b6020815260006115cc6020830184611d23565b600060208284031215611d7457600080fd5b813567ffffffffffffffff811115611d8b57600080fd5b6116d584828501611a6d565b6000602080830181845280855180835260408601915060408160051b870101925083870160005b82811015611dec57603f19888603018452611dda858351611d23565b94509285019290850190600101611dbe565b5092979650505050505050565b600060208284031215611e0b57600080fd5b5035919050565b600080600060408486031215611e2757600080fd5b83359250602084013567ffffffffffffffff811115611e4557600080fd5b611e5186828701611c42565b9497909650939450505050565b60008060408385031215611e7157600080fd5b82359150602083013567ffffffffffffffff811115611e8f57600080fd5b611e9b85828601611b00565b9150509250929050565b600060208284031215611eb757600080fd5b6115cc82611c26565b805160208201516bffffffffffffffffffffffff198082169291906014831015611ef45780818460140360031b1b83161693505b505050919050565b634e487b7160e01b600052603260045260246000fd5b634e487b7160e01b600052601160045260246000fd5b6000600019821415611f3c57611f3c611f12565b5060010190565b6001600160e01b03198135818116916004851015611f6b5780818660040360031b1b83161692505b505092915050565b600082821015611f8557611f85611f12565b500390565b81835281816020850137506000828201602090810191909152601f909101601f19169091010190565b6001600160a01b0386168152846020820152836040820152608060608201526000611286608083018486611f8a565b600060208284031215611ff457600080fd5b815167ffffffffffffffff81111561200b57600080fd5b8201601f8101841361201c57600080fd5b805161202a611a8e82611ad8565b81815285602083850101111561203f57600080fd5b612050826020830160208601611cf3565b95945050505050565b6000825161206b818460208701611cf3565b9190910192915050565b838152604060208201526000612050604083018486611f8a565b6000602082840312156120a157600080fd5b815180151581146115cc57600080fd5b600181811c908216806120c557607f821691505b60208210811415610c2257634e487b7160e01b600052602260045260246000fd5b600082198211156120f9576120f9611f12565b50019056fea2646970667358221220c67ce5738e0359922a15f8e29125d8fbedd22eb54cab467c9395a58604dfd11664736f6c634300080a00330cfc51aec37c55a4d0b1a65c6255c4bf2fbdf6277f3cc0730c45b828b6db8b47",
  "linkReferences": {},
  "deployedLinkReferences": {}
}