{
  "_format": "hh-sol-artifact-1",
  "contractName": "Vault",
  "sourceName": "contracts/deps/Vault.sol",
  "abi": [
    {
      "inputs": [
        {
          "internalType": "address",
          "name": "newOwner",
          "type": "address"
        },
        {
          "internalType": "address",
          "name": "_unviersalReceiverDelegateVaultAddress",
          "type": "address"
        }
      ],
      "stateMutability": "nonpayable",
      "type": "constructor"
    },
    {
      "anonymous": false,
      "inputs": [
        {
          "indexed": true,
          "internalType": "uint256",
          "name": "operation",
          "type": "uint256"
        },
        {
          "indexed": true,
          "internalType": "address",
          "name": "contractAddress",
          "type": "address"
        },
        {
          "indexed": true,
          "internalType": "uint256",
          "name": "value",
          "type": "uint256"
        }
      ],
      "name": "ContractCreated",
      "type": "event"
    },
    {
      "anonymous": false,
      "inputs": [
        {
          "indexed": true,
          "internalType": "bytes32",
          "name": "dataKey",
          "type": "bytes32"
        }
      ],
      "name": "DataChanged",
      "type": "event"
    },
    {
      "anonymous": false,
      "inputs": [
        {
          "indexed": true,
          "internalType": "uint256",
          "name": "operation",
          "type": "uint256"
        },
        {
          "indexed": true,
          "internalType": "address",
          "name": "to",
          "type": "address"
        },
        {
          "indexed": true,
          "internalType": "uint256",
          "name": "value",
          "type": "uint256"
        },
        {
          "indexed": false,
          "internalType": "bytes4",
          "name": "selector",
          "type": "bytes4"
        }
      ],
      "name": "Executed",
      "type": "event"
    },
    {
      "anonymous": false,
      "inputs": [
        {
          "indexed": true,
          "internalType": "address",
          "name": "previousOwner",
          "type": "address"
        },
        {
          "indexed": true,
          "internalType": "address",
          "name": "newOwner",
          "type": "address"
        }
      ],
      "name": "OwnershipTransferred",
      "type": "event"
    },
    {
      "anonymous": false,
      "inputs": [
        {
          "indexed": true,
          "internalType": "address",
          "name": "from",
          "type": "address"
        },
        {
          "indexed": false,
          "internalType": "uint256",
          "name": "value",
          "type": "uint256"
        },
        {
          "indexed": true,
          "internalType": "bytes32",
          "name": "typeId",
          "type": "bytes32"
        },
        {
          "indexed": true,
          "internalType": "bytes",
          "name": "returnedValue",
          "type": "bytes"
        },
        {
          "indexed": false,
          "internalType": "bytes",
          "name": "receivedData",
          "type": "bytes"
        }
      ],
      "name": "UniversalReceiver",
      "type": "event"
    },
    {
      "anonymous": false,
      "inputs": [
        {
          "indexed": true,
          "internalType": "address",
          "name": "sender",
          "type": "address"
        },
        {
          "indexed": true,
          "internalType": "uint256",
          "name": "value",
          "type": "uint256"
        }
      ],
      "name": "ValueReceived",
      "type": "event"
    },
    {
      "stateMutability": "payable",
      "type": "fallback"
    },
    {
      "inputs": [],
      "name": "claimOwnership",
      "outputs": [],
      "stateMutability": "nonpayable",
      "type": "function"
    },
    {
      "inputs": [
        {
          "internalType": "uint256",
          "name": "operation",
          "type": "uint256"
        },
        {
          "internalType": "address",
          "name": "to",
          "type": "address"
        },
        {
          "internalType": "uint256",
          "name": "value",
          "type": "uint256"
        },
        {
          "internalType": "bytes",
          "name": "data",
          "type": "bytes"
        }
      ],
      "name": "execute",
      "outputs": [
        {
          "internalType": "bytes",
          "name": "result",
          "type": "bytes"
        }
      ],
      "stateMutability": "payable",
      "type": "function"
    },
    {
      "inputs": [
        {
          "internalType": "bytes32[]",
          "name": "dataKeys",
          "type": "bytes32[]"
        }
      ],
      "name": "getData",
      "outputs": [
        {
          "internalType": "bytes[]",
          "name": "dataValues",
          "type": "bytes[]"
        }
      ],
      "stateMutability": "view",
      "type": "function"
    },
    {
      "inputs": [
        {
          "internalType": "bytes32",
          "name": "dataKey",
          "type": "bytes32"
        }
      ],
      "name": "getData",
      "outputs": [
        {
          "internalType": "bytes",
          "name": "dataValue",
          "type": "bytes"
        }
      ],
      "stateMutability": "view",
      "type": "function"
    },
    {
      "inputs": [],
      "name": "owner",
      "outputs": [
        {
          "internalType": "address",
          "name": "",
          "type": "address"
        }
      ],
      "stateMutability": "view",
      "type": "function"
    },
    {
      "inputs": [],
      "name": "pendingOwner",
      "outputs": [
        {
          "internalType": "address",
          "name": "",
          "type": "address"
        }
      ],
      "stateMutability": "view",
      "type": "function"
    },
    {
      "inputs": [],
      "name": "renounceOwnership",
      "outputs": [],
      "stateMutability": "nonpayable",
      "type": "function"
    },
    {
      "inputs": [
        {
          "internalType": "bytes32[]",
          "name": "dataKeys",
          "type": "bytes32[]"
        },
        {
          "internalType": "bytes[]",
          "name": "dataValues",
          "type": "bytes[]"
        }
      ],
      "name": "setData",
      "outputs": [],
      "stateMutability": "nonpayable",
      "type": "function"
    },
    {
      "inputs": [
        {
          "internalType": "bytes32",
          "name": "dataKey",
          "type": "bytes32"
        },
        {
          "internalType": "bytes",
          "name": "dataValue",
          "type": "bytes"
        }
      ],
      "name": "setData",
      "outputs": [],
      "stateMutability": "nonpayable",
      "type": "function"
    },
    {
      "inputs": [
        {
          "internalType": "bytes4",
          "name": "interfaceId",
          "type": "bytes4"
        }
      ],
      "name": "supportsInterface",
      "outputs": [
        {
          "internalType": "bool",
          "name": "",
          "type": "bool"
        }
      ],
      "stateMutability": "view",
      "type": "function"
    },
    {
      "inputs": [
        {
          "internalType": "address",
          "name": "newOwner",
          "type": "address"
        }
      ],
      "name": "transferOwnership",
      "outputs": [],
      "stateMutability": "nonpayable",
      "type": "function"
    },
    {
      "inputs": [
        {
          "internalType": "bytes32",
          "name": "typeId",
          "type": "bytes32"
        },
        {
          "internalType": "bytes",
          "name": "data",
          "type": "bytes"
        }
      ],
      "name": "universalReceiver",
      "outputs": [
        {
          "internalType": "bytes",
          "name": "returnValue",
          "type": "bytes"
        }
      ],
      "stateMutability": "payable",
      "type": "function"
    },
    {
      "stateMutability": "payable",
      "type": "receive"
    }
  ],
  "bytecode": "0x60806040523480156200001157600080fd5b5060405162004513380380620045138339818101604052810190620000379190620007de565b816200004e816200012b60201b620010b91760201c565b620000b87feafec4d89fa9619884b600007c0334a14085fefa8b51ae5a40895018882bdb9060001b6040518060400160405280600481526020017f7c0334a1000000000000000000000000000000000000000000000000000000008152506200023360201b60201c565b620000c9816200028e60201b60201c565b50620001237f0cfc51aec37c55a4d0b1a65c6255c4bf2fbdf6277f3cc0730c45b828b6db8b4760001b8260601b60405160200162000108919062000876565b6040516020818303038152906040526200037060201b60201c565b505062000dd6565b6200013b620004a960201b60201c565b73ffffffffffffffffffffffffffffffffffffffff168173ffffffffffffffffffffffffffffffffffffffff1614620002305760008060009054906101000a900473ffffffffffffffffffffffffffffffffffffffff169050816000806101000a81548173ffffffffffffffffffffffffffffffffffffffff021916908373ffffffffffffffffffffffffffffffffffffffff1602179055508173ffffffffffffffffffffffffffffffffffffffff168173ffffffffffffffffffffffffffffffffffffffff167f8be0079c531659141344cd1fd0a4f28419497f9722a3daafe3b4186f6b6457e060405160405180910390a3505b50565b806001600084815260200190815260200160002090805190602001906200025c929190620006b5565b50817fcdf4e344c0d23d4cdd0474039d176c55b19d531070dbe17856bfb993a5b5720b60405160405180910390a25050565b620002ac81636bb56a1460e01b620004d260201b620011b81760201c565b156200036d578073ffffffffffffffffffffffffffffffffffffffff16636bb56a147f09aaf55960715d8d86b57af40be36b0bfd469c9a3643445d8c65d39e27b4c56f60001b6040518263ffffffff1660e01b8152600401620003109190620008e9565b600060405180830381600087803b1580156200032b57600080fd5b505af115801562000340573d6000803e3d6000fd5b505050506040513d6000823e3d601f19601f820116820180604052508101906200036b919062000aa4565b505b50565b62000380620004a960201b60201c565b73ffffffffffffffffffffffffffffffffffffffff163373ffffffffffffffffffffffffffffffffffffffff161462000493576000620003e97f0cfc51aec37c55a4d0b1a65c6255c4bf2fbdf6277f3cc0730c45b828b6db8b4760001b6200060860201b60201c565b620003f49062000b34565b60601c9050620004173363a245bbda60e01b620004d260201b620011b81760201c565b80156200044f57508073ffffffffffffffffffffffffffffffffffffffff163373ffffffffffffffffffffffffffffffffffffffff16145b62000491576040517f08c379a0000000000000000000000000000000000000000000000000000000008152600401620004889062000c2b565b60405180910390fd5b505b620004a582826200023360201b60201c565b5050565b60008060009054906101000a900473ffffffffffffffffffffffffffffffffffffffff16905090565b6000806301ffc9a760e01b83604051602401620004f0919062000c8a565b604051602081830303815290604052907bffffffffffffffffffffffffffffffffffffffffffffffffffffffff19166020820180517bffffffffffffffffffffffffffffffffffffffffffffffffffffffff838183161783525050505090506000808573ffffffffffffffffffffffffffffffffffffffff16617530846040516200057c919062000ce9565b6000604051808303818686fa925050503d8060008114620005ba576040519150601f19603f3d011682016040523d82523d6000602084013e620005bf565b606091505b5091509150602081511015620005dc576000935050505062000602565b818015620005fc575080806020019051810190620005fb919062000d3f565b5b93505050505b92915050565b60606001600083815260200190815260200160002080546200062a9062000da0565b80601f0160208091040260200160405190810160405280929190818152602001828054620006589062000da0565b8015620006a95780601f106200067d57610100808354040283529160200191620006a9565b820191906000526020600020905b8154815290600101906020018083116200068b57829003601f168201915b50505050509050919050565b828054620006c39062000da0565b90600052602060002090601f016020900481019282620006e7576000855562000733565b82601f106200070257805160ff191683800117855562000733565b8280016001018555821562000733579182015b828111156200073257825182559160200191906001019062000715565b5b50905062000742919062000746565b5090565b5b808211156200076157600081600090555060010162000747565b5090565b6000604051905090565b600080fd5b600080fd5b600073ffffffffffffffffffffffffffffffffffffffff82169050919050565b6000620007a68262000779565b9050919050565b620007b88162000799565b8114620007c457600080fd5b50565b600081519050620007d881620007ad565b92915050565b60008060408385031215620007f857620007f76200076f565b5b60006200080885828601620007c7565b92505060206200081b85828601620007c7565b9150509250929050565b60007fffffffffffffffffffffffffffffffffffffffff00000000000000000000000082169050919050565b6000819050919050565b620008706200086a8262000825565b62000851565b82525050565b60006200088482846200085b565b60148201915081905092915050565b6000819050919050565b620008a88162000893565b82525050565b600082825260208201905092915050565b50565b6000620008d1600083620008ae565b9150620008de82620008bf565b600082019050919050565b60006040820190506200090060008301846200089d565b81810360208301526200091381620008c2565b905092915050565b600080fd5b600080fd5b6000601f19601f8301169050919050565b7f4e487b7100000000000000000000000000000000000000000000000000000000600052604160045260246000fd5b620009708262000925565b810181811067ffffffffffffffff8211171562000992576200099162000936565b5b80604052505050565b6000620009a762000765565b9050620009b5828262000965565b919050565b600067ffffffffffffffff821115620009d857620009d762000936565b5b620009e38262000925565b9050602081019050919050565b60005b8381101562000a10578082015181840152602081019050620009f3565b8381111562000a20576000848401525b50505050565b600062000a3d62000a3784620009ba565b6200099b565b90508281526020810184848401111562000a5c5762000a5b62000920565b5b62000a69848285620009f0565b509392505050565b600082601f83011262000a895762000a886200091b565b5b815162000a9b84826020860162000a26565b91505092915050565b60006020828403121562000abd5762000abc6200076f565b5b600082015167ffffffffffffffff81111562000ade5762000add62000774565b5b62000aec8482850162000a71565b91505092915050565b600081519050919050565b6000819050602082019050919050565b600062000b1e825162000825565b80915050919050565b600082821b905092915050565b600062000b418262000af5565b8262000b4d8462000b00565b905062000b5a8162000b10565b9250601482101562000b9d5762000b987fffffffffffffffffffffffffffffffffffffffff0000000000000000000000008360140360080262000b27565b831692505b5050919050565b600082825260208201905092915050565b7f4f6e6c79204f776e6572206f7220556e6976657273616c20526563656976657260008201527f2044656c656761746520616c6c6f776564000000000000000000000000000000602082015250565b600062000c1360318362000ba4565b915062000c208262000bb5565b604082019050919050565b6000602082019050818103600083015262000c468162000c04565b9050919050565b60007fffffffff0000000000000000000000000000000000000000000000000000000082169050919050565b62000c848162000c4d565b82525050565b600060208201905062000ca1600083018462000c79565b92915050565b600081905092915050565b600062000cbf8262000af5565b62000ccb818562000ca7565b935062000cdd818560208601620009f0565b80840191505092915050565b600062000cf7828462000cb2565b915081905092915050565b60008115159050919050565b62000d198162000d02565b811462000d2557600080fd5b50565b60008151905062000d398162000d0e565b92915050565b60006020828403121562000d585762000d576200076f565b5b600062000d688482850162000d28565b91505092915050565b7f4e487b7100000000000000000000000000000000000000000000000000000000600052602260045260246000fd5b6000600282049050600182168062000db957607f821691505b6020821081141562000dd05762000dcf62000d71565b5b50919050565b61372d8062000de66000396000f3fe6080604052600436106100ab5760003560e01c80636bb56a14116100645780636bb56a1414610277578063715018a6146102a75780637f23690c146102be5780638da5cb5b146102e7578063e30c397814610312578063f2fde38b1461033d57610100565b806301ffc9a71461015057806314a6e2931461018d57806344c028fe146101b65780634e3e6e9c146101e65780634e71e0c81461022357806354f6127f1461023a57610100565b366101005760003411156100fe57343373ffffffffffffffffffffffffffffffffffffffff167f7e71433ddf847725166244795048ecf3e3f9f35628254ecbf73605666423349360405160405180910390a35b005b600034111561014e57343373ffffffffffffffffffffffffffffffffffffffff167f7e71433ddf847725166244795048ecf3e3f9f35628254ecbf73605666423349360405160405180910390a35b005b34801561015c57600080fd5b5061017760048036038101906101729190611f7a565b610366565b6040516101849190611fc2565b60405180910390f35b34801561019957600080fd5b506101b460048036038101906101af9190612302565b610465565b005b6101d060048036038101906101cb9190612469565b61060a565b6040516101dd9190612579565b60405180910390f35b3480156101f257600080fd5b5061020d6004803603810190610208919061259b565b610cd4565b60405161021a91906126f0565b60405180910390f35b34801561022f57600080fd5b50610238610d8a565b005b34801561024657600080fd5b50610261600480360381019061025c9190612712565b610db3565b60405161026e9190612579565b60405180910390f35b610291600480360381019061028c919061273f565b610dc5565b60405161029e9190612579565b60405180910390f35b3480156102b357600080fd5b506102bc610f35565b005b3480156102ca57600080fd5b506102e560048036038101906102e0919061279f565b610f49565b005b3480156102f357600080fd5b506102fc611056565b604051610309919061280a565b60405180910390f35b34801561031e57600080fd5b5061032761107f565b604051610334919061280a565b60405180910390f35b34801561034957600080fd5b50610364600480360381019061035f9190612825565b6110a5565b005b6000638c1d44f660e01b7bffffffffffffffffffffffffffffffffffffffffffffffffffffffff1916827bffffffffffffffffffffffffffffffffffffffffffffffffffffffff191614806103ff5750636bb56a1460e01b7bffffffffffffffffffffffffffffffffffffffffffffffffffffffff1916827bffffffffffffffffffffffffffffffffffffffffffffffffffffffff1916145b8061044e575063d225f16060e01b7bffffffffffffffffffffffffffffffffffffffffffffffffffffffff1916827bffffffffffffffffffffffffffffffffffffffffffffffffffffffff1916145b8061045e575061045d826112e3565b5b9050919050565b61046d611056565b73ffffffffffffffffffffffffffffffffffffffff163373ffffffffffffffffffffffffffffffffffffffff16146105645760006104cd7f0cfc51aec37c55a4d0b1a65c6255c4bf2fbdf6277f3cc0730c45b828b6db8b4760001b611344565b6104d6906128b0565b60601c90506104ec3363a245bbda60e01b6111b8565b801561052357508073ffffffffffffffffffffffffffffffffffffffff163373ffffffffffffffffffffffffffffffffffffffff16145b610562576040517f08c379a00000000000000000000000000000000000000000000000000000000081526004016105599061299a565b60405180910390fd5b505b80518251146105a8576040517f08c379a000000000000000000000000000000000000000000000000000000000815260040161059f90612a2c565b60405180910390fd5b60005b8251811015610605576105f28382815181106105ca576105c9612a4c565b5b60200260200101518383815181106105e5576105e4612a4c565b5b60200260200101516113e9565b80806105fd90612aaa565b9150506105ab565b505050565b6060610614611442565b60005a905060008714156107185784471015610665576040517f08c379a000000000000000000000000000000000000000000000000000000000815260040161065c90612b65565b60405180910390fd5b6106b5868686868080601f016020809104026020016040519081016040528093929190818152602001838380828437600081840152601f19601f82011690508083019250505050505050846114b9565b9150848673ffffffffffffffffffffffffffffffffffffffff16887f4810874456b8e6487bd861375cf6abd8e1c8bb5858c8ce36a86a04dabfac199e8787906106fe9190612b90565b60405161070b9190612bfe565b60405180910390a4610cca565b60038714156108165760008514610764576040517f08c379a000000000000000000000000000000000000000000000000000000000815260040161075b90612c8b565b60405180910390fd5b6107b38685858080601f016020809104026020016040519081016040528093929190818152602001838380828437600081840152601f19601f8201169050808301925050505050505083611579565b9150848673ffffffffffffffffffffffffffffffffffffffff16887f4810874456b8e6487bd861375cf6abd8e1c8bb5858c8ce36a86a04dabfac199e8787906107fc9190612b90565b6040516108099190612bfe565b60405180910390a4610cc9565b60048714156109145760008514610862576040517f08c379a000000000000000000000000000000000000000000000000000000000815260040161085990612d1d565b60405180910390fd5b6108b18685858080601f016020809104026020016040519081016040528093929190818152602001838380828437600081840152601f19601f8201169050808301925050505050505083611635565b9150848673ffffffffffffffffffffffffffffffffffffffff16887f4810874456b8e6487bd861375cf6abd8e1c8bb5858c8ce36a86a04dabfac199e8787906108fa9190612b90565b6040516109079190612bfe565b60405180910390a4610cc8565b6001871415610a8e57600073ffffffffffffffffffffffffffffffffffffffff168673ffffffffffffffffffffffffffffffffffffffff161461098c576040517f08c379a000000000000000000000000000000000000000000000000000000000815260040161098390612dd5565b60405180910390fd5b844710156109cf576040517f08c379a00000000000000000000000000000000000000000000000000000000081526004016109c690612b65565b60405180910390fd5b6000610a1f8686868080601f016020809104026020016040519081016040528093929190818152602001838380828437600081840152601f19601f820116905080830192505050505050506116f1565b905080604051602001610a329190612e3d565b6040516020818303038152906040529250858173ffffffffffffffffffffffffffffffffffffffff16897f01c42bd7e97a66166063b02fce6924e6656b6c2c61966630165095c4fb0b7b2f60405160405180910390a450610cc7565b6002871415610c8b57600073ffffffffffffffffffffffffffffffffffffffff168673ffffffffffffffffffffffffffffffffffffffff1614610b06576040517f08c379a0000000000000000000000000000000000000000000000000000000008152600401610afd90612dd5565b60405180910390fd5b84471015610b49576040517f08c379a0000000000000000000000000000000000000000000000000000000008152600401610b4090612b65565b60405180910390fd5b6000610ba885858080601f016020809104026020016040519081016040528093929190818152602001838380828437600081840152601f19601f82011690508083019250505050505050602087879050610ba39190612e58565b6117b7565b90506000610c0b86868080601f016020809104026020016040519081016040528093929190818152602001838380828437600081840152601f19601f820116905080830192505050505050506000602089899050610c069190612e58565b61181e565b90506000610c1a88848461193c565b905080604051602001610c2d9190612e3d565b6040516020818303038152906040529450878173ffffffffffffffffffffffffffffffffffffffff168b7f01c42bd7e97a66166063b02fce6924e6656b6c2c61966630165095c4fb0b7b2f60405160405180910390a4505050610cc6565b6040517f08c379a0000000000000000000000000000000000000000000000000000000008152600401610cbd90612ed8565b60405180910390fd5b5b5b5b5b5095945050505050565b6060815167ffffffffffffffff811115610cf157610cf0611ff3565b5b604051908082528060200260200182016040528015610d2457816020015b6060815260200190600190039081610d0f5790505b50905060005b8251811015610d8457610d56838281518110610d4957610d48612a4c565b5b6020026020010151611344565b828281518110610d6957610d68612a4c565b5b6020026020010181905250610d7d81611a4d565b9050610d2a565b50919050565b6000610d94611056565b9050610d9e611a5a565b610da781611b59565b610db033611c27565b50565b6060610dbe82611344565b9050919050565b60606000610df57f0cfc51aec37c55a4d0b1a65c6255c4bf2fbdf6277f3cc0730c45b828b6db8b4760001b611344565b90506014815110610ec457600081610e0c906128b0565b60601c9050610e228163a245bbda60e01b6111b8565b15610ec2578073ffffffffffffffffffffffffffffffffffffffff1663a245bbda33348989896040518663ffffffff1660e01b8152600401610e68959493929190612f43565b600060405180830381600087803b158015610e8257600080fd5b505af1158015610e96573d6000803e3d6000fd5b505050506040513d6000823e3d601f19601f82011682018060405250810190610ebf9190613001565b92505b505b81604051610ed29190613086565b6040518091039020853373ffffffffffffffffffffffffffffffffffffffff167f9c3ba68eb5742b8e3961aea0afc7371a71bf433c8a67a831803b64c064a178c2348888604051610f259392919061309d565b60405180910390a4509392505050565b610f3d611442565b610f4760006110b9565b565b610f51611056565b73ffffffffffffffffffffffffffffffffffffffff163373ffffffffffffffffffffffffffffffffffffffff1614611048576000610fb17f0cfc51aec37c55a4d0b1a65c6255c4bf2fbdf6277f3cc0730c45b828b6db8b4760001b611344565b610fba906128b0565b60601c9050610fd03363a245bbda60e01b6111b8565b801561100757508073ffffffffffffffffffffffffffffffffffffffff163373ffffffffffffffffffffffffffffffffffffffff16145b611046576040517f08c379a000000000000000000000000000000000000000000000000000000000815260040161103d9061299a565b60405180910390fd5b505b61105282826113e9565b5050565b60008060009054906101000a900473ffffffffffffffffffffffffffffffffffffffff16905090565b600260009054906101000a900473ffffffffffffffffffffffffffffffffffffffff1681565b6110ad611442565b6110b681611cf5565b50565b6110c1611056565b73ffffffffffffffffffffffffffffffffffffffff168173ffffffffffffffffffffffffffffffffffffffff16146111b55760008060009054906101000a900473ffffffffffffffffffffffffffffffffffffffff169050816000806101000a81548173ffffffffffffffffffffffffffffffffffffffff021916908373ffffffffffffffffffffffffffffffffffffffff1602179055508173ffffffffffffffffffffffffffffffffffffffff168173ffffffffffffffffffffffffffffffffffffffff167f8be0079c531659141344cd1fd0a4f28419497f9722a3daafe3b4186f6b6457e060405160405180910390a3505b50565b6000806301ffc9a760e01b836040516024016111d49190612bfe565b604051602081830303815290604052907bffffffffffffffffffffffffffffffffffffffffffffffffffffffff19166020820180517bffffffffffffffffffffffffffffffffffffffffffffffffffffffff838183161783525050505090506000808573ffffffffffffffffffffffffffffffffffffffff166175308460405161125e9190613086565b6000604051808303818686fa925050503d806000811461129a576040519150601f19603f3d011682016040523d82523d6000602084013e61129f565b606091505b50915091506020815110156112ba57600093505050506112dd565b8180156112d75750808060200190518101906112d691906130fb565b5b93505050505b92915050565b600063714df77c60e01b7bffffffffffffffffffffffffffffffffffffffffffffffffffffffff1916827bffffffffffffffffffffffffffffffffffffffffffffffffffffffff1916148061133d575061133c82611d39565b5b9050919050565b606060016000838152602001908152602001600020805461136490613157565b80601f016020809104026020016040519081016040528092919081815260200182805461139090613157565b80156113dd5780601f106113b2576101008083540402835291602001916113dd565b820191906000526020600020905b8154815290600101906020018083116113c057829003601f168201915b50505050509050919050565b80600160008481526020019081526020016000209080519060200190611410929190611e6b565b50817fcdf4e344c0d23d4cdd0474039d176c55b19d531070dbe17856bfb993a5b5720b60405160405180910390a25050565b3373ffffffffffffffffffffffffffffffffffffffff16611461611056565b73ffffffffffffffffffffffffffffffffffffffff16146114b7576040517f08c379a00000000000000000000000000000000000000000000000000000000081526004016114ae906131d5565b60405180910390fd5b565b60606000808673ffffffffffffffffffffffffffffffffffffffff168487876040516114e59190613086565b600060405180830381858888f193505050503d8060008114611523576040519150601f19603f3d011682016040523d82523d6000602084013e611528565b606091505b509150915061156d82826040518060400160405280601581526020017f455243373235583a20556e6b6e6f77204572726f720000000000000000000000815250611d9a565b92505050949350505050565b60606000808573ffffffffffffffffffffffffffffffffffffffff1684866040516115a49190613086565b6000604051808303818686fa925050503d80600081146115e0576040519150601f19603f3d011682016040523d82523d6000602084013e6115e5565b606091505b509150915061162a82826040518060400160405280601581526020017f455243373235583a20556e6b6e6f77204572726f720000000000000000000000815250611d9a565b925050509392505050565b60606000808573ffffffffffffffffffffffffffffffffffffffff1684866040516116609190613086565b6000604051808303818686f4925050503d806000811461169c576040519150601f19603f3d011682016040523d82523d6000602084013e6116a1565b606091505b50915091506116e682826040518060400160405280601581526020017f455243373235583a20556e6b6e6f77204572726f720000000000000000000000815250611d9a565b925050509392505050565b60008082511415611737576040517f08c379a000000000000000000000000000000000000000000000000000000000815260040161172e90613241565b60405180910390fd5b81516020830184f09050600073ffffffffffffffffffffffffffffffffffffffff168173ffffffffffffffffffffffffffffffffffffffff1614156117b1576040517f08c379a00000000000000000000000000000000000000000000000000000000081526004016117a8906132ad565b60405180910390fd5b92915050565b60006020826117c691906132cd565b83511015611809576040517f08c379a00000000000000000000000000000000000000000000000000000000081526004016118009061336f565b60405180910390fd5b60008260208501015190508091505092915050565b606081601f8361182e91906132cd565b101561186f576040517f08c379a0000000000000000000000000000000000000000000000000000000008152600401611866906133db565b60405180910390fd5b818361187b91906132cd565b845110156118be576040517f08c379a00000000000000000000000000000000000000000000000000000000081526004016118b590613447565b60405180910390fd5b60608215600081146118df5760405191506000825260208201604052611930565b6040519150601f8416801560200281840101858101878315602002848b0101015b8183101561191d5780518352602083019250602081019050611900565b50868552601f19601f8301166040525050505b50809150509392505050565b60008084471015611982576040517f08c379a0000000000000000000000000000000000000000000000000000000008152600401611979906134b3565b60405180910390fd5b6000835114156119c7576040517f08c379a00000000000000000000000000000000000000000000000000000000081526004016119be9061351f565b60405180910390fd5b8383516020850187f59050600073ffffffffffffffffffffffffffffffffffffffff168173ffffffffffffffffffffffffffffffffffffffff161415611a42576040517f08c379a0000000000000000000000000000000000000000000000000000000008152600401611a399061358b565b60405180910390fd5b809150509392505050565b6000600182019050919050565b600260009054906101000a900473ffffffffffffffffffffffffffffffffffffffff1673ffffffffffffffffffffffffffffffffffffffff163373ffffffffffffffffffffffffffffffffffffffff1614611aea576040517f08c379a0000000000000000000000000000000000000000000000000000000008152600401611ae19061361d565b60405180910390fd5b611b15600260009054906101000a900473ffffffffffffffffffffffffffffffffffffffff166110b9565b6000600260006101000a81548173ffffffffffffffffffffffffffffffffffffffff021916908373ffffffffffffffffffffffffffffffffffffffff160217905550565b611b6a81636bb56a1460e01b6111b8565b15611c24578073ffffffffffffffffffffffffffffffffffffffff16636bb56a147f3ca9f769340018257ac15b3a00e502e8fb730d66086f774210f84d0205af31e760001b6040518263ffffffff1660e01b8152600401611bcb9190613663565b600060405180830381600087803b158015611be557600080fd5b505af1158015611bf9573d6000803e3d6000fd5b505050506040513d6000823e3d601f19601f82011682018060405250810190611c229190613001565b505b50565b611c3881636bb56a1460e01b6111b8565b15611cf2578073ffffffffffffffffffffffffffffffffffffffff16636bb56a147f09aaf55960715d8d86b57af40be36b0bfd469c9a3643445d8c65d39e27b4c56f60001b6040518263ffffffff1660e01b8152600401611c999190613663565b600060405180830381600087803b158015611cb357600080fd5b505af1158015611cc7573d6000803e3d6000fd5b505050506040513d6000823e3d601f19601f82011682018060405250810190611cf09190613001565b505b50565b80600260006101000a81548173ffffffffffffffffffffffffffffffffffffffff021916908373ffffffffffffffffffffffffffffffffffffffff16021790555050565b60006344c028fe60e01b7bffffffffffffffffffffffffffffffffffffffffffffffffffffffff1916827bffffffffffffffffffffffffffffffffffffffffffffffffffffffff19161480611d935750611d9282611e01565b5b9050919050565b60608315611daa57829050611dfa565b600083511115611dbd5782518084602001fd5b816040517f08c379a0000000000000000000000000000000000000000000000000000000008152600401611df191906136d5565b60405180910390fd5b9392505050565b60007f01ffc9a7000000000000000000000000000000000000000000000000000000007bffffffffffffffffffffffffffffffffffffffffffffffffffffffff1916827bffffffffffffffffffffffffffffffffffffffffffffffffffffffff1916149050919050565b828054611e7790613157565b90600052602060002090601f016020900481019282611e995760008555611ee0565b82601f10611eb257805160ff1916838001178555611ee0565b82800160010185558215611ee0579182015b82811115611edf578251825591602001919060010190611ec4565b5b509050611eed9190611ef1565b5090565b5b80821115611f0a576000816000905550600101611ef2565b5090565b6000604051905090565b600080fd5b600080fd5b60007fffffffff0000000000000000000000000000000000000000000000000000000082169050919050565b611f5781611f22565b8114611f6257600080fd5b50565b600081359050611f7481611f4e565b92915050565b600060208284031215611f9057611f8f611f18565b5b6000611f9e84828501611f65565b91505092915050565b60008115159050919050565b611fbc81611fa7565b82525050565b6000602082019050611fd76000830184611fb3565b92915050565b600080fd5b6000601f19601f8301169050919050565b7f4e487b7100000000000000000000000000000000000000000000000000000000600052604160045260246000fd5b61202b82611fe2565b810181811067ffffffffffffffff8211171561204a57612049611ff3565b5b80604052505050565b600061205d611f0e565b90506120698282612022565b919050565b600067ffffffffffffffff82111561208957612088611ff3565b5b602082029050602081019050919050565b600080fd5b6000819050919050565b6120b28161209f565b81146120bd57600080fd5b50565b6000813590506120cf816120a9565b92915050565b60006120e86120e38461206e565b612053565b9050808382526020820190506020840283018581111561210b5761210a61209a565b5b835b81811015612134578061212088826120c0565b84526020840193505060208101905061210d565b5050509392505050565b600082601f83011261215357612152611fdd565b5b81356121638482602086016120d5565b91505092915050565b600067ffffffffffffffff82111561218757612186611ff3565b5b602082029050602081019050919050565b600080fd5b600067ffffffffffffffff8211156121b8576121b7611ff3565b5b6121c182611fe2565b9050602081019050919050565b82818337600083830152505050565b60006121f06121eb8461219d565b612053565b90508281526020810184848401111561220c5761220b612198565b5b6122178482856121ce565b509392505050565b600082601f83011261223457612233611fdd565b5b81356122448482602086016121dd565b91505092915050565b600061226061225b8461216c565b612053565b905080838252602082019050602084028301858111156122835761228261209a565b5b835b818110156122ca57803567ffffffffffffffff8111156122a8576122a7611fdd565b5b8086016122b5898261221f565b85526020850194505050602081019050612285565b5050509392505050565b600082601f8301126122e9576122e8611fdd565b5b81356122f984826020860161224d565b91505092915050565b6000806040838503121561231957612318611f18565b5b600083013567ffffffffffffffff81111561233757612336611f1d565b5b6123438582860161213e565b925050602083013567ffffffffffffffff81111561236457612363611f1d565b5b612370858286016122d4565b9150509250929050565b6000819050919050565b61238d8161237a565b811461239857600080fd5b50565b6000813590506123aa81612384565b92915050565b600073ffffffffffffffffffffffffffffffffffffffff82169050919050565b60006123db826123b0565b9050919050565b6123eb816123d0565b81146123f657600080fd5b50565b600081359050612408816123e2565b92915050565b600080fd5b60008083601f84011261242957612428611fdd565b5b8235905067ffffffffffffffff8111156124465761244561240e565b5b6020830191508360018202830111156124625761246161209a565b5b9250929050565b60008060008060006080868803121561248557612484611f18565b5b60006124938882890161239b565b95505060206124a4888289016123f9565b94505060406124b58882890161239b565b935050606086013567ffffffffffffffff8111156124d6576124d5611f1d565b5b6124e288828901612413565b92509250509295509295909350565b600081519050919050565b600082825260208201905092915050565b60005b8381101561252b578082015181840152602081019050612510565b8381111561253a576000848401525b50505050565b600061254b826124f1565b61255581856124fc565b935061256581856020860161250d565b61256e81611fe2565b840191505092915050565b600060208201905081810360008301526125938184612540565b905092915050565b6000602082840312156125b1576125b0611f18565b5b600082013567ffffffffffffffff8111156125cf576125ce611f1d565b5b6125db8482850161213e565b91505092915050565b600081519050919050565b600082825260208201905092915050565b6000819050602082019050919050565b600082825260208201905092915050565b600061262c826124f1565b6126368185612610565b935061264681856020860161250d565b61264f81611fe2565b840191505092915050565b60006126668383612621565b905092915050565b6000602082019050919050565b6000612686826125e4565b61269081856125ef565b9350836020820285016126a285612600565b8060005b858110156126de57848403895281516126bf858261265a565b94506126ca8361266e565b925060208a019950506001810190506126a6565b50829750879550505050505092915050565b6000602082019050818103600083015261270a818461267b565b905092915050565b60006020828403121561272857612727611f18565b5b6000612736848285016120c0565b91505092915050565b60008060006040848603121561275857612757611f18565b5b6000612766868287016120c0565b935050602084013567ffffffffffffffff81111561278757612786611f1d565b5b61279386828701612413565b92509250509250925092565b600080604083850312156127b6576127b5611f18565b5b60006127c4858286016120c0565b925050602083013567ffffffffffffffff8111156127e5576127e4611f1d565b5b6127f18582860161221f565b9150509250929050565b612804816123d0565b82525050565b600060208201905061281f60008301846127fb565b92915050565b60006020828403121561283b5761283a611f18565b5b6000612849848285016123f9565b91505092915050565b6000819050602082019050919050565b60007fffffffffffffffffffffffffffffffffffffffff00000000000000000000000082169050919050565b600061289a8251612862565b80915050919050565b600082821b905092915050565b60006128bb826124f1565b826128c584612852565b90506128d08161288e565b925060148210156129105761290b7fffffffffffffffffffffffffffffffffffffffff000000000000000000000000836014036008026128a3565b831692505b5050919050565b600082825260208201905092915050565b7f4f6e6c79204f776e6572206f7220556e6976657273616c20526563656976657260008201527f2044656c656761746520616c6c6f776564000000000000000000000000000000602082015250565b6000612984603183612917565b915061298f82612928565b604082019050919050565b600060208201905081810360008301526129b381612977565b9050919050565b7f4b657973206c656e677468206e6f7420657175616c20746f2076616c7565732060008201527f6c656e6774680000000000000000000000000000000000000000000000000000602082015250565b6000612a16602683612917565b9150612a21826129ba565b604082019050919050565b60006020820190508181036000830152612a4581612a09565b9050919050565b7f4e487b7100000000000000000000000000000000000000000000000000000000600052603260045260246000fd5b7f4e487b7100000000000000000000000000000000000000000000000000000000600052601160045260246000fd5b6000612ab58261237a565b91507fffffffffffffffffffffffffffffffffffffffffffffffffffffffffffffffff821415612ae857612ae7612a7b565b5b600182019050919050565b7f455243373235583a20696e73756666696369656e742062616c616e636520666f60008201527f722063616c6c0000000000000000000000000000000000000000000000000000602082015250565b6000612b4f602683612917565b9150612b5a82612af3565b604082019050919050565b60006020820190508181036000830152612b7e81612b42565b9050919050565b600082905092915050565b6000612b9c8383612b85565b82612ba78135611f22565b92506004821015612be757612be27fffffffff00000000000000000000000000000000000000000000000000000000836004036008026128a3565b831692505b505092915050565b612bf881611f22565b82525050565b6000602082019050612c136000830184612bef565b92915050565b7f455243373235583a2063616e6e6f74207472616e736665722076616c7565207760008201527f697468206f7065726174696f6e2053544154494343414c4c0000000000000000602082015250565b6000612c75603883612917565b9150612c8082612c19565b604082019050919050565b60006020820190508181036000830152612ca481612c68565b9050919050565b7f455243373235583a2063616e6e6f74207472616e736665722076616c7565207760008201527f697468206f7065726174696f6e2044454c454741544543414c4c000000000000602082015250565b6000612d07603a83612917565b9150612d1282612cab565b604082019050919050565b60006020820190508181036000830152612d3681612cfa565b9050919050565b7f455243373235583a20435245415445206f7065726174696f6e7320726571756960008201527f726520746865207265636569766572206164647265737320746f20626520656d60208201527f7074790000000000000000000000000000000000000000000000000000000000604082015250565b6000612dbf604383612917565b9150612dca82612d3d565b606082019050919050565b60006020820190508181036000830152612dee81612db2565b9050919050565b60008160601b9050919050565b6000612e0d82612df5565b9050919050565b6000612e1f82612e02565b9050919050565b612e37612e32826123d0565b612e14565b82525050565b6000612e498284612e26565b60148201915081905092915050565b6000612e638261237a565b9150612e6e8361237a565b925082821015612e8157612e80612a7b565b5b828203905092915050565b7f57726f6e67206f7065726174696f6e2074797065000000000000000000000000600082015250565b6000612ec2601483612917565b9150612ecd82612e8c565b602082019050919050565b60006020820190508181036000830152612ef181612eb5565b9050919050565b612f018161237a565b82525050565b612f108161209f565b82525050565b6000612f2283856124fc565b9350612f2f8385846121ce565b612f3883611fe2565b840190509392505050565b6000608082019050612f5860008301886127fb565b612f656020830187612ef8565b612f726040830186612f07565b8181036060830152612f85818486612f16565b90509695505050505050565b6000612fa4612f9f8461219d565b612053565b905082815260208101848484011115612fc057612fbf612198565b5b612fcb84828561250d565b509392505050565b600082601f830112612fe857612fe7611fdd565b5b8151612ff8848260208601612f91565b91505092915050565b60006020828403121561301757613016611f18565b5b600082015167ffffffffffffffff81111561303557613034611f1d565b5b61304184828501612fd3565b91505092915050565b600081905092915050565b6000613060826124f1565b61306a818561304a565b935061307a81856020860161250d565b80840191505092915050565b60006130928284613055565b915081905092915050565b60006040820190506130b26000830186612ef8565b81810360208301526130c5818486612f16565b9050949350505050565b6130d881611fa7565b81146130e357600080fd5b50565b6000815190506130f5816130cf565b92915050565b60006020828403121561311157613110611f18565b5b600061311f848285016130e6565b91505092915050565b7f4e487b7100000000000000000000000000000000000000000000000000000000600052602260045260246000fd5b6000600282049050600182168061316f57607f821691505b6020821081141561318357613182613128565b5b50919050565b7f4f776e61626c653a2063616c6c6572206973206e6f7420746865206f776e6572600082015250565b60006131bf602083612917565b91506131ca82613189565b602082019050919050565b600060208201905081810360008301526131ee816131b2565b9050919050565b7f6e6f20636f6e74726163742062797465636f64652070726f7669646564000000600082015250565b600061322b601d83612917565b9150613236826131f5565b602082019050919050565b6000602082019050818103600083015261325a8161321e565b9050919050565b7f436f756c64206e6f74206465706c6f7920636f6e747261637400000000000000600082015250565b6000613297601983612917565b91506132a282613261565b602082019050919050565b600060208201905081810360008301526132c68161328a565b9050919050565b60006132d88261237a565b91506132e38361237a565b9250827fffffffffffffffffffffffffffffffffffffffffffffffffffffffffffffffff0382111561331857613317612a7b565b5b828201905092915050565b7f746f427974657333325f6f75744f66426f756e64730000000000000000000000600082015250565b6000613359601583612917565b915061336482613323565b602082019050919050565b600060208201905081810360008301526133888161334c565b9050919050565b7f736c6963655f6f766572666c6f77000000000000000000000000000000000000600082015250565b60006133c5600e83612917565b91506133d08261338f565b602082019050919050565b600060208201905081810360008301526133f4816133b8565b9050919050565b7f736c6963655f6f75744f66426f756e6473000000000000000000000000000000600082015250565b6000613431601183612917565b915061343c826133fb565b602082019050919050565b6000602082019050818103600083015261346081613424565b9050919050565b7f437265617465323a20696e73756666696369656e742062616c616e6365000000600082015250565b600061349d601d83612917565b91506134a882613467565b602082019050919050565b600060208201905081810360008301526134cc81613490565b9050919050565b7f437265617465323a2062797465636f6465206c656e677468206973207a65726f600082015250565b6000613509602083612917565b9150613514826134d3565b602082019050919050565b60006020820190508181036000830152613538816134fc565b9050919050565b7f437265617465323a204661696c6564206f6e206465706c6f7900000000000000600082015250565b6000613575601983612917565b91506135808261353f565b602082019050919050565b600060208201905081810360008301526135a481613568565b9050919050565b7f4f776e61626c65436c61696d3a2063616c6c6572206973206e6f74207468652060008201527f70656e64696e674f776e65720000000000000000000000000000000000000000602082015250565b6000613607602c83612917565b9150613612826135ab565b604082019050919050565b60006020820190508181036000830152613636816135fa565b9050919050565b50565b600061364d6000836124fc565b91506136588261363d565b600082019050919050565b60006040820190506136786000830184612f07565b818103602083015261368981613640565b905092915050565b600081519050919050565b60006136a782613691565b6136b18185612917565b93506136c181856020860161250d565b6136ca81611fe2565b840191505092915050565b600060208201905081810360008301526136ef818461369c565b90509291505056fea2646970667358221220e9c989ea8354baa4638c083528d3a1aa2126571b2bd4247bf4062d685c7705f064736f6c63430008090033",
  "linkReferences": {},
  "deployedLinkReferences": {}
}