{
  "_format": "hh-sol-artifact-1",
  "contractName": "MultisigDeployer",
  "sourceName": "contracts/Deployer/MultisigDeployer.sol",
  "abi": [
    {
      "anonymous": false,
      "inputs": [
        {
          "indexed": false,
          "internalType": "address",
          "name": "_MULTISIG",
          "type": "address"
        }
      ],
      "name": "MultisigDeployed",
      "type": "event"
    },
    {
      "inputs": [
        {
          "internalType": "address payable",
          "name": "_UNIVERSAL_PROFILE",
          "type": "address"
        },
        {
          "internalType": "address",
          "name": "_KEY_MANAGER",
          "type": "address"
        },
        {
          "internalType": "address",
          "name": "_caller",
          "type": "address"
        },
        {
          "internalType": "bytes32",
          "name": "_quorum",
          "type": "bytes32"
        },
        {
          "internalType": "address[]",
          "name": "_multisigParticipants",
          "type": "address[]"
        },
        {
          "internalType": "bytes32[]",
          "name": "_multisigParticipantsPermissions",
          "type": "bytes32[]"
        }
      ],
      "name": "deployMultisig",
      "outputs": [
        {
          "internalType": "address",
          "name": "_MULTISIG",
          "type": "address"
        }
      ],
      "stateMutability": "nonpayable",
      "type": "function"
    }
  ],
  "bytecode": "0x608060405234801561001057600080fd5b50613967806100206000396000f3fe608060405234801561001057600080fd5b506004361061002b5760003560e01c80632354f4fb14610030575b600080fd5b61004361003e366004610ba9565b61005f565b6040516001600160a01b03909116815260200160405180910390f35b6000868660405161006f90610aae565b6001600160a01b03928316815291166020820152604001604051809103906000f0801580156100a2573d6000803e3d6000fd5b506040516001600160a01b03821681529091507ff00aee46d282d0492634f0c14ababeb359a64aeb82cc2122a3174b2267e900c89060200160405180910390a16100ed878287610103565b6100f98585858561049d565b9695505050505050565b60408051600380825260808201909252600091602082016060803683375050604080516003808252608082019092529293506000929150602082015b606081526020019060019003908161013f579050506040517f54f6127f0000000000000000000000000000000000000000000000000000000081527fdf30dba06db6a30e65354d9a64c609861f089545ca58c6b4dbe31a5f338cb0e360048201529091506000906001600160a01b038716906354f6127f90602401600060405180830381865afa1580156101d7573d6000803e3d6000fd5b505050506040513d6000823e601f3d908101601f191682016040526101ff9190810190610cdd565b9050600061020c82610d71565b9050600061021b826001610dae565b90507fdf30dba06db6a30e65354d9a64c609861f089545ca58c6b4dbe31a5f338cb0e360001b8560008151811061025457610254610dc6565b6020026020010181815250508060001b60405160200161027691815260200190565b6040516020818303038152906040528460008151811061029857610298610dc6565b602090810291909101810191909152604080517fdf30dba06db6a30e65354d9a64c609860000000000000000000000000000000081840152608085901b6fffffffffffffffffffffffffffffffff19166030820152815180820390930183528101905261030490610d71565b8560018151811061031757610317610dc6565b6020026020010181815250508660601b60405160200161034c91906bffffffffffffffffffffffff1991909116815260140190565b6040516020818303038152906040528460018151811061036e5761036e610dc6565b602090810291909101810191909152604080517f4b80742de2bf82acb363000000000000000000000000000000000000000000008184015260608a901b6bffffffffffffffffffffffff1916602c82015281518082039093018352810190526103d690610d71565b856002815181106103e9576103e9610dc6565b602002602001018181525050617fbf60001b60405160200161040d91815260200190565b6040516020818303038152906040528460028151811061042f5761042f610dc6565b6020908102919091010152604051631de8ffb360e21b815233906377a3fecc9061046190899089908990600401610ddc565b600060405180830381600087803b15801561047b57600080fd5b505af115801561048f573d6000803e3d6000fd5b505050505050505050505050565b6000825160036104ad9190610e9f565b6104b8906002610dae565b67ffffffffffffffff8111156104d0576104d0610ad3565b6040519080825280602002602001820160405280156104f9578160200160208202803683370190505b50905060008351600361050c9190610e9f565b610517906002610dae565b67ffffffffffffffff81111561052f5761052f610ad3565b60405190808252806020026020018201604052801561056257816020015b606081526020019060019003908161054d5790505b5090507f47499aa724781173ffff2a8a82c6223b88e1a838d32bb91a9ff9c9c0b8c8759b60001b8260008151811061059c5761059c610dc6565b602002602001018181525050846040516020016105bb91815260200190565b604051602081830303815290604052816000815181106105dd576105dd610dc6565b60200260200101819052507f54aef89da199194b126d28036f71291726191dbff7160f9d0986952b17eaedb460001b8260018151811061061f5761061f610dc6565b602002602001018181525050835160001b60405160200161064291815260200190565b6040516020818303038152906040528160018151811061066457610664610dc6565b6020908102919091010152835160005b81816001600160801b03161015610a4b57604080517f54aef89da199194b126d28036f7129170000000000000000000000000000000060208201526fffffffffffffffffffffffffffffffff19608084901b166030820152016040516020818303038152906040526106e590610d71565b846106f1836002610ebe565b6001600160801b03168151811061070a5761070a610dc6565b60200260200101818152505085816001600160801b03168151811061073157610731610dc6565b602002602001015160601b60405160200161076191906bffffffffffffffffffffffff1991909116815260140190565b60408051601f198184030181529190528361077d836002610ebe565b6001600160801b03168151811061079657610796610dc6565b60200260200101819052506b54aef89da199194b126d000060a01b86826001600160801b0316815181106107cc576107cc610dc6565b602002602001015160601b60405160200161081992919073ffffffffffffffffffffffffffffffffffffffff199290921682526bffffffffffffffffffffffff1916600c82015260200190565b60405160208183030381529060405261083190610d71565b84826001600160801b03168851600261084a9190610dae565b6108549190610dae565b8151811061086457610864610dc6565b602002602001018181525050806001600160801b031660001b60405160200161088f91815260200190565b60405160208183030381529060405283826001600160801b0316885160026108b79190610dae565b6108c19190610dae565b815181106108d1576108d1610dc6565b60200260200101819052506b4164647265734d756c74000060a01b86826001600160801b03168151811061090757610907610dc6565b602002602001015160601b60405160200161095492919073ffffffffffffffffffffffffffffffffffffffff199290921682526bffffffffffffffffffffffff1916600c82015260200190565b60405160208183030381529060405261096c90610d71565b84826001600160801b0316885160026109859190610e9f565b610990906002610dae565b61099a9190610dae565b815181106109aa576109aa610dc6565b60200260200101818152505084816001600160801b0316815181106109d1576109d1610dc6565b60200260200101516040516020016109eb91815260200190565b60405160208183030381529060405283826001600160801b031688516002610a139190610e9f565b610a1e906002610dae565b610a289190610dae565b81518110610a3857610a38610dc6565b6020908102919091010152600101610674565b50604051631de8ffb360e21b815233906377a3fecc90610a73908a9087908790600401610ddc565b600060405180830381600087803b158015610a8d57600080fd5b505af1158015610aa1573d6000803e3d6000fd5b5050505050505050505050565b612a4880610eea83390190565b6001600160a01b0381168114610ad057600080fd5b50565b634e487b7160e01b600052604160045260246000fd5b604051601f8201601f1916810167ffffffffffffffff81118282101715610b1257610b12610ad3565b604052919050565b600067ffffffffffffffff821115610b3457610b34610ad3565b5060051b60200190565b600082601f830112610b4f57600080fd5b81356020610b64610b5f83610b1a565b610ae9565b82815260059290921b84018101918181019086841115610b8357600080fd5b8286015b84811015610b9e5780358352918301918301610b87565b509695505050505050565b60008060008060008060c08789031215610bc257600080fd5b8635610bcd81610abb565b9550602087810135610bde81610abb565b95506040880135610bee81610abb565b945060608801359350608088013567ffffffffffffffff80821115610c1257600080fd5b818a0191508a601f830112610c2657600080fd5b8135610c34610b5f82610b1a565b81815260059190911b8301840190848101908d831115610c5357600080fd5b938501935b82851015610c7a578435610c6b81610abb565b82529385019390850190610c58565b9650505060a08a0135925080831115610c9257600080fd5b5050610ca089828a01610b3e565b9150509295509295509295565b60005b83811015610cc8578181015183820152602001610cb0565b83811115610cd7576000848401525b50505050565b600060208284031215610cef57600080fd5b815167ffffffffffffffff80821115610d0757600080fd5b818401915084601f830112610d1b57600080fd5b815181811115610d2d57610d2d610ad3565b610d40601f8201601f1916602001610ae9565b9150808252856020828501011115610d5757600080fd5b610d68816020840160208601610cad565b50949350505050565b80516020808301519190811015610d92576000198160200360031b1b821691505b50919050565b634e487b7160e01b600052601160045260246000fd5b60008219821115610dc157610dc1610d98565b500190565b634e487b7160e01b600052603260045260246000fd5b6000606082016001600160a01b03861683526020606081850152818651808452608086019150828801935060005b81811015610e2657845183529383019391830191600101610e0a565b5050848103604086015285518082528282019350600581901b8201830183880160005b83811015610e8f57601f198086850301885282518051808652610e71818a88018b8501610cad565b98880198601f01909116939093018601925090850190600101610e49565b50909a9950505050505050505050565b6000816000190483118215151615610eb957610eb9610d98565b500290565b60006001600160801b03808316818516808303821115610ee057610ee0610d98565b0194935050505056fe60806040523480156200001157600080fd5b5060405162002a4838038062002a4883398101604081905262000034916200007f565b600280546001600160a01b039384166001600160a01b03199182161790915560038054929093169116179055620000be565b6001600160a01b03811681146200007c57600080fd5b50565b600080604083850312156200009357600080fd5b8251620000a08162000066565b6020840151909250620000b38162000066565b809150509250929050565b61297a80620000ce6000396000f3fe608060405234801561001057600080fd5b506004361061007d5760003560e01c806367fb22141161005b57806367fb2214146100cf57806380a22541146100e2578063f31a105d146100f5578063f71fd7961461010857600080fd5b8063245eead61461008257806336c1644e14610097578063421cc9ec146100bc575b600080fd5b610095610090366004611ff8565b61011b565b005b6100aa6100a5366004612022565b61016d565b60405190815260200160405180910390f35b6100aa6100ca366004612076565b6101d3565b6100956100dd366004611ff8565b610242565b6100956100f0366004612131565b610290565b610095610103366004612210565b6103c5565b610095610116366004612291565b61090b565b61015f33600860001b6040518060400160405280601181526020017f52454d4f56455f5045524d495353494f4e000000000000000000000000000000815250610af5565b6101698282610b45565b5050565b6001600160a01b0382811660008181526020818152604080832054815130938101939093529488169082015260608101929092526080820184905260a082019290925260c0015b6040516020818303038152906040528051906020012090509392505050565b6001600160a01b03831660009081526001602090815260408083205490516bffffffffffffffffffffffff1930606090811b8216948301949094529287901b90921660348301526001600160b01b03198516604883015283151560f81b605283015260538201526073016101b4565b61028633600460001b6040518060400160405280600e81526020017f4144445f5045524d495353494f4e000000000000000000000000000000000000815250610af5565b6101698282610df7565b6102d483600460001b6040518060400160405280600e81526020017f4144445f5045524d495353494f4e000000000000000000000000000000000000815250610af5565b60006103376102e485338661016d565b6040517f19457468657265756d205369676e6564204d6573736167653a0a3332000000006020820152603c8101829052600090605c01604051602081830303815290604052805190602001209050919050565b905060006103458284611088565b9050806001600160a01b0316856001600160a01b031614610385576001604051637d29e6e160e01b815260040161037c9190612328565b60405180910390fd5b61038f3385610df7565b61039a6071426123ae565b33600090815260208190526040812080549091906103b99084906123d0565b90915550505050505050565b61040933601060001b6040518060400160405280601081526020017f455845435554455f50524f504f53414c00000000000000000000000000000000815250610af5565b82811461042c576003604051637d29e6e160e01b815260040161037c9190612328565b6040805160028082526060820183526000926020830190803683370190505090507f54aef89da199194b126d28036f71291726191dbff7160f9d0986952b17eaedb460001b81600081518110610484576104846123e8565b6020026020010181815250507f47499aa724781173ffff2a8a82c6223b88e1a838d32bb91a9ff9c9c0b8c8759b60001b816001815181106104c7576104c76123e8565b60209081029190910101526002546040517f4e3e6e9c0000000000000000000000000000000000000000000000000000000081526000916001600160a01b031690634e3e6e9c9061051c908590600401612439565b600060405180830381865afa158015610539573d6000803e3d6000fd5b505050506040513d6000823e601f3d908101601f1916820160405261056191908101906124cc565b9050600081600081518110610578576105786123e8565b60200260200101516105899061258f565b60001c90506000826001815181106105a3576105a36123e8565b60200260200101516105b4906125b6565b60f81c905080826105c6896064612606565b6105d091906123ae565b10156105f2576004604051637d29e6e160e01b815260040161037c9190612328565b600087815b818110156107795760006106366102e48b8b85818110610619576106196123e8565b905060200201602081019061062e9190612625565b8f60016101d3565b9050600061069e8d8d8581811061064f5761064f6123e8565b90506020028101906106619190612640565b8080601f01602080910402602001604051908101604052809392919081815260200183838082843760009201919091525086939250506110889050565b90508a8a848181106106b2576106b26123e8565b90506020020160208101906106c79190612625565b6001600160a01b0316816001600160a01b03161480156106f1575060016106ed826110ac565b1615155b1561076f578461070081612687565b955061070f90506071426123ae565b600160008d8d87818110610725576107256123e8565b905060200201602081019061073a9190612625565b6001600160a01b03166001600160a01b03168152602001908152602001600020600082825461076991906123d0565b90915550505b50506001016105f7565b5060ff83168461078a846064612606565b61079491906123ae565b11156108e2576002546000906001600160a01b03166354f6127f6107b78e61117d565b6040518263ffffffff1660e01b81526004016107d591815260200190565b600060405180830381865afa1580156107f2573d6000803e3d6000fd5b505050506040513d6000823e601f3d908101601f1916820160405261081a91908101906126a2565b80602001905181019061082d91906124cc565b805190915060005b818110156108da5760035483516001600160a01b03909116906309c5eabe90859084908110610866576108666123e8565b60200260200101516040518263ffffffff1660e01b815260040161088a9190612703565b6000604051808303816000875af11580156108a9573d6000803e3d6000fd5b505050506040513d6000823e601f3d908101601f191682016040526108d191908101906126a2565b50600101610835565b5050506108fe565b6005604051637d29e6e160e01b815260040161037c9190612328565b5050505050505050505050565b8061092c576002604051637d29e6e160e01b815260040161037c9190612328565b61097033600260001b6040518060400160405280600781526020017f50524f504f534500000000000000000000000000000000000000000000000000815250610af5565b60006109a585854260405160200161098a9392919061273f565b604051602081830303815290604052805190602001206111d1565b905060006109b28261117d565b9050600084846040516020016109c9929190612763565b60408051601f19818403018152908290526003549092506001600160a01b0316906309c5eabe907f7f23690cc80a596acdae0a51503f8066ffd79ab76fd5c929578309d2e2883b7790610a2290869086906024016127fe565b60408051601f198184030181529181526020820180516001600160e01b03166001600160e01b03199485161790525160e084901b9092168252610a6791600401612703565b6000604051808303816000875af1158015610a86573d6000803e3d6000fd5b505050506040513d6000823e601f3d908101601f19168201604052610aae91908101906126a2565b506040516001600160b01b0319841681527fa1132638bf652459b06b9321dbbbbcd15050052900733c1699eb8e8454d1f2419060200160405180910390a150505050505050565b6000610b00846110ac565b9050828116610b3f5783826040517f3bdad6e600000000000000000000000000000000000000000000000000000000815260040161037c929190612817565b50505050565b60005b602081108015610b9057506000828260208110610b6757610b676123e8565b1a60f81b7effffffffffffffffffffffffffffffffffffffffffffffffffffffffffffff191614155b15610b9d57600101610b48565b6000610ba8846110ac565b905060005b610bb8836020612839565b811015610bf4576001811b821615801590610bd757506001811b841615155b15610bec57610be96001821b83612839565b91505b600101610bad565b50600081604051602001610c0a91815260200190565b60408051601f19818403018152919052905081610cd1576002546003546040516bffffffffffffffffffffffff19606089901b166020820152610cbf926001600160a01b039081169216907f54aef89da199194b126d28036f71291726191dbff7160f9d0986952b17eaedb4907f54aef89da199194b126d28036f71291700000000000000000000000000000000906954aef89da199194b126d60b01b90603401604051602081830303815290604052611240565b50506040805160208101909152600081525b60035460408051691059191c995cd35d5b1d60b21b60208201526bffffffffffffffffffffffff19606089901b16602c8201526001600160a01b03909216916309c5eabe917f7f23690cc80a596acdae0a51503f8066ffd79ab76fd5c929578309d2e2883b779101604051602081830303815290604052610d519061258f565b84604051602401610d639291906127fe565b60408051601f198184030181529181526020820180516001600160e01b03166001600160e01b03199485161790525160e084901b9092168252610da891600401612703565b6000604051808303816000875af1158015610dc7573d6000803e3d6000fd5b505050506040513d6000823e601f3d908101601f19168201604052610def91908101906126a2565b505050505050565b60005b602081108015610e4257506000828260208110610e1957610e196123e8565b1a60f81b7effffffffffffffffffffffffffffffffffffffffffffffffffffffffffffff191614155b15610e4f57600101610dfa565b6000610e5a846110ac565b905080610f01576002546003546040516bffffffffffffffffffffffff19606088901b166020820152610eff926001600160a01b039081169216907f54aef89da199194b126d28036f71291726191dbff7160f9d0986952b17eaedb4907f54aef89da199194b126d28036f71291700000000000000000000000000000000906954aef89da199194b126d60b01b906034016040516020818303038152906040526117d5565b505b60005b610f0f836020612839565b811015610f4a576001811b8216158015610f2d57506001811b841615155b15610f4257610f3f6001821b836123d0565b91505b600101610f04565b5060035460408051691059191c995cd35d5b1d60b21b60208201526bffffffffffffffffffffffff19606088901b16602c8201526001600160a01b03909216916309c5eabe917f7f23690cc80a596acdae0a51503f8066ffd79ab76fd5c929578309d2e2883b779101604051602081830303815290604052610fcb9061258f565b60408051602081018790520160408051601f1981840301815290829052610ff592916024016127fe565b60408051601f198184030181529181526020820180516001600160e01b03166001600160e01b03199485161790525160e084901b909216825261103a91600401612703565b6000604051808303816000875af1158015611059573d6000803e3d6000fd5b505050506040513d6000823e601f3d908101601f1916820160405261108191908101906126a2565b5050505050565b60008060006110978585611b6b565b915091506110a481611bdb565b509392505050565b60025460408051691059191c995cd35d5b1d60b21b60208201526bffffffffffffffffffffffff19606085901b16602c8201526000926001600160a01b0316916354f6127f910160405160208183030381529060405261110b9061258f565b6040518263ffffffff1660e01b815260040161112991815260200190565b600060405180830381865afa158015611146573d6000803e3d6000fd5b505050506040513d6000823e601f3d908101601f1916820160405261116e91908101906126a2565b6111779061258f565b92915050565b604080516001600160b01b0319831660208201527d870a9bfe5ccee436bab5b4cfd8215400bb038e8e00000000000000000000602a820152600091016040516020818303038152906040526111779061258f565b6040517f4d756c740000000000000000000000000000000000000000000000000000000060208201527fffffffffffff000000000000000000000000000000000000000000000000000082166024820152600090602a0160405160208183030381529060405261117790612850565b6040516354f6127f60e01b81526004810185905260009081906001600160a01b038916906354f6127f90602401600060405180830381865afa15801561128a573d6000803e3d6000fd5b505050506040513d6000823e601f3d908101601f191682016040526112b291908101906126a2565b6112bb9061258f565b905060006112ca600183612839565b90506000806112da8b8888611d99565b91509150816112f05760009450505050506117cb565b604080516fffffffffffffffffffffffffffffffff19808b166020830152608086901b1660308201526000916001600160a01b038e16916354f6127f91016040516020818303038152906040526113469061258f565b6040518263ffffffff1660e01b815260040161136491815260200190565b600060405180830381865afa158015611381573d6000803e3d6000fd5b505050506040513d6000823e601f3d908101601f191682016040526113a991908101906126a2565b60408051600580825260c08201909252919250600091906020820160a080368337505060408051600580825260c082019092529293506000929150602082015b60608152602001906001900390816113e95790505090508b82600081518110611414576114146123e8565b6020026020010181815250508560001b60405160200161143691815260200190565b60405160208183030381529060405281600081518110611458576114586123e8565b60200260200101819052508a8460801b6040516020016114989291906fffffffffffffffffffffffffffffffff1992831681529116601082015260200190565b6040516020818303038152906040526114b09061258f565b826001815181106114c3576114c36123e8565b60200260200101818152505082816001815181106114e3576114e36123e8565b60200260200101819052508a8660801b6040516020016115239291906fffffffffffffffffffffffffffffffff1992831681529116601082015260200190565b60405160208183030381529060405261153b9061258f565b8260028151811061154e5761154e6123e8565b602002602001018181525050604051806020016040528060008152508160028151811061157d5761157d6123e8565b6020026020010181905250898361159390612884565b6040805173ffffffffffffffffffffffffffffffffffffffff1990931660208401526bffffffffffffffffffffffff19909116602c830152016040516020818303038152906040526115e49061258f565b826003815181106115f7576115f76123e8565b6020026020010181815250508360001b60405160200161161991815260200190565b6040516020818303038152906040528160038151811061163b5761163b6123e8565b6020026020010181905250898961165190612884565b6040805173ffffffffffffffffffffffffffffffffffffffff1990931660208401526bffffffffffffffffffffffff19909116602c830152016040516020818303038152906040526116a29061258f565b826004815181106116b5576116b56123e8565b60200260200101818152505060405180602001604052806000815250816004815181106116e4576116e46123e8565b60200260200101819052508c6001600160a01b03166309c5eabe7f14a6e2931875c22579e483160c8d2832a3fb3acbd575a49f6a0f7fc5e135f78984846040516024016117329291906128bc565b60408051601f198184030181529181526020820180516001600160e01b03166001600160e01b03199485161790525160e084901b909216825261177791600401612703565b6000604051808303816000875af1158015611796573d6000803e3d6000fd5b505050506040513d6000823e601f3d908101601f191682016040526117be91908101906126a2565b5060019750505050505050505b9695505050505050565b6040516354f6127f60e01b81526004810185905260009081906001600160a01b038916906354f6127f90602401600060405180830381865afa15801561181f573d6000803e3d6000fd5b505050506040513d6000823e601f3d908101601f1916820160405261184791908101906126a2565b6118509061258f565b9050600061185f8260016123d0565b905060008061186f8b8888611d99565b5091506000905081156118895760009450505050506117cb565b60408051600380825260808201909252600091602082016060803683375050604080516003808252608082019092529293506000929150602082015b60608152602001906001900390816118c55790505090508a826000815181106118f0576118f06123e8565b6020026020010181815250508460001b60405160200161191291815260200190565b60405160208183030381529060405281600081518110611934576119346123e8565b6020026020010181905250898660801b6040516020016119749291906fffffffffffffffffffffffffffffffff1992831681529116601082015260200190565b60405160208183030381529060405261198c9061258f565b8260018151811061199f5761199f6123e8565b60200260200101818152505087816001815181106119bf576119bf6123e8565b602002602001018190525088886119d590612884565b6040805173ffffffffffffffffffffffffffffffffffffffff1990931660208401526bffffffffffffffffffffffff19909116602c83015201604051602081830303815290604052611a269061258f565b82600281518110611a3957611a396123e8565b6020026020010181815250508560001b604051602001611a5b91815260200190565b60405160208183030381529060405281600281518110611a7d57611a7d6123e8565b60200260200101819052508b6001600160a01b03166309c5eabe7f14a6e2931875c22579e483160c8d2832a3fb3acbd575a49f6a0f7fc5e135f7898484604051602401611acb9291906128bc565b60408051601f198184030181529181526020820180516001600160e01b03166001600160e01b03199485161790525160e084901b9092168252611b1091600401612703565b6000604051808303816000875af1158015611b2f573d6000803e3d6000fd5b505050506040513d6000823e601f3d908101601f19168201604052611b5791908101906126a2565b5060019d9c50505050505050505050505050565b600080825160411415611ba25760208301516040840151606085015160001a611b9687828585611e9d565b94509450505050611bd4565b825160401415611bcc5760208301516040840151611bc1868383611f8a565b935093505050611bd4565b506000905060025b9250929050565b6000816004811115611bef57611bef61292e565b1415611bf85750565b6001816004811115611c0c57611c0c61292e565b1415611c5a5760405162461bcd60e51b815260206004820152601860248201527f45434453413a20696e76616c6964207369676e61747572650000000000000000604482015260640161037c565b6002816004811115611c6e57611c6e61292e565b1415611cbc5760405162461bcd60e51b815260206004820152601f60248201527f45434453413a20696e76616c6964207369676e6174757265206c656e67746800604482015260640161037c565b6003816004811115611cd057611cd061292e565b1415611d295760405162461bcd60e51b815260206004820152602260248201527f45434453413a20696e76616c6964207369676e6174757265202773272076616c604482015261756560f01b606482015260840161037c565b6004816004811115611d3d57611d3d61292e565b1415611d965760405162461bcd60e51b815260206004820152602260248201527f45434453413a20696e76616c6964207369676e6174757265202776272076616c604482015261756560f01b606482015260840161037c565b50565b600080806001600160a01b0386166354f6127f86611db687612884565b6040805173ffffffffffffffffffffffffffffffffffffffff1990931660208401526bffffffffffffffffffffffff19909116602c83015201604051602081830303815290604052611e079061258f565b6040518263ffffffff1660e01b8152600401611e2591815260200190565b600060405180830381865afa158015611e42573d6000803e3d6000fd5b505050506040513d6000823e601f3d908101601f19168201604052611e6a91908101906126a2565b9050805160001415611e83576000809250925050611e95565b6001611e8e8261258f565b9093509150505b935093915050565b6000807f7fffffffffffffffffffffffffffffff5d576e7357a4501ddfe92f46681b20a0831115611ed45750600090506003611f81565b8460ff16601b14158015611eec57508460ff16601c14155b15611efd5750600090506004611f81565b6040805160008082526020820180845289905260ff881692820192909252606081018690526080810185905260019060a0016020604051602081039080840390855afa158015611f51573d6000803e3d6000fd5b5050604051601f1901519150506001600160a01b038116611f7a57600060019250925050611f81565b9150600090505b94509492505050565b6000807f7fffffffffffffffffffffffffffffffffffffffffffffffffffffffffffffff831681611fc060ff86901c601b6123d0565b9050611fce87828885611e9d565b935093505050935093915050565b80356001600160a01b0381168114611ff357600080fd5b919050565b6000806040838503121561200b57600080fd5b61201483611fdc565b946020939093013593505050565b60008060006060848603121561203757600080fd5b61204084611fdc565b925061204e60208501611fdc565b9150604084013590509250925092565b80356001600160b01b031981168114611ff357600080fd5b60008060006060848603121561208b57600080fd5b61209484611fdc565b92506120a26020850161205e565b9150604084013580151581146120b757600080fd5b809150509250925092565b634e487b7160e01b600052604160045260246000fd5b604051601f8201601f1916810167ffffffffffffffff81118282101715612101576121016120c2565b604052919050565b600067ffffffffffffffff821115612123576121236120c2565b50601f01601f191660200190565b60008060006060848603121561214657600080fd5b61214f84611fdc565b925060208401359150604084013567ffffffffffffffff81111561217257600080fd5b8401601f8101861361218357600080fd5b803561219661219182612109565b6120d8565b8181528760208385010111156121ab57600080fd5b816020840160208301376000602083830101528093505050509250925092565b60008083601f8401126121dd57600080fd5b50813567ffffffffffffffff8111156121f557600080fd5b6020830191508360208260051b8501011115611bd457600080fd5b60008060008060006060868803121561222857600080fd5b6122318661205e565b9450602086013567ffffffffffffffff8082111561224e57600080fd5b61225a89838a016121cb565b9096509450604088013591508082111561227357600080fd5b50612280888289016121cb565b969995985093965092949392505050565b600080600080604085870312156122a757600080fd5b843567ffffffffffffffff808211156122bf57600080fd5b818701915087601f8301126122d357600080fd5b8135818111156122e257600080fd5b8860208285010111156122f457600080fd5b60209283019650945090860135908082111561230f57600080fd5b5061231c878288016121cb565b95989497509550505050565b60408152600061236560408301600881527f4d756c7469736967000000000000000000000000000000000000000000000000602082015260400190565b90507fff000000000000000000000000000000000000000000000000000000000000008360f81b16602083015292915050565b634e487b7160e01b600052601160045260246000fd5b6000826123cb57634e487b7160e01b600052601260045260246000fd5b500490565b600082198211156123e3576123e3612398565b500190565b634e487b7160e01b600052603260045260246000fd5b600081518084526020808501945080840160005b8381101561242e57815187529582019590820190600101612412565b509495945050505050565b60208152600061244c60208301846123fe565b9392505050565b60005b8381101561246e578181015183820152602001612456565b83811115610b3f5750506000910152565b600082601f83011261249057600080fd5b815161249e61219182612109565b8181528460208386010111156124b357600080fd5b6124c4826020830160208701612453565b949350505050565b600060208083850312156124df57600080fd5b825167ffffffffffffffff808211156124f757600080fd5b818501915085601f83011261250b57600080fd5b81518181111561251d5761251d6120c2565b8060051b61252c8582016120d8565b918252838101850191858101908984111561254657600080fd5b86860192505b83831015612582578251858111156125645760008081fd5b6125728b89838a010161247f565b835250918601919086019061254c565b9998505050505050505050565b805160208083015191908110156125b0576000198160200360031b1b821691505b50919050565b6000815160208301517fff00000000000000000000000000000000000000000000000000000000000000808216935060018310156125fe5780818460010360031b1b83161693505b505050919050565b600081600019048311821515161561262057612620612398565b500290565b60006020828403121561263757600080fd5b61244c82611fdc565b6000808335601e1984360301811261265757600080fd5b83018035915067ffffffffffffffff82111561267257600080fd5b602001915036819003821315611bd457600080fd5b600060001982141561269b5761269b612398565b5060010190565b6000602082840312156126b457600080fd5b815167ffffffffffffffff8111156126cb57600080fd5b6124c48482850161247f565b600081518084526126ef816020860160208601612453565b601f01601f19169290920160200192915050565b60208152600061244c60208301846126d7565b81835281816020850137506000828201602090810191909152601f909101601f19169091010190565b604081526000612753604083018587612716565b9050826020830152949350505050565b60208082528181018390526000906040600585901b8401810190840186845b878110156127f157868403603f190183528135368a9003601e190181126127a857600080fd5b8901803567ffffffffffffffff8111156127c157600080fd5b8036038b13156127d057600080fd5b6127dd8682898501612716565b955050509184019190840190600101612782565b5091979650505050505050565b8281526040602082015260006124c460408301846126d7565b6001600160a01b03831681526040602082015260006124c460408301846126d7565b60008282101561284b5761284b612398565b500390565b6000815160208301516001600160b01b03198082169350600a8310156125fe57600a9290920360031b82901b161692915050565b805160208201516bffffffffffffffffffffffff1980821692919060148310156125fe5760149290920360031b82901b161692915050565b6040815260006128cf60408301856123fe565b6020838203818501528185518084528284019150828160051b85010183880160005b8381101561291f57601f1987840301855261290d8383516126d7565b948601949250908501906001016128f1565b50909998505050505050505050565b634e487b7160e01b600052602160045260246000fdfea2646970667358221220e56afddb3b9ffa674eb0eb121edee14dd2c5407a3f2b5d6466bdce66c268e80164736f6c634300080a0033a26469706673582212207de47c8c4764a221301614fb1c93e6b4f27ff74fe62fa4873fea142f6cac0e6d64736f6c634300080a0033",
  "linkReferences": {},
  "deployedLinkReferences": {}
}