{
  "_format": "hh-sol-artifact-1",
  "contractName": "UniversalProfileDeployer",
  "sourceName": "contracts/Deployer/UniversalProfileDeployer.sol",
  "abi": [
    {
      "inputs": [
        {
          "internalType": "address",
          "name": "_unviersalReceiverDelegateUPAddress",
          "type": "address"
        },
        {
          "internalType": "bytes",
          "name": "_universalProfileMetadata",
          "type": "bytes"
        }
      ],
      "name": "deployUniversalProfile",
      "outputs": [
        {
          "internalType": "address payable",
          "name": "_UNIVERSAL_PROFILE",
          "type": "address"
        },
        {
          "internalType": "address",
          "name": "_KEY_MANAGER",
          "type": "address"
        }
      ],
      "stateMutability": "nonpayable",
      "type": "function"
    }
  ],
  "bytecode": "0x608060405234801561001057600080fd5b506157c3806100206000396000f3fe608060405234801561001057600080fd5b506004361061002b5760003560e01c8063b086c4f214610030575b600080fd5b61004361003e366004610382565b610067565b604080516001600160a01b0393841681529290911660208301520160405180910390f35b6000803360405161007790610352565b6001600160a01b039091168152602001604051809103906000f0801580156100a3573d6000803e3d6000fd5b509150816040516100b39061035f565b6001600160a01b039091168152602001604051809103906000f0801580156100df573d6000803e3d6000fd5b5090506100ed8285856100f4565b9250929050565b60408051600380825260808201909252600091602082016060803683375050604080516003808252608082019092529293506000929150602082015b60608152602001906001900390816101305790505090507f0cfc51aec37c55a4d0b1a65c6255c4bf2fbdf6277f3cc0730c45b828b6db8b4760001b8260008151811061017e5761017e610452565b6020026020010181815250508360601b6040516020016101b391906bffffffffffffffffffffffff1991909116815260140190565b604051602081830303815290604052816000815181106101d5576101d5610452565b60200260200101819052507feafec4d89fa9619884b60000abe425d64acd861a49b8ddf5c0b6962110481f3860001b8260018151811061021757610217610452565b6020026020010181815250506040518060400160405280600481526020017fabe425d6000000000000000000000000000000000000000000000000000000008152508160018151811061026c5761026c610452565b60200260200101819052507f5ef83ad9559033e6e941db7d7c495acdce616347d28e90c7ce47cbfcfcad3bc560001b826002815181106102ae576102ae610452565b60200260200101818152505082816002815181106102ce576102ce610452565b60209081029190910101526040517fa5db9eb8000000000000000000000000000000000000000000000000000000008152339063a5db9eb89061031990889086908690600401610468565b600060405180830381600087803b15801561033357600080fd5b505af1158015610347573d6000803e3d6000fd5b505050505050505050565b6124538061054d83390190565b612dee806129a083390190565b634e487b7160e01b600052604160045260246000fd5b6000806040838503121561039557600080fd5b82356001600160a01b03811681146103ac57600080fd5b9150602083013567ffffffffffffffff808211156103c957600080fd5b818501915085601f8301126103dd57600080fd5b8135818111156103ef576103ef61036c565b604051601f8201601f19908116603f011681019083821181831017156104175761041761036c565b8160405282815288602084870101111561043057600080fd5b8260208601602083013760006020848301015280955050505050509250929050565b634e487b7160e01b600052603260045260246000fd5b6000606082016001600160a01b03861683526020606081850152818651808452608086019150828801935060005b818110156104b257845183529383019391830191600101610496565b5050848103604086015285518082528282019350600581901b8201830183880160005b8381101561053c57601f19808685030188528251805180865260005b8181101561050c578281018a01518782018b015289016104f1565b8181111561051d5760008a83890101525b5098880198601f019091169390930186019250908501906001016104d5565b50909a995050505050505050505056fe608060405260405162002453380380620024538339810160408190526200002691620000aa565b6200003c816200004360201b62000e701760201c565b50620000dc565b6000546001600160a01b03828116911614620000a757600080546001600160a01b038381166001600160a01b0319831681178455604051919092169283917f8be0079c531659141344cd1fd0a4f28419497f9722a3daafe3b4186f6b6457e09190a3505b50565b600060208284031215620000bd57600080fd5b81516001600160a01b0381168114620000d557600080fd5b9392505050565b61236780620000ec6000396000f3fe6080604052600436106100d25760003560e01c806354f6127f1161007f5780637f23690c116100595780637f23690c146102405780638da5cb5b14610260578063e30c397814610292578063f2fde38b146102b2576100d2565b806354f6127f146101f85780636bb56a1414610218578063715018a61461022b576100d2565b806344c028fe116100b057806344c028fe146101965780634e3e6e9c146101b65780634e71e0c8146101e3576100d2565b806301ffc9a71461010857806314a6e2931461013d5780631626ba7e1461015d575b341561010657604051349033907f7e71433ddf847725166244795048ecf3e3f9f35628254ecbf73605666423349390600090a35b005b34801561011457600080fd5b50610128610123366004611bee565b6102d2565b60405190151581526020015b60405180910390f35b34801561014957600080fd5b50610106610158366004611d5a565b610399565b34801561016957600080fd5b5061017d610178366004611e2f565b610472565b6040516001600160e01b03199091168152602001610134565b6101a96101a4366004611ed4565b610573565b6040516101349190611f98565b3480156101c257600080fd5b506101d66101d1366004611fab565b610c07565b6040516101349190611fe0565b3480156101ef57600080fd5b50610106610cbb565b34801561020457600080fd5b506101a9610213366004612042565b610cc5565b6101a961022636600461205b565b610cd0565b34801561023757600080fd5b50610106610e12565b34801561024c57600080fd5b5061010661025b366004611e2f565b610e24565b34801561026c57600080fd5b506000546001600160a01b03165b6040516001600160a01b039091168152602001610134565b34801561029e57600080fd5b5060025461027a906001600160a01b031681565b3480156102be57600080fd5b506101066102cd3660046120a7565b610e3a565b60006001600160e01b03198216630b135d3f60e11b148061031c57506001600160e01b031982167f9a3bfe8800000000000000000000000000000000000000000000000000000000145b8061035057506001600160e01b031982167f6bb56a1400000000000000000000000000000000000000000000000000000000145b8061038457506001600160e01b031982167fd225f16000000000000000000000000000000000000000000000000000000000145b80610393575061039382610ee2565b92915050565b6103a1610f20565b805182511461041d5760405162461bcd60e51b815260206004820152602660248201527f4b657973206c656e677468206e6f7420657175616c20746f2076616c7565732060448201527f6c656e677468000000000000000000000000000000000000000000000000000060648201526084015b60405180910390fd5b60005b825181101561046d5761046583828151811061043e5761043e6120c2565b6020026020010151838381518110610458576104586120c2565b6020026020010151610f89565b600101610420565b505050565b6000806104876000546001600160a01b031690565b90506001600160a01b0381163b15610533576104aa81630b135d3f60e11b610fd8565b6104bc576001600160e01b031961052b565b604051630b135d3f60e11b81526001600160a01b03821690631626ba7e906104ea90879087906004016120d8565b602060405180830381865afa158015610507573d6000803e3d6000fd5b505050506040513d601f19601f8201168201806040525081019061052b91906120f1565b915050610393565b61053d84846110d6565b6001600160a01b0316816001600160a01b031614610563576001600160e01b031961052b565b50630b135d3f60e11b9392505050565b606061057d610f20565b60005a90508661068357844710156105e65760405162461bcd60e51b815260206004820152602660248201527f455243373235583a20696e73756666696369656e742062616c616e636520666f6044820152651c8818d85b1b60d21b6064820152608401610414565b610629868686868080601f0160208091040260200160405190810160405280939291908181526020018383808284376000920191909152508792506110fa915050565b9150846001600160a01b038716887f4810874456b8e6487bd861375cf6abd8e1c8bb5858c8ce36a86a04dabfac199e610662878961210e565b6040516001600160e01b0319909116815260200160405180910390a4610bfd565b60038714156107425784156107005760405162461bcd60e51b815260206004820152603860248201527f455243373235583a2063616e6e6f74207472616e736665722076616c7565207760448201527f697468206f7065726174696f6e2053544154494343414c4c00000000000000006064820152608401610414565b6106298685858080601f0160208091040260200160405190810160405280939291908181526020018383808284376000920191909152508692506111ac915050565b60048714156108015784156107bf5760405162461bcd60e51b815260206004820152603a60248201527f455243373235583a2063616e6e6f74207472616e736665722076616c7565207760448201527f697468206f7065726174696f6e2044454c454741544543414c4c0000000000006064820152608401610414565b6106298685858080601f016020809104026020016040519081016040528093929190818152602001838380828437600092019190915250869250611250915050565b60018714156109a5576001600160a01b038616156108935760405162461bcd60e51b815260206004820152604360248201527f455243373235583a20435245415445206f7065726174696f6e7320726571756960448201527f726520746865207265636569766572206164647265737320746f20626520656d60648201526270747960e81b608482015260a401610414565b844710156108f25760405162461bcd60e51b815260206004820152602660248201527f455243373235583a20696e73756666696369656e742062616c616e636520666f6044820152651c8818d85b1b60d21b6064820152608401610414565b60006109348686868080601f0160208091040260200160405190810160405280939291908181526020018383808284376000920191909152506112aa92505050565b6040516bffffffffffffffffffffffff19606083901b166020820152909150603401604051602081830303815290604052925085816001600160a01b0316897f01c42bd7e97a66166063b02fce6924e6656b6c2c61966630165095c4fb0b7b2f60405160405180910390a450610bfd565b6002871415610bb5576001600160a01b03861615610a375760405162461bcd60e51b815260206004820152604360248201527f455243373235583a20435245415445206f7065726174696f6e7320726571756960448201527f726520746865207265636569766572206164647265737320746f20626520656d60648201526270747960e81b608482015260a401610414565b84471015610a965760405162461bcd60e51b815260206004820152602660248201527f455243373235583a20696e73756666696369656e742062616c616e636520666f6044820152651c8818d85b1b60d21b6064820152608401610414565b6000610ae485858080601f016020809104026020016040519081016040528093929190818152602001838380828437600092019190915250610adf925060209150889050612154565b61135e565b90506000610b3386868080601f01602080910402602001604051908101604052809392919081815260200183838082843760009201829052509250610b2e91506020905089612154565b6113c4565b90506000610b428884846114ee565b6040516bffffffffffffffffffffffff19606083901b166020820152909150603401604051602081830303815290604052945087816001600160a01b03168b7f01c42bd7e97a66166063b02fce6924e6656b6c2c61966630165095c4fb0b7b2f60405160405180910390a4505050610bfd565b60405162461bcd60e51b815260206004820152601460248201527f57726f6e67206f7065726174696f6e20747970650000000000000000000000006044820152606401610414565b5095945050505050565b6060815167ffffffffffffffff811115610c2357610c23611c0b565b604051908082528060200260200182016040528015610c5657816020015b6060815260200190600190039081610c415790505b50905060005b8251811015610cb557610c87838281518110610c7a57610c7a6120c2565b60200260200101516115f8565b828281518110610c9957610c996120c2565b6020026020010181905250610cae8160010190565b9050610c5c565b50919050565b610cc361169a565b565b6060610393826115f8565b60606000610cfd7f0cfc51aec37c55a4d0b1a65c6255c4bf2fbdf6277f3cc0730c45b828b6db8b476115f8565b90506014815110610dae576000610d138261216b565b60601c9050610d2981635122dded60e11b610fd8565b15610dac57604051635122dded60e11b81526001600160a01b0382169063a245bbda90610d6290339034908b908b908b906004016121d0565b6000604051808303816000875af1158015610d81573d6000803e3d6000fd5b505050506040513d6000823e601f3d908101601f19168201604052610da991908101906121ff565b92505b505b81604051610dbc9190612276565b604051809103902085336001600160a01b03167f9c3ba68eb5742b8e3961aea0afc7371a71bf433c8a67a831803b64c064a178c2348888604051610e0293929190612292565b60405180910390a4509392505050565b610e1a610f20565b610cc36000610e70565b610e2c610f20565b610e368282610f89565b5050565b610e42610f20565b6002805473ffffffffffffffffffffffffffffffffffffffff19166001600160a01b03831617905550565b50565b6000546001600160a01b03828116911614610e6d57600080546001600160a01b0383811673ffffffffffffffffffffffffffffffffffffffff19831681178455604051919092169283917f8be0079c531659141344cd1fd0a4f28419497f9722a3daafe3b4186f6b6457e09190a35050565b60006001600160e01b031982167f714df77c00000000000000000000000000000000000000000000000000000000148061039357506103938261174e565b33610f336000546001600160a01b031690565b6001600160a01b031614610cc35760405162461bcd60e51b815260206004820181905260248201527f4f776e61626c653a2063616c6c6572206973206e6f7420746865206f776e65726044820152606401610414565b60008281526001602090815260409091208251610fa892840190611b3f565b5060405182907fcdf4e344c0d23d4cdd0474039d176c55b19d531070dbe17856bfb993a5b5720b90600090a25050565b604080516001600160e01b0319831660248083019190915282518083039091018152604490910182526020810180517bffffffffffffffffffffffffffffffffffffffffffffffffffffffff166301ffc9a760e01b179052905160009190829081906001600160a01b0387169061753090611054908690612276565b6000604051808303818686fa925050503d8060008114611090576040519150601f19603f3d011682016040523d82523d6000602084013e611095565b606091505b50915091506020815110156110b05760009350505050610393565b8180156110cc5750808060200190518101906110cc91906122ac565b9695505050505050565b60008060006110e5858561179c565b915091506110f28161180c565b509392505050565b6060600080866001600160a01b03168487876040516111199190612276565b600060405180830381858888f193505050503d8060008114611157576040519150601f19603f3d011682016040523d82523d6000602084013e61115c565b606091505b50915091506111a182826040518060400160405280601581526020017f455243373235583a20556e6b6e6f77204572726f7200000000000000000000008152506119c7565b979650505050505050565b6060600080856001600160a01b031684866040516111ca9190612276565b6000604051808303818686fa925050503d8060008114611206576040519150601f19603f3d011682016040523d82523d6000602084013e61120b565b606091505b50915091506110cc82826040518060400160405280601581526020017f455243373235583a20556e6b6e6f77204572726f7200000000000000000000008152506119c7565b6060600080856001600160a01b0316848660405161126e9190612276565b6000604051808303818686f4925050503d8060008114611206576040519150601f19603f3d011682016040523d82523d6000602084013e61120b565b60008151600014156112fe5760405162461bcd60e51b815260206004820152601d60248201527f6e6f20636f6e74726163742062797465636f64652070726f76696465640000006044820152606401610414565b81516020830184f090506001600160a01b0381166103935760405162461bcd60e51b815260206004820152601960248201527f436f756c64206e6f74206465706c6f7920636f6e7472616374000000000000006044820152606401610414565b600061136b8260206122ce565b835110156113bb5760405162461bcd60e51b815260206004820152601560248201527f746f427974657333325f6f75744f66426f756e647300000000000000000000006044820152606401610414565b50016020015190565b6060816113d281601f6122ce565b10156114205760405162461bcd60e51b815260206004820152600e60248201527f736c6963655f6f766572666c6f770000000000000000000000000000000000006044820152606401610414565b61142a82846122ce565b8451101561147a5760405162461bcd60e51b815260206004820152601160248201527f736c6963655f6f75744f66426f756e64730000000000000000000000000000006044820152606401610414565b60608215801561149957604051915060008252602082016040526114e3565b6040519150601f8416801560200281840101858101878315602002848b0101015b818310156114d25780518352602092830192016114ba565b5050858452601f01601f1916604052505b5090505b9392505050565b600080844710156115415760405162461bcd60e51b815260206004820152601d60248201527f437265617465323a20696e73756666696369656e742062616c616e63650000006044820152606401610414565b825161158f5760405162461bcd60e51b815260206004820181905260248201527f437265617465323a2062797465636f6465206c656e677468206973207a65726f6044820152606401610414565b8383516020850187f590506001600160a01b0381166115f05760405162461bcd60e51b815260206004820152601960248201527f437265617465323a204661696c6564206f6e206465706c6f79000000000000006044820152606401610414565b949350505050565b6000818152600160205260409020805460609190611615906122e6565b80601f0160208091040260200160405190810160405280929190818152602001828054611641906122e6565b801561168e5780601f106116635761010080835404028352916020019161168e565b820191906000526020600020905b81548152906001019060200180831161167157829003601f168201915b50505050509050919050565b6002546001600160a01b0316331461171a5760405162461bcd60e51b815260206004820152602c60248201527f4f776e61626c65436c61696d3a2063616c6c6572206973206e6f74207468652060448201527f70656e64696e674f776e657200000000000000000000000000000000000000006064820152608401610414565b60025461172f906001600160a01b0316610e70565b6002805473ffffffffffffffffffffffffffffffffffffffff19169055565b60006001600160e01b031982167f44c028fe00000000000000000000000000000000000000000000000000000000148061039357506301ffc9a760e01b6001600160e01b0319831614610393565b6000808251604114156117d35760208301516040840151606085015160001a6117c787828585611a00565b94509450505050611805565b8251604014156117fd57602083015160408401516117f2868383611aed565b935093505050611805565b506000905060025b9250929050565b60008160048111156118205761182061231b565b14156118295750565b600181600481111561183d5761183d61231b565b141561188b5760405162461bcd60e51b815260206004820152601860248201527f45434453413a20696e76616c6964207369676e617475726500000000000000006044820152606401610414565b600281600481111561189f5761189f61231b565b14156118ed5760405162461bcd60e51b815260206004820152601f60248201527f45434453413a20696e76616c6964207369676e6174757265206c656e677468006044820152606401610414565b60038160048111156119015761190161231b565b141561195a5760405162461bcd60e51b815260206004820152602260248201527f45434453413a20696e76616c6964207369676e6174757265202773272076616c604482015261756560f01b6064820152608401610414565b600481600481111561196e5761196e61231b565b1415610e6d5760405162461bcd60e51b815260206004820152602260248201527f45434453413a20696e76616c6964207369676e6174757265202776272076616c604482015261756560f01b6064820152608401610414565b606083156119d65750816114e7565b8251156119e65782518084602001fd5b8160405162461bcd60e51b81526004016104149190611f98565b6000807f7fffffffffffffffffffffffffffffff5d576e7357a4501ddfe92f46681b20a0831115611a375750600090506003611ae4565b8460ff16601b14158015611a4f57508460ff16601c14155b15611a605750600090506004611ae4565b6040805160008082526020820180845289905260ff881692820192909252606081018690526080810185905260019060a0016020604051602081039080840390855afa158015611ab4573d6000803e3d6000fd5b5050604051601f1901519150506001600160a01b038116611add57600060019250925050611ae4565b9150600090505b94509492505050565b6000807f7fffffffffffffffffffffffffffffffffffffffffffffffffffffffffffffff831681611b2360ff86901c601b6122ce565b9050611b3187828885611a00565b935093505050935093915050565b828054611b4b906122e6565b90600052602060002090601f016020900481019282611b6d5760008555611bb3565b82601f10611b8657805160ff1916838001178555611bb3565b82800160010185558215611bb3579182015b82811115611bb3578251825591602001919060010190611b98565b50611bbf929150611bc3565b5090565b5b80821115611bbf5760008155600101611bc4565b6001600160e01b031981168114610e6d57600080fd5b600060208284031215611c0057600080fd5b81356114e781611bd8565b634e487b7160e01b600052604160045260246000fd5b604051601f8201601f1916810167ffffffffffffffff81118282101715611c4a57611c4a611c0b565b604052919050565b600067ffffffffffffffff821115611c6c57611c6c611c0b565b5060051b60200190565b600082601f830112611c8757600080fd5b81356020611c9c611c9783611c52565b611c21565b82815260059290921b84018101918181019086841115611cbb57600080fd5b8286015b84811015611cd65780358352918301918301611cbf565b509695505050505050565b600067ffffffffffffffff821115611cfb57611cfb611c0b565b50601f01601f191660200190565b600082601f830112611d1a57600080fd5b8135611d28611c9782611ce1565b818152846020838601011115611d3d57600080fd5b816020850160208301376000918101602001919091529392505050565b60008060408385031215611d6d57600080fd5b823567ffffffffffffffff80821115611d8557600080fd5b611d9186838701611c76565b9350602091508185013581811115611da857600080fd5b8501601f81018713611db957600080fd5b8035611dc7611c9782611c52565b81815260059190911b82018401908481019089831115611de657600080fd5b8584015b83811015611e1e57803586811115611e025760008081fd5b611e108c8983890101611d09565b845250918601918601611dea565b508096505050505050509250929050565b60008060408385031215611e4257600080fd5b82359150602083013567ffffffffffffffff811115611e6057600080fd5b611e6c85828601611d09565b9150509250929050565b80356001600160a01b0381168114611e8d57600080fd5b919050565b60008083601f840112611ea457600080fd5b50813567ffffffffffffffff811115611ebc57600080fd5b60208301915083602082850101111561180557600080fd5b600080600080600060808688031215611eec57600080fd5b85359450611efc60208701611e76565b935060408601359250606086013567ffffffffffffffff811115611f1f57600080fd5b611f2b88828901611e92565b969995985093965092949392505050565b60005b83811015611f57578181015183820152602001611f3f565b83811115611f66576000848401525b50505050565b60008151808452611f84816020860160208601611f3c565b601f01601f19169290920160200192915050565b6020815260006114e76020830184611f6c565b600060208284031215611fbd57600080fd5b813567ffffffffffffffff811115611fd457600080fd5b6115f084828501611c76565b6000602080830181845280855180835260408601915060408160051b870101925083870160005b8281101561203557603f19888603018452612023858351611f6c565b94509285019290850190600101612007565b5092979650505050505050565b60006020828403121561205457600080fd5b5035919050565b60008060006040848603121561207057600080fd5b83359250602084013567ffffffffffffffff81111561208e57600080fd5b61209a86828701611e92565b9497909650939450505050565b6000602082840312156120b957600080fd5b6114e782611e76565b634e487b7160e01b600052603260045260246000fd5b8281526040602082015260006115f06040830184611f6c565b60006020828403121561210357600080fd5b81516114e781611bd8565b6001600160e01b031981358181169160048510156121365780818660040360031b1b83161692505b505092915050565b634e487b7160e01b600052601160045260246000fd5b6000828210156121665761216661213e565b500390565b805160208201516bffffffffffffffffffffffff19808216929190601483101561219f5780818460140360031b1b83161693505b505050919050565b81835281816020850137506000828201602090810191909152601f909101601f19169091010190565b6001600160a01b03861681528460208201528360408201526080606082015260006111a16080830184866121a7565b60006020828403121561221157600080fd5b815167ffffffffffffffff81111561222857600080fd5b8201601f8101841361223957600080fd5b8051612247611c9782611ce1565b81815285602083850101111561225c57600080fd5b61226d826020830160208601611f3c565b95945050505050565b60008251612288818460208701611f3c565b9190910192915050565b83815260406020820152600061226d6040830184866121a7565b6000602082840312156122be57600080fd5b815180151581146114e757600080fd5b600082198211156122e1576122e161213e565b500190565b600181811c908216806122fa57607f821691505b60208210811415610cb557634e487b7160e01b600052602260045260246000fd5b634e487b7160e01b600052602160045260246000fdfea26469706673582212204b11057745c1a75544a1caef41f5ba0b0babc0b50666351a3ca889d81140c5db64736f6c634300080a003360806040523480156200001157600080fd5b5060405162002dee38038062002dee833981016040819052620000349162000082565b6001600160a01b0381166200005c5760405163fc85457960e01b815260040160405180910390fd5b600080546001600160a01b0319166001600160a01b0392909216919091179055620000b4565b6000602082840312156200009557600080fd5b81516001600160a01b0381168114620000ad57600080fd5b9392505050565b612d2a80620000c46000396000f3fe6080604052600436106100655760003560e01c8063895358031161004357806389535803146100f8578063902d5fa014610163578063d4b839921461017657600080fd5b806301ffc9a71461006a57806309c5eabe1461009f5780631626ba7e146100bf575b600080fd5b34801561007657600080fd5b5061008a6100853660046122e7565b6101ae565b60405190151581526020015b60405180910390f35b6100b26100ad366004612346565b610219565b60405161009691906123e0565b3480156100cb57600080fd5b506100df6100da3660046124b8565b610329565b6040516001600160e01b03199091168152602001610096565b34801561010457600080fd5b50610155610113366004612514565b6001600160a01b039190911660009081526001602090815260408083208484529091529020546fffffffffffffffffffffffffffffffff1660809190911b1790565b604051908152602001610096565b6100b2610171366004612540565b610380565b34801561018257600080fd5b50600054610196906001600160a01b031681565b6040516001600160a01b039091168152602001610096565b60006001600160e01b031982167fc403d48f0000000000000000000000000000000000000000000000000000000014806101f857506001600160e01b03198216630b135d3f60e11b145b8061021357506301ffc9a760e01b6001600160e01b03198316145b92915050565b60606102263384846105b3565b6000805481906001600160a01b0316345a9087876040516102489291906125b0565b600060405180830381858888f193505050503d8060008114610286576040519150601f19603f3d011682016040523d82523d6000602084013e61028b565b606091505b509150915060006102b58383604051806080016040528060428152602001612cb3604291396109a9565b9050347f6b9340454526f665e369d7ac17353d0b73774a4a80f746b959ece8130e0f1d726102e387896125c0565b6040516001600160e01b0319909116815260200160405180910390a2805161030b578061031f565b8080602001905181019061031f91906125f0565b9695505050505050565b60008061033684846109e9565b60005490915061035d9061020090610357906001600160a01b031684610a0d565b81161490565b61036f576001600160e01b0319610378565b630b135d3f60e11b5b949350505050565b60606000463086868660405160200161039d959493929190612667565b604051602081830303815290604052905060006104188761041284805190602001206040517f19457468657265756d205369676e6564204d6573736167653a0a3332000000006020820152603c8101829052600090605c01604051602081830303815290604052805190602001209050919050565b906109e9565b90506104248187610aa8565b610469578086886040517fc9bd9eb9000000000000000000000000000000000000000000000000000000008152600401610460939291906126a1565b60405180910390fd5b6001600160a01b038116600090815260016020908152604080832060808a901c8452909152812080549161049c836126df565b91905055506104ac8186866105b3565b6000805481906001600160a01b0316345a9089896040516104ce9291906125b0565b600060405180830381858888f193505050503d806000811461050c576040519150601f19603f3d011682016040523d82523d6000602084013e610511565b606091505b5091509150600061053b8383604051806080016040528060428152602001612cb3604291396109a9565b9050347f6b9340454526f665e369d7ac17353d0b73774a4a80f746b959ece8130e0f1d72610569898b6125c0565b6040516001600160e01b0319909116815260200160405180910390a2805161059157806105a5565b808060200190518101906105a591906125f0565b9a9950505050505050505050565b60006105c260048284866126fa565b6105cb916125c0565b60008054919250906105e6906001600160a01b031686610a0d565b90508061062a576040517ff292052a0000000000000000000000000000000000000000000000000000000081526001600160a01b0386166004820152602401610460565b6001600160e01b031982167f7f23690c0000000000000000000000000000000000000000000000000000000014156107485760008061066c85600481896126fa565b81019061067991906124b8565b90925090507fffffffffffff00000000000000000000000000000000000000000000000000008216654b80742de2bf60d01b14806106dc57506fffffffffffffffffffffffffffffffff1982166f6f986dd036db5187329aa6cd326304c360811b145b156106f2576106ed82828986610af3565b610741565b60408051600180825281830190925260009160208083019080368337019050509050828160008151811061072857610728612724565b60200260200101818152505061073f888583610e02565b505b50506109a2565b6001600160e01b031982167f14a6e2930000000000000000000000000000000000000000000000000000000014156108a95760008061078a85600481896126fa565b81019061079791906127e9565b915091506000805b83518110156108975760008482815181106107bc576107bc612724565b6020026020010151905060008483815181106107da576107da612724565b602090810291909101015190507fffffffffffff00000000000000000000000000000000000000000000000000008216654b80742de2bf60d01b148061084557506fffffffffffffffffffffffffffffffff1982166f6f986dd036db5187329aa6cd326304c360811b145b1561087d5761085682828d8a610af3565b6000801b86848151811061086c5761086c612724565b602002602001018181525050610882565b600193505b5050808061088f906126df565b91505061079f565b50801561073f5761073f888585610e02565b6001600160e01b031982167f44c028fe0000000000000000000000000000000000000000000000000000000014156108ec576108e785828686610e2f565b6109a2565b6001600160e01b031982167ff2fde38b00000000000000000000000000000000000000000000000000000000148061094d57506001600160e01b031982167f4e71e0c800000000000000000000000000000000000000000000000000000000145b156109645761095e858260016110bf565b506109a2565b6040517f2ba8851c0000000000000000000000000000000000000000000000000000000081526001600160e01b031983166004820152602401610460565b5050505050565b606083156109b85750816109e2565b8251156109c85782518084602001fd5b8160405162461bcd60e51b815260040161046091906123e0565b9392505050565b60008060006109f8858561110d565b91509150610a058161117d565b509392505050565b6000806001600160a01b0384166354f6127f610a3a694b80742de2bf82acb36360b01b606087901b61133b565b6040518263ffffffff1660e01b8152600401610a5891815260200190565b600060405180830381865afa158015610a75573d6000803e3d6000fd5b505050506040513d6000823e601f3d908101601f19168201604052610a9d91908101906125f0565b905061037881612898565b6001600160a01b0382166000908152600160209081526040808320608085901c8452909152812054610aeb700100000000000000000000000000000000846128bf565b149392505050565b6001600160a01b03198416694b80742de2bf82acb36360b01b1415610b2257610b1d848383611385565b610dfc565b7fdf30dba06db6a30e65354d9a64c609861f089545ca58c6b4dbe31a5f338cb0e3841415610b5657610b1d8484848461141e565b6fffffffffffffffffffffffffffffffff1984166f6f986dd036db5187329aa6cd326304c360811b1415610b9657610b90828260026110bf565b50610dfc565b6001600160a01b031984166912e01d0b78aff1b75acf60b21b1415610c9057825115801581610bcb5750610bc9846114bc565b155b15610beb5783604051635b0a748f60e11b815260040161046091906128e1565b600080546040516354f6127f60e01b8152600481018890526001600160a01b03909116906354f6127f90602401600060405180830381865afa158015610c35573d6000803e3d6000fd5b505050506040513d6000823e601f3d908101601f19168201604052610c5d91908101906125f0565b9050805160001415610c7b57610c75848460046110bf565b50610c89565b610c87848460026110bf565b505b5050610dfc565b6001600160a01b03198416694b80742de2bf3efa94a360b01b1480610ccb57506001600160a01b031984166909700e85bc57f1dfd43d60b31b145b15610d0657825115801581610ce65750610ce484611560565b155b15610beb5783604051635b0a748f60e11b81526004016104609190612933565b6001600160a01b03198416694b80742de2bf90b8b48560b01b1415610dfc57825115801581610d3b5750610d39846115f7565b155b15610d5b5783604051635b0a748f60e11b81526004016104609190612985565b600080546040516354f6127f60e01b8152600481018890526001600160a01b03909116906354f6127f90602401600060405180830381865afa158015610da5573d6000803e3d6000fd5b505050506040513d6000823e601f3d908101601f19168201604052610dcd91908101906125f0565b9050805160001415610deb57610de5848460046110bf565b50610df9565b610df7848460026110bf565b505b50505b50505050565b6104008083161415610e1357505050565b610e1f838360086110bf565b50610e2a8382611678565b505050565b6000610e3f6024600484866126fa565b610e48916129d7565b905060058110610ec05760405162461bcd60e51b815260206004820152602660248201527f4c5350364b65794d616e616765723a20696e76616c6964206f7065726174696f60448201527f6e207479706500000000000000000000000000000000000000000000000000006064820152608401610460565b6004811415610f375760405162461bcd60e51b815260206004820152603e60248201527f4c5350364b65794d616e616765723a206f7065726174696f6e2044454c45474160448201527f544543414c4c2069732063757272656e746c7920646973616c6c6f77656400006064820152608401610460565b6000610f476064604485876126fa565b610f50916129d7565b905060006001831480610f635750600283145b905060a48411600082610f8857610f83610f7c8661186d565b8981161490565b610f8b565b60005b90508115610faf578080610fad5750610fad8989610fa8886118a6565b6110bf565b505b610800888116148415610fd2578080610fd05750610fd08a8a6101006110bf565b505b8315610fe357505050505050610dfc565b818015610fed5750825b8015610ff7575084155b1561100757505050505050610dfc565b808015611012575082155b801561101e5750600085115b1561102e57505050505050610dfc565b8180156110385750805b1561104857505050505050610dfc565b6000611058604460308a8c6126fa565b611061916129f5565b60601c90506110708b826118f9565b6001600160a01b0381163b156110b25761108a8b826119e8565b60a888106110b2576110b28b6110a460a860a48c8e6126fa565b6110ad916125c0565b611ade565b5050505050505050505050565b600081831682146109e25760006110d583611bd7565b905084816040517f3bdad6e6000000000000000000000000000000000000000000000000000000008152600401610460929190612a28565b6000808251604114156111445760208301516040840151606085015160001a61113887828585611e6f565b94509450505050611176565b82516040141561116e5760208301516040840151611163868383611f5c565b935093505050611176565b506000905060025b9250929050565b600081600481111561119157611191612a4a565b141561119a5750565b60018160048111156111ae576111ae612a4a565b14156111fc5760405162461bcd60e51b815260206004820152601860248201527f45434453413a20696e76616c6964207369676e617475726500000000000000006044820152606401610460565b600281600481111561121057611210612a4a565b141561125e5760405162461bcd60e51b815260206004820152601f60248201527f45434453413a20696e76616c6964207369676e6174757265206c656e677468006044820152606401610460565b600381600481111561127257611272612a4a565b14156112cb5760405162461bcd60e51b815260206004820152602260248201527f45434453413a20696e76616c6964207369676e6174757265202773272076616c604482015261756560f01b6064820152608401610460565b60048160048111156112df576112df612a4a565b14156113385760405162461bcd60e51b815260206004820152602260248201527f45434453413a20696e76616c6964207369676e6174757265202776272076616c604482015261756560f01b6064820152608401610460565b50565b604080516001600160a01b0319841660208201526bffffffffffffffffffffffff198316602c82015260009182910160405160208183030381529060405290508061037890612898565b600080546040516354f6127f60e01b8152600481018690526001600160a01b03909116906354f6127f90602401600060405180830381865afa1580156113cf573d6000803e3d6000fd5b505050506040513d6000823e601f3d908101601f191682016040526113f791908101906125f0565b61140090612898565b141561141257610dfc828260046110bf565b610dfc828260026110bf565b600080546040516354f6127f60e01b8152600481018790526001600160a01b03909116906354f6127f90602401600060405180830381865afa158015611468573d6000803e3d6000fd5b505050506040513d6000823e601f3d908101601f1916820160405261149091908101906125f0565b61149990612898565b905060006114a685612898565b905081811115610deb57610de5848460046110bf565b60006114c7826115f7565b6114d357506000919050565b60006114de83612898565b905060006114ec8483611fae565b905060006114fb836020612a60565b905060005b828110156115545760006115148784612014565b90506001600160a01b0319811615611533575060009695505050505050565b61153e602084612a60565b925050808061154c906126df565b915050611500565b50600195945050505050565b600061156b826115f7565b61157757506000919050565b600061158283612898565b905060006115908483611fae565b9050600061159f836020612a60565b905060005b828110156115545760006115b88784612014565b90506001600160e01b038116156115d6575060009695505050505050565b6115e1602084612a60565b92505080806115ef906126df565b9150506115a4565b8051600090602081101561160e5750600092915050565b600061161984612898565b90508082101561162d575060009392505050565b60006116398583611fae565b9050611646816020612a78565b611651836020612a60565b61165b9190612a60565b83101561166d57506000949350505050565b506001949350505050565b6000805461168f906001600160a01b031684612071565b90508051600014806116a757506116a5816115f7565b155b156116b157505050565b6000818060200190518101906116c79190612a97565b905060008060005b83518110156117ca576116fa8482815181106116ed576116ed612724565b60200260200101516120fe565b925060005b86518110156117b7576000801b87828151811061171e5761171e612724565b60200260200101511415611731576117a5565b61173c846008612a78565b60001960001b901b92508287828151811061175957611759612724565b60200260200101511685838151811061177457611774612724565b602002602001015114156117a5576000801b87828151811061179857611798612724565b6020026020010181815250505b806117af816126df565b9150506116ff565b50806117c2816126df565b9150506116cf565b5060005b8551811015610df7576000801b8682815181106117ed576117ed612724565b60200260200101511461185b578686828151811061180d5761180d612724565b60209081029190910101516040517f3003e7ae0000000000000000000000000000000000000000000000000000000081526001600160a01b0390921660048301526024820152604401610460565b80611865816126df565b9150506117ce565b60008161187d5750611000919050565b600382141561188f5750612000919050565b60048214156118a15750614000919050565b919050565b6000816118b557506010919050565b60018214156118c657506080919050565b60028214156118d757506080919050565b60038214156118e857506020919050565b60048214156118a157506040919050565b60008054611910906001600160a01b031684612174565b90508051600014806119285750611926816114bc565b155b1561193257505050565b6000818060200190518101906119489190612b28565b905060005b81518110156119a25781818151811061196857611968612724565b60200260200101516001600160a01b0316846001600160a01b03161415611990575050505050565b8061199a816126df565b91505061194d565b506040517f2879b1280000000000000000000000000000000000000000000000000000000081526001600160a01b03808616600483015284166024820152604401610460565b600080546119ff906001600160a01b03168461219e565b9050805160001480611a175750611a1581611560565b155b15611a2157505050565b600081806020019051810190611a379190612bb7565b905060005b8151811015611a9857611a7a828281518110611a5a57611a5a612724565b6020026020010151856001600160a01b03166121c890919063ffffffff16565b15611a86575050505050565b80611a90816126df565b915050611a3c565b506040517f42013ee40000000000000000000000000000000000000000000000000000000081526001600160a01b03808616600483015284166024820152604401610460565b60008054611af5906001600160a01b0316846122a7565b9050805160001480611b0d5750611b0b81611560565b155b15611b1757505050565b600081806020019051810190611b2d9190612bb7565b905060005b8151811015611b8957818181518110611b4d57611b4d612724565b60200260200101516001600160e01b031916846001600160e01b0319161415611b77575050505050565b80611b81816126df565b915050611b32565b506040517f841351100000000000000000000000000000000000000000000000000000000081526001600160a01b03851660048201526001600160e01b031984166024820152604401610460565b60606001821415611c1b57505060408051808201909152601181527f5452414e534645524f574e455253484950000000000000000000000000000000602082015290565b6002821415611c5d57505060408051808201909152601181527f4348414e47455045524d495353494f4e53000000000000000000000000000000602082015290565b6004821415611c9f57505060408051808201909152600e81527f4144445045524d495353494f4e53000000000000000000000000000000000000602082015290565b6008821415611ce157505060408051808201909152600781527f5345544441544100000000000000000000000000000000000000000000000000602082015290565b6010821415611d2357505060408051808201909152600481527f43414c4c00000000000000000000000000000000000000000000000000000000602082015290565b6020821415611d6557505060408051808201909152600a81527f53544154494343414c4c00000000000000000000000000000000000000000000602082015290565b6040821415611da757505060408051808201909152600c81527f44454c454741544543414c4c0000000000000000000000000000000000000000602082015290565b6080821415611de957505060408051808201909152600681527f4445504c4f590000000000000000000000000000000000000000000000000000602082015290565b610100821415611e2c57505060408051808201909152600d81527f5452414e5346455256414c554500000000000000000000000000000000000000602082015290565b6102008214156118a157505060408051808201909152600481527f5349474e00000000000000000000000000000000000000000000000000000000602082015290565b6000807f7fffffffffffffffffffffffffffffff5d576e7357a4501ddfe92f46681b20a0831115611ea65750600090506003611f53565b8460ff16601b14158015611ebe57508460ff16601c14155b15611ecf5750600090506004611f53565b6040805160008082526020820180845289905260ff881692820192909252606081018690526080810185905260019060a0016020604051602081039080840390855afa158015611f23573d6000803e3d6000fd5b5050604051601f1901519150506001600160a01b038116611f4c57600060019250925050611f53565b9150600090505b94509492505050565b6000807f7fffffffffffffffffffffffffffffffffffffffffffffffffffffffffffffff831681611f9260ff86901c601b612a60565b9050611fa087828885611e6f565b935093505050935093915050565b6000611fbb826020612a60565b8351101561200b5760405162461bcd60e51b815260206004820152601560248201527f746f55696e743235365f6f75744f66426f756e647300000000000000000000006044820152606401610460565b50016020015190565b6000612021826020612a60565b8351101561200b5760405162461bcd60e51b815260206004820152601560248201527f746f427974657333325f6f75744f66426f756e647300000000000000000000006044820152606401610460565b60606001600160a01b0383166354f6127f61209b694b80742de2bf90b8b48560b01b85851b61133b565b6040518263ffffffff1660e01b81526004016120b991815260200190565b600060405180830381865afa1580156120d6573d6000803e3d6000fd5b505050506040513d6000823e601f3d908101601f191682016040526109e291908101906125f0565b6000601f5b82816020811061211557612115612724565b1a60f81b7fff000000000000000000000000000000000000000000000000000000000000001615801561214757508015155b1561215e578061215681612c46565b915050612103565b612169816001612a60565b6109e2906020612c5d565b60606001600160a01b0383166354f6127f61209b6912e01d0b78aff1b75acf60b21b85851b61133b565b60606001600160a01b0383166354f6127f61209b694b80742de2bf3efa94a360b01b85851b61133b565b604080516001600160e01b0319831660248083019190915282518083039091018152604490910182526020810180516001600160e01b03166301ffc9a760e01b179052905160009190829081906001600160a01b038716906175309061222f908690612c74565b6000604051808303818686fa925050503d806000811461226b576040519150601f19603f3d011682016040523d82523d6000602084013e612270565b606091505b509150915060208151101561228b5760009350505050610213565b81801561031f57508080602001905181019061031f9190612c90565b60606001600160a01b0383166354f6127f61209b6909700e85bc57f1dfd43d60b31b85851b61133b565b6001600160e01b03198116811461133857600080fd5b6000602082840312156122f957600080fd5b81356109e2816122d1565b60008083601f84011261231657600080fd5b50813567ffffffffffffffff81111561232e57600080fd5b60208301915083602082850101111561117657600080fd5b6000806020838503121561235957600080fd5b823567ffffffffffffffff81111561237057600080fd5b61237c85828601612304565b90969095509350505050565b60005b838110156123a357818101518382015260200161238b565b83811115610dfc5750506000910152565b600081518084526123cc816020860160208601612388565b601f01601f19169290920160200192915050565b6020815260006109e260208301846123b4565b634e487b7160e01b600052604160045260246000fd5b604051601f8201601f1916810167ffffffffffffffff81118282101715612432576124326123f3565b604052919050565b600067ffffffffffffffff821115612454576124546123f3565b50601f01601f191660200190565b600082601f83011261247357600080fd5b81356124866124818261243a565b612409565b81815284602083860101111561249b57600080fd5b816020850160208301376000918101602001919091529392505050565b600080604083850312156124cb57600080fd5b82359150602083013567ffffffffffffffff8111156124e957600080fd5b6124f585828601612462565b9150509250929050565b6001600160a01b038116811461133857600080fd5b6000806040838503121561252757600080fd5b8235612532816124ff565b946020939093013593505050565b6000806000806060858703121561255657600080fd5b843567ffffffffffffffff8082111561256e57600080fd5b61257a88838901612462565b955060208701359450604087013591508082111561259757600080fd5b506125a487828801612304565b95989497509550505050565b8183823760009101908152919050565b6001600160e01b031981358181169160048510156125e85780818660040360031b1b83161692505b505092915050565b60006020828403121561260257600080fd5b815167ffffffffffffffff81111561261957600080fd5b8201601f8101841361262a57600080fd5b80516126386124818261243a565b81815285602083850101111561264d57600080fd5b61265e826020830160208601612388565b95945050505050565b8581526bffffffffffffffffffffffff198560601b1660208201528360348201528183605483013760009101605401908152949350505050565b6001600160a01b038416815282602082015260606040820152600061265e60608301846123b4565b634e487b7160e01b600052601160045260246000fd5b60006000198214156126f3576126f36126c9565b5060010190565b6000808585111561270a57600080fd5b8386111561271757600080fd5b5050820193919092039150565b634e487b7160e01b600052603260045260246000fd5b600067ffffffffffffffff821115612754576127546123f3565b5060051b60200190565b600082601f83011261276f57600080fd5b8135602061277f6124818361273a565b82815260059290921b8401810191818101908684111561279e57600080fd5b8286015b848110156127de57803567ffffffffffffffff8111156127c25760008081fd5b6127d08986838b0101612462565b8452509183019183016127a2565b509695505050505050565b600080604083850312156127fc57600080fd5b823567ffffffffffffffff8082111561281457600080fd5b818501915085601f83011261282857600080fd5b813560206128386124818361273a565b82815260059290921b8401810191818101908984111561285757600080fd5b948201945b838610156128755785358252948201949082019061285c565b9650508601359250508082111561288b57600080fd5b506124f58582860161275e565b805160208083015191908110156128b9576000198160200360031b1b821691505b50919050565b6000826128dc57634e487b7160e01b600052601260045260246000fd5b500690565b6040815260006128f460408301846123b4565b8281036020840152600781527f616464726573730000000000000000000000000000000000000000000000000060208201526040810191505092915050565b60408152600061294660408301846123b4565b8281036020840152600681527f627974657334000000000000000000000000000000000000000000000000000060208201526040810191505092915050565b60408152600061299860408301846123b4565b8281036020840152600781527f627974657333320000000000000000000000000000000000000000000000000060208201526040810191505092915050565b8035602083101561021357600019602084900360031b1b1692915050565b6bffffffffffffffffffffffff1981358181169160148510156125e85760149490940360031b84901b1690921692915050565b6001600160a01b038316815260406020820152600061037860408301846123b4565b634e487b7160e01b600052602160045260246000fd5b60008219821115612a7357612a736126c9565b500190565b6000816000190483118215151615612a9257612a926126c9565b500290565b60006020808385031215612aaa57600080fd5b825167ffffffffffffffff811115612ac157600080fd5b8301601f81018513612ad257600080fd5b8051612ae06124818261273a565b81815260059190911b82018301908381019087831115612aff57600080fd5b928401925b82841015612b1d57835182529284019290840190612b04565b979650505050505050565b60006020808385031215612b3b57600080fd5b825167ffffffffffffffff811115612b5257600080fd5b8301601f81018513612b6357600080fd5b8051612b716124818261273a565b81815260059190911b82018301908381019087831115612b9057600080fd5b928401925b82841015612b1d578351612ba8816124ff565b82529284019290840190612b95565b60006020808385031215612bca57600080fd5b825167ffffffffffffffff811115612be157600080fd5b8301601f81018513612bf257600080fd5b8051612c006124818261273a565b81815260059190911b82018301908381019087831115612c1f57600080fd5b928401925b82841015612b1d578351612c37816122d1565b82529284019290840190612c24565b600081612c5557612c556126c9565b506000190190565b600082821015612c6f57612c6f6126c9565b500390565b60008251612c86818460208701612388565b9190910192915050565b600060208284031215612ca257600080fd5b815180151581146109e257600080fdfe4c5350363a20556e6b6e6f77204572726f72206f636375726564207768656e2063616c6c696e6720746865206c696e6b65642074617267657420636f6e7472616374a2646970667358221220ba7266fdeb7f1d5ba210e02dd02c1fc047d5e6a3c8dd309de22cf93700533e4864736f6c634300080a0033a26469706673582212204f490e4e43e086ac9c47afa89ad9df7046e94dc76d29ae8ff45bac8b59aab96764736f6c634300080a0033",
  "linkReferences": {},
  "deployedLinkReferences": {}
}