{
  "_format": "hh-sol-artifact-1",
  "contractName": "DaoDeployer",
  "sourceName": "contracts/Deployer/DaoDeployer/DaoDeployer.sol",
  "abi": [
    {
      "inputs": [
        {
          "internalType": "address",
          "name": "_DAO_PERMSISSIONS",
          "type": "address"
        },
        {
          "internalType": "address",
          "name": "_DAO_DELEGATES",
          "type": "address"
        },
        {
          "internalType": "address",
          "name": "_DAO_PROPOSALS",
          "type": "address"
        }
      ],
      "stateMutability": "nonpayable",
      "type": "constructor"
    },
    {
      "anonymous": false,
      "inputs": [
        {
          "indexed": false,
          "internalType": "address",
          "name": "_DAO_PERMISSIONS",
          "type": "address"
        },
        {
          "indexed": false,
          "internalType": "address",
          "name": "_DAO_DELEGATES",
          "type": "address"
        },
        {
          "indexed": false,
          "internalType": "address",
          "name": "_DAO_PROPOSALS",
          "type": "address"
        }
      ],
      "name": "DaoDeployed",
      "type": "event"
    },
    {
      "inputs": [
        {
          "internalType": "address payable",
          "name": "_UNIVERSAL_PROFILE",
          "type": "address"
        },
        {
          "internalType": "address",
          "name": "_KEY_MANAGER",
          "type": "address"
        },
        {
          "internalType": "address",
          "name": "_caller",
          "type": "address"
        },
        {
          "internalType": "bytes32",
          "name": "_majority",
          "type": "bytes32"
        },
        {
          "internalType": "bytes32",
          "name": "_participationRate",
          "type": "bytes32"
        },
        {
          "internalType": "bytes32",
          "name": "_minimumVotingDelay",
          "type": "bytes32"
        },
        {
          "internalType": "bytes32",
          "name": "_minimumVotingPeriod",
          "type": "bytes32"
        },
        {
          "internalType": "bytes32",
          "name": "_minimumExecutionDelay",
          "type": "bytes32"
        },
        {
          "internalType": "address[]",
          "name": "_daoParticipants",
          "type": "address[]"
        },
        {
          "internalType": "bytes32[]",
          "name": "_daoParticipantsPermissions",
          "type": "bytes32[]"
        }
      ],
      "name": "deployDao",
      "outputs": [
        {
          "internalType": "address[]",
          "name": "_DAO_ADDRESSES",
          "type": "address[]"
        }
      ],
      "stateMutability": "nonpayable",
      "type": "function"
    }
  ],
  "bytecode": "0x60806040523480156200001157600080fd5b506040516200188038038062001880833981016040819052620000349162000094565b600080546001600160a01b039485166001600160a01b031991821617909155600180549385169382169390931790925560028054919093169116179055620000de565b80516001600160a01b03811681146200008f57600080fd5b919050565b600080600060608486031215620000aa57600080fd5b620000b58462000077565b9250620000c56020850162000077565b9150620000d56040850162000077565b90509250925092565b61179280620000ee6000396000f3fe608060405234801561001057600080fd5b506004361061002b5760003560e01c8063514ea96714610030575b600080fd5b61004361003e3660046113e7565b610059565b60405161005091906114af565b60405180910390f35b60408051600380825260808201909252606091602082018380368337019050506000546040517f76197c420000000000000000000000000000000000000000000000000000000081526001600160a01b038e811660048301528d811660248301529293509116906376197c42906044016020604051808303816000875af11580156100e8573d6000803e3d6000fd5b505050506040513d601f19601f8201168201806040525081019061010c91906114fc565b8160008151811061011f5761011f611520565b6001600160a01b0392831660209182029290920101526001546040517f770a2e740000000000000000000000000000000000000000000000000000000081528d831660048201528c8316602482015291169063770a2e74906044016020604051808303816000875af1158015610199573d6000803e3d6000fd5b505050506040513d601f19601f820116820180604052508101906101bd91906114fc565b816001815181106101d0576101d0611520565b6001600160a01b0392831660209182029290920101526002546040517f3b278c3d0000000000000000000000000000000000000000000000000000000081528d831660048201528c83166024820152911690633b278c3d906044016020604051808303816000875af115801561024a573d6000803e3d6000fd5b505050506040513d601f19601f8201168201806040525081019061026e91906114fc565b8160028151811061028157610281611520565b60200260200101906001600160a01b031690816001600160a01b0316815250507f5a02a5bc781327fdd771a981287e20dd2927cd6c457273c54b3f2a5608149f5c816000815181106102d5576102d5611520565b6020026020010151826001815181106102f0576102f0611520565b60200260200101518360028151811061030b5761030b611520565b6020026020010151604051610340939291906001600160a01b0393841681529183166020830152909116604082015260600190565b60405180910390a16103a38b8260008151811061035f5761035f611520565b60200260200101518360018151811061037a5761037a611520565b60200260200101518460028151811061039557610395611520565b60200260200101518d6103c1565b6103b38989898989898989610a59565b9a9950505050505050505050565b60408051600780825261010082019092526000916020820160e080368337505060408051600780825261010082019092529293506000929150602082015b60608152602001906001900390816103ff579050506040517f54f6127f0000000000000000000000000000000000000000000000000000000081527fdf30dba06db6a30e65354d9a64c609861f089545ca58c6b4dbe31a5f338cb0e360048201529091506000906001600160a01b038916906354f6127f90602401600060405180830381865afa158015610497573d6000803e3d6000fd5b505050506040513d6000823e601f3d908101601f191682016040526104bf9190810190611566565b905060006104cc826115fa565b905060006104db826003611637565b90507fdf30dba06db6a30e65354d9a64c609861f089545ca58c6b4dbe31a5f338cb0e360001b8560008151811061051457610514611520565b6020026020010181815250508060001b60405160200161053691815260200190565b6040516020818303038152906040528460008151811061055857610558611520565b602090810291909101810191909152604080516f6f986dd036db5187329aa6cd326304c360811b81840152608085901b6fffffffffffffffffffffffffffffffff1916603082015281518082039093018352810190526105b7906115fa565b856001815181106105ca576105ca611520565b6020026020010181815250508860601b6040516020016105ff91906bffffffffffffffffffffffff1991909116815260140190565b6040516020818303038152906040528460018151811061062157610621611520565b60209081029190910101526f6f986dd036db5187329aa6cd326304c360811b61064b836001611637565b60801b60405160200161067e9291906fffffffffffffffffffffffffffffffff1992831681529116601082015260200190565b604051602081830303815290604052610696906115fa565b856002815181106106a9576106a9611520565b6020026020010181815250508760601b6040516020016106de91906bffffffffffffffffffffffff1991909116815260140190565b6040516020818303038152906040528460028151811061070057610700611520565b60209081029190910101526f6f986dd036db5187329aa6cd326304c360811b61072a836002611637565b60801b60405160200161075d9291906fffffffffffffffffffffffffffffffff1992831681529116601082015260200190565b604051602081830303815290604052610775906115fa565b8560038151811061078857610788611520565b6020026020010181815250508660601b6040516020016107bd91906bffffffffffffffffffffffff1991909116815260140190565b604051602081830303815290604052846003815181106107df576107df611520565b60209081029190910181019190915260408051694b80742de2bf82acb36360b01b8184015260608c901b6bffffffffffffffffffffffff1916602c8201528151808203909301835281019052610834906115fa565b8560048151811061084757610847611520565b602002602001018181525050617fbf60001b60405160200161086b91815260200190565b6040516020818303038152906040528460048151811061088d5761088d611520565b60209081029190910181019190915260408051694b80742de2bf82acb36360b01b8184015260608b901b6bffffffffffffffffffffffff1916602c82015281518082039093018352810190526108e2906115fa565b856005815181106108f5576108f5611520565b602002602001018181525050617fbf60001b60405160200161091991815260200190565b6040516020818303038152906040528460058151811061093b5761093b611520565b60209081029190910181019190915260408051694b80742de2bf82acb36360b01b8184015260608a901b6bffffffffffffffffffffffff1916602c8201528151808203909301835281019052610990906115fa565b856006815181106109a3576109a3611520565b602002602001018181525050617fbf60001b6040516020016109c791815260200190565b604051602081830303815290604052846006815181106109e9576109e9611520565b6020908102919091010152604051631de8ffb360e21b815233906377a3fecc90610a1b9089908990899060040161164f565b600060405180830381600087803b158015610a3557600080fd5b505af1158015610a49573d6000803e3d6000fd5b5050505050505050505050505050565b8051825114610a6757600080fd5b600082516003610a779190611712565b610a82906007611637565b67ffffffffffffffff811115610a9a57610a9a6112ad565b604051908082528060200260200182016040528015610ac3578160200160208202803683370190505b509050600083516003610ad69190611712565b610ae1906007611637565b67ffffffffffffffff811115610af957610af96112ad565b604051908082528060200260200182016040528015610b2c57816020015b6060815260200190600190039081610b175790505b5090507fbc776f168e7b9c60bb2a7180950facd372cd90c841732d963c31a93ff9f8c12760001b82600181518110610b6657610b66611520565b60200260200101818152505088604051602001610b8591815260200190565b60405160208183030381529060405281600181518110610ba757610ba7611520565b60200260200101819052507ff89f507ecd9cb7646ce1514ec6ab90d695dac9314c3771f451fd90148a3335a960001b82600281518110610be957610be9611520565b60200260200101818152505087604051602001610c0891815260200190565b60405160208183030381529060405281600281518110610c2a57610c2a611520565b60200260200101819052507f799787138cc40d7a47af8e69bdea98db14e1ead8227cef96814fa51751e25c7660001b82600381518110610c6c57610c6c611520565b60200260200101818152505086604051602001610c8b91815260200190565b60405160208183030381529060405281600381518110610cad57610cad611520565b60200260200101819052507fd3cf4cd71858ea36c3f5ce43955db04cbe9e1f42a2c7795c25c1d430c9bb280a60001b82600481518110610cef57610cef611520565b60200260200101818152505085604051602001610d0e91815260200190565b60405160208183030381529060405281600481518110610d3057610d30611520565b60200260200101819052507fb207580c05383177027a90d6c298046d3d60dfa05a32b0bb48ea9015e11a342460001b82600581518110610d7257610d72611520565b60200260200101818152505084604051602001610d9191815260200190565b60405160208183030381529060405281600581518110610db357610db3611520565b60200260200101819052507ff7f9c7410dd493d79ebdaee15bbc77fd163bd488f54107d1be6ed34b1e09900460001b82600681518110610df557610df5611520565b602002602001018181525050835160001b604051602001610e1891815260200190565b60405160208183030381529060405281600681518110610e3a57610e3a611520565b6020908102919091010152835160005b81816001600160801b0316101561121e57604080517ff7f9c7410dd493d79ebdaee15bbc77fd0000000000000000000000000000000060208201526fffffffffffffffffffffffffffffffff19608084901b16603082015201604051602081830303815290604052610ebb906115fa565b84610ec7836007611731565b6001600160801b031681518110610ee057610ee0611520565b60200260200101818152505085816001600160801b031681518110610f0757610f07611520565b602002602001015160601b604051602001610f3791906bffffffffffffffffffffffff1991909116815260140190565b60408051601f1981840301815291905283610f53836007611731565b6001600160801b031681518110610f6c57610f6c611520565b60200260200101819052506bf7f9c7410dd493d79ebd000060a01b86826001600160801b031681518110610fa257610fa2611520565b602002602001015160601b604051602001610fef92919073ffffffffffffffffffffffffffffffffffffffff199290921682526bffffffffffffffffffffffff1916600c82015260200190565b604051602081830303815290604052611007906115fa565b86518590611016846007611731565b6001600160801b03166110299190611637565b8151811061103957611039611520565b602002602001018181525050806001600160801b031660001b60405160200161106491815260200190565b6040516020818303038152906040528387518360076110839190611731565b6001600160801b03166110969190611637565b815181106110a6576110a6611520565b60200260200101819052506b4b80742de2bfb3cc0e49000060a01b86826001600160801b0316815181106110dc576110dc611520565b602002602001015160601b60405160200161112992919073ffffffffffffffffffffffffffffffffffffffff199290921682526bffffffffffffffffffffffff1916600c82015260200190565b604051602081830303815290604052611141906115fa565b84875160026111509190611712565b61115b846007611731565b6001600160801b031661116e9190611637565b8151811061117e5761117e611520565b60200260200101818152505084816001600160801b0316815181106111a5576111a5611520565b60200260200101516040516020016111bf91815260200190565b60405160208183030381529060405283875160026111dd9190611712565b6111e8846007611731565b6001600160801b03166111fb9190611637565b8151811061120b5761120b611520565b6020908102919091010152600101610e4a565b50604051631de8ffb360e21b815233906377a3fecc90611246908e908790879060040161164f565b600060405180830381600087803b15801561126057600080fd5b505af1158015611274573d6000803e3d6000fd5b505050505050505050505050505050565b6001600160a01b038116811461129a57600080fd5b50565b80356112a881611285565b919050565b634e487b7160e01b600052604160045260246000fd5b604051601f8201601f1916810167ffffffffffffffff811182821017156112ec576112ec6112ad565b604052919050565b600067ffffffffffffffff82111561130e5761130e6112ad565b5060051b60200190565b600082601f83011261132957600080fd5b8135602061133e611339836112f4565b6112c3565b82815260059290921b8401810191818101908684111561135d57600080fd5b8286015b8481101561138157803561137481611285565b8352918301918301611361565b509695505050505050565b600082601f83011261139d57600080fd5b813560206113ad611339836112f4565b82815260059290921b840181019181810190868411156113cc57600080fd5b8286015b8481101561138157803583529183019183016113d0565b6000806000806000806000806000806101408b8d03121561140757600080fd5b6114108b61129d565b995061141e60208c0161129d565b985061142c60408c0161129d565b975060608b0135965060808b0135955060a08b0135945060c08b0135935060e08b013592506101008b013567ffffffffffffffff8082111561146d57600080fd5b6114798e838f01611318565b93506101208d013591508082111561149057600080fd5b5061149d8d828e0161138c565b9150509295989b9194979a5092959850565b6020808252825182820181905260009190848201906040850190845b818110156114f05783516001600160a01b0316835292840192918401916001016114cb565b50909695505050505050565b60006020828403121561150e57600080fd5b815161151981611285565b9392505050565b634e487b7160e01b600052603260045260246000fd5b60005b83811015611551578181015183820152602001611539565b83811115611560576000848401525b50505050565b60006020828403121561157857600080fd5b815167ffffffffffffffff8082111561159057600080fd5b818401915084601f8301126115a457600080fd5b8151818111156115b6576115b66112ad565b6115c9601f8201601f19166020016112c3565b91508082528560208285010111156115e057600080fd5b6115f1816020840160208601611536565b50949350505050565b8051602080830151919081101561161b576000198160200360031b1b821691505b50919050565b634e487b7160e01b600052601160045260246000fd5b6000821982111561164a5761164a611621565b500190565b6000606082016001600160a01b03861683526020606081850152818651808452608086019150828801935060005b818110156116995784518352938301939183019160010161167d565b5050848103604086015285518082528282019350600581901b8201830183880160005b8381101561170257601f1980868503018852825180518086526116e4818a88018b8501611536565b98880198601f019091169390930186019250908501906001016116bc565b50909a9950505050505050505050565b600081600019048311821515161561172c5761172c611621565b500290565b60006001600160801b0380831681851680830382111561175357611753611621565b0194935050505056fea26469706673582212202b85bd16877eed662d788e440650086369543c57cb74523d614c4379b5e767d664736f6c634300080a0033",
  "linkReferences": {},
  "deployedLinkReferences": {}
}