{
  "_format": "hh-sol-artifact-1",
  "contractName": "MultisigKeyManager",
  "sourceName": "contracts/Multisig/MultisigKeyManager.sol",
  "abi": [
    {
      "inputs": [
        {
          "internalType": "address payable",
          "name": "_UNIVERSAL_PROFILE",
          "type": "address"
        },
        {
          "internalType": "address",
          "name": "_KEY_MANAGER",
          "type": "address"
        }
      ],
      "stateMutability": "nonpayable",
      "type": "constructor"
    },
    {
      "inputs": [
        {
          "internalType": "string",
          "name": "contractName",
          "type": "string"
        },
        {
          "internalType": "bytes1",
          "name": "errorNumber",
          "type": "bytes1"
        }
      ],
      "name": "IndexedError",
      "type": "error"
    },
    {
      "inputs": [
        {
          "internalType": "address",
          "name": "from",
          "type": "address"
        },
        {
          "internalType": "string",
          "name": "permission",
          "type": "string"
        }
      ],
      "name": "NotAuthorised",
      "type": "error"
    },
    {
      "anonymous": false,
      "inputs": [
        {
          "indexed": false,
          "internalType": "bytes10",
          "name": "proposalSignature",
          "type": "bytes10"
        }
      ],
      "name": "ProposalCreated",
      "type": "event"
    },
    {
      "anonymous": false,
      "inputs": [
        {
          "indexed": false,
          "internalType": "bytes10",
          "name": "proposalSignature",
          "type": "bytes10"
        }
      ],
      "name": "ProposalExecuted",
      "type": "event"
    },
    {
      "inputs": [
        {
          "internalType": "address",
          "name": "_to",
          "type": "address"
        },
        {
          "internalType": "bytes32",
          "name": "_permissions",
          "type": "bytes32"
        }
      ],
      "name": "addPermissions",
      "outputs": [],
      "stateMutability": "nonpayable",
      "type": "function"
    },
    {
      "inputs": [
        {
          "internalType": "address",
          "name": "_from",
          "type": "address"
        },
        {
          "internalType": "bytes32",
          "name": "_permissions",
          "type": "bytes32"
        },
        {
          "internalType": "bytes",
          "name": "_signature",
          "type": "bytes"
        }
      ],
      "name": "claimPermission",
      "outputs": [],
      "stateMutability": "nonpayable",
      "type": "function"
    },
    {
      "inputs": [
        {
          "internalType": "bytes10",
          "name": "_proposalSignature",
          "type": "bytes10"
        },
        {
          "internalType": "bytes[]",
          "name": "_signatures",
          "type": "bytes[]"
        },
        {
          "internalType": "address[]",
          "name": "_signers",
          "type": "address[]"
        }
      ],
      "name": "execute",
      "outputs": [],
      "stateMutability": "nonpayable",
      "type": "function"
    },
    {
      "inputs": [
        {
          "internalType": "address",
          "name": "_from",
          "type": "address"
        },
        {
          "internalType": "address",
          "name": "_to",
          "type": "address"
        },
        {
          "internalType": "bytes32",
          "name": "_permissions",
          "type": "bytes32"
        }
      ],
      "name": "getNewPermissionHash",
      "outputs": [
        {
          "internalType": "bytes32",
          "name": "_hash",
          "type": "bytes32"
        }
      ],
      "stateMutability": "view",
      "type": "function"
    },
    {
      "inputs": [
        {
          "internalType": "address",
          "name": "_signer",
          "type": "address"
        },
        {
          "internalType": "bytes10",
          "name": "_proposalSignature",
          "type": "bytes10"
        },
        {
          "internalType": "bool",
          "name": "_response",
          "type": "bool"
        }
      ],
      "name": "getProposalHash",
      "outputs": [
        {
          "internalType": "bytes32",
          "name": "_hash",
          "type": "bytes32"
        }
      ],
      "stateMutability": "view",
      "type": "function"
    },
    {
      "inputs": [
        {
          "internalType": "string",
          "name": "_title",
          "type": "string"
        },
        {
          "internalType": "bytes[]",
          "name": "_payloads",
          "type": "bytes[]"
        }
      ],
      "name": "proposeExecution",
      "outputs": [],
      "stateMutability": "nonpayable",
      "type": "function"
    },
    {
      "inputs": [
        {
          "internalType": "address",
          "name": "_to",
          "type": "address"
        },
        {
          "internalType": "bytes32",
          "name": "_permissions",
          "type": "bytes32"
        }
      ],
      "name": "removePermissions",
      "outputs": [],
      "stateMutability": "nonpayable",
      "type": "function"
    }
  ],
  "bytecode": "0x60806040523480156200001157600080fd5b506040516200429338038062004293833981810160405281019062000037919062000170565b81600260006101000a81548173ffffffffffffffffffffffffffffffffffffffff021916908373ffffffffffffffffffffffffffffffffffffffff16021790555080600360006101000a81548173ffffffffffffffffffffffffffffffffffffffff021916908373ffffffffffffffffffffffffffffffffffffffff1602179055505050620001b7565b600080fd5b600073ffffffffffffffffffffffffffffffffffffffff82169050919050565b6000620000f382620000c6565b9050919050565b6200010581620000e6565b81146200011157600080fd5b50565b6000815190506200012581620000fa565b92915050565b60006200013882620000c6565b9050919050565b6200014a816200012b565b81146200015657600080fd5b50565b6000815190506200016a816200013f565b92915050565b600080604083850312156200018a5762000189620000c1565b5b60006200019a8582860162000114565b9250506020620001ad8582860162000159565b9150509250929050565b6140cc80620001c76000396000f3fe608060405234801561001057600080fd5b506004361061007d5760003560e01c806367fb22141161005b57806367fb2214146100fe57806380a225411461011a578063f31a105d14610136578063f71fd796146101525761007d565b8063245eead61461008257806336c1644e1461009e578063421cc9ec146100ce575b600080fd5b61009c60048036038101906100979190612525565b61016e565b005b6100b860048036038101906100b39190612565565b6101c0565b6040516100c591906125c7565b60405180910390f35b6100e860048036038101906100e39190612672565b610238565b6040516100f591906125c7565b60405180910390f35b61011860048036038101906101139190612525565b6102b1565b005b610134600480360381019061012f919061280b565b610303565b005b610150600480360381019061014b9190612930565b610458565b005b61016c60048036038101906101679190612a1b565b610b50565b005b6101b233600860001b6040518060400160405280601181526020017f52454d4f56455f5045524d495353494f4e000000000000000000000000000000815250610dcb565b6101bc8282610e2a565b5050565b6000308484846000808873ffffffffffffffffffffffffffffffffffffffff1673ffffffffffffffffffffffffffffffffffffffff16815260200190815260200160002054604051602001610219959493929190612ac4565b6040516020818303038152906040528051906020012090509392505050565b600030848484600160008973ffffffffffffffffffffffffffffffffffffffff1673ffffffffffffffffffffffffffffffffffffffff16815260200190815260200160002054604051602001610292959493929190612be9565b6040516020818303038152906040528051906020012090509392505050565b6102f533600460001b6040518060400160405280600e81526020017f4144445f5045524d495353494f4e000000000000000000000000000000000000815250610dcb565b6102ff828261111e565b5050565b61034783600460001b6040518060400160405280600e81526020017f4144445f5045524d495353494f4e000000000000000000000000000000000000815250610dcb565b600061035c6103578533866101c0565b6113f9565b90506000610373838361142990919063ffffffff16565b90508073ffffffffffffffffffffffffffffffffffffffff168573ffffffffffffffffffffffffffffffffffffffff16146103e65760016040517f7d29e6e10000000000000000000000000000000000000000000000000000000081526004016103dd9190612d0c565b60405180910390fd5b6103f0338561111e565b6071426103fd9190612d98565b6000803373ffffffffffffffffffffffffffffffffffffffff1673ffffffffffffffffffffffffffffffffffffffff168152602001908152602001600020600082825461044a9190612dc9565b925050819055505050505050565b61049c33601060001b6040518060400160405280601081526020017f455845435554455f50524f504f53414c00000000000000000000000000000000815250610dcb565b8181905084849050146104e75760036040517f7d29e6e10000000000000000000000000000000000000000000000000000000081526004016104de9190612e5a565b60405180910390fd5b6000600267ffffffffffffffff811115610504576105036126e0565b5b6040519080825280602002602001820160405280156105325781602001602082028036833780820191505090505b5090507f54aef89da199194b126d28036f71291726191dbff7160f9d0986952b17eaedb460001b8160008151811061056d5761056c612e88565b5b6020026020010181815250507f47499aa724781173ffff2a8a82c6223b88e1a838d32bb91a9ff9c9c0b8c8759b60001b816001815181106105b1576105b0612e88565b5b6020026020010181815250506000600260009054906101000a900473ffffffffffffffffffffffffffffffffffffffff1673ffffffffffffffffffffffffffffffffffffffff16634e3e6e9c836040518263ffffffff1660e01b815260040161061a9190612f75565b60006040518083038186803b15801561063257600080fd5b505afa158015610646573d6000803e3d6000fd5b505050506040513d6000823e3d601f19601f8201168201806040525081019061066f919061311b565b905060008160008151811061068757610686612e88565b5b6020026020010151610698906131a1565b60001c90506000826001815181106106b3576106b2612e88565b5b60200260200101516106c49061321d565b60f81c90508060ff168260648a8a90506106de9190613284565b6106e89190612d98565b101561072c5760046040517f7d29e6e10000000000000000000000000000000000000000000000000000000081526004016107239190613319565b60405180910390fd5b600080600090505b8989905081101561092157600061077c6107778a8a8581811061075a57610759612e88565b5b905060200201602081019061076f9190613347565b8e6001610238565b6113f9565b905060006107fa8c8c8581811061079657610795612e88565b5b90506020028101906107a89190613383565b8080601f016020809104026020016040519081016040528093929190818152602001838380828437600081840152601f19601f820116905080830192505050505050508361142990919063ffffffff16565b905089898481811061080f5761080e612e88565b5b90506020020160208101906108249190613347565b73ffffffffffffffffffffffffffffffffffffffff168173ffffffffffffffffffffffffffffffffffffffff1614801561086f57506000801b600160001b61086b83611450565b1614155b1561090c57838061087f906133e6565b94505060714261088f9190612d98565b600160008c8c878181106108a6576108a5612e88565b5b90506020020160208101906108bb9190613347565b73ffffffffffffffffffffffffffffffffffffffff1673ffffffffffffffffffffffffffffffffffffffff16815260200190815260200160002060008282546109049190612dc9565b925050819055505b50508080610919906133e6565b915050610734565b508160ff16836064836109349190613284565b61093e9190612d98565b1115610b06576000600260009054906101000a900473ffffffffffffffffffffffffffffffffffffffff1673ffffffffffffffffffffffffffffffffffffffff166354f6127f61098d8d61154e565b6040518263ffffffff1660e01b81526004016109a991906125c7565b60006040518083038186803b1580156109c157600080fd5b505afa1580156109d5573d6000803e3d6000fd5b505050506040513d6000823e3d601f19601f820116820180604052508101906109fe919061342f565b806020019051810190610a11919061311b565b905060005b8151811015610aff57600360009054906101000a900473ffffffffffffffffffffffffffffffffffffffff1673ffffffffffffffffffffffffffffffffffffffff166309c5eabe838381518110610a7057610a6f612e88565b5b60200260200101516040518263ffffffff1660e01b8152600401610a9491906134c2565b600060405180830381600087803b158015610aae57600080fd5b505af1158015610ac2573d6000803e3d6000fd5b505050506040513d6000823e3d601f19601f82011682018060405250810190610aeb919061342f565b508080610af7906133e6565b915050610a16565b5050610b44565b60056040517f7d29e6e1000000000000000000000000000000000000000000000000000000008152600401610b3b919061351f565b60405180910390fd5b50505050505050505050565b6000828290501415610b9a5760026040517f7d29e6e1000000000000000000000000000000000000000000000000000000008152600401610b919190613588565b60405180910390fd5b610bde33600260001b6040518060400160405280600781526020017f50524f504f534500000000000000000000000000000000000000000000000000815250610dcb565b6000610c13858542604051602001610bf8939291906135e3565b60405160208183030381529060405280519060200120611599565b90506000610c208261154e565b905060008484604051602001610c37929190613779565b6040516020818303038152906040529050600360009054906101000a900473ffffffffffffffffffffffffffffffffffffffff1673ffffffffffffffffffffffffffffffffffffffff166309c5eabe7f7f23690cc80a596acdae0a51503f8066ffd79ab76fd5c929578309d2e2883b778484604051602401610cba92919061379d565b604051602081830303815290604052907bffffffffffffffffffffffffffffffffffffffffffffffffffffffff19166020820180517bffffffffffffffffffffffffffffffffffffffffffffffffffffffff83818316178352505050506040518263ffffffff1660e01b8152600401610d3391906134c2565b600060405180830381600087803b158015610d4d57600080fd5b505af1158015610d61573d6000803e3d6000fd5b505050506040513d6000823e3d601f19601f82011682018060405250810190610d8a919061342f565b507fa1132638bf652459b06b9321dbbbbcd15050052900733c1699eb8e8454d1f24183604051610dba91906137dc565b60405180910390a150505050505050565b6000610dd684611450565b90506000801b8382161415610e245783826040517f3bdad6e6000000000000000000000000000000000000000000000000000000008152600401610e1b92919061383b565b60405180910390fd5b50505050565b6000610e3583611450565b905060005b6005811015610e9c576000801b816001901b60001b831614158015610e6b57506000801b816001901b60001b841614155b15610e8957806001901b8260001c610e83919061386b565b60001b91505b8080610e94906133e6565b915050610e3a565b50600081604051602001610eb091906138c0565b60405160208183030381529060405290506000801b821415610f9957610f85600260009054906101000a900473ffffffffffffffffffffffffffffffffffffffff16600360009054906101000a900473ffffffffffffffffffffffffffffffffffffffff167f54aef89da199194b126d28036f71291726191dbff7160f9d0986952b17eaedb460001b6f54aef89da199194b126d28036f71291760801b6b54aef89da199194b126d000060a01b8960601b604051602001610f719190613928565b6040516020818303038152906040526115d4565b506040518060200160405280600081525090505b600360009054906101000a900473ffffffffffffffffffffffffffffffffffffffff1673ffffffffffffffffffffffffffffffffffffffff166309c5eabe7f7f23690cc80a596acdae0a51503f8066ffd79ab76fd5c929578309d2e2883b776b4164647265734d756c74000060a01b8760601b60405160200161101d929190613990565b604051602081830303815290604052611035906131a1565b8460405160240161104792919061379d565b604051602081830303815290604052907bffffffffffffffffffffffffffffffffffffffffffffffffffffffff19166020820180517bffffffffffffffffffffffffffffffffffffffffffffffffffffffff83818316178352505050506040518263ffffffff1660e01b81526004016110c091906134c2565b600060405180830381600087803b1580156110da57600080fd5b505af11580156110ee573d6000803e3d6000fd5b505050506040513d6000823e3d601f19601f82011682018060405250810190611117919061342f565b5050505050565b600061112983611450565b90506000801b8114156111f1576111ef600260009054906101000a900473ffffffffffffffffffffffffffffffffffffffff16600360009054906101000a900473ffffffffffffffffffffffffffffffffffffffff167f54aef89da199194b126d28036f71291726191dbff7160f9d0986952b17eaedb460001b6f54aef89da199194b126d28036f71291760801b6b54aef89da199194b126d000060a01b8860601b6040516020016111db9190613928565b604051602081830303815290604052611ba6565b505b60005b6005811015611255576000801b816001901b60001b831614801561122457506000801b816001901b60001b841614155b1561124257806001901b8260001c61123c9190612dc9565b60001b91505b808061124d906133e6565b9150506111f4565b50600360009054906101000a900473ffffffffffffffffffffffffffffffffffffffff1673ffffffffffffffffffffffffffffffffffffffff166309c5eabe7f7f23690cc80a596acdae0a51503f8066ffd79ab76fd5c929578309d2e2883b776b4164647265734d756c74000060a01b8660601b6040516020016112da929190613990565b6040516020818303038152906040526112f2906131a1565b8460405160200161130391906138c0565b60405160208183030381529060405260405160240161132392919061379d565b604051602081830303815290604052907bffffffffffffffffffffffffffffffffffffffffffffffffffffffff19166020820180517bffffffffffffffffffffffffffffffffffffffffffffffffffffffff83818316178352505050506040518263ffffffff1660e01b815260040161139c91906134c2565b600060405180830381600087803b1580156113b657600080fd5b505af11580156113ca573d6000803e3d6000fd5b505050506040513d6000823e3d601f19601f820116820180604052508101906113f3919061342f565b50505050565b60008160405160200161140c9190613a13565b604051602081830303815290604052805190602001209050919050565b60008060006114388585611fbd565b9150915061144581612040565b819250505092915050565b6000600260009054906101000a900473ffffffffffffffffffffffffffffffffffffffff1673ffffffffffffffffffffffffffffffffffffffff166354f6127f6b4164647265734d756c74000060a01b8460601b6040516020016114b5929190613990565b6040516020818303038152906040526114cd906131a1565b6040518263ffffffff1660e01b81526004016114e991906125c7565b60006040518083038186803b15801561150157600080fd5b505afa158015611515573d6000803e3d6000fd5b505050506040513d6000823e3d601f19601f8201168201806040525081019061153e919061342f565b611547906131a1565b9050919050565b60008173870a9bfe5ccee436bab5b4cfd8215400bb038e8e60501b60405160200161157a929190613a86565b604051602081830303815290604052611592906131a1565b9050919050565b6000634d756c7460e01b826040516020016115b5929190613b4c565b6040516020818303038152906040526115cd90613b8d565b9050919050565b6000808773ffffffffffffffffffffffffffffffffffffffff166354f6127f876040518263ffffffff1660e01b815260040161161091906125c7565b60006040518083038186803b15801561162857600080fd5b505afa15801561163c573d6000803e3d6000fd5b505050506040513d6000823e3d601f19601f82011682018060405250810190611665919061342f565b61166e906131a1565b60001c90506000600182611682919061386b565b90506000806116928b8888612215565b91509150816116a8576000945050505050611b9c565b60008b73ffffffffffffffffffffffffffffffffffffffff166354f6127f8a8660801b6040516020016116dc929190613c41565b6040516020818303038152906040526116f4906131a1565b6040518263ffffffff1660e01b815260040161171091906125c7565b60006040518083038186803b15801561172857600080fd5b505afa15801561173c573d6000803e3d6000fd5b505050506040513d6000823e3d601f19601f82011682018060405250810190611765919061342f565b90506000600567ffffffffffffffff811115611784576117836126e0565b5b6040519080825280602002602001820160405280156117b25781602001602082028036833780820191505090505b5090506000600567ffffffffffffffff8111156117d2576117d16126e0565b5b60405190808252806020026020018201604052801561180557816020015b60608152602001906001900390816117f05790505b5090508b8260008151811061181d5761181c612e88565b5b6020026020010181815250508560001b60405160200161183d91906138c0565b604051602081830303815290604052816000815181106118605761185f612e88565b5b60200260200101819052508a8460801b604051602001611881929190613c41565b604051602081830303815290604052611899906131a1565b826001815181106118ad576118ac612e88565b5b60200260200101818152505082816001815181106118ce576118cd612e88565b5b60200260200101819052508a8660801b6040516020016118ef929190613c41565b604051602081830303815290604052611907906131a1565b8260028151811061191b5761191a612e88565b5b602002602001018181525050604051806020016040528060008152508160028151811061194b5761194a612e88565b5b6020026020010181905250898361196190613c82565b604051602001611972929190613990565b60405160208183030381529060405261198a906131a1565b8260038151811061199e5761199d612e88565b5b6020026020010181815250508360001b6040516020016119be91906138c0565b604051602081830303815290604052816003815181106119e1576119e0612e88565b5b602002602001018190525089896119f790613c82565b604051602001611a08929190613990565b604051602081830303815290604052611a20906131a1565b82600481518110611a3457611a33612e88565b5b6020026020010181815250506040518060200160405280600081525081600481518110611a6457611a63612e88565b5b60200260200101819052508c73ffffffffffffffffffffffffffffffffffffffff166309c5eabe7f14a6e2931875c22579e483160c8d2832a3fb3acbd575a49f6a0f7fc5e135f7898484604051602401611abf929190613dd3565b604051602081830303815290604052907bffffffffffffffffffffffffffffffffffffffffffffffffffffffff19166020820180517bffffffffffffffffffffffffffffffffffffffffffffffffffffffff83818316178352505050506040518263ffffffff1660e01b8152600401611b3891906134c2565b600060405180830381600087803b158015611b5257600080fd5b505af1158015611b66573d6000803e3d6000fd5b505050506040513d6000823e3d601f19601f82011682018060405250810190611b8f919061342f565b5060019750505050505050505b9695505050505050565b6000808773ffffffffffffffffffffffffffffffffffffffff166354f6127f876040518263ffffffff1660e01b8152600401611be291906125c7565b60006040518083038186803b158015611bfa57600080fd5b505afa158015611c0e573d6000803e3d6000fd5b505050506040513d6000823e3d601f19601f82011682018060405250810190611c37919061342f565b611c40906131a1565b60001c90506000600182611c549190612dc9565b9050600080611c648b8888612215565b91509150600090508115611c7f576000945050505050611fb3565b6000600367ffffffffffffffff811115611c9c57611c9b6126e0565b5b604051908082528060200260200182016040528015611cca5781602001602082028036833780820191505090505b5090506000600367ffffffffffffffff811115611cea57611ce96126e0565b5b604051908082528060200260200182016040528015611d1d57816020015b6060815260200190600190039081611d085790505b5090508a82600081518110611d3557611d34612e88565b5b6020026020010181815250508460001b604051602001611d5591906138c0565b60405160208183030381529060405281600081518110611d7857611d77612e88565b5b6020026020010181905250898660801b604051602001611d99929190613c41565b604051602081830303815290604052611db1906131a1565b82600181518110611dc557611dc4612e88565b5b6020026020010181815250508781600181518110611de657611de5612e88565b5b60200260200101819052508888611dfc90613c82565b604051602001611e0d929190613990565b604051602081830303815290604052611e25906131a1565b82600281518110611e3957611e38612e88565b5b6020026020010181815250508560001b604051602001611e5991906138c0565b60405160208183030381529060405281600281518110611e7c57611e7b612e88565b5b60200260200101819052508b73ffffffffffffffffffffffffffffffffffffffff166309c5eabe7f14a6e2931875c22579e483160c8d2832a3fb3acbd575a49f6a0f7fc5e135f7898484604051602401611ed7929190613dd3565b604051602081830303815290604052907bffffffffffffffffffffffffffffffffffffffffffffffffffffffff19166020820180517bffffffffffffffffffffffffffffffffffffffffffffffffffffffff83818316178352505050506040518263ffffffff1660e01b8152600401611f5091906134c2565b600060405180830381600087803b158015611f6a57600080fd5b505af1158015611f7e573d6000803e3d6000fd5b505050506040513d6000823e3d601f19601f82011682018060405250810190611fa7919061342f565b50600196505050505050505b9695505050505050565b600080604183511415611fff5760008060006020860151925060408601519150606086015160001a9050611ff387828585612311565b94509450505050612039565b60408351141561203057600080602085015191506040850151905061202586838361241e565b935093505050612039565b60006002915091505b9250929050565b6000600481111561205457612053613e0a565b5b81600481111561206757612066613e0a565b5b141561207257612212565b6001600481111561208657612085613e0a565b5b81600481111561209957612098613e0a565b5b14156120da576040517f08c379a00000000000000000000000000000000000000000000000000000000081526004016120d190613e85565b60405180910390fd5b600260048111156120ee576120ed613e0a565b5b81600481111561210157612100613e0a565b5b1415612142576040517f08c379a000000000000000000000000000000000000000000000000000000000815260040161213990613ef1565b60405180910390fd5b6003600481111561215657612155613e0a565b5b81600481111561216957612168613e0a565b5b14156121aa576040517f08c379a00000000000000000000000000000000000000000000000000000000081526004016121a190613f83565b60405180910390fd5b6004808111156121bd576121bc613e0a565b5b8160048111156121d0576121cf613e0a565b5b1415612211576040517f08c379a000000000000000000000000000000000000000000000000000000000815260040161220890614015565b60405180910390fd5b5b50565b60008060008573ffffffffffffffffffffffffffffffffffffffff166354f6127f868661224190613c82565b604051602001612252929190613990565b60405160208183030381529060405261226a906131a1565b6040518263ffffffff1660e01b815260040161228691906125c7565b60006040518083038186803b15801561229e57600080fd5b505afa1580156122b2573d6000803e3d6000fd5b505050506040513d6000823e3d601f19601f820116820180604052508101906122db919061342f565b90506000815114156122f4576000809250925050612309565b600181612300906131a1565b60001c92509250505b935093915050565b6000807f7fffffffffffffffffffffffffffffff5d576e7357a4501ddfe92f46681b20a08360001c111561234c576000600391509150612415565b601b8560ff16141580156123645750601c8560ff1614155b15612376576000600491509150612415565b60006001878787876040516000815260200160405260405161239b9493929190614051565b6020604051602081039080840390855afa1580156123bd573d6000803e3d6000fd5b505050602060405103519050600073ffffffffffffffffffffffffffffffffffffffff168173ffffffffffffffffffffffffffffffffffffffff16141561240c57600060019250925050612415565b80600092509250505b94509492505050565b60008060007f7fffffffffffffffffffffffffffffffffffffffffffffffffffffffffffffff60001b841690506000601b60ff8660001c901c6124619190612dc9565b905061246f87828885612311565b935093505050935093915050565b6000604051905090565b600080fd5b600080fd5b600073ffffffffffffffffffffffffffffffffffffffff82169050919050565b60006124bc82612491565b9050919050565b6124cc816124b1565b81146124d757600080fd5b50565b6000813590506124e9816124c3565b92915050565b6000819050919050565b612502816124ef565b811461250d57600080fd5b50565b60008135905061251f816124f9565b92915050565b6000806040838503121561253c5761253b612487565b5b600061254a858286016124da565b925050602061255b85828601612510565b9150509250929050565b60008060006060848603121561257e5761257d612487565b5b600061258c868287016124da565b935050602061259d868287016124da565b92505060406125ae86828701612510565b9150509250925092565b6125c1816124ef565b82525050565b60006020820190506125dc60008301846125b8565b92915050565b60007fffffffffffffffffffff0000000000000000000000000000000000000000000082169050919050565b612617816125e2565b811461262257600080fd5b50565b6000813590506126348161260e565b92915050565b60008115159050919050565b61264f8161263a565b811461265a57600080fd5b50565b60008135905061266c81612646565b92915050565b60008060006060848603121561268b5761268a612487565b5b6000612699868287016124da565b93505060206126aa86828701612625565b92505060406126bb8682870161265d565b9150509250925092565b600080fd5b600080fd5b6000601f19601f8301169050919050565b7f4e487b7100000000000000000000000000000000000000000000000000000000600052604160045260246000fd5b612718826126cf565b810181811067ffffffffffffffff82111715612737576127366126e0565b5b80604052505050565b600061274a61247d565b9050612756828261270f565b919050565b600067ffffffffffffffff821115612776576127756126e0565b5b61277f826126cf565b9050602081019050919050565b82818337600083830152505050565b60006127ae6127a98461275b565b612740565b9050828152602081018484840111156127ca576127c96126ca565b5b6127d584828561278c565b509392505050565b600082601f8301126127f2576127f16126c5565b5b813561280284826020860161279b565b91505092915050565b60008060006060848603121561282457612823612487565b5b6000612832868287016124da565b935050602061284386828701612510565b925050604084013567ffffffffffffffff8111156128645761286361248c565b5b612870868287016127dd565b9150509250925092565b600080fd5b600080fd5b60008083601f84011261289a576128996126c5565b5b8235905067ffffffffffffffff8111156128b7576128b661287a565b5b6020830191508360208202830111156128d3576128d261287f565b5b9250929050565b60008083601f8401126128f0576128ef6126c5565b5b8235905067ffffffffffffffff81111561290d5761290c61287a565b5b6020830191508360208202830111156129295761292861287f565b5b9250929050565b60008060008060006060868803121561294c5761294b612487565b5b600061295a88828901612625565b955050602086013567ffffffffffffffff81111561297b5761297a61248c565b5b61298788828901612884565b9450945050604086013567ffffffffffffffff8111156129aa576129a961248c565b5b6129b6888289016128da565b92509250509295509295909350565b60008083601f8401126129db576129da6126c5565b5b8235905067ffffffffffffffff8111156129f8576129f761287a565b5b602083019150836001820283011115612a1457612a1361287f565b5b9250929050565b60008060008060408587031215612a3557612a34612487565b5b600085013567ffffffffffffffff811115612a5357612a5261248c565b5b612a5f878288016129c5565b9450945050602085013567ffffffffffffffff811115612a8257612a8161248c565b5b612a8e87828801612884565b925092505092959194509250565b612aa5816124b1565b82525050565b6000819050919050565b612abe81612aab565b82525050565b600060a082019050612ad96000830188612a9c565b612ae66020830187612a9c565b612af36040830186612a9c565b612b0060608301856125b8565b612b0d6080830184612ab5565b9695505050505050565b60008160601b9050919050565b6000612b2f82612b17565b9050919050565b6000612b4182612b24565b9050919050565b612b59612b54826124b1565b612b36565b82525050565b6000819050919050565b612b7a612b75826125e2565b612b5f565b82525050565b60008160f81b9050919050565b6000612b9882612b80565b9050919050565b6000612baa82612b8d565b9050919050565b612bc2612bbd8261263a565b612b9f565b82525050565b6000819050919050565b612be3612bde82612aab565b612bc8565b82525050565b6000612bf58288612b48565b601482019150612c058287612b48565b601482019150612c158286612b69565b600a82019150612c258285612bb1565b600182019150612c358284612bd2565b6020820191508190509695505050505050565b600082825260208201905092915050565b7f4d756c7469736967000000000000000000000000000000000000000000000000600082015250565b6000612c8f600883612c48565b9150612c9a82612c59565b602082019050919050565b6000819050919050565b60007fff0000000000000000000000000000000000000000000000000000000000000082169050919050565b6000612cf6612cf1612cec84612ca5565b612b80565b612caf565b9050919050565b612d0681612cdb565b82525050565b60006040820190508181036000830152612d2581612c82565b9050612d346020830184612cfd565b92915050565b7f4e487b7100000000000000000000000000000000000000000000000000000000600052601260045260246000fd5b7f4e487b7100000000000000000000000000000000000000000000000000000000600052601160045260246000fd5b6000612da382612aab565b9150612dae83612aab565b925082612dbe57612dbd612d3a565b5b828204905092915050565b6000612dd482612aab565b9150612ddf83612aab565b9250827fffffffffffffffffffffffffffffffffffffffffffffffffffffffffffffffff03821115612e1457612e13612d69565b5b828201905092915050565b6000819050919050565b6000612e44612e3f612e3a84612e1f565b612b80565b612caf565b9050919050565b612e5481612e29565b82525050565b60006040820190508181036000830152612e7381612c82565b9050612e826020830184612e4b565b92915050565b7f4e487b7100000000000000000000000000000000000000000000000000000000600052603260045260246000fd5b600081519050919050565b600082825260208201905092915050565b6000819050602082019050919050565b612eec816124ef565b82525050565b6000612efe8383612ee3565b60208301905092915050565b6000602082019050919050565b6000612f2282612eb7565b612f2c8185612ec2565b9350612f3783612ed3565b8060005b83811015612f68578151612f4f8882612ef2565b9750612f5a83612f0a565b925050600181019050612f3b565b5085935050505092915050565b60006020820190508181036000830152612f8f8184612f17565b905092915050565b600067ffffffffffffffff821115612fb257612fb16126e0565b5b602082029050602081019050919050565b60005b83811015612fe1578082015181840152602081019050612fc6565b83811115612ff0576000848401525b50505050565b60006130096130048461275b565b612740565b905082815260208101848484011115613025576130246126ca565b5b613030848285612fc3565b509392505050565b600082601f83011261304d5761304c6126c5565b5b815161305d848260208601612ff6565b91505092915050565b600061307961307484612f97565b612740565b9050808382526020820190506020840283018581111561309c5761309b61287f565b5b835b818110156130e357805167ffffffffffffffff8111156130c1576130c06126c5565b5b8086016130ce8982613038565b8552602085019450505060208101905061309e565b5050509392505050565b600082601f830112613102576131016126c5565b5b8151613112848260208601613066565b91505092915050565b60006020828403121561313157613130612487565b5b600082015167ffffffffffffffff81111561314f5761314e61248c565b5b61315b848285016130ed565b91505092915050565b600081519050919050565b6000819050602082019050919050565b600061318b82516124ef565b80915050919050565b600082821b905092915050565b60006131ac82613164565b826131b68461316f565b90506131c18161317f565b92506020821015613201576131fc7fffffffffffffffffffffffffffffffffffffffffffffffffffffffffffffffff83602003600802613194565b831692505b5050919050565b60006132148251612caf565b80915050919050565b600061322882613164565b826132328461316f565b905061323d81613208565b9250600182101561327d576132787fff0000000000000000000000000000000000000000000000000000000000000083600103600802613194565b831692505b5050919050565b600061328f82612aab565b915061329a83612aab565b9250817fffffffffffffffffffffffffffffffffffffffffffffffffffffffffffffffff04831182151516156132d3576132d2612d69565b5b828202905092915050565b6000819050919050565b60006133036132fe6132f9846132de565b612b80565b612caf565b9050919050565b613313816132e8565b82525050565b6000604082019050818103600083015261333281612c82565b9050613341602083018461330a565b92915050565b60006020828403121561335d5761335c612487565b5b600061336b848285016124da565b91505092915050565b600080fd5b600080fd5b600080fd5b600080833560016020038436030381126133a05761339f613374565b5b80840192508235915067ffffffffffffffff8211156133c2576133c1613379565b5b6020830192506001820236038313156133de576133dd61337e565b5b509250929050565b60006133f182612aab565b91507fffffffffffffffffffffffffffffffffffffffffffffffffffffffffffffffff82141561342457613423612d69565b5b600182019050919050565b60006020828403121561344557613444612487565b5b600082015167ffffffffffffffff8111156134635761346261248c565b5b61346f84828501613038565b91505092915050565b600082825260208201905092915050565b600061349482613164565b61349e8185613478565b93506134ae818560208601612fc3565b6134b7816126cf565b840191505092915050565b600060208201905081810360008301526134dc8184613489565b905092915050565b6000819050919050565b60006135096135046134ff846134e4565b612b80565b612caf565b9050919050565b613519816134ee565b82525050565b6000604082019050818103600083015261353881612c82565b90506135476020830184613510565b92915050565b6000819050919050565b600061357261356d6135688461354d565b612b80565b612caf565b9050919050565b61358281613557565b82525050565b600060408201905081810360008301526135a181612c82565b90506135b06020830184613579565b92915050565b60006135c28385612c48565b93506135cf83858461278c565b6135d8836126cf565b840190509392505050565b600060408201905081810360008301526135fe8185876135b6565b905061360d6020830184612ab5565b949350505050565b600082825260208201905092915050565b6000819050919050565b600082825260208201905092915050565b600061364d8385613630565b935061365a83858461278c565b613663836126cf565b840190509392505050565b600061367b848484613641565b90509392505050565b600080fd5b600080fd5b600080fd5b600080833560016020038436030381126136b0576136af61368e565b5b83810192508235915060208301925067ffffffffffffffff8211156136d8576136d7613684565b5b6001820236038413156136ee576136ed613689565b5b509250929050565b6000602082019050919050565b600061370f8385613615565b93508360208402850161372184613626565b8060005b8781101561376757848403895261373c8284613693565b61374786828461366e565b9550613752846136f6565b935060208b019a505050600181019050613725565b50829750879450505050509392505050565b60006020820190508181036000830152613794818486613703565b90509392505050565b60006040820190506137b260008301856125b8565b81810360208301526137c48184613489565b90509392505050565b6137d6816125e2565b82525050565b60006020820190506137f160008301846137cd565b92915050565b600081519050919050565b600061380d826137f7565b6138178185612c48565b9350613827818560208601612fc3565b613830816126cf565b840191505092915050565b60006040820190506138506000830185612a9c565b81810360208301526138628184613802565b90509392505050565b600061387682612aab565b915061388183612aab565b92508282101561389457613893612d69565b5b828203905092915050565b6000819050919050565b6138ba6138b5826124ef565b61389f565b82525050565b60006138cc82846138a9565b60208201915081905092915050565b60007fffffffffffffffffffffffffffffffffffffffff00000000000000000000000082169050919050565b6000819050919050565b61392261391d826138db565b613907565b82525050565b60006139348284613911565b60148201915081905092915050565b60007fffffffffffffffffffffffff000000000000000000000000000000000000000082169050919050565b6000819050919050565b61398a61398582613943565b61396f565b82525050565b600061399c8285613979565b600c820191506139ac8284613911565b6014820191508190509392505050565b600081905092915050565b7f19457468657265756d205369676e6564204d6573736167653a0a333200000000600082015250565b60006139fd601c836139bc565b9150613a08826139c7565b601c82019050919050565b6000613a1e826139f0565b9150613a2a82846138a9565b60208201915081905092915050565b60007fffffffffffffffffffffffffffffffffffffffffffff0000000000000000000082169050919050565b6000819050919050565b613a80613a7b82613a39565b613a65565b82525050565b6000613a928285612b69565b600a82019150613aa28284613a6f565b6016820191508190509392505050565b60007fffffffff0000000000000000000000000000000000000000000000000000000082169050919050565b6000819050919050565b613af9613af482613ab2565b613ade565b82525050565b60007fffffffffffff000000000000000000000000000000000000000000000000000082169050919050565b6000819050919050565b613b46613b4182613aff565b613b2b565b82525050565b6000613b588285613ae8565b600482019150613b688284613b35565b6006820191508190509392505050565b6000613b8482516125e2565b80915050919050565b6000613b9882613164565b82613ba28461316f565b9050613bad81613b78565b9250600a821015613bed57613be87fffffffffffffffffffff0000000000000000000000000000000000000000000083600a03600802613194565b831692505b5050919050565b60007fffffffffffffffffffffffffffffffff0000000000000000000000000000000082169050919050565b6000819050919050565b613c3b613c3682613bf4565b613c20565b82525050565b6000613c4d8285613c2a565b601082019150613c5d8284613c2a565b6010820191508190509392505050565b6000613c7982516138db565b80915050919050565b6000613c8d82613164565b82613c978461316f565b9050613ca281613c6d565b92506014821015613ce257613cdd7fffffffffffffffffffffffffffffffffffffffff00000000000000000000000083601403600802613194565b831692505b5050919050565b600081519050919050565b6000819050602082019050919050565b6000613d0f82613164565b613d198185613630565b9350613d29818560208601612fc3565b613d32816126cf565b840191505092915050565b6000613d498383613d04565b905092915050565b6000602082019050919050565b6000613d6982613ce9565b613d738185613615565b935083602082028501613d8585613cf4565b8060005b85811015613dc15784840389528151613da28582613d3d565b9450613dad83613d51565b925060208a01995050600181019050613d89565b50829750879550505050505092915050565b60006040820190508181036000830152613ded8185612f17565b90508181036020830152613e018184613d5e565b90509392505050565b7f4e487b7100000000000000000000000000000000000000000000000000000000600052602160045260246000fd5b7f45434453413a20696e76616c6964207369676e61747572650000000000000000600082015250565b6000613e6f601883612c48565b9150613e7a82613e39565b602082019050919050565b60006020820190508181036000830152613e9e81613e62565b9050919050565b7f45434453413a20696e76616c6964207369676e6174757265206c656e67746800600082015250565b6000613edb601f83612c48565b9150613ee682613ea5565b602082019050919050565b60006020820190508181036000830152613f0a81613ece565b9050919050565b7f45434453413a20696e76616c6964207369676e6174757265202773272076616c60008201527f7565000000000000000000000000000000000000000000000000000000000000602082015250565b6000613f6d602283612c48565b9150613f7882613f11565b604082019050919050565b60006020820190508181036000830152613f9c81613f60565b9050919050565b7f45434453413a20696e76616c6964207369676e6174757265202776272076616c60008201527f7565000000000000000000000000000000000000000000000000000000000000602082015250565b6000613fff602283612c48565b915061400a82613fa3565b604082019050919050565b6000602082019050818103600083015261402e81613ff2565b9050919050565b600060ff82169050919050565b61404b81614035565b82525050565b600060808201905061406660008301876125b8565b6140736020830186614042565b61408060408301856125b8565b61408d60608301846125b8565b9594505050505056fea2646970667358221220a105b020ea4b79571a1c439b7f696994d08fbf13d67c3e9154cc1bf35ab70bee64736f6c63430008090033",
  "linkReferences": {},
  "deployedLinkReferences": {}
}