{
  "_format": "hh-sol-artifact-1",
  "contractName": "DaoPermissions",
  "sourceName": "contracts/Dao/DaoPermissions.sol",
  "abi": [
    {
      "inputs": [
        {
          "internalType": "address payable",
          "name": "_UNIVERSAL_PROFILE",
          "type": "address"
        },
        {
          "internalType": "address",
          "name": "_KEY_MANAGER",
          "type": "address"
        }
      ],
      "stateMutability": "nonpayable",
      "type": "constructor"
    },
    {
      "inputs": [
        {
          "internalType": "string",
          "name": "contractName",
          "type": "string"
        },
        {
          "internalType": "bytes1",
          "name": "errorNumber",
          "type": "bytes1"
        }
      ],
      "name": "IndexedError",
      "type": "error"
    },
    {
      "inputs": [
        {
          "internalType": "address",
          "name": "from",
          "type": "address"
        },
        {
          "internalType": "string",
          "name": "permission",
          "type": "string"
        }
      ],
      "name": "NotAuthorised",
      "type": "error"
    },
    {
      "inputs": [
        {
          "internalType": "address",
          "name": "_to",
          "type": "address"
        },
        {
          "internalType": "bytes32",
          "name": "_permissions",
          "type": "bytes32"
        }
      ],
      "name": "addPermissions",
      "outputs": [],
      "stateMutability": "nonpayable",
      "type": "function"
    },
    {
      "inputs": [
        {
          "internalType": "address",
          "name": "_from",
          "type": "address"
        },
        {
          "internalType": "bytes32",
          "name": "_permissions",
          "type": "bytes32"
        },
        {
          "internalType": "bytes",
          "name": "_signature",
          "type": "bytes"
        }
      ],
      "name": "claimPermission",
      "outputs": [],
      "stateMutability": "nonpayable",
      "type": "function"
    },
    {
      "inputs": [
        {
          "internalType": "address",
          "name": "_from",
          "type": "address"
        },
        {
          "internalType": "address",
          "name": "_to",
          "type": "address"
        },
        {
          "internalType": "bytes32",
          "name": "_permissions",
          "type": "bytes32"
        }
      ],
      "name": "getNewPermissionHash",
      "outputs": [
        {
          "internalType": "bytes32",
          "name": "_hash",
          "type": "bytes32"
        }
      ],
      "stateMutability": "view",
      "type": "function"
    },
    {
      "inputs": [
        {
          "internalType": "address",
          "name": "_to",
          "type": "address"
        },
        {
          "internalType": "bytes32",
          "name": "_permissions",
          "type": "bytes32"
        }
      ],
      "name": "removePermissions",
      "outputs": [],
      "stateMutability": "nonpayable",
      "type": "function"
    }
  ],
  "bytecode": "0x60806040523480156200001157600080fd5b5060405162002b5038038062002b50833981810160405281019062000037919062000170565b81600160006101000a81548173ffffffffffffffffffffffffffffffffffffffff021916908373ffffffffffffffffffffffffffffffffffffffff16021790555080600260006101000a81548173ffffffffffffffffffffffffffffffffffffffff021916908373ffffffffffffffffffffffffffffffffffffffff1602179055505050620001b7565b600080fd5b600073ffffffffffffffffffffffffffffffffffffffff82169050919050565b6000620000f382620000c6565b9050919050565b6200010581620000e6565b81146200011157600080fd5b50565b6000815190506200012581620000fa565b92915050565b60006200013882620000c6565b9050919050565b6200014a816200012b565b81146200015657600080fd5b50565b6000815190506200016a816200013f565b92915050565b600080604083850312156200018a5762000189620000c1565b5b60006200019a8582860162000114565b9250506020620001ad8582860162000159565b9150509250929050565b61298980620001c76000396000f3fe608060405234801561001057600080fd5b506004361061004c5760003560e01c8063245eead61461005157806336c1644e1461006d57806367fb22141461009d57806380a22541146100b9575b600080fd5b61006b60048036038101906100669190611a1a565b6100d5565b005b61008760048036038101906100829190611a5a565b610127565b6040516100949190611abc565b60405180910390f35b6100b760048036038101906100b29190611a1a565b61019f565b005b6100d360048036038101906100ce9190611c1d565b6101f1565b005b61011933604060001b6040518060400160405280601181526020017f52454d4f56455f5045524d495353494f4e000000000000000000000000000000815250610346565b61012382826103a5565b5050565b6000308484846000808873ffffffffffffffffffffffffffffffffffffffff1673ffffffffffffffffffffffffffffffffffffffff16815260200190815260200160002054604051602001610180959493929190611cb4565b6040516020818303038152906040528051906020012090509392505050565b6101e333602060001b6040518060400160405280600e81526020017f4144445f5045524d495353494f4e000000000000000000000000000000000000815250610346565b6101ed8282610699565b5050565b61023583602060001b6040518060400160405280600e81526020017f4144445f5045524d495353494f4e000000000000000000000000000000000000815250610346565b600061024a610245853386610127565b610974565b9050600061026183836109a490919063ffffffff16565b90508073ffffffffffffffffffffffffffffffffffffffff168573ffffffffffffffffffffffffffffffffffffffff16146102d45760016040517f7d29e6e10000000000000000000000000000000000000000000000000000000081526004016102cb9190611dd8565b60405180910390fd5b6102de3385610699565b6071426102eb9190611e64565b6000803373ffffffffffffffffffffffffffffffffffffffff1673ffffffffffffffffffffffffffffffffffffffff16815260200190815260200160002060008282546103389190611e95565b925050819055505050505050565b6000610351846109cb565b90506000801b838216141561039f5783826040517f3bdad6e6000000000000000000000000000000000000000000000000000000008152600401610396929190611f62565b60405180910390fd5b50505050565b60006103b0836109cb565b905060005b6008811015610417576000801b816001901b60001b8316141580156103e657506000801b816001901b60001b841614155b1561040457806001901b8260001c6103fe9190611f92565b60001b91505b808061040f90611fc6565b9150506103b5565b5060008160405160200161042b9190612030565b60405160208183030381529060405290506000801b82141561051457610500600160009054906101000a900473ffffffffffffffffffffffffffffffffffffffff16600260009054906101000a900473ffffffffffffffffffffffffffffffffffffffff167ff7f9c7410dd493d79ebdaee15bbc77fd163bd488f54107d1be6ed34b1e09900460001b6ff7f9c7410dd493d79ebdaee15bbc77fd60801b6bf7f9c7410dd493d79ebd000060a01b8960601b6040516020016104ec9190612098565b604051602081830303815290604052610ac9565b506040518060200160405280600081525090505b600260009054906101000a900473ffffffffffffffffffffffffffffffffffffffff1673ffffffffffffffffffffffffffffffffffffffff166309c5eabe7f7f23690cc80a596acdae0a51503f8066ffd79ab76fd5c929578309d2e2883b776b4b80742de2bfb3cc0e49000060a01b8760601b604051602001610598929190612100565b6040516020818303038152906040526105b090612169565b846040516024016105c292919061221a565b604051602081830303815290604052907bffffffffffffffffffffffffffffffffffffffffffffffffffffffff19166020820180517bffffffffffffffffffffffffffffffffffffffffffffffffffffffff83818316178352505050506040518263ffffffff1660e01b815260040161063b919061224a565b600060405180830381600087803b15801561065557600080fd5b505af1158015610669573d6000803e3d6000fd5b505050506040513d6000823e3d601f19601f8201168201806040525081019061069291906122dc565b5050505050565b60006106a4836109cb565b90506000801b81141561076c5761076a600160009054906101000a900473ffffffffffffffffffffffffffffffffffffffff16600260009054906101000a900473ffffffffffffffffffffffffffffffffffffffff167ff7f9c7410dd493d79ebdaee15bbc77fd163bd488f54107d1be6ed34b1e09900460001b6ff7f9c7410dd493d79ebdaee15bbc77fd60801b6bf7f9c7410dd493d79ebd000060a01b8860601b6040516020016107569190612098565b60405160208183030381529060405261109b565b505b60005b60088110156107d0576000801b816001901b60001b831614801561079f57506000801b816001901b60001b841614155b156107bd57806001901b8260001c6107b79190611e95565b60001b91505b80806107c890611fc6565b91505061076f565b50600260009054906101000a900473ffffffffffffffffffffffffffffffffffffffff1673ffffffffffffffffffffffffffffffffffffffff166309c5eabe7f7f23690cc80a596acdae0a51503f8066ffd79ab76fd5c929578309d2e2883b776b4b80742de2bfb3cc0e49000060a01b8660601b604051602001610855929190612100565b60405160208183030381529060405261086d90612169565b8460405160200161087e9190612030565b60405160208183030381529060405260405160240161089e92919061221a565b604051602081830303815290604052907bffffffffffffffffffffffffffffffffffffffffffffffffffffffff19166020820180517bffffffffffffffffffffffffffffffffffffffffffffffffffffffff83818316178352505050506040518263ffffffff1660e01b8152600401610917919061224a565b600060405180830381600087803b15801561093157600080fd5b505af1158015610945573d6000803e3d6000fd5b505050506040513d6000823e3d601f19601f8201168201806040525081019061096e91906122dc565b50505050565b600081604051602001610987919061237c565b604051602081830303815290604052805190602001209050919050565b60008060006109b385856114b2565b915091506109c081611535565b819250505092915050565b6000600160009054906101000a900473ffffffffffffffffffffffffffffffffffffffff1673ffffffffffffffffffffffffffffffffffffffff166354f6127f6b4b80742de2bfb3cc0e49000060a01b8460601b604051602001610a30929190612100565b604051602081830303815290604052610a4890612169565b6040518263ffffffff1660e01b8152600401610a649190611abc565b60006040518083038186803b158015610a7c57600080fd5b505afa158015610a90573d6000803e3d6000fd5b505050506040513d6000823e3d601f19601f82011682018060405250810190610ab991906122dc565b610ac290612169565b9050919050565b6000808773ffffffffffffffffffffffffffffffffffffffff166354f6127f876040518263ffffffff1660e01b8152600401610b059190611abc565b60006040518083038186803b158015610b1d57600080fd5b505afa158015610b31573d6000803e3d6000fd5b505050506040513d6000823e3d601f19601f82011682018060405250810190610b5a91906122dc565b610b6390612169565b60001c90506000600182610b779190611f92565b9050600080610b878b888861170a565b9150915081610b9d576000945050505050611091565b60008b73ffffffffffffffffffffffffffffffffffffffff166354f6127f8a8660801b604051602001610bd19291906123ef565b604051602081830303815290604052610be990612169565b6040518263ffffffff1660e01b8152600401610c059190611abc565b60006040518083038186803b158015610c1d57600080fd5b505afa158015610c31573d6000803e3d6000fd5b505050506040513d6000823e3d601f19601f82011682018060405250810190610c5a91906122dc565b90506000600567ffffffffffffffff811115610c7957610c78611af2565b5b604051908082528060200260200182016040528015610ca75781602001602082028036833780820191505090505b5090506000600567ffffffffffffffff811115610cc757610cc6611af2565b5b604051908082528060200260200182016040528015610cfa57816020015b6060815260200190600190039081610ce55790505b5090508b82600081518110610d1257610d1161241b565b5b6020026020010181815250508560001b604051602001610d329190612030565b60405160208183030381529060405281600081518110610d5557610d5461241b565b5b60200260200101819052508a8460801b604051602001610d769291906123ef565b604051602081830303815290604052610d8e90612169565b82600181518110610da257610da161241b565b5b6020026020010181815250508281600181518110610dc357610dc261241b565b5b60200260200101819052508a8660801b604051602001610de49291906123ef565b604051602081830303815290604052610dfc90612169565b82600281518110610e1057610e0f61241b565b5b6020026020010181815250506040518060200160405280600081525081600281518110610e4057610e3f61241b565b5b60200260200101819052508983610e569061245f565b604051602001610e67929190612100565b604051602081830303815290604052610e7f90612169565b82600381518110610e9357610e9261241b565b5b6020026020010181815250508360001b604051602001610eb39190612030565b60405160208183030381529060405281600381518110610ed657610ed561241b565b5b60200260200101819052508989610eec9061245f565b604051602001610efd929190612100565b604051602081830303815290604052610f1590612169565b82600481518110610f2957610f2861241b565b5b6020026020010181815250506040518060200160405280600081525081600481518110610f5957610f5861241b565b5b60200260200101819052508c73ffffffffffffffffffffffffffffffffffffffff166309c5eabe7f14a6e2931875c22579e483160c8d2832a3fb3acbd575a49f6a0f7fc5e135f7898484604051602401610fb4929190612690565b604051602081830303815290604052907bffffffffffffffffffffffffffffffffffffffffffffffffffffffff19166020820180517bffffffffffffffffffffffffffffffffffffffffffffffffffffffff83818316178352505050506040518263ffffffff1660e01b815260040161102d919061224a565b600060405180830381600087803b15801561104757600080fd5b505af115801561105b573d6000803e3d6000fd5b505050506040513d6000823e3d601f19601f8201168201806040525081019061108491906122dc565b5060019750505050505050505b9695505050505050565b6000808773ffffffffffffffffffffffffffffffffffffffff166354f6127f876040518263ffffffff1660e01b81526004016110d79190611abc565b60006040518083038186803b1580156110ef57600080fd5b505afa158015611103573d6000803e3d6000fd5b505050506040513d6000823e3d601f19601f8201168201806040525081019061112c91906122dc565b61113590612169565b60001c905060006001826111499190611e95565b90506000806111598b888861170a565b915091506000905081156111745760009450505050506114a8565b6000600367ffffffffffffffff81111561119157611190611af2565b5b6040519080825280602002602001820160405280156111bf5781602001602082028036833780820191505090505b5090506000600367ffffffffffffffff8111156111df576111de611af2565b5b60405190808252806020026020018201604052801561121257816020015b60608152602001906001900390816111fd5790505b5090508a8260008151811061122a5761122961241b565b5b6020026020010181815250508460001b60405160200161124a9190612030565b6040516020818303038152906040528160008151811061126d5761126c61241b565b5b6020026020010181905250898660801b60405160200161128e9291906123ef565b6040516020818303038152906040526112a690612169565b826001815181106112ba576112b961241b565b5b60200260200101818152505087816001815181106112db576112da61241b565b5b602002602001018190525088886112f19061245f565b604051602001611302929190612100565b60405160208183030381529060405261131a90612169565b8260028151811061132e5761132d61241b565b5b6020026020010181815250508560001b60405160200161134e9190612030565b604051602081830303815290604052816002815181106113715761137061241b565b5b60200260200101819052508b73ffffffffffffffffffffffffffffffffffffffff166309c5eabe7f14a6e2931875c22579e483160c8d2832a3fb3acbd575a49f6a0f7fc5e135f78984846040516024016113cc929190612690565b604051602081830303815290604052907bffffffffffffffffffffffffffffffffffffffffffffffffffffffff19166020820180517bffffffffffffffffffffffffffffffffffffffffffffffffffffffff83818316178352505050506040518263ffffffff1660e01b8152600401611445919061224a565b600060405180830381600087803b15801561145f57600080fd5b505af1158015611473573d6000803e3d6000fd5b505050506040513d6000823e3d601f19601f8201168201806040525081019061149c91906122dc565b50600196505050505050505b9695505050505050565b6000806041835114156114f45760008060006020860151925060408601519150606086015160001a90506114e887828585611806565b9450945050505061152e565b60408351141561152557600080602085015191506040850151905061151a868383611913565b93509350505061152e565b60006002915091505b9250929050565b60006004811115611549576115486126c7565b5b81600481111561155c5761155b6126c7565b5b141561156757611707565b6001600481111561157b5761157a6126c7565b5b81600481111561158e5761158d6126c7565b5b14156115cf576040517f08c379a00000000000000000000000000000000000000000000000000000000081526004016115c690612742565b60405180910390fd5b600260048111156115e3576115e26126c7565b5b8160048111156115f6576115f56126c7565b5b1415611637576040517f08c379a000000000000000000000000000000000000000000000000000000000815260040161162e906127ae565b60405180910390fd5b6003600481111561164b5761164a6126c7565b5b81600481111561165e5761165d6126c7565b5b141561169f576040517f08c379a000000000000000000000000000000000000000000000000000000000815260040161169690612840565b60405180910390fd5b6004808111156116b2576116b16126c7565b5b8160048111156116c5576116c46126c7565b5b1415611706576040517f08c379a00000000000000000000000000000000000000000000000000000000081526004016116fd906128d2565b60405180910390fd5b5b50565b60008060008573ffffffffffffffffffffffffffffffffffffffff166354f6127f86866117369061245f565b604051602001611747929190612100565b60405160208183030381529060405261175f90612169565b6040518263ffffffff1660e01b815260040161177b9190611abc565b60006040518083038186803b15801561179357600080fd5b505afa1580156117a7573d6000803e3d6000fd5b505050506040513d6000823e3d601f19601f820116820180604052508101906117d091906122dc565b90506000815114156117e95760008092509250506117fe565b6001816117f590612169565b60001c92509250505b935093915050565b6000807f7fffffffffffffffffffffffffffffff5d576e7357a4501ddfe92f46681b20a08360001c111561184157600060039150915061190a565b601b8560ff16141580156118595750601c8560ff1614155b1561186b57600060049150915061190a565b600060018787878760405160008152602001604052604051611890949392919061290e565b6020604051602081039080840390855afa1580156118b2573d6000803e3d6000fd5b505050602060405103519050600073ffffffffffffffffffffffffffffffffffffffff168173ffffffffffffffffffffffffffffffffffffffff1614156119015760006001925092505061190a565b80600092509250505b94509492505050565b60008060007f7fffffffffffffffffffffffffffffffffffffffffffffffffffffffffffffff60001b841690506000601b60ff8660001c901c6119569190611e95565b905061196487828885611806565b935093505050935093915050565b6000604051905090565b600080fd5b600080fd5b600073ffffffffffffffffffffffffffffffffffffffff82169050919050565b60006119b182611986565b9050919050565b6119c1816119a6565b81146119cc57600080fd5b50565b6000813590506119de816119b8565b92915050565b6000819050919050565b6119f7816119e4565b8114611a0257600080fd5b50565b600081359050611a14816119ee565b92915050565b60008060408385031215611a3157611a3061197c565b5b6000611a3f858286016119cf565b9250506020611a5085828601611a05565b9150509250929050565b600080600060608486031215611a7357611a7261197c565b5b6000611a81868287016119cf565b9350506020611a92868287016119cf565b9250506040611aa386828701611a05565b9150509250925092565b611ab6816119e4565b82525050565b6000602082019050611ad16000830184611aad565b92915050565b600080fd5b600080fd5b6000601f19601f8301169050919050565b7f4e487b7100000000000000000000000000000000000000000000000000000000600052604160045260246000fd5b611b2a82611ae1565b810181811067ffffffffffffffff82111715611b4957611b48611af2565b5b80604052505050565b6000611b5c611972565b9050611b688282611b21565b919050565b600067ffffffffffffffff821115611b8857611b87611af2565b5b611b9182611ae1565b9050602081019050919050565b82818337600083830152505050565b6000611bc0611bbb84611b6d565b611b52565b905082815260208101848484011115611bdc57611bdb611adc565b5b611be7848285611b9e565b509392505050565b600082601f830112611c0457611c03611ad7565b5b8135611c14848260208601611bad565b91505092915050565b600080600060608486031215611c3657611c3561197c565b5b6000611c44868287016119cf565b9350506020611c5586828701611a05565b925050604084013567ffffffffffffffff811115611c7657611c75611981565b5b611c8286828701611bef565b9150509250925092565b611c95816119a6565b82525050565b6000819050919050565b611cae81611c9b565b82525050565b600060a082019050611cc96000830188611c8c565b611cd66020830187611c8c565b611ce36040830186611c8c565b611cf06060830185611aad565b611cfd6080830184611ca5565b9695505050505050565b600082825260208201905092915050565b7f44616f5065726d697373696f6e73000000000000000000000000000000000000600082015250565b6000611d4e600e83611d07565b9150611d5982611d18565b602082019050919050565b6000819050919050565b60007fff0000000000000000000000000000000000000000000000000000000000000082169050919050565b60008160f81b9050919050565b6000611dc2611dbd611db884611d64565b611d9a565b611d6e565b9050919050565b611dd281611da7565b82525050565b60006040820190508181036000830152611df181611d41565b9050611e006020830184611dc9565b92915050565b7f4e487b7100000000000000000000000000000000000000000000000000000000600052601260045260246000fd5b7f4e487b7100000000000000000000000000000000000000000000000000000000600052601160045260246000fd5b6000611e6f82611c9b565b9150611e7a83611c9b565b925082611e8a57611e89611e06565b5b828204905092915050565b6000611ea082611c9b565b9150611eab83611c9b565b9250827fffffffffffffffffffffffffffffffffffffffffffffffffffffffffffffffff03821115611ee057611edf611e35565b5b828201905092915050565b600081519050919050565b60005b83811015611f14578082015181840152602081019050611ef9565b83811115611f23576000848401525b50505050565b6000611f3482611eeb565b611f3e8185611d07565b9350611f4e818560208601611ef6565b611f5781611ae1565b840191505092915050565b6000604082019050611f776000830185611c8c565b8181036020830152611f898184611f29565b90509392505050565b6000611f9d82611c9b565b9150611fa883611c9b565b925082821015611fbb57611fba611e35565b5b828203905092915050565b6000611fd182611c9b565b91507fffffffffffffffffffffffffffffffffffffffffffffffffffffffffffffffff82141561200457612003611e35565b5b600182019050919050565b6000819050919050565b61202a612025826119e4565b61200f565b82525050565b600061203c8284612019565b60208201915081905092915050565b60007fffffffffffffffffffffffffffffffffffffffff00000000000000000000000082169050919050565b6000819050919050565b61209261208d8261204b565b612077565b82525050565b60006120a48284612081565b60148201915081905092915050565b60007fffffffffffffffffffffffff000000000000000000000000000000000000000082169050919050565b6000819050919050565b6120fa6120f5826120b3565b6120df565b82525050565b600061210c82856120e9565b600c8201915061211c8284612081565b6014820191508190509392505050565b600081519050919050565b6000819050602082019050919050565b600061215382516119e4565b80915050919050565b600082821b905092915050565b60006121748261212c565b8261217e84612137565b905061218981612147565b925060208210156121c9576121c47fffffffffffffffffffffffffffffffffffffffffffffffffffffffffffffffff8360200360080261215c565b831692505b5050919050565b600082825260208201905092915050565b60006121ec8261212c565b6121f681856121d0565b9350612206818560208601611ef6565b61220f81611ae1565b840191505092915050565b600060408201905061222f6000830185611aad565b818103602083015261224181846121e1565b90509392505050565b6000602082019050818103600083015261226481846121e1565b905092915050565b600061227f61227a84611b6d565b611b52565b90508281526020810184848401111561229b5761229a611adc565b5b6122a6848285611ef6565b509392505050565b600082601f8301126122c3576122c2611ad7565b5b81516122d384826020860161226c565b91505092915050565b6000602082840312156122f2576122f161197c565b5b600082015167ffffffffffffffff8111156123105761230f611981565b5b61231c848285016122ae565b91505092915050565b600081905092915050565b7f19457468657265756d205369676e6564204d6573736167653a0a333200000000600082015250565b6000612366601c83612325565b915061237182612330565b601c82019050919050565b600061238782612359565b91506123938284612019565b60208201915081905092915050565b60007fffffffffffffffffffffffffffffffff0000000000000000000000000000000082169050919050565b6000819050919050565b6123e96123e4826123a2565b6123ce565b82525050565b60006123fb82856123d8565b60108201915061240b82846123d8565b6010820191508190509392505050565b7f4e487b7100000000000000000000000000000000000000000000000000000000600052603260045260246000fd5b6000612456825161204b565b80915050919050565b600061246a8261212c565b8261247484612137565b905061247f8161244a565b925060148210156124bf576124ba7fffffffffffffffffffffffffffffffffffffffff0000000000000000000000008360140360080261215c565b831692505b5050919050565b600081519050919050565b600082825260208201905092915050565b6000819050602082019050919050565b6124fb816119e4565b82525050565b600061250d83836124f2565b60208301905092915050565b6000602082019050919050565b6000612531826124c6565b61253b81856124d1565b9350612546836124e2565b8060005b8381101561257757815161255e8882612501565b975061256983612519565b92505060018101905061254a565b5085935050505092915050565b600081519050919050565b600082825260208201905092915050565b6000819050602082019050919050565b600082825260208201905092915050565b60006125cc8261212c565b6125d681856125b0565b93506125e6818560208601611ef6565b6125ef81611ae1565b840191505092915050565b600061260683836125c1565b905092915050565b6000602082019050919050565b600061262682612584565b612630818561258f565b935083602082028501612642856125a0565b8060005b8581101561267e578484038952815161265f85826125fa565b945061266a8361260e565b925060208a01995050600181019050612646565b50829750879550505050505092915050565b600060408201905081810360008301526126aa8185612526565b905081810360208301526126be818461261b565b90509392505050565b7f4e487b7100000000000000000000000000000000000000000000000000000000600052602160045260246000fd5b7f45434453413a20696e76616c6964207369676e61747572650000000000000000600082015250565b600061272c601883611d07565b9150612737826126f6565b602082019050919050565b6000602082019050818103600083015261275b8161271f565b9050919050565b7f45434453413a20696e76616c6964207369676e6174757265206c656e67746800600082015250565b6000612798601f83611d07565b91506127a382612762565b602082019050919050565b600060208201905081810360008301526127c78161278b565b9050919050565b7f45434453413a20696e76616c6964207369676e6174757265202773272076616c60008201527f7565000000000000000000000000000000000000000000000000000000000000602082015250565b600061282a602283611d07565b9150612835826127ce565b604082019050919050565b600060208201905081810360008301526128598161281d565b9050919050565b7f45434453413a20696e76616c6964207369676e6174757265202776272076616c60008201527f7565000000000000000000000000000000000000000000000000000000000000602082015250565b60006128bc602283611d07565b91506128c782612860565b604082019050919050565b600060208201905081810360008301526128eb816128af565b9050919050565b600060ff82169050919050565b612908816128f2565b82525050565b60006080820190506129236000830187611aad565b61293060208301866128ff565b61293d6040830185611aad565b61294a6060830184611aad565b9594505050505056fea264697066735822122013730503156085339e86aee1714cd47a4bcc642368ed6099a10c2bb25c97783464736f6c63430008090033",
  "linkReferences": {},
  "deployedLinkReferences": {}
}