{
  "_format": "hh-sol-artifact-1",
  "contractName": "DaoPermissions",
  "sourceName": "contracts/Dao/DaoPermissions.sol",
  "abi": [
    {
      "inputs": [
        {
          "internalType": "address payable",
          "name": "_UNIVERSAL_PROFILE",
          "type": "address"
        },
        {
          "internalType": "address",
          "name": "_KEY_MANAGER",
          "type": "address"
        }
      ],
      "stateMutability": "nonpayable",
      "type": "constructor"
    },
    {
      "inputs": [
        {
          "internalType": "string",
          "name": "contractName",
          "type": "string"
        },
        {
          "internalType": "bytes1",
          "name": "errorNumber",
          "type": "bytes1"
        }
      ],
      "name": "IndexedError",
      "type": "error"
    },
    {
      "inputs": [
        {
          "internalType": "address",
          "name": "from",
          "type": "address"
        },
        {
          "internalType": "string",
          "name": "permission",
          "type": "string"
        }
      ],
      "name": "NotAuthorised",
      "type": "error"
    },
    {
      "inputs": [
        {
          "internalType": "address",
          "name": "_to",
          "type": "address"
        },
        {
          "internalType": "bytes32",
          "name": "_permissions",
          "type": "bytes32"
        }
      ],
      "name": "addPermissions",
      "outputs": [],
      "stateMutability": "nonpayable",
      "type": "function"
    },
    {
      "inputs": [
        {
          "internalType": "address",
          "name": "_from",
          "type": "address"
        },
        {
          "internalType": "bytes32",
          "name": "_permissions",
          "type": "bytes32"
        },
        {
          "internalType": "bytes",
          "name": "_signature",
          "type": "bytes"
        }
      ],
      "name": "claimPermission",
      "outputs": [],
      "stateMutability": "nonpayable",
      "type": "function"
    },
    {
      "inputs": [
        {
          "internalType": "address",
          "name": "_from",
          "type": "address"
        },
        {
          "internalType": "address",
          "name": "_to",
          "type": "address"
        },
        {
          "internalType": "bytes32",
          "name": "_permissions",
          "type": "bytes32"
        }
      ],
      "name": "getNewPermissionHash",
      "outputs": [
        {
          "internalType": "bytes32",
          "name": "_hash",
          "type": "bytes32"
        }
      ],
      "stateMutability": "view",
      "type": "function"
    },
    {
      "inputs": [
        {
          "internalType": "address",
          "name": "_to",
          "type": "address"
        },
        {
          "internalType": "bytes32",
          "name": "_permissions",
          "type": "bytes32"
        }
      ],
      "name": "removePermissions",
      "outputs": [],
      "stateMutability": "nonpayable",
      "type": "function"
    }
  ],
  "bytecode": "0x60806040523480156200001157600080fd5b5060405162001ce638038062001ce683398101604081905262000034916200007f565b600180546001600160a01b039384166001600160a01b03199182161790915560028054929093169116179055620000be565b6001600160a01b03811681146200007c57600080fd5b50565b600080604083850312156200009357600080fd5b8251620000a08162000066565b6020840151909250620000b38162000066565b809150509250929050565b611c1880620000ce6000396000f3fe608060405234801561001057600080fd5b506004361061004c5760003560e01c8063245eead61461005157806336c1644e1461006657806367fb2214146100e357806380a22541146100f6575b600080fd5b61006461005f3660046117b9565b610109565b005b6100d16100743660046117e3565b6001600160a01b0391821660008181526020818152604091829020548251308184015296909516868301526060860192909252608085019290925260a0808501939093528151808503909301835260c09093019052805191012090565b60405190815260200160405180910390f35b6100646100f13660046117b9565b610155565b61006461010436600461188e565b6101a3565b604080518082018252601181527f52454d4f56455f5045524d495353494f4e0000000000000000000000000000006020820152610147913391610379565b61015182826103c9565b5050565b61019933602060001b6040518060400160405280600e81526020017f4144445f5045524d495353494f4e000000000000000000000000000000000000815250610379565b610151828261067b565b6101e783602060001b6040518060400160405280600e81526020017f4144445f5045524d495353494f4e000000000000000000000000000000000000815250610379565b3360008181526020818152604080832054815130818501526001600160a01b0389168184015260608101959095526080850187905260a0808601919091528151808603909101815260c0850182528051908301207f19457468657265756d205369676e6564204d6573736167653a0a33320000000060e086015260fc808601919091528151808603909101815261011c909401905282519201919091209061028f828461090c565b9050806001600160a01b0316856001600160a01b03161461033957604080517f7d29e6e10000000000000000000000000000000000000000000000000000000081526004810191909152600e60448201527f44616f5065726d697373696f6e7300000000000000000000000000000000000060648201527f010000000000000000000000000000000000000000000000000000000000000060248201526084015b60405180910390fd5b610343338561067b565b61034e60714261193e565b336000908152602081905260408120805490919061036d908490611960565b90915550505050505050565b600061038484610930565b90508281166103c35783826040517f3bdad6e60000000000000000000000000000000000000000000000000000000081526004016103309291906119d0565b50505050565b60005b602081108015610414575060008282602081106103eb576103eb6119fa565b1a60f81b7effffffffffffffffffffffffffffffffffffffffffffffffffffffffffffff191614155b15610421576001016103cc565b600061042c84610930565b905060005b61043c836020611a10565b811015610478576001811b82161580159061045b57506001811b841615155b156104705761046d6001821b83611a10565b91505b600101610431565b5060008160405160200161048e91815260200190565b60408051601f19818403018152919052905081610555576001546002546040516bffffffffffffffffffffffff19606089901b166020820152610543926001600160a01b039081169216907ff7f9c7410dd493d79ebdaee15bbc77fd163bd488f54107d1be6ed34b1e099004907ff7f9c7410dd493d79ebdaee15bbc77fd000000000000000000000000000000009069f7f9c7410dd493d79ebd60b01b90603401604051602081830303815290604052610a01565b50506040805160208101909152600081525b60025460408051694b80742de2bfb3cc0e4960b01b60208201526bffffffffffffffffffffffff19606089901b16602c8201526001600160a01b03909216916309c5eabe917f7f23690cc80a596acdae0a51503f8066ffd79ab76fd5c929578309d2e2883b7791016040516020818303038152906040526105d590611a27565b846040516024016105e7929190611a4e565b60408051601f198184030181529181526020820180516001600160e01b03166001600160e01b03199485161790525160e084901b909216825261062c91600401611a67565b6000604051808303816000875af115801561064b573d6000803e3d6000fd5b505050506040513d6000823e601f3d908101601f191682016040526106739190810190611a81565b505050505050565b60005b6020811080156106c65750600082826020811061069d5761069d6119fa565b1a60f81b7effffffffffffffffffffffffffffffffffffffffffffffffffffffffffffff191614155b156106d35760010161067e565b60006106de84610930565b905080610785576001546002546040516bffffffffffffffffffffffff19606088901b166020820152610783926001600160a01b039081169216907ff7f9c7410dd493d79ebdaee15bbc77fd163bd488f54107d1be6ed34b1e099004907ff7f9c7410dd493d79ebdaee15bbc77fd000000000000000000000000000000009069f7f9c7410dd493d79ebd60b01b90603401604051602081830303815290604052610f96565b505b60005b610793836020611a10565b8110156107ce576001811b82161580156107b157506001811b841615155b156107c6576107c36001821b83611960565b91505b600101610788565b5060025460408051694b80742de2bfb3cc0e4960b01b60208201526bffffffffffffffffffffffff19606088901b16602c8201526001600160a01b03909216916309c5eabe917f7f23690cc80a596acdae0a51503f8066ffd79ab76fd5c929578309d2e2883b77910160405160208183030381529060405261084f90611a27565b60408051602081018790520160408051601f19818403018152908290526108799291602401611a4e565b60408051601f198184030181529181526020820180516001600160e01b03166001600160e01b03199485161790525160e084901b90921682526108be91600401611a67565b6000604051808303816000875af11580156108dd573d6000803e3d6000fd5b505050506040513d6000823e601f3d908101601f191682016040526109059190810190611a81565b5050505050565b600080600061091b858561132c565b915091506109288161139c565b509392505050565b60015460408051694b80742de2bfb3cc0e4960b01b60208201526bffffffffffffffffffffffff19606085901b16602c8201526000926001600160a01b0316916354f6127f910160405160208183030381529060405261098f90611a27565b6040518263ffffffff1660e01b81526004016109ad91815260200190565b600060405180830381865afa1580156109ca573d6000803e3d6000fd5b505050506040513d6000823e601f3d908101601f191682016040526109f29190810190611a81565b6109fb90611a27565b92915050565b6040516354f6127f60e01b81526004810185905260009081906001600160a01b038916906354f6127f90602401600060405180830381865afa158015610a4b573d6000803e3d6000fd5b505050506040513d6000823e601f3d908101601f19168201604052610a739190810190611a81565b610a7c90611a27565b90506000610a8b600183611a10565b9050600080610a9b8b888861155a565b9150915081610ab1576000945050505050610f8c565b604080516fffffffffffffffffffffffffffffffff19808b166020830152608086901b1660308201526000916001600160a01b038e16916354f6127f9101604051602081830303815290604052610b0790611a27565b6040518263ffffffff1660e01b8152600401610b2591815260200190565b600060405180830381865afa158015610b42573d6000803e3d6000fd5b505050506040513d6000823e601f3d908101601f19168201604052610b6a9190810190611a81565b60408051600580825260c08201909252919250600091906020820160a080368337505060408051600580825260c082019092529293506000929150602082015b6060815260200190600190039081610baa5790505090508b82600081518110610bd557610bd56119fa565b6020026020010181815250508560001b604051602001610bf791815260200190565b60405160208183030381529060405281600081518110610c1957610c196119fa565b60200260200101819052508a8460801b604051602001610c599291906fffffffffffffffffffffffffffffffff1992831681529116601082015260200190565b604051602081830303815290604052610c7190611a27565b82600181518110610c8457610c846119fa565b6020026020010181815250508281600181518110610ca457610ca46119fa565b60200260200101819052508a8660801b604051602001610ce49291906fffffffffffffffffffffffffffffffff1992831681529116601082015260200190565b604051602081830303815290604052610cfc90611a27565b82600281518110610d0f57610d0f6119fa565b6020026020010181815250506040518060200160405280600081525081600281518110610d3e57610d3e6119fa565b60200260200101819052508983610d5490611af8565b6040805173ffffffffffffffffffffffffffffffffffffffff1990931660208401526bffffffffffffffffffffffff19909116602c83015201604051602081830303815290604052610da590611a27565b82600381518110610db857610db86119fa565b6020026020010181815250508360001b604051602001610dda91815260200190565b60405160208183030381529060405281600381518110610dfc57610dfc6119fa565b60200260200101819052508989610e1290611af8565b6040805173ffffffffffffffffffffffffffffffffffffffff1990931660208401526bffffffffffffffffffffffff19909116602c83015201604051602081830303815290604052610e6390611a27565b82600481518110610e7657610e766119fa565b6020026020010181815250506040518060200160405280600081525081600481518110610ea557610ea56119fa565b60200260200101819052508c6001600160a01b03166309c5eabe7f14a6e2931875c22579e483160c8d2832a3fb3acbd575a49f6a0f7fc5e135f7898484604051602401610ef3929190611b34565b60408051601f198184030181529181526020820180516001600160e01b03166001600160e01b03199485161790525160e084901b9092168252610f3891600401611a67565b6000604051808303816000875af1158015610f57573d6000803e3d6000fd5b505050506040513d6000823e601f3d908101601f19168201604052610f7f9190810190611a81565b5060019750505050505050505b9695505050505050565b6040516354f6127f60e01b81526004810185905260009081906001600160a01b038916906354f6127f90602401600060405180830381865afa158015610fe0573d6000803e3d6000fd5b505050506040513d6000823e601f3d908101601f191682016040526110089190810190611a81565b61101190611a27565b90506000611020826001611960565b90506000806110308b888861155a565b50915060009050811561104a576000945050505050610f8c565b60408051600380825260808201909252600091602082016060803683375050604080516003808252608082019092529293506000929150602082015b60608152602001906001900390816110865790505090508a826000815181106110b1576110b16119fa565b6020026020010181815250508460001b6040516020016110d391815260200190565b604051602081830303815290604052816000815181106110f5576110f56119fa565b6020026020010181905250898660801b6040516020016111359291906fffffffffffffffffffffffffffffffff1992831681529116601082015260200190565b60405160208183030381529060405261114d90611a27565b82600181518110611160576111606119fa565b6020026020010181815250508781600181518110611180576111806119fa565b6020026020010181905250888861119690611af8565b6040805173ffffffffffffffffffffffffffffffffffffffff1990931660208401526bffffffffffffffffffffffff19909116602c830152016040516020818303038152906040526111e790611a27565b826002815181106111fa576111fa6119fa565b6020026020010181815250508560001b60405160200161121c91815260200190565b6040516020818303038152906040528160028151811061123e5761123e6119fa565b60200260200101819052508b6001600160a01b03166309c5eabe7f14a6e2931875c22579e483160c8d2832a3fb3acbd575a49f6a0f7fc5e135f789848460405160240161128c929190611b34565b60408051601f198184030181529181526020820180516001600160e01b03166001600160e01b03199485161790525160e084901b90921682526112d191600401611a67565b6000604051808303816000875af11580156112f0573d6000803e3d6000fd5b505050506040513d6000823e601f3d908101601f191682016040526113189190810190611a81565b5060019d9c50505050505050505050505050565b6000808251604114156113635760208301516040840151606085015160001a6113578782858561165e565b94509450505050611395565b82516040141561138d576020830151604084015161138286838361174b565b935093505050611395565b506000905060025b9250929050565b60008160048111156113b0576113b0611bcc565b14156113b95750565b60018160048111156113cd576113cd611bcc565b141561141b5760405162461bcd60e51b815260206004820152601860248201527f45434453413a20696e76616c6964207369676e617475726500000000000000006044820152606401610330565b600281600481111561142f5761142f611bcc565b141561147d5760405162461bcd60e51b815260206004820152601f60248201527f45434453413a20696e76616c6964207369676e6174757265206c656e677468006044820152606401610330565b600381600481111561149157611491611bcc565b14156114ea5760405162461bcd60e51b815260206004820152602260248201527f45434453413a20696e76616c6964207369676e6174757265202773272076616c604482015261756560f01b6064820152608401610330565b60048160048111156114fe576114fe611bcc565b14156115575760405162461bcd60e51b815260206004820152602260248201527f45434453413a20696e76616c6964207369676e6174757265202776272076616c604482015261756560f01b6064820152608401610330565b50565b600080806001600160a01b0386166354f6127f8661157787611af8565b6040805173ffffffffffffffffffffffffffffffffffffffff1990931660208401526bffffffffffffffffffffffff19909116602c830152016040516020818303038152906040526115c890611a27565b6040518263ffffffff1660e01b81526004016115e691815260200190565b600060405180830381865afa158015611603573d6000803e3d6000fd5b505050506040513d6000823e601f3d908101601f1916820160405261162b9190810190611a81565b9050805160001415611644576000809250925050611656565b600161164f82611a27565b9093509150505b935093915050565b6000807f7fffffffffffffffffffffffffffffff5d576e7357a4501ddfe92f46681b20a08311156116955750600090506003611742565b8460ff16601b141580156116ad57508460ff16601c14155b156116be5750600090506004611742565b6040805160008082526020820180845289905260ff881692820192909252606081018690526080810185905260019060a0016020604051602081039080840390855afa158015611712573d6000803e3d6000fd5b5050604051601f1901519150506001600160a01b03811661173b57600060019250925050611742565b9150600090505b94509492505050565b6000807f7fffffffffffffffffffffffffffffffffffffffffffffffffffffffffffffff83168161178160ff86901c601b611960565b905061178f8782888561165e565b935093505050935093915050565b80356001600160a01b03811681146117b457600080fd5b919050565b600080604083850312156117cc57600080fd5b6117d58361179d565b946020939093013593505050565b6000806000606084860312156117f857600080fd5b6118018461179d565b925061180f6020850161179d565b9150604084013590509250925092565b634e487b7160e01b600052604160045260246000fd5b604051601f8201601f1916810167ffffffffffffffff8111828210171561185e5761185e61181f565b604052919050565b600067ffffffffffffffff8211156118805761188061181f565b50601f01601f191660200190565b6000806000606084860312156118a357600080fd5b6118ac8461179d565b925060208401359150604084013567ffffffffffffffff8111156118cf57600080fd5b8401601f810186136118e057600080fd5b80356118f36118ee82611866565b611835565b81815287602083850101111561190857600080fd5b816020840160208301376000602083830101528093505050509250925092565b634e487b7160e01b600052601160045260246000fd5b60008261195b57634e487b7160e01b600052601260045260246000fd5b500490565b6000821982111561197357611973611928565b500190565b60005b8381101561199357818101518382015260200161197b565b838111156103c35750506000910152565b600081518084526119bc816020860160208601611978565b601f01601f19169290920160200192915050565b6001600160a01b03831681526040602082015260006119f260408301846119a4565b949350505050565b634e487b7160e01b600052603260045260246000fd5b600082821015611a2257611a22611928565b500390565b80516020808301519190811015611a48576000198160200360031b1b821691505b50919050565b8281526040602082015260006119f260408301846119a4565b602081526000611a7a60208301846119a4565b9392505050565b600060208284031215611a9357600080fd5b815167ffffffffffffffff811115611aaa57600080fd5b8201601f81018413611abb57600080fd5b8051611ac96118ee82611866565b818152856020838501011115611ade57600080fd5b611aef826020830160208601611978565b95945050505050565b805160208201516bffffffffffffffffffffffff198082169291906014831015611b2c5780818460140360031b1b83161693505b505050919050565b604080825283519082018190526000906020906060840190828701845b82811015611b6d57815184529284019290840190600101611b51565b50505083810382850152845180825282820190600581901b8301840187850160005b83811015611bbd57601f19868403018552611bab8383516119a4565b94870194925090860190600101611b8f565b50909998505050505050505050565b634e487b7160e01b600052602160045260246000fdfea26469706673582212202100e03929bff60f88abdca4bb1d3eb361c5fe0e42f0810202be92dca3e0b53964736f6c634300080a0033",
  "linkReferences": {},
  "deployedLinkReferences": {}
}