{
  "_format": "hh-sol-artifact-1",
  "contractName": "UniversalProfile",
  "sourceName": "contracts/deps/UniversalProfile.sol",
  "abi": [
    {
      "inputs": [
        {
          "internalType": "address",
          "name": "_newOwner",
          "type": "address"
        },
        {
          "internalType": "address",
          "name": "_unviersalReceiverDelegateUPAddress",
          "type": "address"
        }
      ],
      "stateMutability": "nonpayable",
      "type": "constructor"
    },
    {
      "anonymous": false,
      "inputs": [
        {
          "indexed": true,
          "internalType": "uint256",
          "name": "operation",
          "type": "uint256"
        },
        {
          "indexed": true,
          "internalType": "address",
          "name": "contractAddress",
          "type": "address"
        },
        {
          "indexed": true,
          "internalType": "uint256",
          "name": "value",
          "type": "uint256"
        }
      ],
      "name": "ContractCreated",
      "type": "event"
    },
    {
      "anonymous": false,
      "inputs": [
        {
          "indexed": true,
          "internalType": "bytes32",
          "name": "dataKey",
          "type": "bytes32"
        }
      ],
      "name": "DataChanged",
      "type": "event"
    },
    {
      "anonymous": false,
      "inputs": [
        {
          "indexed": true,
          "internalType": "uint256",
          "name": "operation",
          "type": "uint256"
        },
        {
          "indexed": true,
          "internalType": "address",
          "name": "to",
          "type": "address"
        },
        {
          "indexed": true,
          "internalType": "uint256",
          "name": "value",
          "type": "uint256"
        },
        {
          "indexed": false,
          "internalType": "bytes4",
          "name": "selector",
          "type": "bytes4"
        }
      ],
      "name": "Executed",
      "type": "event"
    },
    {
      "anonymous": false,
      "inputs": [
        {
          "indexed": true,
          "internalType": "address",
          "name": "previousOwner",
          "type": "address"
        },
        {
          "indexed": true,
          "internalType": "address",
          "name": "newOwner",
          "type": "address"
        }
      ],
      "name": "OwnershipTransferred",
      "type": "event"
    },
    {
      "anonymous": false,
      "inputs": [
        {
          "indexed": true,
          "internalType": "address",
          "name": "from",
          "type": "address"
        },
        {
          "indexed": false,
          "internalType": "uint256",
          "name": "value",
          "type": "uint256"
        },
        {
          "indexed": true,
          "internalType": "bytes32",
          "name": "typeId",
          "type": "bytes32"
        },
        {
          "indexed": true,
          "internalType": "bytes",
          "name": "returnedValue",
          "type": "bytes"
        },
        {
          "indexed": false,
          "internalType": "bytes",
          "name": "receivedData",
          "type": "bytes"
        }
      ],
      "name": "UniversalReceiver",
      "type": "event"
    },
    {
      "anonymous": false,
      "inputs": [
        {
          "indexed": true,
          "internalType": "address",
          "name": "sender",
          "type": "address"
        },
        {
          "indexed": true,
          "internalType": "uint256",
          "name": "value",
          "type": "uint256"
        }
      ],
      "name": "ValueReceived",
      "type": "event"
    },
    {
      "stateMutability": "payable",
      "type": "fallback"
    },
    {
      "inputs": [],
      "name": "claimOwnership",
      "outputs": [],
      "stateMutability": "nonpayable",
      "type": "function"
    },
    {
      "inputs": [
        {
          "internalType": "uint256",
          "name": "operation",
          "type": "uint256"
        },
        {
          "internalType": "address",
          "name": "to",
          "type": "address"
        },
        {
          "internalType": "uint256",
          "name": "value",
          "type": "uint256"
        },
        {
          "internalType": "bytes",
          "name": "data",
          "type": "bytes"
        }
      ],
      "name": "execute",
      "outputs": [
        {
          "internalType": "bytes",
          "name": "result",
          "type": "bytes"
        }
      ],
      "stateMutability": "payable",
      "type": "function"
    },
    {
      "inputs": [
        {
          "internalType": "bytes32[]",
          "name": "dataKeys",
          "type": "bytes32[]"
        }
      ],
      "name": "getData",
      "outputs": [
        {
          "internalType": "bytes[]",
          "name": "dataValues",
          "type": "bytes[]"
        }
      ],
      "stateMutability": "view",
      "type": "function"
    },
    {
      "inputs": [
        {
          "internalType": "bytes32",
          "name": "dataKey",
          "type": "bytes32"
        }
      ],
      "name": "getData",
      "outputs": [
        {
          "internalType": "bytes",
          "name": "dataValue",
          "type": "bytes"
        }
      ],
      "stateMutability": "view",
      "type": "function"
    },
    {
      "inputs": [],
      "name": "giveOwnerPermissionToChangeOwner",
      "outputs": [],
      "stateMutability": "nonpayable",
      "type": "function"
    },
    {
      "inputs": [
        {
          "internalType": "bytes32",
          "name": "dataHash",
          "type": "bytes32"
        },
        {
          "internalType": "bytes",
          "name": "signature",
          "type": "bytes"
        }
      ],
      "name": "isValidSignature",
      "outputs": [
        {
          "internalType": "bytes4",
          "name": "magicValue",
          "type": "bytes4"
        }
      ],
      "stateMutability": "view",
      "type": "function"
    },
    {
      "inputs": [],
      "name": "owner",
      "outputs": [
        {
          "internalType": "address",
          "name": "",
          "type": "address"
        }
      ],
      "stateMutability": "view",
      "type": "function"
    },
    {
      "inputs": [],
      "name": "pendingOwner",
      "outputs": [
        {
          "internalType": "address",
          "name": "",
          "type": "address"
        }
      ],
      "stateMutability": "view",
      "type": "function"
    },
    {
      "inputs": [],
      "name": "renounceOwnership",
      "outputs": [],
      "stateMutability": "nonpayable",
      "type": "function"
    },
    {
      "inputs": [
        {
          "internalType": "address",
          "name": "_daoPermissions",
          "type": "address"
        },
        {
          "internalType": "address",
          "name": "_daoDelegates",
          "type": "address"
        },
        {
          "internalType": "address",
          "name": "_daoProposals",
          "type": "address"
        }
      ],
      "name": "setControllerPermissionsForDao",
      "outputs": [],
      "stateMutability": "nonpayable",
      "type": "function"
    },
    {
      "inputs": [
        {
          "internalType": "address",
          "name": "_multisigAddress",
          "type": "address"
        }
      ],
      "name": "setControllerPermissionsForMultisig",
      "outputs": [],
      "stateMutability": "nonpayable",
      "type": "function"
    },
    {
      "inputs": [
        {
          "internalType": "bytes",
          "name": "_JSONDaoMetdata",
          "type": "bytes"
        },
        {
          "internalType": "bytes32",
          "name": "_majority",
          "type": "bytes32"
        },
        {
          "internalType": "bytes32",
          "name": "_participationRate",
          "type": "bytes32"
        },
        {
          "internalType": "bytes32",
          "name": "_minimumVotingDelay",
          "type": "bytes32"
        },
        {
          "internalType": "bytes32",
          "name": "_minimumVotingPeriod",
          "type": "bytes32"
        },
        {
          "internalType": "bytes32",
          "name": "_minimumExecutionDelay",
          "type": "bytes32"
        },
        {
          "internalType": "address[]",
          "name": "_daoParticipants",
          "type": "address[]"
        },
        {
          "internalType": "bytes32[]",
          "name": "_daoParticipantsPermissions",
          "type": "bytes32[]"
        }
      ],
      "name": "setDaoData",
      "outputs": [],
      "stateMutability": "nonpayable",
      "type": "function"
    },
    {
      "inputs": [
        {
          "internalType": "bytes32[]",
          "name": "dataKeys",
          "type": "bytes32[]"
        },
        {
          "internalType": "bytes[]",
          "name": "dataValues",
          "type": "bytes[]"
        }
      ],
      "name": "setData",
      "outputs": [],
      "stateMutability": "nonpayable",
      "type": "function"
    },
    {
      "inputs": [
        {
          "internalType": "bytes32",
          "name": "dataKey",
          "type": "bytes32"
        },
        {
          "internalType": "bytes",
          "name": "dataValue",
          "type": "bytes"
        }
      ],
      "name": "setData",
      "outputs": [],
      "stateMutability": "nonpayable",
      "type": "function"
    },
    {
      "inputs": [
        {
          "internalType": "bytes",
          "name": "_JSONMultisigMetdata",
          "type": "bytes"
        },
        {
          "internalType": "bytes1",
          "name": "quorum",
          "type": "bytes1"
        },
        {
          "internalType": "address[]",
          "name": "_multisigParticipants",
          "type": "address[]"
        },
        {
          "internalType": "bytes32[]",
          "name": "_multisigParticipantsPermissions",
          "type": "bytes32[]"
        }
      ],
      "name": "setMultisigData",
      "outputs": [],
      "stateMutability": "nonpayable",
      "type": "function"
    },
    {
      "inputs": [
        {
          "internalType": "bytes4",
          "name": "interfaceId",
          "type": "bytes4"
        }
      ],
      "name": "supportsInterface",
      "outputs": [
        {
          "internalType": "bool",
          "name": "",
          "type": "bool"
        }
      ],
      "stateMutability": "view",
      "type": "function"
    },
    {
      "inputs": [
        {
          "internalType": "address",
          "name": "_newOwner",
          "type": "address"
        }
      ],
      "name": "transferOwnership",
      "outputs": [],
      "stateMutability": "nonpayable",
      "type": "function"
    },
    {
      "inputs": [
        {
          "internalType": "bytes32",
          "name": "typeId",
          "type": "bytes32"
        },
        {
          "internalType": "bytes",
          "name": "data",
          "type": "bytes"
        }
      ],
      "name": "universalReceiver",
      "outputs": [
        {
          "internalType": "bytes",
          "name": "returnValue",
          "type": "bytes"
        }
      ],
      "stateMutability": "payable",
      "type": "function"
    },
    {
      "stateMutability": "payable",
      "type": "receive"
    }
  ],
  "bytecode": "0x60806040523480156200001157600080fd5b50604051620064f9380380620064f983398181016040528101906200003791906200064a565b816200004e816200024260201b62002b301760201c565b506000600267ffffffffffffffff8111156200006f576200006e62000691565b5b6040519080825280602002602001820160405280156200009e5781602001602082028036833780820191505090505b5090506000600267ffffffffffffffff811115620000c157620000c062000691565b5b604051908082528060200260200182016040528015620000f657816020015b6060815260200190600190039081620000e05790505b5090507f0cfc51aec37c55a4d0b1a65c6255c4bf2fbdf6277f3cc0730c45b828b6db8b4760001b82600081518110620001345762000133620006c0565b5b6020026020010181815250508260601b60405160200162000156919062000740565b604051602081830303815290604052816000815181106200017c576200017b620006c0565b5b60200260200101819052507feafec4d89fa9619884b60000abe425d64acd861a49b8ddf5c0b6962110481f3860001b82600181518110620001c257620001c1620006c0565b5b6020026020010181815250506040518060400160405280600481526020017fabe425d600000000000000000000000000000000000000000000000000000000815250816001815181106200021b576200021a620006c0565b5b60200260200101819052506200023882826200034a60201b60201c565b50505050620008dd565b620002526200041d60201b60201c565b73ffffffffffffffffffffffffffffffffffffffff168173ffffffffffffffffffffffffffffffffffffffff1614620003475760008060009054906101000a900473ffffffffffffffffffffffffffffffffffffffff169050816000806101000a81548173ffffffffffffffffffffffffffffffffffffffff021916908373ffffffffffffffffffffffffffffffffffffffff1602179055508173ffffffffffffffffffffffffffffffffffffffff168173ffffffffffffffffffffffffffffffffffffffff167f8be0079c531659141344cd1fd0a4f28419497f9722a3daafe3b4186f6b6457e060405160405180910390a3505b50565b6200035a6200044660201b60201c565b8051825114620003a1576040517f08c379a00000000000000000000000000000000000000000000000000000000081526004016200039890620007e4565b60405180910390fd5b60005b82518110156200041857620003fa838281518110620003c857620003c7620006c0565b5b6020026020010151838381518110620003e657620003e5620006c0565b5b6020026020010151620004c860201b60201c565b62000410816200052360201b62002c2f1760201c565b9050620003a4565b505050565b60008060009054906101000a900473ffffffffffffffffffffffffffffffffffffffff16905090565b3373ffffffffffffffffffffffffffffffffffffffff166200046d6200041d60201b60201c565b73ffffffffffffffffffffffffffffffffffffffff1614620004c6576040517f08c379a0000000000000000000000000000000000000000000000000000000008152600401620004bd9062000856565b60405180910390fd5b565b80600160008481526020019081526020016000209080519060200190620004f192919062000530565b50817fcdf4e344c0d23d4cdd0474039d176c55b19d531070dbe17856bfb993a5b5720b60405160405180910390a25050565b6000600182019050919050565b8280546200053e90620008a7565b90600052602060002090601f016020900481019282620005625760008555620005ae565b82601f106200057d57805160ff1916838001178555620005ae565b82800160010185558215620005ae579182015b82811115620005ad57825182559160200191906001019062000590565b5b509050620005bd9190620005c1565b5090565b5b80821115620005dc576000816000905550600101620005c2565b5090565b600080fd5b600073ffffffffffffffffffffffffffffffffffffffff82169050919050565b60006200061282620005e5565b9050919050565b620006248162000605565b81146200063057600080fd5b50565b600081519050620006448162000619565b92915050565b60008060408385031215620006645762000663620005e0565b5b6000620006748582860162000633565b9250506020620006878582860162000633565b9150509250929050565b7f4e487b7100000000000000000000000000000000000000000000000000000000600052604160045260246000fd5b7f4e487b7100000000000000000000000000000000000000000000000000000000600052603260045260246000fd5b60007fffffffffffffffffffffffffffffffffffffffff00000000000000000000000082169050919050565b6000819050919050565b6200073a6200073482620006ef565b6200071b565b82525050565b60006200074e828462000725565b60148201915081905092915050565b600082825260208201905092915050565b7f4b657973206c656e677468206e6f7420657175616c20746f2076616c7565732060008201527f6c656e6774680000000000000000000000000000000000000000000000000000602082015250565b6000620007cc6026836200075d565b9150620007d9826200076e565b604082019050919050565b60006020820190508181036000830152620007ff81620007bd565b9050919050565b7f4f776e61626c653a2063616c6c6572206973206e6f7420746865206f776e6572600082015250565b60006200083e6020836200075d565b91506200084b8262000806565b602082019050919050565b6000602082019050818103600083015262000871816200082f565b9050919050565b7f4e487b7100000000000000000000000000000000000000000000000000000000600052602260045260246000fd5b60006002820490506001821680620008c057607f821691505b60208210811415620008d757620008d662000878565b5b50919050565b615c0c80620008ed6000396000f3fe60806040526004361061010d5760003560e01c80636d747065116100955780638da5cb5b116100645780638da5cb5b146103ef578063b94db1de1461041a578063e30c397814610443578063e63560921461046e578063f2fde38b1461049757610162565b80636d7470651461035d578063715018a614610386578063753623871461039d5780637f23690c146103c657610162565b80634e3e6e9c116100dc5780634e3e6e9c146102855780634e71e0c8146102c257806354f6127f146102d95780636bb56a14146103165780636c2820b91461034657610162565b806301ffc9a7146101b257806314a6e293146101ef5780631626ba7e1461021857806344c028fe1461025557610162565b3661016257600034111561016057343373ffffffffffffffffffffffffffffffffffffffff167f7e71433ddf847725166244795048ecf3e3f9f35628254ecbf73605666423349360405160405180910390a35b005b60003411156101b057343373ffffffffffffffffffffffffffffffffffffffff167f7e71433ddf847725166244795048ecf3e3f9f35628254ecbf73605666423349360405160405180910390a35b005b3480156101be57600080fd5b506101d960048036038101906101d49190613c40565b6104c0565b6040516101e69190613c88565b60405180910390f35b3480156101fb57600080fd5b5061021660048036038101906102119190613fc8565b61060e565b005b34801561022457600080fd5b5061023f600480360381019061023a9190614040565b6106b9565b60405161024c91906140ab565b60405180910390f35b61026f600480360381019061026a91906141b5565b6107f7565b60405161027c91906142c5565b60405180910390f35b34801561029157600080fd5b506102ac60048036038101906102a791906142e7565b610ec1565b6040516102b9919061443c565b60405180910390f35b3480156102ce57600080fd5b506102d7610f77565b005b3480156102e557600080fd5b5061030060048036038101906102fb919061445e565b610f81565b60405161030d91906142c5565b60405180910390f35b610330600480360381019061032b919061448b565b610f93565b60405161033d91906142c5565b60405180910390f35b34801561035257600080fd5b5061035b611103565b005b34801561036957600080fd5b50610384600480360381019061037f91906144eb565b6113e5565b005b34801561039257600080fd5b5061039b6116bc565b005b3480156103a957600080fd5b506103c460048036038101906103bf9190614633565b6116d0565b005b3480156103d257600080fd5b506103ed60048036038101906103e89190614040565b611cff565b005b3480156103fb57600080fd5b50610404611d15565b60405161041191906146fd565b60405180910390f35b34801561042657600080fd5b50610441600480360381019061043c9190614718565b611d3e565b005b34801561044f57600080fd5b5061045861257d565b60405161046591906146fd565b60405180910390f35b34801561047a57600080fd5b5061049560048036038101906104909190614822565b6125a3565b005b3480156104a357600080fd5b506104be60048036038101906104b991906144eb565b612b1c565b005b6000631626ba7e60e01b7bffffffffffffffffffffffffffffffffffffffffffffffffffffffff1916827bffffffffffffffffffffffffffffffffffffffffffffffffffffffff191614806105595750639a3bfe8860e01b7bffffffffffffffffffffffffffffffffffffffffffffffffffffffff1916827bffffffffffffffffffffffffffffffffffffffffffffffffffffffff1916145b806105a85750636bb56a1460e01b7bffffffffffffffffffffffffffffffffffffffffffffffffffffffff1916827bffffffffffffffffffffffffffffffffffffffffffffffffffffffff1916145b806105f7575063d225f16060e01b7bffffffffffffffffffffffffffffffffffffffffffffffffffffffff1916827bffffffffffffffffffffffffffffffffffffffffffffffffffffffff1916145b80610607575061060682612c3c565b5b9050919050565b610616612c9d565b805182511461065a576040517f08c379a0000000000000000000000000000000000000000000000000000000008152600401610651906148f8565b60405180910390fd5b60005b82518110156106b4576106a483828151811061067c5761067b614918565b5b602002602001015183838151811061069757610696614918565b5b6020026020010151612d14565b6106ad81612c2f565b905061065d565b505050565b6000806106c4611d15565b905060008173ffffffffffffffffffffffffffffffffffffffff163b1461079b576106f681631626ba7e60e01b612d6d565b6107075763ffffffff60e01b610793565b8073ffffffffffffffffffffffffffffffffffffffff16631626ba7e85856040518363ffffffff1660e01b8152600401610742929190614956565b60206040518083038186803b15801561075a57600080fd5b505afa15801561076e573d6000803e3d6000fd5b505050506040513d601f19601f82011682018060405250810190610792919061499b565b5b9150506107f1565b6107a58484612e98565b73ffffffffffffffffffffffffffffffffffffffff168173ffffffffffffffffffffffffffffffffffffffff16146107e45763ffffffff60e01b6107ed565b631626ba7e60e01b5b9150505b92915050565b6060610801612c9d565b60005a905060008714156109055784471015610852576040517f08c379a000000000000000000000000000000000000000000000000000000000815260040161084990614a3a565b60405180910390fd5b6108a2868686868080601f016020809104026020016040519081016040528093929190818152602001838380828437600081840152601f19601f8201169050808301925050505050505084612ebf565b9150848673ffffffffffffffffffffffffffffffffffffffff16887f4810874456b8e6487bd861375cf6abd8e1c8bb5858c8ce36a86a04dabfac199e8787906108eb9190614a72565b6040516108f891906140ab565b60405180910390a4610eb7565b6003871415610a035760008514610951576040517f08c379a000000000000000000000000000000000000000000000000000000000815260040161094890614b43565b60405180910390fd5b6109a08685858080601f016020809104026020016040519081016040528093929190818152602001838380828437600081840152601f19601f8201169050808301925050505050505083612f7f565b9150848673ffffffffffffffffffffffffffffffffffffffff16887f4810874456b8e6487bd861375cf6abd8e1c8bb5858c8ce36a86a04dabfac199e8787906109e99190614a72565b6040516109f691906140ab565b60405180910390a4610eb6565b6004871415610b015760008514610a4f576040517f08c379a0000000000000000000000000000000000000000000000000000000008152600401610a4690614bd5565b60405180910390fd5b610a9e8685858080601f016020809104026020016040519081016040528093929190818152602001838380828437600081840152601f19601f820116905080830192505050505050508361303b565b9150848673ffffffffffffffffffffffffffffffffffffffff16887f4810874456b8e6487bd861375cf6abd8e1c8bb5858c8ce36a86a04dabfac199e878790610ae79190614a72565b604051610af491906140ab565b60405180910390a4610eb5565b6001871415610c7b57600073ffffffffffffffffffffffffffffffffffffffff168673ffffffffffffffffffffffffffffffffffffffff1614610b79576040517f08c379a0000000000000000000000000000000000000000000000000000000008152600401610b7090614c8d565b60405180910390fd5b84471015610bbc576040517f08c379a0000000000000000000000000000000000000000000000000000000008152600401610bb390614a3a565b60405180910390fd5b6000610c0c8686868080601f016020809104026020016040519081016040528093929190818152602001838380828437600081840152601f19601f820116905080830192505050505050506130f7565b905080604051602001610c1f9190614cf5565b6040516020818303038152906040529250858173ffffffffffffffffffffffffffffffffffffffff16897f01c42bd7e97a66166063b02fce6924e6656b6c2c61966630165095c4fb0b7b2f60405160405180910390a450610eb4565b6002871415610e7857600073ffffffffffffffffffffffffffffffffffffffff168673ffffffffffffffffffffffffffffffffffffffff1614610cf3576040517f08c379a0000000000000000000000000000000000000000000000000000000008152600401610cea90614c8d565b60405180910390fd5b84471015610d36576040517f08c379a0000000000000000000000000000000000000000000000000000000008152600401610d2d90614a3a565b60405180910390fd5b6000610d9585858080601f016020809104026020016040519081016040528093929190818152602001838380828437600081840152601f19601f82011690508083019250505050505050602087879050610d909190614d3f565b6131bd565b90506000610df886868080601f016020809104026020016040519081016040528093929190818152602001838380828437600081840152601f19601f820116905080830192505050505050506000602089899050610df39190614d3f565b613224565b90506000610e07888484613342565b905080604051602001610e1a9190614cf5565b6040516020818303038152906040529450878173ffffffffffffffffffffffffffffffffffffffff168b7f01c42bd7e97a66166063b02fce6924e6656b6c2c61966630165095c4fb0b7b2f60405160405180910390a4505050610eb3565b6040517f08c379a0000000000000000000000000000000000000000000000000000000008152600401610eaa90614dbf565b60405180910390fd5b5b5b5b5b5095945050505050565b6060815167ffffffffffffffff811115610ede57610edd613cb9565b5b604051908082528060200260200182016040528015610f1157816020015b6060815260200190600190039081610efc5790505b50905060005b8251811015610f7157610f43838281518110610f3657610f35614918565b5b6020026020010151613453565b828281518110610f5657610f55614918565b5b6020026020010181905250610f6a81612c2f565b9050610f17565b50919050565b610f7f6134f8565b565b6060610f8c82613453565b9050919050565b60606000610fc37f0cfc51aec37c55a4d0b1a65c6255c4bf2fbdf6277f3cc0730c45b828b6db8b4760001b613453565b9050601481511061109257600081610fda90614e30565b60601c9050610ff08163a245bbda60e01b612d6d565b15611090578073ffffffffffffffffffffffffffffffffffffffff1663a245bbda33348989896040518663ffffffff1660e01b8152600401611036959493929190614ed3565b600060405180830381600087803b15801561105057600080fd5b505af1158015611064573d6000803e3d6000fd5b505050506040513d6000823e3d601f19601f8201168201806040525081019061108d9190614f91565b92505b505b816040516110a09190615016565b6040518091039020853373ffffffffffffffffffffffffffffffffffffffff167f9c3ba68eb5742b8e3961aea0afc7371a71bf433c8a67a831803b64c064a178c23488886040516110f39392919061502d565b60405180910390a4509392505050565b61110b612c9d565b6000600367ffffffffffffffff81111561112857611127613cb9565b5b6040519080825280602002602001820160405280156111565781602001602082028036833780820191505090505b5090506000600367ffffffffffffffff81111561117657611175613cb9565b5b6040519080825280602002602001820160405280156111a957816020015b60608152602001906001900390816111945790505b50905060006111da7fdf30dba06db6a30e65354d9a64c609861f089545ca58c6b4dbe31a5f338cb0e360001b610f81565b90506000816111e890615074565b60001c905060006001826111fc91906150db565b90506000611208611d15565b90507fdf30dba06db6a30e65354d9a64c609861f089545ca58c6b4dbe31a5f338cb0e360001b8660008151811061124257611241614918565b5b6020026020010181815250508160001b6040516020016112629190615152565b6040516020818303038152906040528560008151811061128557611284614918565b5b60200260200101819052506fdf30dba06db6a30e65354d9a64c6098660801b8360801b6040516020016112b99291906151ba565b6040516020818303038152906040526112d190615074565b866001815181106112e5576112e4614918565b5b6020026020010181815250508060601b6040516020016113059190615207565b6040516020818303038152906040528560018151811061132857611327614918565b5b60200260200101819052506b4b80742de2bf82acb363000060a01b8160601b60405160200161135892919061526f565b60405160208183030381529060405261137090615074565b8660028151811061138457611383614918565b5b602002602001018181525050600160001b6040516020016113a59190615152565b604051602081830303815290604052856002815181106113c8576113c7614918565b5b60200260200101819052506113dd868661060e565b505050505050565b6113ed612c9d565b6000600367ffffffffffffffff81111561140a57611409613cb9565b5b6040519080825280602002602001820160405280156114385781602001602082028036833780820191505090505b5090506000600367ffffffffffffffff81111561145857611457613cb9565b5b60405190808252806020026020018201604052801561148b57816020015b60608152602001906001900390816114765790505b50905060006114bc7fdf30dba06db6a30e65354d9a64c609861f089545ca58c6b4dbe31a5f338cb0e360001b610f81565b90506000816114ca90615074565b60001c905060006001826114de91906150db565b90507fdf30dba06db6a30e65354d9a64c609861f089545ca58c6b4dbe31a5f338cb0e360001b8560008151811061151857611517614918565b5b6020026020010181815250508060001b6040516020016115389190615152565b6040516020818303038152906040528460008151811061155b5761155a614918565b5b60200260200101819052506fdf30dba06db6a30e65354d9a64c6098660801b8260801b60405160200161158f9291906151ba565b6040516020818303038152906040526115a790615074565b856001815181106115bb576115ba614918565b5b6020026020010181815250508560601b6040516020016115db9190615207565b604051602081830303815290604052846001815181106115fe576115fd614918565b5b60200260200101819052506b4b80742de2bf82acb363000060a01b8660601b60405160200161162e92919061526f565b60405160208183030381529060405261164690615074565b8560028151811061165a57611659614918565b5b602002602001018181525050617fbf60001b60405160200161167c9190615152565b6040516020818303038152906040528460028151811061169f5761169e614918565b5b60200260200101819052506116b4858561060e565b505050505050565b6116c4612c9d565b6116ce6000612b30565b565b6116d8612c9d565b80518151146116e657600080fd5b6000600383516116f6919061529b565b600361170291906150db565b67ffffffffffffffff81111561171b5761171a613cb9565b5b6040519080825280602002602001820160405280156117495781602001602082028036833780820191505090505b50905060006003845161175c919061529b565b600361176891906150db565b67ffffffffffffffff81111561178157611780613cb9565b5b6040519080825280602002602001820160405280156117b457816020015b606081526020019060019003908161179f5790505b5090507fa175306945481d092127a6c47d28cb3185da752d20388c1682ff11fce101735660001b826000815181106117ef576117ee614918565b5b60200260200101818152505085816000815181106118105761180f614918565b5b60200260200101819052507f47499aa724781173ffff2a8a82c6223b88e1a838d32bb91a9ff9c9c0b8c8759b60001b8260018151811061185357611852614918565b5b602002602001018181525050846040516020016118709190615316565b6040516020818303038152906040528160018151811061189357611892614918565b5b60200260200101819052507f54aef89da199194b126d28036f71291726191dbff7160f9d0986952b17eaedb460001b826002815181106118d6576118d5614918565b5b602002602001018181525050835160001b6040516020016118f79190615152565b6040516020818303038152906040528160028151811061191a57611919614918565b5b602002602001018190525060005b8451816fffffffffffffffffffffffffffffffff161015611cec576f54aef89da199194b126d28036f71291760801b8160801b60405160200161196c9291906151ba565b60405160208183030381529060405261198490615074565b83826003611992919061534d565b6fffffffffffffffffffffffffffffffff16815181106119b5576119b4614918565b5b60200260200101818152505084816fffffffffffffffffffffffffffffffff16815181106119e6576119e5614918565b5b602002602001015160601b604051602001611a019190615207565b60405160208183030381529060405282826003611a1e919061534d565b6fffffffffffffffffffffffffffffffff1681518110611a4157611a40614918565b5b60200260200101819052506b54aef89da199194b126d000060a01b85826fffffffffffffffffffffffffffffffff1681518110611a8157611a80614918565b5b602002602001015160601b604051602001611a9d92919061526f565b604051602081830303815290604052611ab590615074565b83826fffffffffffffffffffffffffffffffff1687516003611ad791906150db565b611ae191906150db565b81518110611af257611af1614918565b5b602002602001018181525050806fffffffffffffffffffffffffffffffff1660001b604051602001611b249190615152565b60405160208183030381529060405282826fffffffffffffffffffffffffffffffff1687516003611b5591906150db565b611b5f91906150db565b81518110611b7057611b6f614918565b5b60200260200101819052506b4164647265734d756c74000060a01b85826fffffffffffffffffffffffffffffffff1681518110611bb057611baf614918565b5b602002602001015160601b604051602001611bcc92919061526f565b604051602081830303815290604052611be490615074565b83826fffffffffffffffffffffffffffffffff1660028851611c06919061529b565b6003611c1291906150db565b611c1c91906150db565b81518110611c2d57611c2c614918565b5b60200260200101818152505083816fffffffffffffffffffffffffffffffff1681518110611c5e57611c5d614918565b5b6020026020010151604051602001611c769190615152565b60405160208183030381529060405282826fffffffffffffffffffffffffffffffff1660028851611ca7919061529b565b6003611cb391906150db565b611cbd91906150db565b81518110611cce57611ccd614918565b5b60200260200101819052508080611ce490615393565b915050611928565b50611cf7828261060e565b505050505050565b611d07612c9d565b611d118282612d14565b5050565b60008060009054906101000a900473ffffffffffffffffffffffffffffffffffffffff16905090565b611d46612c9d565b8051825114611d5457600080fd5b600060038351611d64919061529b565b6007611d7091906150db565b67ffffffffffffffff811115611d8957611d88613cb9565b5b604051908082528060200260200182016040528015611db75781602001602082028036833780820191505090505b509050600060038451611dca919061529b565b6007611dd691906150db565b67ffffffffffffffff811115611def57611dee613cb9565b5b604051908082528060200260200182016040528015611e2257816020015b6060815260200190600190039081611e0d5790505b5090507f529fc5ec0943a0370fe51d4dec0787294933572592c61b103d9e170cb15e8e7960001b82600081518110611e5d57611e5c614918565b5b6020026020010181815250508981600081518110611e7e57611e7d614918565b5b60200260200101819052507fbc776f168e7b9c60bb2a7180950facd372cd90c841732d963c31a93ff9f8c12760001b82600181518110611ec157611ec0614918565b5b60200260200101818152505088604051602001611ede9190615152565b60405160208183030381529060405281600181518110611f0157611f00614918565b5b60200260200101819052507ff89f507ecd9cb7646ce1514ec6ab90d695dac9314c3771f451fd90148a3335a960001b82600281518110611f4457611f43614918565b5b60200260200101818152505087604051602001611f619190615152565b60405160208183030381529060405281600281518110611f8457611f83614918565b5b60200260200101819052507f799787138cc40d7a47af8e69bdea98db14e1ead8227cef96814fa51751e25c7660001b82600381518110611fc757611fc6614918565b5b60200260200101818152505086604051602001611fe49190615152565b6040516020818303038152906040528160038151811061200757612006614918565b5b60200260200101819052507fd3cf4cd71858ea36c3f5ce43955db04cbe9e1f42a2c7795c25c1d430c9bb280a60001b8260048151811061204a57612049614918565b5b602002602001018181525050856040516020016120679190615152565b6040516020818303038152906040528160048151811061208a57612089614918565b5b60200260200101819052507fb207580c05383177027a90d6c298046d3d60dfa05a32b0bb48ea9015e11a342460001b826005815181106120cd576120cc614918565b5b602002602001018181525050846040516020016120ea9190615152565b6040516020818303038152906040528160058151811061210d5761210c614918565b5b60200260200101819052507ff7f9c7410dd493d79ebdaee15bbc77fd163bd488f54107d1be6ed34b1e09900460001b826006815181106121505761214f614918565b5b602002602001018181525050835160001b6040516020016121719190615152565b6040516020818303038152906040528160068151811061219457612193614918565b5b602002602001018190525060005b8451816fffffffffffffffffffffffffffffffff161015612566576ff7f9c7410dd493d79ebdaee15bbc77fd60801b8160801b6040516020016121e69291906151ba565b6040516020818303038152906040526121fe90615074565b8382600761220c919061534d565b6fffffffffffffffffffffffffffffffff168151811061222f5761222e614918565b5b60200260200101818152505084816fffffffffffffffffffffffffffffffff16815181106122605761225f614918565b5b602002602001015160601b60405160200161227b9190615207565b60405160208183030381529060405282826007612298919061534d565b6fffffffffffffffffffffffffffffffff16815181106122bb576122ba614918565b5b60200260200101819052506bf7f9c7410dd493d79ebd000060a01b85826fffffffffffffffffffffffffffffffff16815181106122fb576122fa614918565b5b602002602001015160601b60405160200161231792919061526f565b60405160208183030381529060405261232f90615074565b83865183600761233f919061534d565b6fffffffffffffffffffffffffffffffff1661235b91906150db565b8151811061236c5761236b614918565b5b602002602001018181525050806fffffffffffffffffffffffffffffffff1660001b60405160200161239e9190615152565b6040516020818303038152906040528286518360076123bd919061534d565b6fffffffffffffffffffffffffffffffff166123d991906150db565b815181106123ea576123e9614918565b5b60200260200101819052506b4b80742de2bfb3cc0e49000060a01b85826fffffffffffffffffffffffffffffffff168151811061242a57612429614918565b5b602002602001015160601b60405160200161244692919061526f565b60405160208183030381529060405261245e90615074565b836002875161246d919061529b565b83600761247a919061534d565b6fffffffffffffffffffffffffffffffff1661249691906150db565b815181106124a7576124a6614918565b5b60200260200101818152505083816fffffffffffffffffffffffffffffffff16815181106124d8576124d7614918565b5b60200260200101516040516020016124f09190615152565b604051602081830303815290604052826002875161250e919061529b565b83600761251b919061534d565b6fffffffffffffffffffffffffffffffff1661253791906150db565b8151811061254857612547614918565b5b6020026020010181905250808061255e90615393565b9150506121a2565b50612571828261060e565b50505050505050505050565b600260009054906101000a900473ffffffffffffffffffffffffffffffffffffffff1681565b6125ab612c9d565b6000600767ffffffffffffffff8111156125c8576125c7613cb9565b5b6040519080825280602002602001820160405280156125f65781602001602082028036833780820191505090505b5090506000600767ffffffffffffffff81111561261657612615613cb9565b5b60405190808252806020026020018201604052801561264957816020015b60608152602001906001900390816126345790505b509050600061267a7fdf30dba06db6a30e65354d9a64c609861f089545ca58c6b4dbe31a5f338cb0e360001b610f81565b905060008161268890615074565b60001c9050600060038261269c91906150db565b90507fdf30dba06db6a30e65354d9a64c609861f089545ca58c6b4dbe31a5f338cb0e360001b856000815181106126d6576126d5614918565b5b6020026020010181815250508060001b6040516020016126f69190615152565b6040516020818303038152906040528460008151811061271957612718614918565b5b60200260200101819052506fdf30dba06db6a30e65354d9a64c6098660801b8260801b60405160200161274d9291906151ba565b60405160208183030381529060405261276590615074565b8560018151811061277957612778614918565b5b6020026020010181815250508760601b6040516020016127999190615207565b604051602081830303815290604052846001815181106127bc576127bb614918565b5b60200260200101819052506fdf30dba06db6a30e65354d9a64c6098660801b6001836127e891906150db565b60801b6040516020016127fc9291906151ba565b60405160208183030381529060405261281490615074565b8560028151811061282857612827614918565b5b6020026020010181815250508660601b6040516020016128489190615207565b6040516020818303038152906040528460028151811061286b5761286a614918565b5b60200260200101819052506fdf30dba06db6a30e65354d9a64c6098660801b60028361289791906150db565b60801b6040516020016128ab9291906151ba565b6040516020818303038152906040526128c390615074565b856003815181106128d7576128d6614918565b5b6020026020010181815250508560601b6040516020016128f79190615207565b6040516020818303038152906040528460038151811061291a57612919614918565b5b60200260200101819052506b4b80742de2bf82acb363000060a01b8860601b60405160200161294a92919061526f565b60405160208183030381529060405261296290615074565b8560048151811061297657612975614918565b5b602002602001018181525050617fbf60001b6040516020016129989190615152565b604051602081830303815290604052846004815181106129bb576129ba614918565b5b60200260200101819052506b4b80742de2bf82acb363000060a01b8760601b6040516020016129eb92919061526f565b604051602081830303815290604052612a0390615074565b85600581518110612a1757612a16614918565b5b602002602001018181525050617fbf60001b604051602001612a399190615152565b60405160208183030381529060405284600581518110612a5c57612a5b614918565b5b60200260200101819052506b4b80742de2bf82acb363000060a01b8660601b604051602001612a8c92919061526f565b604051602081830303815290604052612aa490615074565b85600681518110612ab857612ab7614918565b5b602002602001018181525050617fbf60001b604051602001612ada9190615152565b60405160208183030381529060405284600681518110612afd57612afc614918565b5b6020026020010181905250612b12858561060e565b5050505050505050565b612b24612c9d565b612b2d816135f7565b50565b612b38611d15565b73ffffffffffffffffffffffffffffffffffffffff168173ffffffffffffffffffffffffffffffffffffffff1614612c2c5760008060009054906101000a900473ffffffffffffffffffffffffffffffffffffffff169050816000806101000a81548173ffffffffffffffffffffffffffffffffffffffff021916908373ffffffffffffffffffffffffffffffffffffffff1602179055508173ffffffffffffffffffffffffffffffffffffffff168173ffffffffffffffffffffffffffffffffffffffff167f8be0079c531659141344cd1fd0a4f28419497f9722a3daafe3b4186f6b6457e060405160405180910390a3505b50565b6000600182019050919050565b600063714df77c60e01b7bffffffffffffffffffffffffffffffffffffffffffffffffffffffff1916827bffffffffffffffffffffffffffffffffffffffffffffffffffffffff19161480612c965750612c958261363b565b5b9050919050565b3373ffffffffffffffffffffffffffffffffffffffff16612cbc611d15565b73ffffffffffffffffffffffffffffffffffffffff1614612d12576040517f08c379a0000000000000000000000000000000000000000000000000000000008152600401612d0990615418565b60405180910390fd5b565b80600160008481526020019081526020016000209080519060200190612d3b929190613b31565b50817fcdf4e344c0d23d4cdd0474039d176c55b19d531070dbe17856bfb993a5b5720b60405160405180910390a25050565b6000806301ffc9a760e01b83604051602401612d8991906140ab565b604051602081830303815290604052907bffffffffffffffffffffffffffffffffffffffffffffffffffffffff19166020820180517bffffffffffffffffffffffffffffffffffffffffffffffffffffffff838183161783525050505090506000808573ffffffffffffffffffffffffffffffffffffffff1661753084604051612e139190615016565b6000604051808303818686fa925050503d8060008114612e4f576040519150601f19603f3d011682016040523d82523d6000602084013e612e54565b606091505b5091509150602081511015612e6f5760009350505050612e92565b818015612e8c575080806020019051810190612e8b9190615464565b5b93505050505b92915050565b6000806000612ea7858561369c565b91509150612eb48161371f565b819250505092915050565b60606000808673ffffffffffffffffffffffffffffffffffffffff16848787604051612eeb9190615016565b600060405180830381858888f193505050503d8060008114612f29576040519150601f19603f3d011682016040523d82523d6000602084013e612f2e565b606091505b5091509150612f7382826040518060400160405280601581526020017f455243373235583a20556e6b6e6f77204572726f7200000000000000000000008152506138f4565b92505050949350505050565b60606000808573ffffffffffffffffffffffffffffffffffffffff168486604051612faa9190615016565b6000604051808303818686fa925050503d8060008114612fe6576040519150601f19603f3d011682016040523d82523d6000602084013e612feb565b606091505b509150915061303082826040518060400160405280601581526020017f455243373235583a20556e6b6e6f77204572726f7200000000000000000000008152506138f4565b925050509392505050565b60606000808573ffffffffffffffffffffffffffffffffffffffff1684866040516130669190615016565b6000604051808303818686f4925050503d80600081146130a2576040519150601f19603f3d011682016040523d82523d6000602084013e6130a7565b606091505b50915091506130ec82826040518060400160405280601581526020017f455243373235583a20556e6b6e6f77204572726f7200000000000000000000008152506138f4565b925050509392505050565b6000808251141561313d576040517f08c379a0000000000000000000000000000000000000000000000000000000008152600401613134906154dd565b60405180910390fd5b81516020830184f09050600073ffffffffffffffffffffffffffffffffffffffff168173ffffffffffffffffffffffffffffffffffffffff1614156131b7576040517f08c379a00000000000000000000000000000000000000000000000000000000081526004016131ae90615549565b60405180910390fd5b92915050565b60006020826131cc91906150db565b8351101561320f576040517f08c379a0000000000000000000000000000000000000000000000000000000008152600401613206906155b5565b60405180910390fd5b60008260208501015190508091505092915050565b606081601f8361323491906150db565b1015613275576040517f08c379a000000000000000000000000000000000000000000000000000000000815260040161326c90615621565b60405180910390fd5b818361328191906150db565b845110156132c4576040517f08c379a00000000000000000000000000000000000000000000000000000000081526004016132bb9061568d565b60405180910390fd5b60608215600081146132e55760405191506000825260208201604052613336565b6040519150601f8416801560200281840101858101878315602002848b0101015b818310156133235780518352602083019250602081019050613306565b50868552601f19601f8301166040525050505b50809150509392505050565b60008084471015613388576040517f08c379a000000000000000000000000000000000000000000000000000000000815260040161337f906156f9565b60405180910390fd5b6000835114156133cd576040517f08c379a00000000000000000000000000000000000000000000000000000000081526004016133c490615765565b60405180910390fd5b8383516020850187f59050600073ffffffffffffffffffffffffffffffffffffffff168173ffffffffffffffffffffffffffffffffffffffff161415613448576040517f08c379a000000000000000000000000000000000000000000000000000000000815260040161343f906157d1565b60405180910390fd5b809150509392505050565b606060016000838152602001908152602001600020805461347390615820565b80601f016020809104026020016040519081016040528092919081815260200182805461349f90615820565b80156134ec5780601f106134c1576101008083540402835291602001916134ec565b820191906000526020600020905b8154815290600101906020018083116134cf57829003601f168201915b50505050509050919050565b600260009054906101000a900473ffffffffffffffffffffffffffffffffffffffff1673ffffffffffffffffffffffffffffffffffffffff163373ffffffffffffffffffffffffffffffffffffffff1614613588576040517f08c379a000000000000000000000000000000000000000000000000000000000815260040161357f906158c4565b60405180910390fd5b6135b3600260009054906101000a900473ffffffffffffffffffffffffffffffffffffffff16612b30565b6000600260006101000a81548173ffffffffffffffffffffffffffffffffffffffff021916908373ffffffffffffffffffffffffffffffffffffffff160217905550565b80600260006101000a81548173ffffffffffffffffffffffffffffffffffffffff021916908373ffffffffffffffffffffffffffffffffffffffff16021790555050565b60006344c028fe60e01b7bffffffffffffffffffffffffffffffffffffffffffffffffffffffff1916827bffffffffffffffffffffffffffffffffffffffffffffffffffffffff1916148061369557506136948261395b565b5b9050919050565b6000806041835114156136de5760008060006020860151925060408601519150606086015160001a90506136d2878285856139c5565b94509450505050613718565b60408351141561370f576000806020850151915060408501519050613704868383613ad2565b935093505050613718565b60006002915091505b9250929050565b60006004811115613733576137326158e4565b5b816004811115613746576137456158e4565b5b1415613751576138f1565b60016004811115613765576137646158e4565b5b816004811115613778576137776158e4565b5b14156137b9576040517f08c379a00000000000000000000000000000000000000000000000000000000081526004016137b09061595f565b60405180910390fd5b600260048111156137cd576137cc6158e4565b5b8160048111156137e0576137df6158e4565b5b1415613821576040517f08c379a0000000000000000000000000000000000000000000000000000000008152600401613818906159cb565b60405180910390fd5b60036004811115613835576138346158e4565b5b816004811115613848576138476158e4565b5b1415613889576040517f08c379a000000000000000000000000000000000000000000000000000000000815260040161388090615a5d565b60405180910390fd5b60048081111561389c5761389b6158e4565b5b8160048111156138af576138ae6158e4565b5b14156138f0576040517f08c379a00000000000000000000000000000000000000000000000000000000081526004016138e790615aef565b60405180910390fd5b5b50565b6060831561390457829050613954565b6000835111156139175782518084602001fd5b816040517f08c379a000000000000000000000000000000000000000000000000000000000815260040161394b9190615b53565b60405180910390fd5b9392505050565b60007f01ffc9a7000000000000000000000000000000000000000000000000000000007bffffffffffffffffffffffffffffffffffffffffffffffffffffffff1916827bffffffffffffffffffffffffffffffffffffffffffffffffffffffff1916149050919050565b6000807f7fffffffffffffffffffffffffffffff5d576e7357a4501ddfe92f46681b20a08360001c1115613a00576000600391509150613ac9565b601b8560ff1614158015613a185750601c8560ff1614155b15613a2a576000600491509150613ac9565b600060018787878760405160008152602001604052604051613a4f9493929190615b91565b6020604051602081039080840390855afa158015613a71573d6000803e3d6000fd5b505050602060405103519050600073ffffffffffffffffffffffffffffffffffffffff168173ffffffffffffffffffffffffffffffffffffffff161415613ac057600060019250925050613ac9565b80600092509250505b94509492505050565b60008060007f7fffffffffffffffffffffffffffffffffffffffffffffffffffffffffffffff60001b841690506000601b60ff8660001c901c613b1591906150db565b9050613b23878288856139c5565b935093505050935093915050565b828054613b3d90615820565b90600052602060002090601f016020900481019282613b5f5760008555613ba6565b82601f10613b7857805160ff1916838001178555613ba6565b82800160010185558215613ba6579182015b82811115613ba5578251825591602001919060010190613b8a565b5b509050613bb39190613bb7565b5090565b5b80821115613bd0576000816000905550600101613bb8565b5090565b6000604051905090565b600080fd5b600080fd5b60007fffffffff0000000000000000000000000000000000000000000000000000000082169050919050565b613c1d81613be8565b8114613c2857600080fd5b50565b600081359050613c3a81613c14565b92915050565b600060208284031215613c5657613c55613bde565b5b6000613c6484828501613c2b565b91505092915050565b60008115159050919050565b613c8281613c6d565b82525050565b6000602082019050613c9d6000830184613c79565b92915050565b600080fd5b6000601f19601f8301169050919050565b7f4e487b7100000000000000000000000000000000000000000000000000000000600052604160045260246000fd5b613cf182613ca8565b810181811067ffffffffffffffff82111715613d1057613d0f613cb9565b5b80604052505050565b6000613d23613bd4565b9050613d2f8282613ce8565b919050565b600067ffffffffffffffff821115613d4f57613d4e613cb9565b5b602082029050602081019050919050565b600080fd5b6000819050919050565b613d7881613d65565b8114613d8357600080fd5b50565b600081359050613d9581613d6f565b92915050565b6000613dae613da984613d34565b613d19565b90508083825260208201905060208402830185811115613dd157613dd0613d60565b5b835b81811015613dfa5780613de68882613d86565b845260208401935050602081019050613dd3565b5050509392505050565b600082601f830112613e1957613e18613ca3565b5b8135613e29848260208601613d9b565b91505092915050565b600067ffffffffffffffff821115613e4d57613e4c613cb9565b5b602082029050602081019050919050565b600080fd5b600067ffffffffffffffff821115613e7e57613e7d613cb9565b5b613e8782613ca8565b9050602081019050919050565b82818337600083830152505050565b6000613eb6613eb184613e63565b613d19565b905082815260208101848484011115613ed257613ed1613e5e565b5b613edd848285613e94565b509392505050565b600082601f830112613efa57613ef9613ca3565b5b8135613f0a848260208601613ea3565b91505092915050565b6000613f26613f2184613e32565b613d19565b90508083825260208201905060208402830185811115613f4957613f48613d60565b5b835b81811015613f9057803567ffffffffffffffff811115613f6e57613f6d613ca3565b5b808601613f7b8982613ee5565b85526020850194505050602081019050613f4b565b5050509392505050565b600082601f830112613faf57613fae613ca3565b5b8135613fbf848260208601613f13565b91505092915050565b60008060408385031215613fdf57613fde613bde565b5b600083013567ffffffffffffffff811115613ffd57613ffc613be3565b5b61400985828601613e04565b925050602083013567ffffffffffffffff81111561402a57614029613be3565b5b61403685828601613f9a565b9150509250929050565b6000806040838503121561405757614056613bde565b5b600061406585828601613d86565b925050602083013567ffffffffffffffff81111561408657614085613be3565b5b61409285828601613ee5565b9150509250929050565b6140a581613be8565b82525050565b60006020820190506140c0600083018461409c565b92915050565b6000819050919050565b6140d9816140c6565b81146140e457600080fd5b50565b6000813590506140f6816140d0565b92915050565b600073ffffffffffffffffffffffffffffffffffffffff82169050919050565b6000614127826140fc565b9050919050565b6141378161411c565b811461414257600080fd5b50565b6000813590506141548161412e565b92915050565b600080fd5b60008083601f84011261417557614174613ca3565b5b8235905067ffffffffffffffff8111156141925761419161415a565b5b6020830191508360018202830111156141ae576141ad613d60565b5b9250929050565b6000806000806000608086880312156141d1576141d0613bde565b5b60006141df888289016140e7565b95505060206141f088828901614145565b9450506040614201888289016140e7565b935050606086013567ffffffffffffffff81111561422257614221613be3565b5b61422e8882890161415f565b92509250509295509295909350565b600081519050919050565b600082825260208201905092915050565b60005b8381101561427757808201518184015260208101905061425c565b83811115614286576000848401525b50505050565b60006142978261423d565b6142a18185614248565b93506142b1818560208601614259565b6142ba81613ca8565b840191505092915050565b600060208201905081810360008301526142df818461428c565b905092915050565b6000602082840312156142fd576142fc613bde565b5b600082013567ffffffffffffffff81111561431b5761431a613be3565b5b61432784828501613e04565b91505092915050565b600081519050919050565b600082825260208201905092915050565b6000819050602082019050919050565b600082825260208201905092915050565b60006143788261423d565b614382818561435c565b9350614392818560208601614259565b61439b81613ca8565b840191505092915050565b60006143b2838361436d565b905092915050565b6000602082019050919050565b60006143d282614330565b6143dc818561433b565b9350836020820285016143ee8561434c565b8060005b8581101561442a578484038952815161440b85826143a6565b9450614416836143ba565b925060208a019950506001810190506143f2565b50829750879550505050505092915050565b6000602082019050818103600083015261445681846143c7565b905092915050565b60006020828403121561447457614473613bde565b5b600061448284828501613d86565b91505092915050565b6000806000604084860312156144a4576144a3613bde565b5b60006144b286828701613d86565b935050602084013567ffffffffffffffff8111156144d3576144d2613be3565b5b6144df8682870161415f565b92509250509250925092565b60006020828403121561450157614500613bde565b5b600061450f84828501614145565b91505092915050565b60007fff0000000000000000000000000000000000000000000000000000000000000082169050919050565b61454d81614518565b811461455857600080fd5b50565b60008135905061456a81614544565b92915050565b600067ffffffffffffffff82111561458b5761458a613cb9565b5b602082029050602081019050919050565b60006145af6145aa84614570565b613d19565b905080838252602082019050602084028301858111156145d2576145d1613d60565b5b835b818110156145fb57806145e78882614145565b8452602084019350506020810190506145d4565b5050509392505050565b600082601f83011261461a57614619613ca3565b5b813561462a84826020860161459c565b91505092915050565b6000806000806080858703121561464d5761464c613bde565b5b600085013567ffffffffffffffff81111561466b5761466a613be3565b5b61467787828801613ee5565b94505060206146888782880161455b565b935050604085013567ffffffffffffffff8111156146a9576146a8613be3565b5b6146b587828801614605565b925050606085013567ffffffffffffffff8111156146d6576146d5613be3565b5b6146e287828801613e04565b91505092959194509250565b6146f78161411c565b82525050565b600060208201905061471260008301846146ee565b92915050565b600080600080600080600080610100898b03121561473957614738613bde565b5b600089013567ffffffffffffffff81111561475757614756613be3565b5b6147638b828c01613ee5565b98505060206147748b828c01613d86565b97505060406147858b828c01613d86565b96505060606147968b828c01613d86565b95505060806147a78b828c01613d86565b94505060a06147b88b828c01613d86565b93505060c089013567ffffffffffffffff8111156147d9576147d8613be3565b5b6147e58b828c01614605565b92505060e089013567ffffffffffffffff81111561480657614805613be3565b5b6148128b828c01613e04565b9150509295985092959890939650565b60008060006060848603121561483b5761483a613bde565b5b600061484986828701614145565b935050602061485a86828701614145565b925050604061486b86828701614145565b9150509250925092565b600082825260208201905092915050565b7f4b657973206c656e677468206e6f7420657175616c20746f2076616c7565732060008201527f6c656e6774680000000000000000000000000000000000000000000000000000602082015250565b60006148e2602683614875565b91506148ed82614886565b604082019050919050565b60006020820190508181036000830152614911816148d5565b9050919050565b7f4e487b7100000000000000000000000000000000000000000000000000000000600052603260045260246000fd5b61495081613d65565b82525050565b600060408201905061496b6000830185614947565b818103602083015261497d818461428c565b90509392505050565b60008151905061499581613c14565b92915050565b6000602082840312156149b1576149b0613bde565b5b60006149bf84828501614986565b91505092915050565b7f455243373235583a20696e73756666696369656e742062616c616e636520666f60008201527f722063616c6c0000000000000000000000000000000000000000000000000000602082015250565b6000614a24602683614875565b9150614a2f826149c8565b604082019050919050565b60006020820190508181036000830152614a5381614a17565b9050919050565b600082905092915050565b600082821b905092915050565b6000614a7e8383614a5a565b82614a898135613be8565b92506004821015614ac957614ac47fffffffff0000000000000000000000000000000000000000000000000000000083600403600802614a65565b831692505b505092915050565b7f455243373235583a2063616e6e6f74207472616e736665722076616c7565207760008201527f697468206f7065726174696f6e2053544154494343414c4c0000000000000000602082015250565b6000614b2d603883614875565b9150614b3882614ad1565b604082019050919050565b60006020820190508181036000830152614b5c81614b20565b9050919050565b7f455243373235583a2063616e6e6f74207472616e736665722076616c7565207760008201527f697468206f7065726174696f6e2044454c454741544543414c4c000000000000602082015250565b6000614bbf603a83614875565b9150614bca82614b63565b604082019050919050565b60006020820190508181036000830152614bee81614bb2565b9050919050565b7f455243373235583a20435245415445206f7065726174696f6e7320726571756960008201527f726520746865207265636569766572206164647265737320746f20626520656d60208201527f7074790000000000000000000000000000000000000000000000000000000000604082015250565b6000614c77604383614875565b9150614c8282614bf5565b606082019050919050565b60006020820190508181036000830152614ca681614c6a565b9050919050565b60008160601b9050919050565b6000614cc582614cad565b9050919050565b6000614cd782614cba565b9050919050565b614cef614cea8261411c565b614ccc565b82525050565b6000614d018284614cde565b60148201915081905092915050565b7f4e487b7100000000000000000000000000000000000000000000000000000000600052601160045260246000fd5b6000614d4a826140c6565b9150614d55836140c6565b925082821015614d6857614d67614d10565b5b828203905092915050565b7f57726f6e67206f7065726174696f6e2074797065000000000000000000000000600082015250565b6000614da9601483614875565b9150614db482614d73565b602082019050919050565b60006020820190508181036000830152614dd881614d9c565b9050919050565b6000819050602082019050919050565b60007fffffffffffffffffffffffffffffffffffffffff00000000000000000000000082169050919050565b6000614e278251614def565b80915050919050565b6000614e3b8261423d565b82614e4584614ddf565b9050614e5081614e1b565b92506014821015614e9057614e8b7fffffffffffffffffffffffffffffffffffffffff00000000000000000000000083601403600802614a65565b831692505b5050919050565b614ea0816140c6565b82525050565b6000614eb28385614248565b9350614ebf838584613e94565b614ec883613ca8565b840190509392505050565b6000608082019050614ee860008301886146ee565b614ef56020830187614e97565b614f026040830186614947565b8181036060830152614f15818486614ea6565b90509695505050505050565b6000614f34614f2f84613e63565b613d19565b905082815260208101848484011115614f5057614f4f613e5e565b5b614f5b848285614259565b509392505050565b600082601f830112614f7857614f77613ca3565b5b8151614f88848260208601614f21565b91505092915050565b600060208284031215614fa757614fa6613bde565b5b600082015167ffffffffffffffff811115614fc557614fc4613be3565b5b614fd184828501614f63565b91505092915050565b600081905092915050565b6000614ff08261423d565b614ffa8185614fda565b935061500a818560208601614259565b80840191505092915050565b60006150228284614fe5565b915081905092915050565b60006040820190506150426000830186614e97565b8181036020830152615055818486614ea6565b9050949350505050565b600061506b8251613d65565b80915050919050565b600061507f8261423d565b8261508984614ddf565b90506150948161505f565b925060208210156150d4576150cf7fffffffffffffffffffffffffffffffffffffffffffffffffffffffffffffffff83602003600802614a65565b831692505b5050919050565b60006150e6826140c6565b91506150f1836140c6565b9250827fffffffffffffffffffffffffffffffffffffffffffffffffffffffffffffffff0382111561512657615125614d10565b5b828201905092915050565b6000819050919050565b61514c61514782613d65565b615131565b82525050565b600061515e828461513b565b60208201915081905092915050565b60007fffffffffffffffffffffffffffffffff0000000000000000000000000000000082169050919050565b6000819050919050565b6151b46151af8261516d565b615199565b82525050565b60006151c682856151a3565b6010820191506151d682846151a3565b6010820191508190509392505050565b6000819050919050565b6152016151fc82614def565b6151e6565b82525050565b600061521382846151f0565b60148201915081905092915050565b60007fffffffffffffffffffffffff000000000000000000000000000000000000000082169050919050565b6000819050919050565b61526961526482615222565b61524e565b82525050565b600061527b8285615258565b600c8201915061528b82846151f0565b6014820191508190509392505050565b60006152a6826140c6565b91506152b1836140c6565b9250817fffffffffffffffffffffffffffffffffffffffffffffffffffffffffffffffff04831182151516156152ea576152e9614d10565b5b828202905092915050565b6000819050919050565b61531061530b82614518565b6152f5565b82525050565b600061532282846152ff565b60018201915081905092915050565b60006fffffffffffffffffffffffffffffffff82169050919050565b600061535882615331565b915061536383615331565b9250826fffffffffffffffffffffffffffffffff0382111561538857615387614d10565b5b828201905092915050565b600061539e82615331565b91506fffffffffffffffffffffffffffffffff8214156153c1576153c0614d10565b5b600182019050919050565b7f4f776e61626c653a2063616c6c6572206973206e6f7420746865206f776e6572600082015250565b6000615402602083614875565b915061540d826153cc565b602082019050919050565b60006020820190508181036000830152615431816153f5565b9050919050565b61544181613c6d565b811461544c57600080fd5b50565b60008151905061545e81615438565b92915050565b60006020828403121561547a57615479613bde565b5b60006154888482850161544f565b91505092915050565b7f6e6f20636f6e74726163742062797465636f64652070726f7669646564000000600082015250565b60006154c7601d83614875565b91506154d282615491565b602082019050919050565b600060208201905081810360008301526154f6816154ba565b9050919050565b7f436f756c64206e6f74206465706c6f7920636f6e747261637400000000000000600082015250565b6000615533601983614875565b915061553e826154fd565b602082019050919050565b6000602082019050818103600083015261556281615526565b9050919050565b7f746f427974657333325f6f75744f66426f756e64730000000000000000000000600082015250565b600061559f601583614875565b91506155aa82615569565b602082019050919050565b600060208201905081810360008301526155ce81615592565b9050919050565b7f736c6963655f6f766572666c6f77000000000000000000000000000000000000600082015250565b600061560b600e83614875565b9150615616826155d5565b602082019050919050565b6000602082019050818103600083015261563a816155fe565b9050919050565b7f736c6963655f6f75744f66426f756e6473000000000000000000000000000000600082015250565b6000615677601183614875565b915061568282615641565b602082019050919050565b600060208201905081810360008301526156a68161566a565b9050919050565b7f437265617465323a20696e73756666696369656e742062616c616e6365000000600082015250565b60006156e3601d83614875565b91506156ee826156ad565b602082019050919050565b60006020820190508181036000830152615712816156d6565b9050919050565b7f437265617465323a2062797465636f6465206c656e677468206973207a65726f600082015250565b600061574f602083614875565b915061575a82615719565b602082019050919050565b6000602082019050818103600083015261577e81615742565b9050919050565b7f437265617465323a204661696c6564206f6e206465706c6f7900000000000000600082015250565b60006157bb601983614875565b91506157c682615785565b602082019050919050565b600060208201905081810360008301526157ea816157ae565b9050919050565b7f4e487b7100000000000000000000000000000000000000000000000000000000600052602260045260246000fd5b6000600282049050600182168061583857607f821691505b6020821081141561584c5761584b6157f1565b5b50919050565b7f4f776e61626c65436c61696d3a2063616c6c6572206973206e6f74207468652060008201527f70656e64696e674f776e65720000000000000000000000000000000000000000602082015250565b60006158ae602c83614875565b91506158b982615852565b604082019050919050565b600060208201905081810360008301526158dd816158a1565b9050919050565b7f4e487b7100000000000000000000000000000000000000000000000000000000600052602160045260246000fd5b7f45434453413a20696e76616c6964207369676e61747572650000000000000000600082015250565b6000615949601883614875565b915061595482615913565b602082019050919050565b600060208201905081810360008301526159788161593c565b9050919050565b7f45434453413a20696e76616c6964207369676e6174757265206c656e67746800600082015250565b60006159b5601f83614875565b91506159c08261597f565b602082019050919050565b600060208201905081810360008301526159e4816159a8565b9050919050565b7f45434453413a20696e76616c6964207369676e6174757265202773272076616c60008201527f7565000000000000000000000000000000000000000000000000000000000000602082015250565b6000615a47602283614875565b9150615a52826159eb565b604082019050919050565b60006020820190508181036000830152615a7681615a3a565b9050919050565b7f45434453413a20696e76616c6964207369676e6174757265202776272076616c60008201527f7565000000000000000000000000000000000000000000000000000000000000602082015250565b6000615ad9602283614875565b9150615ae482615a7d565b604082019050919050565b60006020820190508181036000830152615b0881615acc565b9050919050565b600081519050919050565b6000615b2582615b0f565b615b2f8185614875565b9350615b3f818560208601614259565b615b4881613ca8565b840191505092915050565b60006020820190508181036000830152615b6d8184615b1a565b905092915050565b600060ff82169050919050565b615b8b81615b75565b82525050565b6000608082019050615ba66000830187614947565b615bb36020830186615b82565b615bc06040830185614947565b615bcd6060830184614947565b9594505050505056fea2646970667358221220eb6da85743b583d1578c06877eeaf01711096445e8863a335c721bb4597838bb64736f6c63430008090033",
  "linkReferences": {},
  "deployedLinkReferences": {}
}