{
  "_format": "hh-sol-artifact-1",
  "contractName": "UniversalProfile",
  "sourceName": "contracts/deps/UniversalProfile.sol",
  "abi": [
    {
      "inputs": [
        {
          "internalType": "address",
          "name": "_newOwner",
          "type": "address"
        },
        {
          "internalType": "address",
          "name": "_unviersalReceiverDelegateUPAddress",
          "type": "address"
        }
      ],
      "stateMutability": "nonpayable",
      "type": "constructor"
    },
    {
      "anonymous": false,
      "inputs": [
        {
          "indexed": true,
          "internalType": "uint256",
          "name": "operation",
          "type": "uint256"
        },
        {
          "indexed": true,
          "internalType": "address",
          "name": "contractAddress",
          "type": "address"
        },
        {
          "indexed": true,
          "internalType": "uint256",
          "name": "value",
          "type": "uint256"
        }
      ],
      "name": "ContractCreated",
      "type": "event"
    },
    {
      "anonymous": false,
      "inputs": [
        {
          "indexed": true,
          "internalType": "bytes32",
          "name": "dataKey",
          "type": "bytes32"
        }
      ],
      "name": "DataChanged",
      "type": "event"
    },
    {
      "anonymous": false,
      "inputs": [
        {
          "indexed": true,
          "internalType": "uint256",
          "name": "operation",
          "type": "uint256"
        },
        {
          "indexed": true,
          "internalType": "address",
          "name": "to",
          "type": "address"
        },
        {
          "indexed": true,
          "internalType": "uint256",
          "name": "value",
          "type": "uint256"
        },
        {
          "indexed": false,
          "internalType": "bytes4",
          "name": "selector",
          "type": "bytes4"
        }
      ],
      "name": "Executed",
      "type": "event"
    },
    {
      "anonymous": false,
      "inputs": [
        {
          "indexed": true,
          "internalType": "address",
          "name": "previousOwner",
          "type": "address"
        },
        {
          "indexed": true,
          "internalType": "address",
          "name": "newOwner",
          "type": "address"
        }
      ],
      "name": "OwnershipTransferred",
      "type": "event"
    },
    {
      "anonymous": false,
      "inputs": [
        {
          "indexed": true,
          "internalType": "address",
          "name": "from",
          "type": "address"
        },
        {
          "indexed": false,
          "internalType": "uint256",
          "name": "value",
          "type": "uint256"
        },
        {
          "indexed": true,
          "internalType": "bytes32",
          "name": "typeId",
          "type": "bytes32"
        },
        {
          "indexed": true,
          "internalType": "bytes",
          "name": "returnedValue",
          "type": "bytes"
        },
        {
          "indexed": false,
          "internalType": "bytes",
          "name": "receivedData",
          "type": "bytes"
        }
      ],
      "name": "UniversalReceiver",
      "type": "event"
    },
    {
      "anonymous": false,
      "inputs": [
        {
          "indexed": true,
          "internalType": "address",
          "name": "sender",
          "type": "address"
        },
        {
          "indexed": true,
          "internalType": "uint256",
          "name": "value",
          "type": "uint256"
        }
      ],
      "name": "ValueReceived",
      "type": "event"
    },
    {
      "stateMutability": "payable",
      "type": "fallback"
    },
    {
      "inputs": [],
      "name": "claimOwnership",
      "outputs": [],
      "stateMutability": "nonpayable",
      "type": "function"
    },
    {
      "inputs": [
        {
          "internalType": "uint256",
          "name": "operation",
          "type": "uint256"
        },
        {
          "internalType": "address",
          "name": "to",
          "type": "address"
        },
        {
          "internalType": "uint256",
          "name": "value",
          "type": "uint256"
        },
        {
          "internalType": "bytes",
          "name": "data",
          "type": "bytes"
        }
      ],
      "name": "execute",
      "outputs": [
        {
          "internalType": "bytes",
          "name": "result",
          "type": "bytes"
        }
      ],
      "stateMutability": "payable",
      "type": "function"
    },
    {
      "inputs": [
        {
          "internalType": "bytes32[]",
          "name": "dataKeys",
          "type": "bytes32[]"
        }
      ],
      "name": "getData",
      "outputs": [
        {
          "internalType": "bytes[]",
          "name": "dataValues",
          "type": "bytes[]"
        }
      ],
      "stateMutability": "view",
      "type": "function"
    },
    {
      "inputs": [
        {
          "internalType": "bytes32",
          "name": "dataKey",
          "type": "bytes32"
        }
      ],
      "name": "getData",
      "outputs": [
        {
          "internalType": "bytes",
          "name": "dataValue",
          "type": "bytes"
        }
      ],
      "stateMutability": "view",
      "type": "function"
    },
    {
      "inputs": [],
      "name": "giveOwnerPermissionToChangeOwner",
      "outputs": [],
      "stateMutability": "nonpayable",
      "type": "function"
    },
    {
      "inputs": [
        {
          "internalType": "bytes32",
          "name": "dataHash",
          "type": "bytes32"
        },
        {
          "internalType": "bytes",
          "name": "signature",
          "type": "bytes"
        }
      ],
      "name": "isValidSignature",
      "outputs": [
        {
          "internalType": "bytes4",
          "name": "magicValue",
          "type": "bytes4"
        }
      ],
      "stateMutability": "view",
      "type": "function"
    },
    {
      "inputs": [],
      "name": "owner",
      "outputs": [
        {
          "internalType": "address",
          "name": "",
          "type": "address"
        }
      ],
      "stateMutability": "view",
      "type": "function"
    },
    {
      "inputs": [],
      "name": "pendingOwner",
      "outputs": [
        {
          "internalType": "address",
          "name": "",
          "type": "address"
        }
      ],
      "stateMutability": "view",
      "type": "function"
    },
    {
      "inputs": [],
      "name": "renounceOwnership",
      "outputs": [],
      "stateMutability": "nonpayable",
      "type": "function"
    },
    {
      "inputs": [
        {
          "internalType": "address",
          "name": "_daoPermissions",
          "type": "address"
        },
        {
          "internalType": "address",
          "name": "_daoDelegates",
          "type": "address"
        },
        {
          "internalType": "address",
          "name": "_daoProposals",
          "type": "address"
        }
      ],
      "name": "setControllerPermissionsForDao",
      "outputs": [],
      "stateMutability": "nonpayable",
      "type": "function"
    },
    {
      "inputs": [
        {
          "internalType": "address",
          "name": "_multisigAddress",
          "type": "address"
        }
      ],
      "name": "setControllerPermissionsForMultisig",
      "outputs": [],
      "stateMutability": "nonpayable",
      "type": "function"
    },
    {
      "inputs": [
        {
          "internalType": "bytes32",
          "name": "_majority",
          "type": "bytes32"
        },
        {
          "internalType": "bytes32",
          "name": "_participationRate",
          "type": "bytes32"
        },
        {
          "internalType": "bytes32",
          "name": "_minimumVotingDelay",
          "type": "bytes32"
        },
        {
          "internalType": "bytes32",
          "name": "_minimumVotingPeriod",
          "type": "bytes32"
        },
        {
          "internalType": "bytes32",
          "name": "_minimumExecutionDelay",
          "type": "bytes32"
        },
        {
          "internalType": "address[]",
          "name": "_daoParticipants",
          "type": "address[]"
        },
        {
          "internalType": "bytes32[]",
          "name": "_daoParticipantsPermissions",
          "type": "bytes32[]"
        }
      ],
      "name": "setDaoData",
      "outputs": [],
      "stateMutability": "nonpayable",
      "type": "function"
    },
    {
      "inputs": [
        {
          "internalType": "bytes32[]",
          "name": "dataKeys",
          "type": "bytes32[]"
        },
        {
          "internalType": "bytes[]",
          "name": "dataValues",
          "type": "bytes[]"
        }
      ],
      "name": "setData",
      "outputs": [],
      "stateMutability": "nonpayable",
      "type": "function"
    },
    {
      "inputs": [
        {
          "internalType": "bytes32",
          "name": "dataKey",
          "type": "bytes32"
        },
        {
          "internalType": "bytes",
          "name": "dataValue",
          "type": "bytes"
        }
      ],
      "name": "setData",
      "outputs": [],
      "stateMutability": "nonpayable",
      "type": "function"
    },
    {
      "inputs": [
        {
          "internalType": "bytes1",
          "name": "quorum",
          "type": "bytes1"
        },
        {
          "internalType": "address[]",
          "name": "_multisigParticipants",
          "type": "address[]"
        },
        {
          "internalType": "bytes32[]",
          "name": "_multisigParticipantsPermissions",
          "type": "bytes32[]"
        }
      ],
      "name": "setMultisigData",
      "outputs": [],
      "stateMutability": "nonpayable",
      "type": "function"
    },
    {
      "inputs": [
        {
          "internalType": "bytes4",
          "name": "interfaceId",
          "type": "bytes4"
        }
      ],
      "name": "supportsInterface",
      "outputs": [
        {
          "internalType": "bool",
          "name": "",
          "type": "bool"
        }
      ],
      "stateMutability": "view",
      "type": "function"
    },
    {
      "inputs": [
        {
          "internalType": "address",
          "name": "_newOwner",
          "type": "address"
        }
      ],
      "name": "transferOwnership",
      "outputs": [],
      "stateMutability": "nonpayable",
      "type": "function"
    },
    {
      "inputs": [
        {
          "internalType": "bytes32",
          "name": "typeId",
          "type": "bytes32"
        },
        {
          "internalType": "bytes",
          "name": "data",
          "type": "bytes"
        }
      ],
      "name": "universalReceiver",
      "outputs": [
        {
          "internalType": "bytes",
          "name": "returnValue",
          "type": "bytes"
        }
      ],
      "stateMutability": "payable",
      "type": "function"
    },
    {
      "stateMutability": "payable",
      "type": "receive"
    }
  ],
  "bytecode": "0x60806040523480156200001157600080fd5b5060405162004477380380620044778339810160408190526200003491620004ac565b816200004b81620001d360201b620027e91760201c565b506040805160028082526060820183526000926020830190803683375050604080516002808252606082019092529293506000929150602082015b6060815260200190600190039081620000865790505090507f0cfc51aec37c55a4d0b1a65c6255c4bf2fbdf6277f3cc0730c45b828b6db8b4760001b82600081518110620000d857620000d8620004e4565b6020026020010181815250508260601b6040516020016200010991906001600160601b031991909116815260140190565b604051602081830303815290604052816000815181106200012e576200012e620004e4565b60200260200101819052507feafec4d89fa9619884b60000abe425d64acd861a49b8ddf5c0b6962110481f3860001b82600181518110620001735762000173620004e4565b6020026020010181815250506040518060400160405280600481526020016355f212eb60e11b81525081600181518110620001b257620001b2620004e4565b6020908102919091010152620001c982826200023a565b5050505062000537565b6000546001600160a01b038281169116146200023757600080546001600160a01b038381166001600160a01b0319831681178455604051919092169283917f8be0079c531659141344cd1fd0a4f28419497f9722a3daafe3b4186f6b6457e09190a3505b50565b6200024462000324565b8051825114620002aa5760405162461bcd60e51b815260206004820152602660248201527f4b657973206c656e677468206e6f7420657175616c20746f2076616c756573206044820152650d8cadccee8d60d31b60648201526084015b60405180910390fd5b60005b82518110156200031f5762000301838281518110620002d057620002d0620004e4565b6020026020010151838381518110620002ed57620002ed620004e4565b60200260200101516200039260201b60201c565b6200031781620003e360201b6200284e1760201c565b9050620002ad565b505050565b33620003386000546001600160a01b031690565b6001600160a01b031614620003905760405162461bcd60e51b815260206004820181905260248201527f4f776e61626c653a2063616c6c6572206973206e6f7420746865206f776e65726044820152606401620002a1565b565b60008281526001602090815260409091208251620003b392840190620003e9565b5060405182907fcdf4e344c0d23d4cdd0474039d176c55b19d531070dbe17856bfb993a5b5720b90600090a25050565b60010190565b828054620003f790620004fa565b90600052602060002090601f0160209004810192826200041b576000855562000466565b82601f106200043657805160ff191683800117855562000466565b8280016001018555821562000466579182015b828111156200046657825182559160200191906001019062000449565b506200047492915062000478565b5090565b5b8082111562000474576000815560010162000479565b80516001600160a01b0381168114620004a757600080fd5b919050565b60008060408385031215620004c057600080fd5b620004cb836200048f565b9150620004db602084016200048f565b90509250929050565b634e487b7160e01b600052603260045260246000fd5b600181811c908216806200050f57607f821691505b602082108114156200053157634e487b7160e01b600052602260045260246000fd5b50919050565b613f3080620005476000396000f3fe60806040526004361061012d5760003560e01c80636c2820b9116100a55780638da5cb5b11610074578063e635609211610059578063e63560921461039c578063f2fde38b146103bc578063fe25529a146103dc57610168565b80638da5cb5b1461034a578063e30c39781461037c57610168565b80636c2820b9146102e05780636d747065146102f5578063715018a6146103155780637f23690c1461032a57610168565b806344c028fe116100fc5780634e71e0c8116100e15780634e71e0c81461029857806354f6127f146102ad5780636bb56a14146102cd57610168565b806344c028fe1461024b5780634e3e6e9c1461026b57610168565b806301ffc9a71461019d57806314a6e293146101d25780631626ba7e146101f25780633976e67e1461022b57610168565b3661016857341561016657604051349033907f7e71433ddf847725166244795048ecf3e3f9f35628254ecbf73605666423349390600090a35b005b341561016657604051349033907f7e71433ddf847725166244795048ecf3e3f9f35628254ecbf73605666423349390600090a3005b3480156101a957600080fd5b506101bd6101b8366004613553565b6103fc565b60405190151581526020015b60405180910390f35b3480156101de57600080fd5b506101666101ed3660046136bf565b6104c3565b3480156101fe57600080fd5b5061021261020d366004613794565b61059c565b6040516001600160e01b031990911681526020016101c9565b34801561023757600080fd5b50610166610246366004613859565b61069d565b61025e61025936600461392f565b610e58565b6040516101c991906139f3565b34801561027757600080fd5b5061028b610286366004613a06565b6114e2565b6040516101c99190613a3b565b3480156102a457600080fd5b50610166611596565b3480156102b957600080fd5b5061025e6102c8366004613a9d565b6115a0565b61025e6102db366004613ab6565b6115ab565b3480156102ec57600080fd5b506101666116ed565b34801561030157600080fd5b50610166610310366004613b02565b6119a2565b34801561032157600080fd5b50610166611c3a565b34801561033657600080fd5b50610166610345366004613794565b611c4c565b34801561035657600080fd5b506000546001600160a01b03165b6040516001600160a01b0390911681526020016101c9565b34801561038857600080fd5b50600254610364906001600160a01b031681565b3480156103a857600080fd5b506101666103b7366004613b1d565b611c62565b3480156103c857600080fd5b506101666103d7366004613b02565b6121fa565b3480156103e857600080fd5b506101666103f7366004613b60565b612223565b60006001600160e01b03198216630b135d3f60e11b148061044657506001600160e01b031982167f9a3bfe8800000000000000000000000000000000000000000000000000000000145b8061047a57506001600160e01b031982167f6bb56a1400000000000000000000000000000000000000000000000000000000145b806104ae57506001600160e01b031982167fd225f16000000000000000000000000000000000000000000000000000000000145b806104bd57506104bd82612854565b92915050565b6104cb612892565b80518251146105475760405162461bcd60e51b815260206004820152602660248201527f4b657973206c656e677468206e6f7420657175616c20746f2076616c7565732060448201527f6c656e677468000000000000000000000000000000000000000000000000000060648201526084015b60405180910390fd5b60005b82518110156105975761058f83828151811061056857610568613bfb565b602002602001015183838151811061058257610582613bfb565b60200260200101516128fb565b60010161054a565b505050565b6000806105b16000546001600160a01b031690565b90506001600160a01b0381163b1561065d576105d481630b135d3f60e11b61294a565b6105e6576001600160e01b0319610655565b604051630b135d3f60e11b81526001600160a01b03821690631626ba7e906106149087908790600401613c11565b602060405180830381865afa158015610631573d6000803e3d6000fd5b505050506040513d601f19601f820116820180604052508101906106559190613c2a565b9150506104bd565b6106678484612a48565b6001600160a01b0316816001600160a01b03161461068d576001600160e01b0319610655565b50630b135d3f60e11b9392505050565b6106a5612892565b80518251146106b357600080fd5b6000825160036106c39190613c5d565b6106ce906006613c7c565b67ffffffffffffffff8111156106e6576106e6613570565b60405190808252806020026020018201604052801561070f578160200160208202803683370190505b5090506000835160036107229190613c5d565b61072d906006613c7c565b67ffffffffffffffff81111561074557610745613570565b60405190808252806020026020018201604052801561077857816020015b60608152602001906001900390816107635790505b5090507fbc776f168e7b9c60bb2a7180950facd372cd90c841732d963c31a93ff9f8c12760001b826000815181106107b2576107b2613bfb565b602002602001018181525050886040516020016107d191815260200190565b604051602081830303815290604052816000815181106107f3576107f3613bfb565b60200260200101819052507ff89f507ecd9cb7646ce1514ec6ab90d695dac9314c3771f451fd90148a3335a960001b8260018151811061083557610835613bfb565b6020026020010181815250508760405160200161085491815260200190565b6040516020818303038152906040528160018151811061087657610876613bfb565b60200260200101819052507f799787138cc40d7a47af8e69bdea98db14e1ead8227cef96814fa51751e25c7660001b826002815181106108b8576108b8613bfb565b602002602001018181525050866040516020016108d791815260200190565b604051602081830303815290604052816002815181106108f9576108f9613bfb565b60200260200101819052507fd3cf4cd71858ea36c3f5ce43955db04cbe9e1f42a2c7795c25c1d430c9bb280a60001b8260038151811061093b5761093b613bfb565b6020026020010181815250508560405160200161095a91815260200190565b6040516020818303038152906040528160038151811061097c5761097c613bfb565b60200260200101819052507fb207580c05383177027a90d6c298046d3d60dfa05a32b0bb48ea9015e11a342460001b826004815181106109be576109be613bfb565b602002602001018181525050846040516020016109dd91815260200190565b604051602081830303815290604052816004815181106109ff576109ff613bfb565b60200260200101819052507ff7f9c7410dd493d79ebdaee15bbc77fd163bd488f54107d1be6ed34b1e09900460001b82600581518110610a4157610a41613bfb565b602002602001018181525050835160001b604051602001610a6491815260200190565b60405160208183030381529060405281600581518110610a8657610a86613bfb565b602002602001018190525060005b8451816001600160801b03161015610e4257604080517ff7f9c7410dd493d79ebdaee15bbc77fd0000000000000000000000000000000060208201526001600160801b0319608084901b16603082015201604051602081830303815290604052610afd90613c94565b83610b09836006613cb8565b6001600160801b031681518110610b2257610b22613bfb565b60200260200101818152505084816001600160801b031681518110610b4957610b49613bfb565b602002602001015160601b604051602001610b7491906001600160601b031991909116815260140190565b60408051601f1981840301815291905282610b90836006613cb8565b6001600160801b031681518110610ba957610ba9613bfb565b60200260200101819052506bf7f9c7410dd493d79ebd000060a01b85826001600160801b031681518110610bdf57610bdf613bfb565b602002602001015160601b604051602001610c1a9291906001600160a01b03199290921682526001600160601b031916600c82015260200190565b604051602081830303815290604052610c3290613c94565b85518490610c41846006613cb8565b6001600160801b0316610c549190613c7c565b81518110610c6457610c64613bfb565b602002602001018181525050806001600160801b031660001b604051602001610c8f91815260200190565b604051602081830303815290604052828651836006610cae9190613cb8565b6001600160801b0316610cc19190613c7c565b81518110610cd157610cd1613bfb565b60200260200101819052506b4b80742de2bfb3cc0e49000060a01b85826001600160801b031681518110610d0757610d07613bfb565b602002602001015160601b604051602001610d429291906001600160a01b03199290921682526001600160601b031916600c82015260200190565b604051602081830303815290604052610d5a90613c94565b8386516002610d699190613c5d565b610d74846006613cb8565b6001600160801b0316610d879190613c7c565b81518110610d9757610d97613bfb565b60200260200101818152505083816001600160801b031681518110610dbe57610dbe613bfb565b6020026020010151604051602001610dd891815260200190565b6040516020818303038152906040528286516002610df69190613c5d565b610e01846006613cb8565b6001600160801b0316610e149190613c7c565b81518110610e2457610e24613bfb565b60200260200101819052508080610e3a90613ce3565b915050610a94565b50610e4d82826104c3565b505050505050505050565b6060610e62612892565b60005a905086610f685784471015610ecb5760405162461bcd60e51b815260206004820152602660248201527f455243373235583a20696e73756666696369656e742062616c616e636520666f6044820152651c8818d85b1b60d21b606482015260840161053e565b610f0e868686868080601f016020809104026020016040519081016040528093929190818152602001838380828437600092019190915250879250612a6c915050565b9150846001600160a01b038716887f4810874456b8e6487bd861375cf6abd8e1c8bb5858c8ce36a86a04dabfac199e610f478789613d0a565b6040516001600160e01b0319909116815260200160405180910390a46114d8565b6003871415611027578415610fe55760405162461bcd60e51b815260206004820152603860248201527f455243373235583a2063616e6e6f74207472616e736665722076616c7565207760448201527f697468206f7065726174696f6e2053544154494343414c4c0000000000000000606482015260840161053e565b610f0e8685858080601f016020809104026020016040519081016040528093929190818152602001838380828437600092019190915250869250612b1e915050565b60048714156110e65784156110a45760405162461bcd60e51b815260206004820152603a60248201527f455243373235583a2063616e6e6f74207472616e736665722076616c7565207760448201527f697468206f7065726174696f6e2044454c454741544543414c4c000000000000606482015260840161053e565b610f0e8685858080601f016020809104026020016040519081016040528093929190818152602001838380828437600092019190915250869250612bc2915050565b6001871415611285576001600160a01b038616156111785760405162461bcd60e51b815260206004820152604360248201527f455243373235583a20435245415445206f7065726174696f6e7320726571756960448201527f726520746865207265636569766572206164647265737320746f20626520656d60648201526270747960e81b608482015260a40161053e565b844710156111d75760405162461bcd60e51b815260206004820152602660248201527f455243373235583a20696e73756666696369656e742062616c616e636520666f6044820152651c8818d85b1b60d21b606482015260840161053e565b60006112198686868080601f016020809104026020016040519081016040528093929190818152602001838380828437600092019190915250612c1c92505050565b6040516001600160601b0319606083901b166020820152909150603401604051602081830303815290604052925085816001600160a01b0316897f01c42bd7e97a66166063b02fce6924e6656b6c2c61966630165095c4fb0b7b2f60405160405180910390a4506114d8565b6002871415611490576001600160a01b038616156113175760405162461bcd60e51b815260206004820152604360248201527f455243373235583a20435245415445206f7065726174696f6e7320726571756960448201527f726520746865207265636569766572206164647265737320746f20626520656d60648201526270747960e81b608482015260a40161053e565b844710156113765760405162461bcd60e51b815260206004820152602660248201527f455243373235583a20696e73756666696369656e742062616c616e636520666f6044820152651c8818d85b1b60d21b606482015260840161053e565b60006113c485858080601f0160208091040260200160405190810160405280939291908181526020018383808284376000920191909152506113bf925060209150889050613d3a565b612cd0565b9050600061141386868080601f0160208091040260200160405190810160405280939291908181526020018383808284376000920182905250925061140e91506020905089613d3a565b612d36565b90506000611422888484612e60565b6040516001600160601b0319606083901b166020820152909150603401604051602081830303815290604052945087816001600160a01b03168b7f01c42bd7e97a66166063b02fce6924e6656b6c2c61966630165095c4fb0b7b2f60405160405180910390a45050506114d8565b60405162461bcd60e51b815260206004820152601460248201527f57726f6e67206f7065726174696f6e2074797065000000000000000000000000604482015260640161053e565b5095945050505050565b6060815167ffffffffffffffff8111156114fe576114fe613570565b60405190808252806020026020018201604052801561153157816020015b606081526020019060019003908161151c5790505b50905060005b82518110156115905761156283828151811061155557611555613bfb565b6020026020010151612f6a565b82828151811061157457611574613bfb565b60200260200101819052506115898160010190565b9050611537565b50919050565b61159e61300c565b565b60606104bd82612f6a565b606060006115d87f0cfc51aec37c55a4d0b1a65c6255c4bf2fbdf6277f3cc0730c45b828b6db8b47612f6a565b905060148151106116895760006115ee82613d51565b60601c905061160481635122dded60e11b61294a565b1561168757604051635122dded60e11b81526001600160a01b0382169063a245bbda9061163d90339034908b908b908b90600401613db1565b6000604051808303816000875af115801561165c573d6000803e3d6000fd5b505050506040513d6000823e601f3d908101601f191682016040526116849190810190613de0565b92505b505b816040516116979190613e57565b604051809103902085336001600160a01b03167f9c3ba68eb5742b8e3961aea0afc7371a71bf433c8a67a831803b64c064a178c23488886040516116dd93929190613e73565b60405180910390a4509392505050565b6116f5612892565b60408051600380825260808201909252600091602082016060803683375050604080516003808252608082019092529293506000929150602082015b606081526020019060019003908161173157905050905060006117737fdf30dba06db6a30e65354d9a64c609861f089545ca58c6b4dbe31a5f338cb0e36115a0565b9050600061178082613c94565b9050600061178f826001613c7c565b905060006117a56000546001600160a01b031690565b90507fdf30dba06db6a30e65354d9a64c609861f089545ca58c6b4dbe31a5f338cb0e360001b866000815181106117de576117de613bfb565b6020026020010181815250508160001b60405160200161180091815260200190565b6040516020818303038152906040528560008151811061182257611822613bfb565b602090810291909101810191909152604080516f6f986dd036db5187329aa6cd326304c360811b81840152608086901b6001600160801b0319166030820152815180820390930183528101905261187890613c94565b8660018151811061188b5761188b613bfb565b6020026020010181815250508060601b6040516020016118bb91906001600160601b031991909116815260140190565b604051602081830303815290604052856001815181106118dd576118dd613bfb565b60209081029190910181019190915260408051694b80742de2bf82acb36360b01b81840152606084901b6001600160601b031916602c820152815180820390930183528101905261192d90613c94565b8660028151811061194057611940613bfb565b602002602001018181525050600160001b60405160200161196391815260200190565b6040516020818303038152906040528560028151811061198557611985613bfb565b602002602001018190525061199a86866104c3565b505050505050565b6119aa612892565b60408051600380825260808201909252600091602082016060803683375050604080516003808252608082019092529293506000929150602082015b60608152602001906001900390816119e65790505090506000611a287fdf30dba06db6a30e65354d9a64c609861f089545ca58c6b4dbe31a5f338cb0e36115a0565b90506000611a3582613c94565b90506000611a44826001613c7c565b90507fdf30dba06db6a30e65354d9a64c609861f089545ca58c6b4dbe31a5f338cb0e360001b85600081518110611a7d57611a7d613bfb565b6020026020010181815250508060001b604051602001611a9f91815260200190565b60405160208183030381529060405284600081518110611ac157611ac1613bfb565b602090810291909101810191909152604080516f6f986dd036db5187329aa6cd326304c360811b81840152608085901b6001600160801b03191660308201528151808203909301835281019052611b1790613c94565b85600181518110611b2a57611b2a613bfb565b6020026020010181815250508560601b604051602001611b5a91906001600160601b031991909116815260140190565b60405160208183030381529060405284600181518110611b7c57611b7c613bfb565b60209081029190910181019190915260408051694b80742de2bf82acb36360b01b81840152606089901b6001600160601b031916602c8201528151808203909301835281019052611bcc90613c94565b85600281518110611bdf57611bdf613bfb565b602002602001018181525050617fbf60001b604051602001611c0391815260200190565b60405160208183030381529060405284600281518110611c2557611c25613bfb565b602002602001018190525061199a85856104c3565b611c42612892565b61159e60006127e9565b611c54612892565b611c5e82826128fb565b5050565b611c6a612892565b60408051600780825261010082019092526000916020820160e080368337505060408051600780825261010082019092529293506000929150602082015b6060815260200190600190039081611ca85790505090506000611cea7fdf30dba06db6a30e65354d9a64c609861f089545ca58c6b4dbe31a5f338cb0e36115a0565b90506000611cf782613c94565b90506000611d06826003613c7c565b90507fdf30dba06db6a30e65354d9a64c609861f089545ca58c6b4dbe31a5f338cb0e360001b85600081518110611d3f57611d3f613bfb565b6020026020010181815250508060001b604051602001611d6191815260200190565b60405160208183030381529060405284600081518110611d8357611d83613bfb565b602090810291909101810191909152604080516f6f986dd036db5187329aa6cd326304c360811b81840152608085901b6001600160801b03191660308201528151808203909301835281019052611dd990613c94565b85600181518110611dec57611dec613bfb565b6020026020010181815250508760601b604051602001611e1c91906001600160601b031991909116815260140190565b60405160208183030381529060405284600181518110611e3e57611e3e613bfb565b60209081029190910101526f6f986dd036db5187329aa6cd326304c360811b611e68836001613c7c565b60801b604051602001611e929291906001600160801b031992831681529116601082015260200190565b604051602081830303815290604052611eaa90613c94565b85600281518110611ebd57611ebd613bfb565b6020026020010181815250508660601b604051602001611eed91906001600160601b031991909116815260140190565b60405160208183030381529060405284600281518110611f0f57611f0f613bfb565b60209081029190910101526f6f986dd036db5187329aa6cd326304c360811b611f39836002613c7c565b60801b604051602001611f639291906001600160801b031992831681529116601082015260200190565b604051602081830303815290604052611f7b90613c94565b85600381518110611f8e57611f8e613bfb565b6020026020010181815250508560601b604051602001611fbe91906001600160601b031991909116815260140190565b60405160208183030381529060405284600381518110611fe057611fe0613bfb565b60209081029190910181019190915260408051694b80742de2bf82acb36360b01b8184015260608b901b6001600160601b031916602c820152815180820390930183528101905261203090613c94565b8560048151811061204357612043613bfb565b602002602001018181525050617fbf60001b60405160200161206791815260200190565b6040516020818303038152906040528460048151811061208957612089613bfb565b60209081029190910181019190915260408051694b80742de2bf82acb36360b01b8184015260608a901b6001600160601b031916602c82015281518082039093018352810190526120d990613c94565b856005815181106120ec576120ec613bfb565b602002602001018181525050617fbf60001b60405160200161211091815260200190565b6040516020818303038152906040528460058151811061213257612132613bfb565b60209081029190910181019190915260408051694b80742de2bf82acb36360b01b81840152606089901b6001600160601b031916602c820152815180820390930183528101905261218290613c94565b8560068151811061219557612195613bfb565b602002602001018181525050617fbf60001b6040516020016121b991815260200190565b604051602081830303815290604052846006815181106121db576121db613bfb565b60200260200101819052506121f085856104c3565b5050505050505050565b612202612892565b600280546001600160a01b0319166001600160a01b03831617905550565b50565b61222b612892565b60008251600361223b9190613c5d565b612246906002613c7c565b67ffffffffffffffff81111561225e5761225e613570565b604051908082528060200260200182016040528015612287578160200160208202803683370190505b50905060008351600361229a9190613c5d565b6122a5906002613c7c565b67ffffffffffffffff8111156122bd576122bd613570565b6040519080825280602002602001820160405280156122f057816020015b60608152602001906001900390816122db5790505b5090507f47499aa724781173ffff2a8a82c6223b88e1a838d32bb91a9ff9c9c0b8c8759b60001b8260008151811061232a5761232a613bfb565b6020026020010181815250508460405160200161236f91907fff0000000000000000000000000000000000000000000000000000000000000091909116815260010190565b6040516020818303038152906040528160008151811061239157612391613bfb565b60200260200101819052507f54aef89da199194b126d28036f71291726191dbff7160f9d0986952b17eaedb460001b826001815181106123d3576123d3613bfb565b602002602001018181525050835160001b6040516020016123f691815260200190565b6040516020818303038152906040528160018151811061241857612418613bfb565b602002602001018190525060005b8451816001600160801b031610156127d757604080517f54aef89da199194b126d28036f7129170000000000000000000000000000000060208201526001600160801b0319608084901b1660308201520160405160208183030381529060405261248f90613c94565b8361249b836002613cb8565b6001600160801b0316815181106124b4576124b4613bfb565b60200260200101818152505084816001600160801b0316815181106124db576124db613bfb565b602002602001015160601b60405160200161250691906001600160601b031991909116815260140190565b60408051601f1981840301815291905282612522836002613cb8565b6001600160801b03168151811061253b5761253b613bfb565b60200260200101819052506b54aef89da199194b126d000060a01b85826001600160801b03168151811061257157612571613bfb565b602002602001015160601b6040516020016125ac9291906001600160a01b03199290921682526001600160601b031916600c82015260200190565b6040516020818303038152906040526125c490613c94565b83826001600160801b0316875160026125dd9190613c7c565b6125e79190613c7c565b815181106125f7576125f7613bfb565b602002602001018181525050806001600160801b031660001b60405160200161262291815260200190565b60405160208183030381529060405282826001600160801b03168751600261264a9190613c7c565b6126549190613c7c565b8151811061266457612664613bfb565b60200260200101819052506b4164647265734d756c74000060a01b85826001600160801b03168151811061269a5761269a613bfb565b602002602001015160601b6040516020016126d59291906001600160a01b03199290921682526001600160601b031916600c82015260200190565b6040516020818303038152906040526126ed90613c94565b83826001600160801b0316875160026127069190613c5d565b612711906002613c7c565b61271b9190613c7c565b8151811061272b5761272b613bfb565b60200260200101818152505083816001600160801b03168151811061275257612752613bfb565b602002602001015160405160200161276c91815260200190565b60405160208183030381529060405282826001600160801b0316875160026127949190613c5d565b61279f906002613c7c565b6127a99190613c7c565b815181106127b9576127b9613bfb565b602002602001018190525080806127cf90613ce3565b915050612426565b506127e282826104c3565b5050505050565b6000546001600160a01b0382811691161461222057600080546001600160a01b038381166001600160a01b0319831681178455604051919092169283917f8be0079c531659141344cd1fd0a4f28419497f9722a3daafe3b4186f6b6457e09190a35050565b60010190565b60006001600160e01b031982167f714df77c0000000000000000000000000000000000000000000000000000000014806104bd57506104bd826130b3565b336128a56000546001600160a01b031690565b6001600160a01b03161461159e5760405162461bcd60e51b815260206004820181905260248201527f4f776e61626c653a2063616c6c6572206973206e6f7420746865206f776e6572604482015260640161053e565b6000828152600160209081526040909120825161291a928401906134a4565b5060405182907fcdf4e344c0d23d4cdd0474039d176c55b19d531070dbe17856bfb993a5b5720b90600090a25050565b604080516001600160e01b0319831660248083019190915282518083039091018152604490910182526020810180517bffffffffffffffffffffffffffffffffffffffffffffffffffffffff166301ffc9a760e01b179052905160009190829081906001600160a01b03871690617530906129c6908690613e57565b6000604051808303818686fa925050503d8060008114612a02576040519150601f19603f3d011682016040523d82523d6000602084013e612a07565b606091505b5091509150602081511015612a2257600093505050506104bd565b818015612a3e575080806020019051810190612a3e9190613e8d565b9695505050505050565b6000806000612a578585613101565b91509150612a6481613171565b509392505050565b6060600080866001600160a01b0316848787604051612a8b9190613e57565b600060405180830381858888f193505050503d8060008114612ac9576040519150601f19603f3d011682016040523d82523d6000602084013e612ace565b606091505b5091509150612b1382826040518060400160405280601581526020017f455243373235583a20556e6b6e6f77204572726f72000000000000000000000081525061332c565b979650505050505050565b6060600080856001600160a01b03168486604051612b3c9190613e57565b6000604051808303818686fa925050503d8060008114612b78576040519150601f19603f3d011682016040523d82523d6000602084013e612b7d565b606091505b5091509150612a3e82826040518060400160405280601581526020017f455243373235583a20556e6b6e6f77204572726f72000000000000000000000081525061332c565b6060600080856001600160a01b03168486604051612be09190613e57565b6000604051808303818686f4925050503d8060008114612b78576040519150601f19603f3d011682016040523d82523d6000602084013e612b7d565b6000815160001415612c705760405162461bcd60e51b815260206004820152601d60248201527f6e6f20636f6e74726163742062797465636f64652070726f7669646564000000604482015260640161053e565b81516020830184f090506001600160a01b0381166104bd5760405162461bcd60e51b815260206004820152601960248201527f436f756c64206e6f74206465706c6f7920636f6e747261637400000000000000604482015260640161053e565b6000612cdd826020613c7c565b83511015612d2d5760405162461bcd60e51b815260206004820152601560248201527f746f427974657333325f6f75744f66426f756e64730000000000000000000000604482015260640161053e565b50016020015190565b606081612d4481601f613c7c565b1015612d925760405162461bcd60e51b815260206004820152600e60248201527f736c6963655f6f766572666c6f77000000000000000000000000000000000000604482015260640161053e565b612d9c8284613c7c565b84511015612dec5760405162461bcd60e51b815260206004820152601160248201527f736c6963655f6f75744f66426f756e6473000000000000000000000000000000604482015260640161053e565b606082158015612e0b5760405191506000825260208201604052612e55565b6040519150601f8416801560200281840101858101878315602002848b0101015b81831015612e44578051835260209283019201612e2c565b5050858452601f01601f1916604052505b5090505b9392505050565b60008084471015612eb35760405162461bcd60e51b815260206004820152601d60248201527f437265617465323a20696e73756666696369656e742062616c616e6365000000604482015260640161053e565b8251612f015760405162461bcd60e51b815260206004820181905260248201527f437265617465323a2062797465636f6465206c656e677468206973207a65726f604482015260640161053e565b8383516020850187f590506001600160a01b038116612f625760405162461bcd60e51b815260206004820152601960248201527f437265617465323a204661696c6564206f6e206465706c6f7900000000000000604482015260640161053e565b949350505050565b6000818152600160205260409020805460609190612f8790613eaf565b80601f0160208091040260200160405190810160405280929190818152602001828054612fb390613eaf565b80156130005780601f10612fd557610100808354040283529160200191613000565b820191906000526020600020905b815481529060010190602001808311612fe357829003601f168201915b50505050509050919050565b6002546001600160a01b0316331461308c5760405162461bcd60e51b815260206004820152602c60248201527f4f776e61626c65436c61696d3a2063616c6c6572206973206e6f74207468652060448201527f70656e64696e674f776e65720000000000000000000000000000000000000000606482015260840161053e565b6002546130a1906001600160a01b03166127e9565b600280546001600160a01b0319169055565b60006001600160e01b031982167f44c028fe0000000000000000000000000000000000000000000000000000000014806104bd57506301ffc9a760e01b6001600160e01b03198316146104bd565b6000808251604114156131385760208301516040840151606085015160001a61312c87828585613365565b9450945050505061316a565b8251604014156131625760208301516040840151613157868383613452565b93509350505061316a565b506000905060025b9250929050565b600081600481111561318557613185613ee4565b141561318e5750565b60018160048111156131a2576131a2613ee4565b14156131f05760405162461bcd60e51b815260206004820152601860248201527f45434453413a20696e76616c6964207369676e61747572650000000000000000604482015260640161053e565b600281600481111561320457613204613ee4565b14156132525760405162461bcd60e51b815260206004820152601f60248201527f45434453413a20696e76616c6964207369676e6174757265206c656e67746800604482015260640161053e565b600381600481111561326657613266613ee4565b14156132bf5760405162461bcd60e51b815260206004820152602260248201527f45434453413a20696e76616c6964207369676e6174757265202773272076616c604482015261756560f01b606482015260840161053e565b60048160048111156132d3576132d3613ee4565b14156122205760405162461bcd60e51b815260206004820152602260248201527f45434453413a20696e76616c6964207369676e6174757265202776272076616c604482015261756560f01b606482015260840161053e565b6060831561333b575081612e59565b82511561334b5782518084602001fd5b8160405162461bcd60e51b815260040161053e91906139f3565b6000807f7fffffffffffffffffffffffffffffff5d576e7357a4501ddfe92f46681b20a083111561339c5750600090506003613449565b8460ff16601b141580156133b457508460ff16601c14155b156133c55750600090506004613449565b6040805160008082526020820180845289905260ff881692820192909252606081018690526080810185905260019060a0016020604051602081039080840390855afa158015613419573d6000803e3d6000fd5b5050604051601f1901519150506001600160a01b03811661344257600060019250925050613449565b9150600090505b94509492505050565b6000807f7fffffffffffffffffffffffffffffffffffffffffffffffffffffffffffffff83168161348860ff86901c601b613c7c565b905061349687828885613365565b935093505050935093915050565b8280546134b090613eaf565b90600052602060002090601f0160209004810192826134d25760008555613518565b82601f106134eb57805160ff1916838001178555613518565b82800160010185558215613518579182015b828111156135185782518255916020019190600101906134fd565b50613524929150613528565b5090565b5b808211156135245760008155600101613529565b6001600160e01b03198116811461222057600080fd5b60006020828403121561356557600080fd5b8135612e598161353d565b634e487b7160e01b600052604160045260246000fd5b604051601f8201601f1916810167ffffffffffffffff811182821017156135af576135af613570565b604052919050565b600067ffffffffffffffff8211156135d1576135d1613570565b5060051b60200190565b600082601f8301126135ec57600080fd5b813560206136016135fc836135b7565b613586565b82815260059290921b8401810191818101908684111561362057600080fd5b8286015b8481101561363b5780358352918301918301613624565b509695505050505050565b600067ffffffffffffffff82111561366057613660613570565b50601f01601f191660200190565b600082601f83011261367f57600080fd5b813561368d6135fc82613646565b8181528460208386010111156136a257600080fd5b816020850160208301376000918101602001919091529392505050565b600080604083850312156136d257600080fd5b823567ffffffffffffffff808211156136ea57600080fd5b6136f6868387016135db565b935060209150818501358181111561370d57600080fd5b8501601f8101871361371e57600080fd5b803561372c6135fc826135b7565b81815260059190911b8201840190848101908983111561374b57600080fd5b8584015b83811015613783578035868111156137675760008081fd5b6137758c898389010161366e565b84525091860191860161374f565b508096505050505050509250929050565b600080604083850312156137a757600080fd5b82359150602083013567ffffffffffffffff8111156137c557600080fd5b6137d18582860161366e565b9150509250929050565b80356001600160a01b03811681146137f257600080fd5b919050565b600082601f83011261380857600080fd5b813560206138186135fc836135b7565b82815260059290921b8401810191818101908684111561383757600080fd5b8286015b8481101561363b5761384c816137db565b835291830191830161383b565b600080600080600080600060e0888a03121561387457600080fd5b873596506020880135955060408801359450606088013593506080880135925060a088013567ffffffffffffffff808211156138af57600080fd5b6138bb8b838c016137f7565b935060c08a01359150808211156138d157600080fd5b506138de8a828b016135db565b91505092959891949750929550565b60008083601f8401126138ff57600080fd5b50813567ffffffffffffffff81111561391757600080fd5b60208301915083602082850101111561316a57600080fd5b60008060008060006080868803121561394757600080fd5b85359450613957602087016137db565b935060408601359250606086013567ffffffffffffffff81111561397a57600080fd5b613986888289016138ed565b969995985093965092949392505050565b60005b838110156139b257818101518382015260200161399a565b838111156139c1576000848401525b50505050565b600081518084526139df816020860160208601613997565b601f01601f19169290920160200192915050565b602081526000612e5960208301846139c7565b600060208284031215613a1857600080fd5b813567ffffffffffffffff811115613a2f57600080fd5b612f62848285016135db565b6000602080830181845280855180835260408601915060408160051b870101925083870160005b82811015613a9057603f19888603018452613a7e8583516139c7565b94509285019290850190600101613a62565b5092979650505050505050565b600060208284031215613aaf57600080fd5b5035919050565b600080600060408486031215613acb57600080fd5b83359250602084013567ffffffffffffffff811115613ae957600080fd5b613af5868287016138ed565b9497909650939450505050565b600060208284031215613b1457600080fd5b612e59826137db565b600080600060608486031215613b3257600080fd5b613b3b846137db565b9250613b49602085016137db565b9150613b57604085016137db565b90509250925092565b600080600060608486031215613b7557600080fd5b83357fff0000000000000000000000000000000000000000000000000000000000000081168114613ba557600080fd5b9250602084013567ffffffffffffffff80821115613bc257600080fd5b613bce878388016137f7565b93506040860135915080821115613be457600080fd5b50613bf1868287016135db565b9150509250925092565b634e487b7160e01b600052603260045260246000fd5b828152604060208201526000612f6260408301846139c7565b600060208284031215613c3c57600080fd5b8151612e598161353d565b634e487b7160e01b600052601160045260246000fd5b6000816000190483118215151615613c7757613c77613c47565b500290565b60008219821115613c8f57613c8f613c47565b500190565b805160208083015191908110156115905760001960209190910360031b1b16919050565b60006001600160801b03808316818516808303821115613cda57613cda613c47565b01949350505050565b60006001600160801b0380831681811415613d0057613d00613c47565b6001019392505050565b6001600160e01b03198135818116916004851015613d325780818660040360031b1b83161692505b505092915050565b600082821015613d4c57613d4c613c47565b500390565b805160208201516001600160601b03198082169291906014831015613d805780818460140360031b1b83161693505b505050919050565b81835281816020850137506000828201602090810191909152601f909101601f19169091010190565b6001600160a01b0386168152846020820152836040820152608060608201526000612b13608083018486613d88565b600060208284031215613df257600080fd5b815167ffffffffffffffff811115613e0957600080fd5b8201601f81018413613e1a57600080fd5b8051613e286135fc82613646565b818152856020838501011115613e3d57600080fd5b613e4e826020830160208601613997565b95945050505050565b60008251613e69818460208701613997565b9190910192915050565b838152604060208201526000613e4e604083018486613d88565b600060208284031215613e9f57600080fd5b81518015158114612e5957600080fd5b600181811c90821680613ec357607f821691505b6020821081141561159057634e487b7160e01b600052602260045260246000fd5b634e487b7160e01b600052602160045260246000fdfea264697066735822122044de8113db99594ba2285f12db54edc8d4cbf3472fc8ac387aea578b7b32678864736f6c634300080a0033",
  "linkReferences": {},
  "deployedLinkReferences": {}
}