{
  "_format": "hh-sol-artifact-1",
  "contractName": "KeyManager",
  "sourceName": "contracts/deps/KeyManager.sol",
  "abi": [
    {
      "inputs": [
        {
          "internalType": "address",
          "name": "target_",
          "type": "address"
        }
      ],
      "stateMutability": "nonpayable",
      "type": "constructor"
    },
    {
      "inputs": [
        {
          "internalType": "bytes",
          "name": "value",
          "type": "bytes"
        },
        {
          "internalType": "string",
          "name": "valueType",
          "type": "string"
        }
      ],
      "name": "InvalidABIEncodedArray",
      "type": "error"
    },
    {
      "inputs": [
        {
          "internalType": "bytes4",
          "name": "invalidFunction",
          "type": "bytes4"
        }
      ],
      "name": "InvalidERC725Function",
      "type": "error"
    },
    {
      "inputs": [],
      "name": "InvalidLSP6Target",
      "type": "error"
    },
    {
      "inputs": [
        {
          "internalType": "address",
          "name": "signer",
          "type": "address"
        },
        {
          "internalType": "uint256",
          "name": "invalidNonce",
          "type": "uint256"
        },
        {
          "internalType": "bytes",
          "name": "signature",
          "type": "bytes"
        }
      ],
      "name": "InvalidRelayNonce",
      "type": "error"
    },
    {
      "inputs": [
        {
          "internalType": "address",
          "name": "from",
          "type": "address"
        }
      ],
      "name": "NoPermissionsSet",
      "type": "error"
    },
    {
      "inputs": [
        {
          "internalType": "address",
          "name": "from",
          "type": "address"
        },
        {
          "internalType": "address",
          "name": "disallowedAddress",
          "type": "address"
        }
      ],
      "name": "NotAllowedAddress",
      "type": "error"
    },
    {
      "inputs": [
        {
          "internalType": "address",
          "name": "from",
          "type": "address"
        },
        {
          "internalType": "bytes32",
          "name": "disallowedKey",
          "type": "bytes32"
        }
      ],
      "name": "NotAllowedERC725YKey",
      "type": "error"
    },
    {
      "inputs": [
        {
          "internalType": "address",
          "name": "from",
          "type": "address"
        },
        {
          "internalType": "bytes4",
          "name": "disallowedFunction",
          "type": "bytes4"
        }
      ],
      "name": "NotAllowedFunction",
      "type": "error"
    },
    {
      "inputs": [
        {
          "internalType": "address",
          "name": "from",
          "type": "address"
        },
        {
          "internalType": "address",
          "name": "addressNotImplementingAllowedStandard",
          "type": "address"
        }
      ],
      "name": "NotAllowedStandard",
      "type": "error"
    },
    {
      "inputs": [
        {
          "internalType": "address",
          "name": "from",
          "type": "address"
        },
        {
          "internalType": "string",
          "name": "permission",
          "type": "string"
        }
      ],
      "name": "NotAuthorised",
      "type": "error"
    },
    {
      "anonymous": false,
      "inputs": [
        {
          "indexed": true,
          "internalType": "uint256",
          "name": "value",
          "type": "uint256"
        },
        {
          "indexed": false,
          "internalType": "bytes4",
          "name": "selector",
          "type": "bytes4"
        }
      ],
      "name": "Executed",
      "type": "event"
    },
    {
      "inputs": [
        {
          "internalType": "bytes",
          "name": "payload",
          "type": "bytes"
        }
      ],
      "name": "execute",
      "outputs": [
        {
          "internalType": "bytes",
          "name": "",
          "type": "bytes"
        }
      ],
      "stateMutability": "payable",
      "type": "function"
    },
    {
      "inputs": [
        {
          "internalType": "bytes",
          "name": "signature",
          "type": "bytes"
        },
        {
          "internalType": "uint256",
          "name": "nonce",
          "type": "uint256"
        },
        {
          "internalType": "bytes",
          "name": "payload",
          "type": "bytes"
        }
      ],
      "name": "executeRelayCall",
      "outputs": [
        {
          "internalType": "bytes",
          "name": "",
          "type": "bytes"
        }
      ],
      "stateMutability": "payable",
      "type": "function"
    },
    {
      "inputs": [
        {
          "internalType": "address",
          "name": "from",
          "type": "address"
        },
        {
          "internalType": "uint256",
          "name": "channelId",
          "type": "uint256"
        }
      ],
      "name": "getNonce",
      "outputs": [
        {
          "internalType": "uint256",
          "name": "",
          "type": "uint256"
        }
      ],
      "stateMutability": "view",
      "type": "function"
    },
    {
      "inputs": [
        {
          "internalType": "bytes32",
          "name": "dataHash",
          "type": "bytes32"
        },
        {
          "internalType": "bytes",
          "name": "signature",
          "type": "bytes"
        }
      ],
      "name": "isValidSignature",
      "outputs": [
        {
          "internalType": "bytes4",
          "name": "magicValue",
          "type": "bytes4"
        }
      ],
      "stateMutability": "view",
      "type": "function"
    },
    {
      "inputs": [
        {
          "internalType": "bytes4",
          "name": "interfaceId",
          "type": "bytes4"
        }
      ],
      "name": "supportsInterface",
      "outputs": [
        {
          "internalType": "bool",
          "name": "",
          "type": "bool"
        }
      ],
      "stateMutability": "view",
      "type": "function"
    },
    {
      "inputs": [],
      "name": "target",
      "outputs": [
        {
          "internalType": "address",
          "name": "",
          "type": "address"
        }
      ],
      "stateMutability": "view",
      "type": "function"
    }
  ],
  "bytecode": "0x60806040523480156200001157600080fd5b5060405162004c3338038062004c33833981810160405281019062000037919062000152565b80600073ffffffffffffffffffffffffffffffffffffffff168173ffffffffffffffffffffffffffffffffffffffff161415620000a0576040517ffc85457900000000000000000000000000000000000000000000000000000000815260040160405180910390fd5b806000806101000a81548173ffffffffffffffffffffffffffffffffffffffff021916908373ffffffffffffffffffffffffffffffffffffffff160217905550505062000184565b600080fd5b600073ffffffffffffffffffffffffffffffffffffffff82169050919050565b60006200011a82620000ed565b9050919050565b6200012c816200010d565b81146200013857600080fd5b50565b6000815190506200014c8162000121565b92915050565b6000602082840312156200016b576200016a620000e8565b5b60006200017b848285016200013b565b91505092915050565b614a9f80620001946000396000f3fe6080604052600436106100555760003560e01c806301ffc9a71461005a57806309c5eabe146100975780631626ba7e146100c75780638953580314610104578063902d5fa014610141578063d4b8399214610171575b600080fd5b34801561006657600080fd5b50610081600480360381019061007c9190612ff4565b61019c565b60405161008e919061303c565b60405180910390f35b6100b160048036038101906100ac91906130bc565b61024c565b6040516100be91906131a2565b60405180910390f35b3480156100d357600080fd5b506100ee60048036038101906100e9919061332a565b610389565b6040516100fb9190613395565b60405180910390f35b34801561011057600080fd5b5061012b60048036038101906101269190613444565b610424565b6040516101389190613493565b60405180910390f35b61015b600480360381019061015691906134ae565b61049c565b60405161016891906131a2565b60405180910390f35b34801561017d57600080fd5b506101866106e8565b604051610193919061354d565b60405180910390f35b600063c403d48f60e01b7bffffffffffffffffffffffffffffffffffffffffffffffffffffffff1916827bffffffffffffffffffffffffffffffffffffffffffffffffffffffff191614806102355750631626ba7e60e01b7bffffffffffffffffffffffffffffffffffffffffffffffffffffffff1916827bffffffffffffffffffffffffffffffffffffffffffffffffffffffff1916145b8061024557506102448261070c565b5b9050919050565b6060610259338484610776565b60008060008054906101000a900473ffffffffffffffffffffffffffffffffffffffff1673ffffffffffffffffffffffffffffffffffffffff16345a9087876040516102a6929190613598565b600060405180830381858888f193505050503d80600081146102e4576040519150601f19603f3d011682016040523d82523d6000602084013e6102e9565b606091505b509150915060006103138383604051806080016040528060428152602001614a2860429139610d02565b9050347f6b9340454526f665e369d7ac17353d0b73774a4a80f746b959ece8130e0f1d7287879061034491906135c9565b6040516103519190613395565b60405180910390a2600081511415610369578061037e565b8080602001905181019061037d9190613698565b5b935050505092915050565b60008061039f8385610d6990919063ffffffff16565b905061040161020060001b6103f38360008054906101000a900473ffffffffffffffffffffffffffffffffffffffff1673ffffffffffffffffffffffffffffffffffffffff16610d9090919063ffffffff16565b610e5190919063ffffffff16565b6104125763ffffffff60e01b61041b565b631626ba7e60e01b5b91505092915050565b600080600160008573ffffffffffffffffffffffffffffffffffffffff1673ffffffffffffffffffffffffffffffffffffffff1681526020019081526020016000206000848152602001908152602001600020549050806fffffffffffffffffffffffffffffffff16608084901b1791505092915050565b6060600046308686866040516020016104b995949392919061374a565b604051602081830303815290604052905060006104ee876104e08480519060200120610e60565b610d6990919063ffffffff16565b90506104fa8187610e90565b61053f578086886040517fc9bd9eb900000000000000000000000000000000000000000000000000000000815260040161053693929190613796565b60405180910390fd5b600160008273ffffffffffffffffffffffffffffffffffffffff1673ffffffffffffffffffffffffffffffffffffffff1681526020019081526020016000206000608088901c815260200190815260200160002060008154809291906105a490613803565b91905055506105b4818686610776565b60008060008054906101000a900473ffffffffffffffffffffffffffffffffffffffff1673ffffffffffffffffffffffffffffffffffffffff16345a908989604051610601929190613598565b600060405180830381858888f193505050503d806000811461063f576040519150601f19603f3d011682016040523d82523d6000602084013e610644565b606091505b5091509150600061066e8383604051806080016040528060428152602001614a2860429139610d02565b9050347f6b9340454526f665e369d7ac17353d0b73774a4a80f746b959ece8130e0f1d7289899061069f91906135c9565b6040516106ac9190613395565b60405180910390a26000815114156106c457806106d9565b808060200190518101906106d89190613698565b5b95505050505050949350505050565b60008054906101000a900473ffffffffffffffffffffffffffffffffffffffff1681565b60007f01ffc9a7000000000000000000000000000000000000000000000000000000007bffffffffffffffffffffffffffffffffffffffffffffffffffffffff1916827bffffffffffffffffffffffffffffffffffffffffffffffffffffffff1916149050919050565b6000828260009060049261078c93929190613856565b9061079791906135c9565b905060006107e48560008054906101000a900473ffffffffffffffffffffffffffffffffffffffff1673ffffffffffffffffffffffffffffffffffffffff16610d9090919063ffffffff16565b90506000801b81141561082e57846040517ff292052a000000000000000000000000000000000000000000000000000000008152600401610825919061354d565b60405180910390fd5b7f7f23690cc80a596acdae0a51503f8066ffd79ab76fd5c929578309d2e2883b777bffffffffffffffffffffffffffffffffffffffffffffffffffffffff1916827bffffffffffffffffffffffffffffffffffffffffffffffffffffffff191614156109dd57600080858560049080926108aa93929190613856565b8101906108b7919061332a565b91509150654b80742de2bf60d01b79ffffffffffffffffffffffffffffffffffffffffffffffffffff19168279ffffffffffffffffffffffffffffffffffffffffffffffffffff1916148061094457506fdf30dba06db6a30e65354d9a64c6098660801b6fffffffffffffffffffffffffffffffff1916826fffffffffffffffffffffffffffffffff1916145b1561095a5761095582828986610f0d565b6109d6565b6000600167ffffffffffffffff811115610977576109766131ff565b5b6040519080825280602002602001820160405280156109a55781602001602082028036833780820191505090505b50905082816000815181106109bd576109bc613891565b5b6020026020010181815250506109d48885836114e9565b505b5050610cfb565b7f14a6e2931875c22579e483160c8d2832a3fb3acbd575a49f6a0f7fc5e135f7897bffffffffffffffffffffffffffffffffffffffffffffffffffffffff1916827bffffffffffffffffffffffffffffffffffffffffffffffffffffffff19161415610bac5760008085856004908092610a5993929190613856565b810190610a669190613a64565b915091506000805b8351811015610b91576000848281518110610a8c57610a8b613891565b5b602002602001015190506000848381518110610aab57610aaa613891565b5b60200260200101519050654b80742de2bf60d01b79ffffffffffffffffffffffffffffffffffffffffffffffffffff19168279ffffffffffffffffffffffffffffffffffffffffffffffffffff19161480610b3e57506fdf30dba06db6a30e65354d9a64c6098660801b6fffffffffffffffffffffffffffffffff1916826fffffffffffffffffffffffffffffffff1916145b15610b7757610b4f82828d8a610f0d565b6000801b868481518110610b6657610b65613891565b5b602002602001018181525050610b7c565b600193505b50508080610b8990613803565b915050610a6e565b508015610ba457610ba38885856114e9565b5b505050610cfa565b6344c028fe60e01b7bffffffffffffffffffffffffffffffffffffffffffffffffffffffff1916827bffffffffffffffffffffffffffffffffffffffffffffffffffffffff19161415610c0a57610c058582868661152b565b610cf9565b63f2fde38b60e01b7bffffffffffffffffffffffffffffffffffffffffffffffffffffffff1916827bffffffffffffffffffffffffffffffffffffffffffffffffffffffff19161480610ca15750634e71e0c860e01b7bffffffffffffffffffffffffffffffffffffffffffffffffffffffff1916827bffffffffffffffffffffffffffffffffffffffffffffffffffffffff1916145b15610cbb57610cb58582600160001b6117bf565b50610cf8565b816040517f2ba8851c000000000000000000000000000000000000000000000000000000008152600401610cef9190613395565b60405180910390fd5b5b5b5b5050505050565b60608315610d1257829050610d62565b600083511115610d255782518084602001fd5b816040517f08c379a0000000000000000000000000000000000000000000000000000000008152600401610d599190613b31565b60405180910390fd5b9392505050565b6000806000610d78858561182b565b91509150610d85816118ae565b819250505092915050565b6000808373ffffffffffffffffffffffffffffffffffffffff166354f6127f610dcb6b4b80742de2bf82acb363000060a01b8660601b611a83565b6040518263ffffffff1660e01b8152600401610de79190613b62565b60006040518083038186803b158015610dff57600080fd5b505afa158015610e13573d6000803e3d6000fd5b505050506040513d6000823e3d601f19601f82011682018060405250810190610e3c9190613698565b905080610e4890613ba2565b91505092915050565b60008182841614905092915050565b600081604051602001610e739190613c81565b604051602081830303815290604052805190602001209050919050565b6000600160008473ffffffffffffffffffffffffffffffffffffffff1673ffffffffffffffffffffffffffffffffffffffff1681526020019081526020016000206000608084901c81526020019081526020016000205470010000000000000000000000000000000083610f049190613cd6565b14905092915050565b6b4b80742de2bf82acb363000060a01b73ffffffffffffffffffffffffffffffffffffffff19168473ffffffffffffffffffffffffffffffffffffffff19161415610f6257610f5d848383611abd565b6114e3565b7fdf30dba06db6a30e65354d9a64c609861f089545ca58c6b4dbe31a5f338cb0e360001b841415610f9e57610f9984848484611ba9565b6114e2565b6fdf30dba06db6a30e65354d9a64c6098660801b6fffffffffffffffffffffffffffffffff1916846fffffffffffffffffffffffffffffffff19161415610ff457610fee8282600260001b6117bf565b506114e1565b6b4b80742de2bfc6dd6b3c000060a01b73ffffffffffffffffffffffffffffffffffffffff19168473ffffffffffffffffffffffffffffffffffffffff1916141561118157600080845114905080158015611055575061105384611caf565b155b1561109757836040517fb614e91e00000000000000000000000000000000000000000000000000000000815260040161108e9190613d53565b60405180910390fd5b60008060009054906101000a900473ffffffffffffffffffffffffffffffffffffffff1673ffffffffffffffffffffffffffffffffffffffff166354f6127f876040518263ffffffff1660e01b81526004016110f39190613b62565b60006040518083038186803b15801561110b57600080fd5b505afa15801561111f573d6000803e3d6000fd5b505050506040513d6000823e3d601f19601f820116820180604052508101906111489190613698565b9050600081511415611169576111638484600460001b6117bf565b5061117a565b6111788484600260001b6117bf565b505b50506114e0565b6b4b80742de2bf3efa94a3000060a01b73ffffffffffffffffffffffffffffffffffffffff19168473ffffffffffffffffffffffffffffffffffffffff1916148061120857506b4b80742de2bf8efea1e8000060a01b73ffffffffffffffffffffffffffffffffffffffff19168473ffffffffffffffffffffffffffffffffffffffff1916145b1561135557600080845114905080158015611229575061122784611d9a565b155b1561126b57836040517fb614e91e0000000000000000000000000000000000000000000000000000000081526004016112629190613dd4565b60405180910390fd5b60008060009054906101000a900473ffffffffffffffffffffffffffffffffffffffff1673ffffffffffffffffffffffffffffffffffffffff166354f6127f876040518263ffffffff1660e01b81526004016112c79190613b62565b60006040518083038186803b1580156112df57600080fd5b505afa1580156112f3573d6000803e3d6000fd5b505050506040513d6000823e3d601f19601f8201168201806040525081019061131c9190613698565b905060008151141561133d576113378484600460001b6117bf565b5061134e565b61134c8484600260001b6117bf565b505b50506114df565b6b4b80742de2bf90b8b485000060a01b73ffffffffffffffffffffffffffffffffffffffff19168473ffffffffffffffffffffffffffffffffffffffff191614156114de576000808451149050801580156113b657506113b484611e75565b155b156113f857836040517fb614e91e0000000000000000000000000000000000000000000000000000000081526004016113ef9190613e55565b60405180910390fd5b60008060009054906101000a900473ffffffffffffffffffffffffffffffffffffffff1673ffffffffffffffffffffffffffffffffffffffff166354f6127f876040518263ffffffff1660e01b81526004016114549190613b62565b60006040518083038186803b15801561146c57600080fd5b505afa158015611480573d6000803e3d6000fd5b505050506040513d6000823e3d601f19601f820116820180604052508101906114a99190613698565b90506000815114156114ca576114c48484600460001b6117bf565b506114db565b6114d98484600260001b6117bf565b505b50505b5b5b5b5b5b50505050565b61150161040060001b83610e5190919063ffffffff16565b1561150b57611526565b61151a8383600860001b6117bf565b506115258382611f0e565b5b505050565b6000828260049060249261154193929190613856565b9061154c9190613e8a565b60001c905060058110611594576040517f08c379a000000000000000000000000000000000000000000000000000000000815260040161158b90613f5b565b60405180910390fd5b60048114156115d8576040517f08c379a00000000000000000000000000000000000000000000000000000000081526004016115cf90613fed565b60405180910390fd5b600083836044906064926115ee93929190613856565b906115f99190613e8a565b60001c90506000600183148061160f5750600283145b9050600060a4868690501190506000826116435761163e61162f86612164565b89610e5190919063ffffffff16565b611646565b60005b9050811561166b57808061166957506116688989611663886121ad565b6117bf565b5b505b600061168561080060001b8a610e5190919063ffffffff16565b905060008511156116aa5780806116a857506116a78a8a61010060001b6117bf565b5b505b83156116bb575050505050506117b9565b8180156116c55750825b80156116d15750600085145b156116e1575050505050506117b9565b8080156116ec575082155b80156116f85750600085115b15611708575050505050506117b9565b8180156117125750805b15611722575050505050506117b9565b6000888860309060449261173893929190613856565b906117439190614039565b60601c90506117528b8261221d565b60008173ffffffffffffffffffffffffffffffffffffffff163b11156117b15761177c8b8261235c565b60a889899050106117b0576117af8b8a8a60a49060a89261179f93929190613856565b906117aa91906135c9565b612495565b5b5b505050505050505b50505050565b60006117d48284610e5190919063ffffffff16565b6118245760006117e3836125e6565b905084816040517f3bdad6e600000000000000000000000000000000000000000000000000000000815260040161181b929190614098565b60405180910390fd5b9392505050565b60008060418351141561186d5760008060006020860151925060408601519150606086015160001a9050611861878285856128ca565b945094505050506118a7565b60408351141561189e5760008060208501519150604085015190506118938683836129d7565b9350935050506118a7565b60006002915091505b9250929050565b600060048111156118c2576118c16140c8565b5b8160048111156118d5576118d46140c8565b5b14156118e057611a80565b600160048111156118f4576118f36140c8565b5b816004811115611907576119066140c8565b5b1415611948576040517f08c379a000000000000000000000000000000000000000000000000000000000815260040161193f90614143565b60405180910390fd5b6002600481111561195c5761195b6140c8565b5b81600481111561196f5761196e6140c8565b5b14156119b0576040517f08c379a00000000000000000000000000000000000000000000000000000000081526004016119a7906141af565b60405180910390fd5b600360048111156119c4576119c36140c8565b5b8160048111156119d7576119d66140c8565b5b1415611a18576040517f08c379a0000000000000000000000000000000000000000000000000000000008152600401611a0f90614241565b60405180910390fd5b600480811115611a2b57611a2a6140c8565b5b816004811115611a3e57611a3d6140c8565b5b1415611a7f576040517f08c379a0000000000000000000000000000000000000000000000000000000008152600401611a76906142d3565b60405180910390fd5b5b50565b6000808383604051602001611a99929190614361565b604051602081830303815290604052905080611ab490613ba2565b91505092915050565b6000801b60008054906101000a900473ffffffffffffffffffffffffffffffffffffffff1673ffffffffffffffffffffffffffffffffffffffff166354f6127f856040518263ffffffff1660e01b8152600401611b1a9190613b62565b60006040518083038186803b158015611b3257600080fd5b505afa158015611b46573d6000803e3d6000fd5b505050506040513d6000823e3d601f19601f82011682018060405250810190611b6f9190613698565b611b7890613ba2565b1415611b9357611b8d8282600460001b6117bf565b50611ba4565b611ba28282600260001b6117bf565b505b505050565b60008060009054906101000a900473ffffffffffffffffffffffffffffffffffffffff1673ffffffffffffffffffffffffffffffffffffffff166354f6127f866040518263ffffffff1660e01b8152600401611c059190613b62565b60006040518083038186803b158015611c1d57600080fd5b505afa158015611c31573d6000803e3d6000fd5b505050506040513d6000823e3d601f19601f82011682018060405250810190611c5a9190613698565b611c6390613ba2565b60001c9050600084611c7490613ba2565b60001c905081811115611c9657611c908484600460001b6117bf565b50611ca7565b611ca58484600260001b6117bf565b505b505050505050565b6000611cba82611e75565b611cc75760009050611d95565b600082611cd390613ba2565b60001c90506000611ced8285612a3690919063ffffffff16565b90506000602083611cfe919061438d565b905060005b82811015611d8c576000611d208388612a9d90919063ffffffff16565b9050600060a01b73ffffffffffffffffffffffffffffffffffffffff19168173ffffffffffffffffffffffffffffffffffffffff191614611d6957600095505050505050611d95565b602083611d76919061438d565b9250508080611d8490613803565b915050611d03565b50600193505050505b919050565b6000611da582611e75565b611db25760009050611e70565b600082611dbe90613ba2565b60001c90506000611dd88285612a3690919063ffffffff16565b90506000602083611de9919061438d565b905060005b82811015611e67576000611e0b8388612a9d90919063ffffffff16565b905060008160001c7bffffffffffffffffffffffffffffffffffffffffffffffffffffffff1614611e4457600095505050505050611e70565b602083611e51919061438d565b9250508080611e5f90613803565b915050611dee565b50600193505050505b919050565b600080825190506020811015611e8f576000915050611f09565b600083611e9b90613ba2565b60001c905080821015611eb357600092505050611f09565b6000611ec88286612a3690919063ffffffff16565b9050602081611ed791906143e3565b602083611ee4919061438d565b611eee919061438d565b831015611f015760009350505050611f09565b600193505050505b919050565b6000611f598360008054906101000a900473ffffffffffffffffffffffffffffffffffffffff1673ffffffffffffffffffffffffffffffffffffffff16612b0490919063ffffffff16565b9050600081511480611f715750611f6f81611e75565b155b15611f7c5750612160565b600081806020019051810190611f9291906144e9565b905060008060005b83518110156120bd57611fc6848281518110611fb957611fb8613891565b5b6020026020010151612bb7565b925060005b86518110156120a9576000801b878281518110611feb57611fea613891565b5b60200260200101511415611ffe57612096565b83600861200b91906143e3565b7fffffffffffffffffffffffffffffffffffffffffffffffffffffffffffffffff60001b901b92508287828151811061204757612046613891565b5b60200260200101511685838151811061206357612062613891565b5b60200260200101511415612095576000801b87828151811061208857612087613891565b5b6020026020010181815250505b5b80806120a190613803565b915050611fcb565b5080806120b590613803565b915050611f9a565b5060005b855181101561215a576000801b8682815181106120e1576120e0613891565b5b602002602001015114612147578686828151811061210257612101613891565b5b60200260200101516040517f3003e7ae00000000000000000000000000000000000000000000000000000000815260040161213e929190614532565b60405180910390fd5b808061215290613803565b9150506120c1565b50505050505b5050565b60008082141561217b5761100060001b90506121a8565b60038214156121915761200060001b90506121a8565b60048214156121a75761400060001b90506121a8565b5b919050565b6000808214156121c357601060001b9050612218565b60018214156121d857608060001b9050612218565b60028214156121ed57608060001b9050612218565b600382141561220257602060001b9050612218565b600482141561221757604060001b9050612218565b5b919050565b60006122688360008054906101000a900473ffffffffffffffffffffffffffffffffffffffff1673ffffffffffffffffffffffffffffffffffffffff16612c4490919063ffffffff16565b9050600081511480612280575061227e81611caf565b155b1561228b5750612358565b6000818060200190518101906122a19190614633565b905060005b8151811015612318578181815181106122c2576122c1613891565b5b602002602001015173ffffffffffffffffffffffffffffffffffffffff168473ffffffffffffffffffffffffffffffffffffffff16141561230557505050612358565b808061231090613803565b9150506122a6565b5083836040517f2879b12800000000000000000000000000000000000000000000000000000000815260040161234f92919061467c565b60405180910390fd5b5050565b60006123a78360008054906101000a900473ffffffffffffffffffffffffffffffffffffffff1673ffffffffffffffffffffffffffffffffffffffff16612cf790919063ffffffff16565b90506000815114806123bf57506123bd81611d9a565b155b156123ca5750612491565b6000818060200190518101906123e0919061477d565b905060005b81518110156124515761243182828151811061240457612403613891565b5b60200260200101518573ffffffffffffffffffffffffffffffffffffffff16612daa90919063ffffffff16565b1561243e57505050612491565b808061244990613803565b9150506123e5565b5083836040517f42013ee400000000000000000000000000000000000000000000000000000000815260040161248892919061467c565b60405180910390fd5b5050565b60006124e08360008054906101000a900473ffffffffffffffffffffffffffffffffffffffff1673ffffffffffffffffffffffffffffffffffffffff16612ed590919063ffffffff16565b90506000815114806124f857506124f681611d9a565b155b1561250357506125e2565b600081806020019051810190612519919061477d565b905060005b81518110156125a25781818151811061253a57612539613891565b5b60200260200101517bffffffffffffffffffffffffffffffffffffffffffffffffffffffff1916847bffffffffffffffffffffffffffffffffffffffffffffffffffffffff1916141561258f575050506125e2565b808061259a90613803565b91505061251e565b5083836040517f841351100000000000000000000000000000000000000000000000000000000081526004016125d99291906147c6565b60405180910390fd5b5050565b6060600160001b821415612631576040518060400160405280601181526020017f5452414e534645524f574e45525348495000000000000000000000000000000081525090506128c5565b600260001b82141561267a576040518060400160405280601181526020017f4348414e47455045524d495353494f4e5300000000000000000000000000000081525090506128c5565b600460001b8214156126c3576040518060400160405280600e81526020017f4144445045524d495353494f4e5300000000000000000000000000000000000081525090506128c5565b600860001b82141561270c576040518060400160405280600781526020017f534554444154410000000000000000000000000000000000000000000000000081525090506128c5565b601060001b821415612755576040518060400160405280600481526020017f43414c4c0000000000000000000000000000000000000000000000000000000081525090506128c5565b602060001b82141561279e576040518060400160405280600a81526020017f53544154494343414c4c0000000000000000000000000000000000000000000081525090506128c5565b604060001b8214156127e7576040518060400160405280600c81526020017f44454c454741544543414c4c000000000000000000000000000000000000000081525090506128c5565b608060001b821415612830576040518060400160405280600681526020017f4445504c4f59000000000000000000000000000000000000000000000000000081525090506128c5565b61010060001b82141561287a576040518060400160405280600d81526020017f5452414e5346455256414c55450000000000000000000000000000000000000081525090506128c5565b61020060001b8214156128c4576040518060400160405280600481526020017f5349474e0000000000000000000000000000000000000000000000000000000081525090506128c5565b5b919050565b6000807f7fffffffffffffffffffffffffffffff5d576e7357a4501ddfe92f46681b20a08360001c11156129055760006003915091506129ce565b601b8560ff161415801561291d5750601c8560ff1614155b1561292f5760006004915091506129ce565b600060018787878760405160008152602001604052604051612954949392919061480b565b6020604051602081039080840390855afa158015612976573d6000803e3d6000fd5b505050602060405103519050600073ffffffffffffffffffffffffffffffffffffffff168173ffffffffffffffffffffffffffffffffffffffff1614156129c5576000600192509250506129ce565b80600092509250505b94509492505050565b60008060007f7fffffffffffffffffffffffffffffffffffffffffffffffffffffffffffffff60001b841690506000601b60ff8660001c901c612a1a919061438d565b9050612a28878288856128ca565b935093505050935093915050565b6000602082612a45919061438d565b83511015612a88576040517f08c379a0000000000000000000000000000000000000000000000000000000008152600401612a7f9061489c565b60405180910390fd5b60008260208501015190508091505092915050565b6000602082612aac919061438d565b83511015612aef576040517f08c379a0000000000000000000000000000000000000000000000000000000008152600401612ae690614908565b60405180910390fd5b60008260208501015190508091505092915050565b60608273ffffffffffffffffffffffffffffffffffffffff166354f6127f612b3e6b4b80742de2bf90b8b485000060a01b8560601b611a83565b6040518263ffffffff1660e01b8152600401612b5a9190613b62565b60006040518083038186803b158015612b7257600080fd5b505afa158015612b86573d6000803e3d6000fd5b505050506040513d6000823e3d601f19601f82011682018060405250810190612baf9190613698565b905092915050565b600080601f90505b600060f81b838260208110612bd757612bd6613891565b5b1a60f81b7effffffffffffffffffffffffffffffffffffffffffffffffffffffffffffff1916148015612c0b575060008114155b15612c23578080612c1b90614928565b915050612bbf565b600181612c30919061438d565b6020612c3c9190614952565b915050919050565b60608273ffffffffffffffffffffffffffffffffffffffff166354f6127f612c7e6b4b80742de2bfc6dd6b3c000060a01b8560601b611a83565b6040518263ffffffff1660e01b8152600401612c9a9190613b62565b60006040518083038186803b158015612cb257600080fd5b505afa158015612cc6573d6000803e3d6000fd5b505050506040513d6000823e3d601f19601f82011682018060405250810190612cef9190613698565b905092915050565b60608273ffffffffffffffffffffffffffffffffffffffff166354f6127f612d316b4b80742de2bf3efa94a3000060a01b8560601b611a83565b6040518263ffffffff1660e01b8152600401612d4d9190613b62565b60006040518083038186803b158015612d6557600080fd5b505afa158015612d79573d6000803e3d6000fd5b505050506040513d6000823e3d601f19601f82011682018060405250810190612da29190613698565b905092915050565b6000806301ffc9a760e01b83604051602401612dc69190613395565b604051602081830303815290604052907bffffffffffffffffffffffffffffffffffffffffffffffffffffffff19166020820180517bffffffffffffffffffffffffffffffffffffffffffffffffffffffff838183161783525050505090506000808573ffffffffffffffffffffffffffffffffffffffff1661753084604051612e5091906149b7565b6000604051808303818686fa925050503d8060008114612e8c576040519150601f19603f3d011682016040523d82523d6000602084013e612e91565b606091505b5091509150602081511015612eac5760009350505050612ecf565b818015612ec9575080806020019051810190612ec891906149fa565b5b93505050505b92915050565b60608273ffffffffffffffffffffffffffffffffffffffff166354f6127f612f0f6b4b80742de2bf8efea1e8000060a01b8560601b611a83565b6040518263ffffffff1660e01b8152600401612f2b9190613b62565b60006040518083038186803b158015612f4357600080fd5b505afa158015612f57573d6000803e3d6000fd5b505050506040513d6000823e3d601f19601f82011682018060405250810190612f809190613698565b905092915050565b6000604051905090565b600080fd5b600080fd5b60007fffffffff0000000000000000000000000000000000000000000000000000000082169050919050565b612fd181612f9c565b8114612fdc57600080fd5b50565b600081359050612fee81612fc8565b92915050565b60006020828403121561300a57613009612f92565b5b600061301884828501612fdf565b91505092915050565b60008115159050919050565b61303681613021565b82525050565b6000602082019050613051600083018461302d565b92915050565b600080fd5b600080fd5b600080fd5b60008083601f84011261307c5761307b613057565b5b8235905067ffffffffffffffff8111156130995761309861305c565b5b6020830191508360018202830111156130b5576130b4613061565b5b9250929050565b600080602083850312156130d3576130d2612f92565b5b600083013567ffffffffffffffff8111156130f1576130f0612f97565b5b6130fd85828601613066565b92509250509250929050565b600081519050919050565b600082825260208201905092915050565b60005b83811015613143578082015181840152602081019050613128565b83811115613152576000848401525b50505050565b6000601f19601f8301169050919050565b600061317482613109565b61317e8185613114565b935061318e818560208601613125565b61319781613158565b840191505092915050565b600060208201905081810360008301526131bc8184613169565b905092915050565b6000819050919050565b6131d7816131c4565b81146131e257600080fd5b50565b6000813590506131f4816131ce565b92915050565b600080fd5b7f4e487b7100000000000000000000000000000000000000000000000000000000600052604160045260246000fd5b61323782613158565b810181811067ffffffffffffffff82111715613256576132556131ff565b5b80604052505050565b6000613269612f88565b9050613275828261322e565b919050565b600067ffffffffffffffff821115613295576132946131ff565b5b61329e82613158565b9050602081019050919050565b82818337600083830152505050565b60006132cd6132c88461327a565b61325f565b9050828152602081018484840111156132e9576132e86131fa565b5b6132f48482856132ab565b509392505050565b600082601f83011261331157613310613057565b5b81356133218482602086016132ba565b91505092915050565b6000806040838503121561334157613340612f92565b5b600061334f858286016131e5565b925050602083013567ffffffffffffffff8111156133705761336f612f97565b5b61337c858286016132fc565b9150509250929050565b61338f81612f9c565b82525050565b60006020820190506133aa6000830184613386565b92915050565b600073ffffffffffffffffffffffffffffffffffffffff82169050919050565b60006133db826133b0565b9050919050565b6133eb816133d0565b81146133f657600080fd5b50565b600081359050613408816133e2565b92915050565b6000819050919050565b6134218161340e565b811461342c57600080fd5b50565b60008135905061343e81613418565b92915050565b6000806040838503121561345b5761345a612f92565b5b6000613469858286016133f9565b925050602061347a8582860161342f565b9150509250929050565b61348d8161340e565b82525050565b60006020820190506134a86000830184613484565b92915050565b600080600080606085870312156134c8576134c7612f92565b5b600085013567ffffffffffffffff8111156134e6576134e5612f97565b5b6134f2878288016132fc565b94505060206135038782880161342f565b935050604085013567ffffffffffffffff81111561352457613523612f97565b5b61353087828801613066565b925092505092959194509250565b613547816133d0565b82525050565b6000602082019050613562600083018461353e565b92915050565b600081905092915050565b600061357f8385613568565b935061358c8385846132ab565b82840190509392505050565b60006135a5828486613573565b91508190509392505050565b600082905092915050565b600082821b905092915050565b60006135d583836135b1565b826135e08135612f9c565b925060048210156136205761361b7fffffffff00000000000000000000000000000000000000000000000000000000836004036008026135bc565b831692505b505092915050565b600061363b6136368461327a565b61325f565b905082815260208101848484011115613657576136566131fa565b5b613662848285613125565b509392505050565b600082601f83011261367f5761367e613057565b5b815161368f848260208601613628565b91505092915050565b6000602082840312156136ae576136ad612f92565b5b600082015167ffffffffffffffff8111156136cc576136cb612f97565b5b6136d88482850161366a565b91505092915050565b6000819050919050565b6136fc6136f78261340e565b6136e1565b82525050565b60008160601b9050919050565b600061371a82613702565b9050919050565b600061372c8261370f565b9050919050565b61374461373f826133d0565b613721565b82525050565b600061375682886136eb565b6020820191506137668287613733565b60148201915061377682866136eb565b602082019150613787828486613573565b91508190509695505050505050565b60006060820190506137ab600083018661353e565b6137b86020830185613484565b81810360408301526137ca8184613169565b9050949350505050565b7f4e487b7100000000000000000000000000000000000000000000000000000000600052601160045260246000fd5b600061380e8261340e565b91507fffffffffffffffffffffffffffffffffffffffffffffffffffffffffffffffff821415613841576138406137d4565b5b600182019050919050565b600080fd5b600080fd5b6000808585111561386a5761386961384c565b5b8386111561387b5761387a613851565b5b6001850283019150848603905094509492505050565b7f4e487b7100000000000000000000000000000000000000000000000000000000600052603260045260246000fd5b600067ffffffffffffffff8211156138db576138da6131ff565b5b602082029050602081019050919050565b60006138ff6138fa846138c0565b61325f565b9050808382526020820190506020840283018581111561392257613921613061565b5b835b8181101561394b578061393788826131e5565b845260208401935050602081019050613924565b5050509392505050565b600082601f83011261396a57613969613057565b5b813561397a8482602086016138ec565b91505092915050565b600067ffffffffffffffff82111561399e5761399d6131ff565b5b602082029050602081019050919050565b60006139c26139bd84613983565b61325f565b905080838252602082019050602084028301858111156139e5576139e4613061565b5b835b81811015613a2c57803567ffffffffffffffff811115613a0a57613a09613057565b5b808601613a1789826132fc565b855260208501945050506020810190506139e7565b5050509392505050565b600082601f830112613a4b57613a4a613057565b5b8135613a5b8482602086016139af565b91505092915050565b60008060408385031215613a7b57613a7a612f92565b5b600083013567ffffffffffffffff811115613a9957613a98612f97565b5b613aa585828601613955565b925050602083013567ffffffffffffffff811115613ac657613ac5612f97565b5b613ad285828601613a36565b9150509250929050565b600081519050919050565b600082825260208201905092915050565b6000613b0382613adc565b613b0d8185613ae7565b9350613b1d818560208601613125565b613b2681613158565b840191505092915050565b60006020820190508181036000830152613b4b8184613af8565b905092915050565b613b5c816131c4565b82525050565b6000602082019050613b776000830184613b53565b92915050565b6000819050602082019050919050565b6000613b9982516131c4565b80915050919050565b6000613bad82613109565b82613bb784613b7d565b9050613bc281613b8d565b92506020821015613c0257613bfd7fffffffffffffffffffffffffffffffffffffffffffffffffffffffffffffffff836020036008026135bc565b831692505b5050919050565b600081905092915050565b7f19457468657265756d205369676e6564204d6573736167653a0a333200000000600082015250565b6000613c4a601c83613c09565b9150613c5582613c14565b601c82019050919050565b6000819050919050565b613c7b613c76826131c4565b613c60565b82525050565b6000613c8c82613c3d565b9150613c988284613c6a565b60208201915081905092915050565b7f4e487b7100000000000000000000000000000000000000000000000000000000600052601260045260246000fd5b6000613ce18261340e565b9150613cec8361340e565b925082613cfc57613cfb613ca7565b5b828206905092915050565b7f6164647265737300000000000000000000000000000000000000000000000000600082015250565b6000613d3d600783613ae7565b9150613d4882613d07565b602082019050919050565b60006040820190508181036000830152613d6d8184613169565b90508181036020830152613d8081613d30565b905092915050565b7f6279746573340000000000000000000000000000000000000000000000000000600082015250565b6000613dbe600683613ae7565b9150613dc982613d88565b602082019050919050565b60006040820190508181036000830152613dee8184613169565b90508181036020830152613e0181613db1565b905092915050565b7f6279746573333200000000000000000000000000000000000000000000000000600082015250565b6000613e3f600783613ae7565b9150613e4a82613e09565b602082019050919050565b60006040820190508181036000830152613e6f8184613169565b90508181036020830152613e8281613e32565b905092915050565b6000613e9683836135b1565b82613ea181356131c4565b92506020821015613ee157613edc7fffffffffffffffffffffffffffffffffffffffffffffffffffffffffffffffff836020036008026135bc565b831692505b505092915050565b7f4c5350364b65794d616e616765723a20696e76616c6964206f7065726174696f60008201527f6e20747970650000000000000000000000000000000000000000000000000000602082015250565b6000613f45602683613ae7565b9150613f5082613ee9565b604082019050919050565b60006020820190508181036000830152613f7481613f38565b9050919050565b7f4c5350364b65794d616e616765723a206f7065726174696f6e2044454c45474160008201527f544543414c4c2069732063757272656e746c7920646973616c6c6f7765640000602082015250565b6000613fd7603e83613ae7565b9150613fe282613f7b565b604082019050919050565b6000602082019050818103600083015261400681613fca565b9050919050565b60007fffffffffffffffffffffffffffffffffffffffff00000000000000000000000082169050919050565b600061404583836135b1565b82614050813561400d565b925060148210156140905761408b7fffffffffffffffffffffffffffffffffffffffff000000000000000000000000836014036008026135bc565b831692505b505092915050565b60006040820190506140ad600083018561353e565b81810360208301526140bf8184613af8565b90509392505050565b7f4e487b7100000000000000000000000000000000000000000000000000000000600052602160045260246000fd5b7f45434453413a20696e76616c6964207369676e61747572650000000000000000600082015250565b600061412d601883613ae7565b9150614138826140f7565b602082019050919050565b6000602082019050818103600083015261415c81614120565b9050919050565b7f45434453413a20696e76616c6964207369676e6174757265206c656e67746800600082015250565b6000614199601f83613ae7565b91506141a482614163565b602082019050919050565b600060208201905081810360008301526141c88161418c565b9050919050565b7f45434453413a20696e76616c6964207369676e6174757265202773272076616c60008201527f7565000000000000000000000000000000000000000000000000000000000000602082015250565b600061422b602283613ae7565b9150614236826141cf565b604082019050919050565b6000602082019050818103600083015261425a8161421e565b9050919050565b7f45434453413a20696e76616c6964207369676e6174757265202776272076616c60008201527f7565000000000000000000000000000000000000000000000000000000000000602082015250565b60006142bd602283613ae7565b91506142c882614261565b604082019050919050565b600060208201905081810360008301526142ec816142b0565b9050919050565b60007fffffffffffffffffffffffff000000000000000000000000000000000000000082169050919050565b6000819050919050565b61433a614335826142f3565b61431f565b82525050565b6000819050919050565b61435b6143568261400d565b614340565b82525050565b600061436d8285614329565b600c8201915061437d828461434a565b6014820191508190509392505050565b60006143988261340e565b91506143a38361340e565b9250827fffffffffffffffffffffffffffffffffffffffffffffffffffffffffffffffff038211156143d8576143d76137d4565b5b828201905092915050565b60006143ee8261340e565b91506143f98361340e565b9250817fffffffffffffffffffffffffffffffffffffffffffffffffffffffffffffffff0483118215151615614432576144316137d4565b5b828202905092915050565b60008151905061444c816131ce565b92915050565b6000614465614460846138c0565b61325f565b9050808382526020820190506020840283018581111561448857614487613061565b5b835b818110156144b1578061449d888261443d565b84526020840193505060208101905061448a565b5050509392505050565b600082601f8301126144d0576144cf613057565b5b81516144e0848260208601614452565b91505092915050565b6000602082840312156144ff576144fe612f92565b5b600082015167ffffffffffffffff81111561451d5761451c612f97565b5b614529848285016144bb565b91505092915050565b6000604082019050614547600083018561353e565b6145546020830184613b53565b9392505050565b600067ffffffffffffffff821115614576576145756131ff565b5b602082029050602081019050919050565b600081519050614596816133e2565b92915050565b60006145af6145aa8461455b565b61325f565b905080838252602082019050602084028301858111156145d2576145d1613061565b5b835b818110156145fb57806145e78882614587565b8452602084019350506020810190506145d4565b5050509392505050565b600082601f83011261461a57614619613057565b5b815161462a84826020860161459c565b91505092915050565b60006020828403121561464957614648612f92565b5b600082015167ffffffffffffffff81111561466757614666612f97565b5b61467384828501614605565b91505092915050565b6000604082019050614691600083018561353e565b61469e602083018461353e565b9392505050565b600067ffffffffffffffff8211156146c0576146bf6131ff565b5b602082029050602081019050919050565b6000815190506146e081612fc8565b92915050565b60006146f96146f4846146a5565b61325f565b9050808382526020820190506020840283018581111561471c5761471b613061565b5b835b81811015614745578061473188826146d1565b84526020840193505060208101905061471e565b5050509392505050565b600082601f83011261476457614763613057565b5b81516147748482602086016146e6565b91505092915050565b60006020828403121561479357614792612f92565b5b600082015167ffffffffffffffff8111156147b1576147b0612f97565b5b6147bd8482850161474f565b91505092915050565b60006040820190506147db600083018561353e565b6147e86020830184613386565b9392505050565b600060ff82169050919050565b614805816147ef565b82525050565b60006080820190506148206000830187613b53565b61482d60208301866147fc565b61483a6040830185613b53565b6148476060830184613b53565b95945050505050565b7f746f55696e743235365f6f75744f66426f756e64730000000000000000000000600082015250565b6000614886601583613ae7565b915061489182614850565b602082019050919050565b600060208201905081810360008301526148b581614879565b9050919050565b7f746f427974657333325f6f75744f66426f756e64730000000000000000000000600082015250565b60006148f2601583613ae7565b91506148fd826148bc565b602082019050919050565b60006020820190508181036000830152614921816148e5565b9050919050565b60006149338261340e565b91506000821415614947576149466137d4565b5b600182039050919050565b600061495d8261340e565b91506149688361340e565b92508282101561497b5761497a6137d4565b5b828203905092915050565b600061499182613109565b61499b8185613568565b93506149ab818560208601613125565b80840191505092915050565b60006149c38284614986565b915081905092915050565b6149d781613021565b81146149e257600080fd5b50565b6000815190506149f4816149ce565b92915050565b600060208284031215614a1057614a0f612f92565b5b6000614a1e848285016149e5565b9150509291505056fe4c5350363a20556e6b6e6f77204572726f72206f636375726564207768656e2063616c6c696e6720746865206c696e6b65642074617267657420636f6e7472616374a26469706673582212208122ce88bce3be5319c772571113a3634734222d05912546043bfe6965ed8b5064736f6c63430008090033",
  "linkReferences": {},
  "deployedLinkReferences": {}
}