{
  "_format": "hh-sol-artifact-1",
  "contractName": "KeyManager",
  "sourceName": "contracts/deps/KeyManager.sol",
  "abi": [
    {
      "inputs": [
        {
          "internalType": "address",
          "name": "target_",
          "type": "address"
        }
      ],
      "stateMutability": "nonpayable",
      "type": "constructor"
    },
    {
      "inputs": [
        {
          "internalType": "bytes",
          "name": "value",
          "type": "bytes"
        },
        {
          "internalType": "string",
          "name": "valueType",
          "type": "string"
        }
      ],
      "name": "InvalidABIEncodedArray",
      "type": "error"
    },
    {
      "inputs": [
        {
          "internalType": "bytes4",
          "name": "invalidFunction",
          "type": "bytes4"
        }
      ],
      "name": "InvalidERC725Function",
      "type": "error"
    },
    {
      "inputs": [],
      "name": "InvalidLSP6Target",
      "type": "error"
    },
    {
      "inputs": [
        {
          "internalType": "address",
          "name": "signer",
          "type": "address"
        },
        {
          "internalType": "uint256",
          "name": "invalidNonce",
          "type": "uint256"
        },
        {
          "internalType": "bytes",
          "name": "signature",
          "type": "bytes"
        }
      ],
      "name": "InvalidRelayNonce",
      "type": "error"
    },
    {
      "inputs": [
        {
          "internalType": "address",
          "name": "from",
          "type": "address"
        }
      ],
      "name": "NoPermissionsSet",
      "type": "error"
    },
    {
      "inputs": [
        {
          "internalType": "address",
          "name": "from",
          "type": "address"
        },
        {
          "internalType": "address",
          "name": "disallowedAddress",
          "type": "address"
        }
      ],
      "name": "NotAllowedAddress",
      "type": "error"
    },
    {
      "inputs": [
        {
          "internalType": "address",
          "name": "from",
          "type": "address"
        },
        {
          "internalType": "bytes32",
          "name": "disallowedKey",
          "type": "bytes32"
        }
      ],
      "name": "NotAllowedERC725YKey",
      "type": "error"
    },
    {
      "inputs": [
        {
          "internalType": "address",
          "name": "from",
          "type": "address"
        },
        {
          "internalType": "bytes4",
          "name": "disallowedFunction",
          "type": "bytes4"
        }
      ],
      "name": "NotAllowedFunction",
      "type": "error"
    },
    {
      "inputs": [
        {
          "internalType": "address",
          "name": "from",
          "type": "address"
        },
        {
          "internalType": "address",
          "name": "addressNotImplementingAllowedStandard",
          "type": "address"
        }
      ],
      "name": "NotAllowedStandard",
      "type": "error"
    },
    {
      "inputs": [
        {
          "internalType": "address",
          "name": "from",
          "type": "address"
        },
        {
          "internalType": "string",
          "name": "permission",
          "type": "string"
        }
      ],
      "name": "NotAuthorised",
      "type": "error"
    },
    {
      "anonymous": false,
      "inputs": [
        {
          "indexed": true,
          "internalType": "uint256",
          "name": "value",
          "type": "uint256"
        },
        {
          "indexed": false,
          "internalType": "bytes4",
          "name": "selector",
          "type": "bytes4"
        }
      ],
      "name": "Executed",
      "type": "event"
    },
    {
      "inputs": [
        {
          "internalType": "bytes",
          "name": "payload",
          "type": "bytes"
        }
      ],
      "name": "execute",
      "outputs": [
        {
          "internalType": "bytes",
          "name": "",
          "type": "bytes"
        }
      ],
      "stateMutability": "payable",
      "type": "function"
    },
    {
      "inputs": [
        {
          "internalType": "bytes",
          "name": "signature",
          "type": "bytes"
        },
        {
          "internalType": "uint256",
          "name": "nonce",
          "type": "uint256"
        },
        {
          "internalType": "bytes",
          "name": "payload",
          "type": "bytes"
        }
      ],
      "name": "executeRelayCall",
      "outputs": [
        {
          "internalType": "bytes",
          "name": "",
          "type": "bytes"
        }
      ],
      "stateMutability": "payable",
      "type": "function"
    },
    {
      "inputs": [
        {
          "internalType": "address",
          "name": "from",
          "type": "address"
        },
        {
          "internalType": "uint256",
          "name": "channelId",
          "type": "uint256"
        }
      ],
      "name": "getNonce",
      "outputs": [
        {
          "internalType": "uint256",
          "name": "",
          "type": "uint256"
        }
      ],
      "stateMutability": "view",
      "type": "function"
    },
    {
      "inputs": [
        {
          "internalType": "bytes32",
          "name": "dataHash",
          "type": "bytes32"
        },
        {
          "internalType": "bytes",
          "name": "signature",
          "type": "bytes"
        }
      ],
      "name": "isValidSignature",
      "outputs": [
        {
          "internalType": "bytes4",
          "name": "magicValue",
          "type": "bytes4"
        }
      ],
      "stateMutability": "view",
      "type": "function"
    },
    {
      "inputs": [
        {
          "internalType": "bytes4",
          "name": "interfaceId",
          "type": "bytes4"
        }
      ],
      "name": "supportsInterface",
      "outputs": [
        {
          "internalType": "bool",
          "name": "",
          "type": "bool"
        }
      ],
      "stateMutability": "view",
      "type": "function"
    },
    {
      "inputs": [],
      "name": "target",
      "outputs": [
        {
          "internalType": "address",
          "name": "",
          "type": "address"
        }
      ],
      "stateMutability": "view",
      "type": "function"
    }
  ],
  "bytecode": "0x60806040523480156200001157600080fd5b5060405162002df038038062002df0833981016040819052620000349162000084565b806001600160a01b0381166200005d5760405163fc85457960e01b815260040160405180910390fd5b600080546001600160a01b0319166001600160a01b039290921691909117905550620000b6565b6000602082840312156200009757600080fd5b81516001600160a01b0381168114620000af57600080fd5b9392505050565b612d2a80620000c66000396000f3fe6080604052600436106100655760003560e01c8063895358031161004357806389535803146100f8578063902d5fa014610163578063d4b839921461017657600080fd5b806301ffc9a71461006a57806309c5eabe1461009f5780631626ba7e146100bf575b600080fd5b34801561007657600080fd5b5061008a6100853660046122e7565b6101ae565b60405190151581526020015b60405180910390f35b6100b26100ad366004612346565b610219565b60405161009691906123e0565b3480156100cb57600080fd5b506100df6100da3660046124b8565b610329565b6040516001600160e01b03199091168152602001610096565b34801561010457600080fd5b50610155610113366004612514565b6001600160a01b039190911660009081526001602090815260408083208484529091529020546fffffffffffffffffffffffffffffffff1660809190911b1790565b604051908152602001610096565b6100b2610171366004612540565b610380565b34801561018257600080fd5b50600054610196906001600160a01b031681565b6040516001600160a01b039091168152602001610096565b60006001600160e01b031982167fc403d48f0000000000000000000000000000000000000000000000000000000014806101f857506001600160e01b03198216630b135d3f60e11b145b8061021357506301ffc9a760e01b6001600160e01b03198316145b92915050565b60606102263384846105b3565b6000805481906001600160a01b0316345a9087876040516102489291906125b0565b600060405180830381858888f193505050503d8060008114610286576040519150601f19603f3d011682016040523d82523d6000602084013e61028b565b606091505b509150915060006102b58383604051806080016040528060428152602001612cb3604291396109a9565b9050347f6b9340454526f665e369d7ac17353d0b73774a4a80f746b959ece8130e0f1d726102e387896125c0565b6040516001600160e01b0319909116815260200160405180910390a2805161030b578061031f565b8080602001905181019061031f91906125f0565b9695505050505050565b60008061033684846109e9565b60005490915061035d9061020090610357906001600160a01b031684610a0d565b81161490565b61036f576001600160e01b0319610378565b630b135d3f60e11b5b949350505050565b60606000463086868660405160200161039d959493929190612667565b604051602081830303815290604052905060006104188761041284805190602001206040517f19457468657265756d205369676e6564204d6573736167653a0a3332000000006020820152603c8101829052600090605c01604051602081830303815290604052805190602001209050919050565b906109e9565b90506104248187610aa8565b610469578086886040517fc9bd9eb9000000000000000000000000000000000000000000000000000000008152600401610460939291906126a1565b60405180910390fd5b6001600160a01b038116600090815260016020908152604080832060808a901c8452909152812080549161049c836126df565b91905055506104ac8186866105b3565b6000805481906001600160a01b0316345a9089896040516104ce9291906125b0565b600060405180830381858888f193505050503d806000811461050c576040519150601f19603f3d011682016040523d82523d6000602084013e610511565b606091505b5091509150600061053b8383604051806080016040528060428152602001612cb3604291396109a9565b9050347f6b9340454526f665e369d7ac17353d0b73774a4a80f746b959ece8130e0f1d72610569898b6125c0565b6040516001600160e01b0319909116815260200160405180910390a2805161059157806105a5565b808060200190518101906105a591906125f0565b9a9950505050505050505050565b60006105c260048284866126fa565b6105cb916125c0565b60008054919250906105e6906001600160a01b031686610a0d565b90508061062a576040517ff292052a0000000000000000000000000000000000000000000000000000000081526001600160a01b0386166004820152602401610460565b6001600160e01b031982167f7f23690c0000000000000000000000000000000000000000000000000000000014156107485760008061066c85600481896126fa565b81019061067991906124b8565b90925090507fffffffffffff00000000000000000000000000000000000000000000000000008216654b80742de2bf60d01b14806106dc57506fffffffffffffffffffffffffffffffff1982166f6f986dd036db5187329aa6cd326304c360811b145b156106f2576106ed82828986610af3565b610741565b60408051600180825281830190925260009160208083019080368337019050509050828160008151811061072857610728612724565b60200260200101818152505061073f888583610e02565b505b50506109a2565b6001600160e01b031982167f14a6e2930000000000000000000000000000000000000000000000000000000014156108a95760008061078a85600481896126fa565b81019061079791906127e9565b915091506000805b83518110156108975760008482815181106107bc576107bc612724565b6020026020010151905060008483815181106107da576107da612724565b602090810291909101015190507fffffffffffff00000000000000000000000000000000000000000000000000008216654b80742de2bf60d01b148061084557506fffffffffffffffffffffffffffffffff1982166f6f986dd036db5187329aa6cd326304c360811b145b1561087d5761085682828d8a610af3565b6000801b86848151811061086c5761086c612724565b602002602001018181525050610882565b600193505b5050808061088f906126df565b91505061079f565b50801561073f5761073f888585610e02565b6001600160e01b031982167f44c028fe0000000000000000000000000000000000000000000000000000000014156108ec576108e785828686610e2f565b6109a2565b6001600160e01b031982167ff2fde38b00000000000000000000000000000000000000000000000000000000148061094d57506001600160e01b031982167f4e71e0c800000000000000000000000000000000000000000000000000000000145b156109645761095e858260016110bf565b506109a2565b6040517f2ba8851c0000000000000000000000000000000000000000000000000000000081526001600160e01b031983166004820152602401610460565b5050505050565b606083156109b85750816109e2565b8251156109c85782518084602001fd5b8160405162461bcd60e51b815260040161046091906123e0565b9392505050565b60008060006109f8858561110d565b91509150610a058161117d565b509392505050565b6000806001600160a01b0384166354f6127f610a3a694b80742de2bf82acb36360b01b606087901b61133b565b6040518263ffffffff1660e01b8152600401610a5891815260200190565b600060405180830381865afa158015610a75573d6000803e3d6000fd5b505050506040513d6000823e601f3d908101601f19168201604052610a9d91908101906125f0565b905061037881612898565b6001600160a01b0382166000908152600160209081526040808320608085901c8452909152812054610aeb700100000000000000000000000000000000846128bf565b149392505050565b6001600160a01b03198416694b80742de2bf82acb36360b01b1415610b2257610b1d848383611385565b610dfc565b7fdf30dba06db6a30e65354d9a64c609861f089545ca58c6b4dbe31a5f338cb0e3841415610b5657610b1d8484848461141e565b6fffffffffffffffffffffffffffffffff1984166f6f986dd036db5187329aa6cd326304c360811b1415610b9657610b90828260026110bf565b50610dfc565b6001600160a01b031984166912e01d0b78aff1b75acf60b21b1415610c9057825115801581610bcb5750610bc9846114bc565b155b15610beb5783604051635b0a748f60e11b815260040161046091906128e1565b600080546040516354f6127f60e01b8152600481018890526001600160a01b03909116906354f6127f90602401600060405180830381865afa158015610c35573d6000803e3d6000fd5b505050506040513d6000823e601f3d908101601f19168201604052610c5d91908101906125f0565b9050805160001415610c7b57610c75848460046110bf565b50610c89565b610c87848460026110bf565b505b5050610dfc565b6001600160a01b03198416694b80742de2bf3efa94a360b01b1480610ccb57506001600160a01b031984166909700e85bc57f1dfd43d60b31b145b15610d0657825115801581610ce65750610ce484611560565b155b15610beb5783604051635b0a748f60e11b81526004016104609190612933565b6001600160a01b03198416694b80742de2bf90b8b48560b01b1415610dfc57825115801581610d3b5750610d39846115f7565b155b15610d5b5783604051635b0a748f60e11b81526004016104609190612985565b600080546040516354f6127f60e01b8152600481018890526001600160a01b03909116906354f6127f90602401600060405180830381865afa158015610da5573d6000803e3d6000fd5b505050506040513d6000823e601f3d908101601f19168201604052610dcd91908101906125f0565b9050805160001415610deb57610de5848460046110bf565b50610df9565b610df7848460026110bf565b505b50505b50505050565b6104008083161415610e1357505050565b610e1f838360086110bf565b50610e2a8382611678565b505050565b6000610e3f6024600484866126fa565b610e48916129d7565b905060058110610ec05760405162461bcd60e51b815260206004820152602660248201527f4c5350364b65794d616e616765723a20696e76616c6964206f7065726174696f60448201527f6e207479706500000000000000000000000000000000000000000000000000006064820152608401610460565b6004811415610f375760405162461bcd60e51b815260206004820152603e60248201527f4c5350364b65794d616e616765723a206f7065726174696f6e2044454c45474160448201527f544543414c4c2069732063757272656e746c7920646973616c6c6f77656400006064820152608401610460565b6000610f476064604485876126fa565b610f50916129d7565b905060006001831480610f635750600283145b905060a48411600082610f8857610f83610f7c8661186d565b8981161490565b610f8b565b60005b90508115610faf578080610fad5750610fad8989610fa8886118a6565b6110bf565b505b610800888116148415610fd2578080610fd05750610fd08a8a6101006110bf565b505b8315610fe357505050505050610dfc565b818015610fed5750825b8015610ff7575084155b1561100757505050505050610dfc565b808015611012575082155b801561101e5750600085115b1561102e57505050505050610dfc565b8180156110385750805b1561104857505050505050610dfc565b6000611058604460308a8c6126fa565b611061916129f5565b60601c90506110708b826118f9565b6001600160a01b0381163b156110b25761108a8b826119e8565b60a888106110b2576110b28b6110a460a860a48c8e6126fa565b6110ad916125c0565b611ade565b5050505050505050505050565b600081831682146109e25760006110d583611bd7565b905084816040517f3bdad6e6000000000000000000000000000000000000000000000000000000008152600401610460929190612a28565b6000808251604114156111445760208301516040840151606085015160001a61113887828585611e6f565b94509450505050611176565b82516040141561116e5760208301516040840151611163868383611f5c565b935093505050611176565b506000905060025b9250929050565b600081600481111561119157611191612a4a565b141561119a5750565b60018160048111156111ae576111ae612a4a565b14156111fc5760405162461bcd60e51b815260206004820152601860248201527f45434453413a20696e76616c6964207369676e617475726500000000000000006044820152606401610460565b600281600481111561121057611210612a4a565b141561125e5760405162461bcd60e51b815260206004820152601f60248201527f45434453413a20696e76616c6964207369676e6174757265206c656e677468006044820152606401610460565b600381600481111561127257611272612a4a565b14156112cb5760405162461bcd60e51b815260206004820152602260248201527f45434453413a20696e76616c6964207369676e6174757265202773272076616c604482015261756560f01b6064820152608401610460565b60048160048111156112df576112df612a4a565b14156113385760405162461bcd60e51b815260206004820152602260248201527f45434453413a20696e76616c6964207369676e6174757265202776272076616c604482015261756560f01b6064820152608401610460565b50565b604080516001600160a01b0319841660208201526bffffffffffffffffffffffff198316602c82015260009182910160405160208183030381529060405290508061037890612898565b600080546040516354f6127f60e01b8152600481018690526001600160a01b03909116906354f6127f90602401600060405180830381865afa1580156113cf573d6000803e3d6000fd5b505050506040513d6000823e601f3d908101601f191682016040526113f791908101906125f0565b61140090612898565b141561141257610dfc828260046110bf565b610dfc828260026110bf565b600080546040516354f6127f60e01b8152600481018790526001600160a01b03909116906354f6127f90602401600060405180830381865afa158015611468573d6000803e3d6000fd5b505050506040513d6000823e601f3d908101601f1916820160405261149091908101906125f0565b61149990612898565b905060006114a685612898565b905081811115610deb57610de5848460046110bf565b60006114c7826115f7565b6114d357506000919050565b60006114de83612898565b905060006114ec8483611fae565b905060006114fb836020612a60565b905060005b828110156115545760006115148784612014565b90506001600160a01b0319811615611533575060009695505050505050565b61153e602084612a60565b925050808061154c906126df565b915050611500565b50600195945050505050565b600061156b826115f7565b61157757506000919050565b600061158283612898565b905060006115908483611fae565b9050600061159f836020612a60565b905060005b828110156115545760006115b88784612014565b90506001600160e01b038116156115d6575060009695505050505050565b6115e1602084612a60565b92505080806115ef906126df565b9150506115a4565b8051600090602081101561160e5750600092915050565b600061161984612898565b90508082101561162d575060009392505050565b60006116398583611fae565b9050611646816020612a78565b611651836020612a60565b61165b9190612a60565b83101561166d57506000949350505050565b506001949350505050565b6000805461168f906001600160a01b031684612071565b90508051600014806116a757506116a5816115f7565b155b156116b157505050565b6000818060200190518101906116c79190612a97565b905060008060005b83518110156117ca576116fa8482815181106116ed576116ed612724565b60200260200101516120fe565b925060005b86518110156117b7576000801b87828151811061171e5761171e612724565b60200260200101511415611731576117a5565b61173c846008612a78565b60001960001b901b92508287828151811061175957611759612724565b60200260200101511685838151811061177457611774612724565b602002602001015114156117a5576000801b87828151811061179857611798612724565b6020026020010181815250505b806117af816126df565b9150506116ff565b50806117c2816126df565b9150506116cf565b5060005b8551811015610df7576000801b8682815181106117ed576117ed612724565b60200260200101511461185b578686828151811061180d5761180d612724565b60209081029190910101516040517f3003e7ae0000000000000000000000000000000000000000000000000000000081526001600160a01b0390921660048301526024820152604401610460565b80611865816126df565b9150506117ce565b60008161187d5750611000919050565b600382141561188f5750612000919050565b60048214156118a15750614000919050565b919050565b6000816118b557506010919050565b60018214156118c657506080919050565b60028214156118d757506080919050565b60038214156118e857506020919050565b60048214156118a157506040919050565b60008054611910906001600160a01b031684612174565b90508051600014806119285750611926816114bc565b155b1561193257505050565b6000818060200190518101906119489190612b28565b905060005b81518110156119a25781818151811061196857611968612724565b60200260200101516001600160a01b0316846001600160a01b03161415611990575050505050565b8061199a816126df565b91505061194d565b506040517f2879b1280000000000000000000000000000000000000000000000000000000081526001600160a01b03808616600483015284166024820152604401610460565b600080546119ff906001600160a01b03168461219e565b9050805160001480611a175750611a1581611560565b155b15611a2157505050565b600081806020019051810190611a379190612bb7565b905060005b8151811015611a9857611a7a828281518110611a5a57611a5a612724565b6020026020010151856001600160a01b03166121c890919063ffffffff16565b15611a86575050505050565b80611a90816126df565b915050611a3c565b506040517f42013ee40000000000000000000000000000000000000000000000000000000081526001600160a01b03808616600483015284166024820152604401610460565b60008054611af5906001600160a01b0316846122a7565b9050805160001480611b0d5750611b0b81611560565b155b15611b1757505050565b600081806020019051810190611b2d9190612bb7565b905060005b8151811015611b8957818181518110611b4d57611b4d612724565b60200260200101516001600160e01b031916846001600160e01b0319161415611b77575050505050565b80611b81816126df565b915050611b32565b506040517f841351100000000000000000000000000000000000000000000000000000000081526001600160a01b03851660048201526001600160e01b031984166024820152604401610460565b60606001821415611c1b57505060408051808201909152601181527f5452414e534645524f574e455253484950000000000000000000000000000000602082015290565b6002821415611c5d57505060408051808201909152601181527f4348414e47455045524d495353494f4e53000000000000000000000000000000602082015290565b6004821415611c9f57505060408051808201909152600e81527f4144445045524d495353494f4e53000000000000000000000000000000000000602082015290565b6008821415611ce157505060408051808201909152600781527f5345544441544100000000000000000000000000000000000000000000000000602082015290565b6010821415611d2357505060408051808201909152600481527f43414c4c00000000000000000000000000000000000000000000000000000000602082015290565b6020821415611d6557505060408051808201909152600a81527f53544154494343414c4c00000000000000000000000000000000000000000000602082015290565b6040821415611da757505060408051808201909152600c81527f44454c454741544543414c4c0000000000000000000000000000000000000000602082015290565b6080821415611de957505060408051808201909152600681527f4445504c4f590000000000000000000000000000000000000000000000000000602082015290565b610100821415611e2c57505060408051808201909152600d81527f5452414e5346455256414c554500000000000000000000000000000000000000602082015290565b6102008214156118a157505060408051808201909152600481527f5349474e00000000000000000000000000000000000000000000000000000000602082015290565b6000807f7fffffffffffffffffffffffffffffff5d576e7357a4501ddfe92f46681b20a0831115611ea65750600090506003611f53565b8460ff16601b14158015611ebe57508460ff16601c14155b15611ecf5750600090506004611f53565b6040805160008082526020820180845289905260ff881692820192909252606081018690526080810185905260019060a0016020604051602081039080840390855afa158015611f23573d6000803e3d6000fd5b5050604051601f1901519150506001600160a01b038116611f4c57600060019250925050611f53565b9150600090505b94509492505050565b6000807f7fffffffffffffffffffffffffffffffffffffffffffffffffffffffffffffff831681611f9260ff86901c601b612a60565b9050611fa087828885611e6f565b935093505050935093915050565b6000611fbb826020612a60565b8351101561200b5760405162461bcd60e51b815260206004820152601560248201527f746f55696e743235365f6f75744f66426f756e647300000000000000000000006044820152606401610460565b50016020015190565b6000612021826020612a60565b8351101561200b5760405162461bcd60e51b815260206004820152601560248201527f746f427974657333325f6f75744f66426f756e647300000000000000000000006044820152606401610460565b60606001600160a01b0383166354f6127f61209b694b80742de2bf90b8b48560b01b85851b61133b565b6040518263ffffffff1660e01b81526004016120b991815260200190565b600060405180830381865afa1580156120d6573d6000803e3d6000fd5b505050506040513d6000823e601f3d908101601f191682016040526109e291908101906125f0565b6000601f5b82816020811061211557612115612724565b1a60f81b7fff000000000000000000000000000000000000000000000000000000000000001615801561214757508015155b1561215e578061215681612c46565b915050612103565b612169816001612a60565b6109e2906020612c5d565b60606001600160a01b0383166354f6127f61209b6912e01d0b78aff1b75acf60b21b85851b61133b565b60606001600160a01b0383166354f6127f61209b694b80742de2bf3efa94a360b01b85851b61133b565b604080516001600160e01b0319831660248083019190915282518083039091018152604490910182526020810180516001600160e01b03166301ffc9a760e01b179052905160009190829081906001600160a01b038716906175309061222f908690612c74565b6000604051808303818686fa925050503d806000811461226b576040519150601f19603f3d011682016040523d82523d6000602084013e612270565b606091505b509150915060208151101561228b5760009350505050610213565b81801561031f57508080602001905181019061031f9190612c90565b60606001600160a01b0383166354f6127f61209b6909700e85bc57f1dfd43d60b31b85851b61133b565b6001600160e01b03198116811461133857600080fd5b6000602082840312156122f957600080fd5b81356109e2816122d1565b60008083601f84011261231657600080fd5b50813567ffffffffffffffff81111561232e57600080fd5b60208301915083602082850101111561117657600080fd5b6000806020838503121561235957600080fd5b823567ffffffffffffffff81111561237057600080fd5b61237c85828601612304565b90969095509350505050565b60005b838110156123a357818101518382015260200161238b565b83811115610dfc5750506000910152565b600081518084526123cc816020860160208601612388565b601f01601f19169290920160200192915050565b6020815260006109e260208301846123b4565b634e487b7160e01b600052604160045260246000fd5b604051601f8201601f1916810167ffffffffffffffff81118282101715612432576124326123f3565b604052919050565b600067ffffffffffffffff821115612454576124546123f3565b50601f01601f191660200190565b600082601f83011261247357600080fd5b81356124866124818261243a565b612409565b81815284602083860101111561249b57600080fd5b816020850160208301376000918101602001919091529392505050565b600080604083850312156124cb57600080fd5b82359150602083013567ffffffffffffffff8111156124e957600080fd5b6124f585828601612462565b9150509250929050565b6001600160a01b038116811461133857600080fd5b6000806040838503121561252757600080fd5b8235612532816124ff565b946020939093013593505050565b6000806000806060858703121561255657600080fd5b843567ffffffffffffffff8082111561256e57600080fd5b61257a88838901612462565b955060208701359450604087013591508082111561259757600080fd5b506125a487828801612304565b95989497509550505050565b8183823760009101908152919050565b6001600160e01b031981358181169160048510156125e85780818660040360031b1b83161692505b505092915050565b60006020828403121561260257600080fd5b815167ffffffffffffffff81111561261957600080fd5b8201601f8101841361262a57600080fd5b80516126386124818261243a565b81815285602083850101111561264d57600080fd5b61265e826020830160208601612388565b95945050505050565b8581526bffffffffffffffffffffffff198560601b1660208201528360348201528183605483013760009101605401908152949350505050565b6001600160a01b038416815282602082015260606040820152600061265e60608301846123b4565b634e487b7160e01b600052601160045260246000fd5b60006000198214156126f3576126f36126c9565b5060010190565b6000808585111561270a57600080fd5b8386111561271757600080fd5b5050820193919092039150565b634e487b7160e01b600052603260045260246000fd5b600067ffffffffffffffff821115612754576127546123f3565b5060051b60200190565b600082601f83011261276f57600080fd5b8135602061277f6124818361273a565b82815260059290921b8401810191818101908684111561279e57600080fd5b8286015b848110156127de57803567ffffffffffffffff8111156127c25760008081fd5b6127d08986838b0101612462565b8452509183019183016127a2565b509695505050505050565b600080604083850312156127fc57600080fd5b823567ffffffffffffffff8082111561281457600080fd5b818501915085601f83011261282857600080fd5b813560206128386124818361273a565b82815260059290921b8401810191818101908984111561285757600080fd5b948201945b838610156128755785358252948201949082019061285c565b9650508601359250508082111561288b57600080fd5b506124f58582860161275e565b805160208083015191908110156128b9576000198160200360031b1b821691505b50919050565b6000826128dc57634e487b7160e01b600052601260045260246000fd5b500690565b6040815260006128f460408301846123b4565b8281036020840152600781527f616464726573730000000000000000000000000000000000000000000000000060208201526040810191505092915050565b60408152600061294660408301846123b4565b8281036020840152600681527f627974657334000000000000000000000000000000000000000000000000000060208201526040810191505092915050565b60408152600061299860408301846123b4565b8281036020840152600781527f627974657333320000000000000000000000000000000000000000000000000060208201526040810191505092915050565b8035602083101561021357600019602084900360031b1b1692915050565b6bffffffffffffffffffffffff1981358181169160148510156125e85760149490940360031b84901b1690921692915050565b6001600160a01b038316815260406020820152600061037860408301846123b4565b634e487b7160e01b600052602160045260246000fd5b60008219821115612a7357612a736126c9565b500190565b6000816000190483118215151615612a9257612a926126c9565b500290565b60006020808385031215612aaa57600080fd5b825167ffffffffffffffff811115612ac157600080fd5b8301601f81018513612ad257600080fd5b8051612ae06124818261273a565b81815260059190911b82018301908381019087831115612aff57600080fd5b928401925b82841015612b1d57835182529284019290840190612b04565b979650505050505050565b60006020808385031215612b3b57600080fd5b825167ffffffffffffffff811115612b5257600080fd5b8301601f81018513612b6357600080fd5b8051612b716124818261273a565b81815260059190911b82018301908381019087831115612b9057600080fd5b928401925b82841015612b1d578351612ba8816124ff565b82529284019290840190612b95565b60006020808385031215612bca57600080fd5b825167ffffffffffffffff811115612be157600080fd5b8301601f81018513612bf257600080fd5b8051612c006124818261273a565b81815260059190911b82018301908381019087831115612c1f57600080fd5b928401925b82841015612b1d578351612c37816122d1565b82529284019290840190612c24565b600081612c5557612c556126c9565b506000190190565b600082821015612c6f57612c6f6126c9565b500390565b60008251612c86818460208701612388565b9190910192915050565b600060208284031215612ca257600080fd5b815180151581146109e257600080fdfe4c5350363a20556e6b6e6f77204572726f72206f636375726564207768656e2063616c6c696e6720746865206c696e6b65642074617267657420636f6e7472616374a2646970667358221220b529bb60b3181b871bd8f1ba484268810bed4ca97653de2a02b31877654cb85164736f6c634300080a0033",
  "linkReferences": {},
  "deployedLinkReferences": {}
}